{
  "_format": "hh-sol-artifact-1",
  "contractName": "Factory",
  "sourceName": "contracts/Factory.sol",
  "abi": [
    {
      "anonymous": false,
      "inputs": [
        {
          "indexed": true,
          "internalType": "bytes32",
          "name": "role",
          "type": "bytes32"
        },
        {
          "indexed": true,
          "internalType": "bytes32",
          "name": "previousAdminRole",
          "type": "bytes32"
        },
        {
          "indexed": true,
          "internalType": "bytes32",
          "name": "newAdminRole",
          "type": "bytes32"
        }
      ],
      "name": "RoleAdminChanged",
      "type": "event"
    },
    {
      "anonymous": false,
      "inputs": [
        {
          "indexed": true,
          "internalType": "bytes32",
          "name": "role",
          "type": "bytes32"
        },
        {
          "indexed": true,
          "internalType": "address",
          "name": "account",
          "type": "address"
        },
        {
          "indexed": true,
          "internalType": "address",
          "name": "sender",
          "type": "address"
        }
      ],
      "name": "RoleGranted",
      "type": "event"
    },
    {
      "anonymous": false,
      "inputs": [
        {
          "indexed": true,
          "internalType": "bytes32",
          "name": "role",
          "type": "bytes32"
        },
        {
          "indexed": true,
          "internalType": "address",
          "name": "account",
          "type": "address"
        },
        {
          "indexed": true,
          "internalType": "address",
          "name": "sender",
          "type": "address"
        }
      ],
      "name": "RoleRevoked",
      "type": "event"
    },
    {
      "inputs": [],
      "name": "DEFAULT_ADMIN_ROLE",
      "outputs": [
        {
          "internalType": "bytes32",
          "name": "",
          "type": "bytes32"
        }
      ],
      "stateMutability": "view",
      "type": "function"
    },
    {
      "inputs": [],
      "name": "INVITE_FEE",
      "outputs": [
        {
          "internalType": "uint256",
          "name": "",
          "type": "uint256"
        }
      ],
      "stateMutability": "view",
      "type": "function"
    },
    {
      "inputs": [],
      "name": "TOKEN_ROLE",
      "outputs": [
        {
          "internalType": "bytes32",
          "name": "",
          "type": "bytes32"
        }
      ],
      "stateMutability": "view",
      "type": "function"
    },
    {
      "inputs": [
        {
          "internalType": "uint256",
          "name": "",
          "type": "uint256"
        }
      ],
      "name": "claimed",
      "outputs": [
        {
          "internalType": "bool",
          "name": "",
          "type": "bool"
        }
      ],
      "stateMutability": "view",
      "type": "function"
    },
    {
      "inputs": [],
      "name": "count",
      "outputs": [
        {
          "internalType": "uint256",
          "name": "",
          "type": "uint256"
        }
      ],
      "stateMutability": "view",
      "type": "function"
    },
    {
      "inputs": [
        {
          "internalType": "enum Factory.Provider",
          "name": "provider",
          "type": "uint8"
        },
        {
          "internalType": "string",
          "name": "profile",
          "type": "string"
        }
      ],
      "name": "createContract",
      "outputs": [],
      "stateMutability": "nonpayable",
      "type": "function"
    },
    {
      "inputs": [
        {
          "internalType": "address",
          "name": "",
          "type": "address"
        }
      ],
      "name": "deployedAccounts",
      "outputs": [
        {
          "internalType": "string",
          "name": "profile",
          "type": "string"
        },
        {
          "internalType": "enum Factory.Provider",
          "name": "provider",
          "type": "uint8"
        }
      ],
      "stateMutability": "view",
      "type": "function"
    },
    {
      "inputs": [
        {
          "internalType": "uint256",
          "name": "",
          "type": "uint256"
        }
      ],
      "name": "deployedContract",
      "outputs": [
        {
          "internalType": "address",
          "name": "",
          "type": "address"
        }
      ],
      "stateMutability": "view",
      "type": "function"
    },
    {
      "inputs": [
        {
          "internalType": "uint256",
          "name": "",
          "type": "uint256"
        }
      ],
      "name": "deployedContracts",
      "outputs": [
        {
          "internalType": "address",
          "name": "",
          "type": "address"
        }
      ],
      "stateMutability": "view",
      "type": "function"
    },
    {
      "inputs": [
        {
          "internalType": "enum Factory.Provider",
          "name": "",
          "type": "uint8"
        },
        {
          "internalType": "string",
          "name": "",
          "type": "string"
        }
      ],
      "name": "deployedProfiles",
      "outputs": [
        {
          "internalType": "bool",
          "name": "",
          "type": "bool"
        }
      ],
      "stateMutability": "view",
      "type": "function"
    },
    {
      "inputs": [
        {
          "internalType": "string",
          "name": "json",
          "type": "string"
        },
        {
          "internalType": "string",
          "name": "key",
          "type": "string"
        }
      ],
      "name": "extractValue",
      "outputs": [
        {
          "internalType": "string",
          "name": "",
          "type": "string"
        }
      ],
      "stateMutability": "pure",
      "type": "function"
    },
    {
      "inputs": [
        {
          "internalType": "uint256",
          "name": "tokenId",
          "type": "uint256"
        }
      ],
      "name": "getDeployedContractByTokenId",
      "outputs": [
        {
          "components": [
            {
              "internalType": "address",
              "name": "contractAddress",
              "type": "address"
            },
            {
              "internalType": "string",
              "name": "profile",
              "type": "string"
            },
            {
              "internalType": "enum Factory.Provider",
              "name": "provider",
              "type": "uint8"
            },
            {
              "internalType": "uint256",
              "name": "id",
              "type": "uint256"
            },
            {
              "internalType": "address",
              "name": "inviter",
              "type": "address"
            },
            {
              "internalType": "uint256",
              "name": "totalSupply",
              "type": "uint256"
            },
            {
              "internalType": "uint256",
              "name": "fee",
              "type": "uint256"
            },
            {
              "internalType": "bool",
              "name": "claimed",
              "type": "bool"
            },
            {
              "internalType": "address",
              "name": "profileOwner",
              "type": "address"
            }
          ],
          "internalType": "struct Factory.DeployedContract",
          "name": "",
          "type": "tuple"
        }
      ],
      "stateMutability": "view",
      "type": "function"
    },
    {
      "inputs": [],
      "name": "getDeployedContracts",
      "outputs": [
        {
          "components": [
            {
              "internalType": "address",
              "name": "contractAddress",
              "type": "address"
            },
            {
              "internalType": "string",
              "name": "profile",
              "type": "string"
            },
            {
              "internalType": "enum Factory.Provider",
              "name": "provider",
              "type": "uint8"
            },
            {
              "internalType": "uint256",
              "name": "id",
              "type": "uint256"
            },
            {
              "internalType": "address",
              "name": "inviter",
              "type": "address"
            },
            {
              "internalType": "uint256",
              "name": "totalSupply",
              "type": "uint256"
            },
            {
              "internalType": "uint256",
              "name": "fee",
              "type": "uint256"
            },
            {
              "internalType": "bool",
              "name": "claimed",
              "type": "bool"
            },
            {
              "internalType": "address",
              "name": "profileOwner",
              "type": "address"
            }
          ],
          "internalType": "struct Factory.DeployedContract[]",
          "name": "",
          "type": "tuple[]"
        }
      ],
      "stateMutability": "view",
      "type": "function"
    },
    {
      "inputs": [
        {
          "internalType": "address",
          "name": "user",
          "type": "address"
        }
      ],
      "name": "getDeployedContractsByInviter",
      "outputs": [
        {
          "components": [
            {
              "internalType": "address",
              "name": "contractAddress",
              "type": "address"
            },
            {
              "internalType": "string",
              "name": "profile",
              "type": "string"
            },
            {
              "internalType": "enum Factory.Provider",
              "name": "provider",
              "type": "uint8"
            },
            {
              "internalType": "uint256",
              "name": "id",
              "type": "uint256"
            },
            {
              "internalType": "address",
              "name": "inviter",
              "type": "address"
            },
            {
              "internalType": "uint256",
              "name": "totalSupply",
              "type": "uint256"
            },
            {
              "internalType": "uint256",
              "name": "fee",
              "type": "uint256"
            },
            {
              "internalType": "bool",
              "name": "claimed",
              "type": "bool"
            },
            {
              "internalType": "address",
              "name": "profileOwner",
              "type": "address"
            }
          ],
          "internalType": "struct Factory.DeployedContract[]",
          "name": "",
          "type": "tuple[]"
        }
      ],
      "stateMutability": "view",
      "type": "function"
    },
    {
      "inputs": [
        {
          "internalType": "address",
          "name": "user",
          "type": "address"
        }
      ],
      "name": "getPoints",
      "outputs": [
        {
          "internalType": "uint256",
          "name": "",
          "type": "uint256"
        }
      ],
      "stateMutability": "view",
      "type": "function"
    },
    {
      "inputs": [
        {
          "internalType": "bytes32",
          "name": "role",
          "type": "bytes32"
        }
      ],
      "name": "getRoleAdmin",
      "outputs": [
        {
          "internalType": "bytes32",
          "name": "",
          "type": "bytes32"
        }
      ],
      "stateMutability": "view",
      "type": "function"
    },
    {
      "inputs": [
        {
          "internalType": "bytes32",
          "name": "role",
          "type": "bytes32"
        },
        {
          "internalType": "address",
          "name": "account",
          "type": "address"
        }
      ],
      "name": "grantRole",
      "outputs": [],
      "stateMutability": "nonpayable",
      "type": "function"
    },
    {
      "inputs": [
        {
          "internalType": "bytes32",
          "name": "role",
          "type": "bytes32"
        },
        {
          "internalType": "address",
          "name": "account",
          "type": "address"
        }
      ],
      "name": "hasRole",
      "outputs": [
        {
          "internalType": "bool",
          "name": "",
          "type": "bool"
        }
      ],
      "stateMutability": "view",
      "type": "function"
    },
    {
      "inputs": [
        {
          "internalType": "address",
          "name": "",
          "type": "address"
        }
      ],
      "name": "inviteCounts",
      "outputs": [
        {
          "internalType": "uint256",
          "name": "",
          "type": "uint256"
        }
      ],
      "stateMutability": "view",
      "type": "function"
    },
    {
      "inputs": [
        {
          "internalType": "enum Factory.Provider",
          "name": "",
          "type": "uint8"
        },
        {
          "internalType": "string",
          "name": "",
          "type": "string"
        }
      ],
      "name": "inviters",
      "outputs": [
        {
          "internalType": "address",
          "name": "",
          "type": "address"
        }
      ],
      "stateMutability": "view",
      "type": "function"
    },
    {
      "inputs": [
        {
          "internalType": "address",
          "name": "",
          "type": "address"
        },
        {
          "internalType": "uint256",
          "name": "",
          "type": "uint256"
        }
      ],
      "name": "invites",
      "outputs": [
        {
          "internalType": "uint256",
          "name": "",
          "type": "uint256"
        }
      ],
      "stateMutability": "view",
      "type": "function"
    },
    {
      "inputs": [
        {
          "internalType": "enum Factory.Provider",
          "name": "provider",
          "type": "uint8"
        },
        {
          "internalType": "string",
          "name": "profile",
          "type": "string"
        }
      ],
      "name": "isCreated",
      "outputs": [
        {
          "internalType": "bool",
          "name": "",
          "type": "bool"
        }
      ],
      "stateMutability": "view",
      "type": "function"
    },
    {
      "inputs": [
        {
          "internalType": "string",
          "name": "data",
          "type": "string"
        },
        {
          "internalType": "string",
          "name": "target",
          "type": "string"
        }
      ],
      "name": "isMatch",
      "outputs": [
        {
          "internalType": "bool",
          "name": "",
          "type": "bool"
        }
      ],
      "stateMutability": "pure",
      "type": "function"
    },
    {
      "inputs": [
        {
          "internalType": "uint256",
          "name": "tokenId",
          "type": "uint256"
        },
        {
          "internalType": "address",
          "name": "tokenOwnerAddress",
          "type": "address"
        }
      ],
      "name": "onClaimed",
      "outputs": [],
      "stateMutability": "nonpayable",
      "type": "function"
    },
    {
      "inputs": [
        {
          "internalType": "uint256",
          "name": "tokenId",
          "type": "uint256"
        },
        {
          "internalType": "uint256",
          "name": "fee",
          "type": "uint256"
        }
      ],
      "name": "onFeeCollected",
      "outputs": [],
      "stateMutability": "nonpayable",
      "type": "function"
    },
    {
      "inputs": [
        {
          "internalType": "uint256",
          "name": "tokenId",
          "type": "uint256"
        },
        {
          "internalType": "uint256",
          "name": "totalSupply",
          "type": "uint256"
        }
      ],
      "name": "onTokensChange",
      "outputs": [],
      "stateMutability": "nonpayable",
      "type": "function"
    },
    {
      "inputs": [
        {
          "internalType": "address",
          "name": "",
          "type": "address"
        }
      ],
      "name": "points",
      "outputs": [
        {
          "internalType": "uint256",
          "name": "",
          "type": "uint256"
        }
      ],
      "stateMutability": "view",
      "type": "function"
    },
    {
      "inputs": [
        {
          "internalType": "uint256",
          "name": "",
          "type": "uint256"
        }
      ],
      "name": "profileFee",
      "outputs": [
        {
          "internalType": "uint256",
          "name": "",
          "type": "uint256"
        }
      ],
      "stateMutability": "view",
      "type": "function"
    },
    {
      "inputs": [
        {
          "internalType": "bytes32",
          "name": "role",
          "type": "bytes32"
        },
        {
          "internalType": "address",
          "name": "account",
          "type": "address"
        }
      ],
      "name": "renounceRole",
      "outputs": [],
      "stateMutability": "nonpayable",
      "type": "function"
    },
    {
      "inputs": [
        {
          "internalType": "bytes32",
          "name": "role",
          "type": "bytes32"
        },
        {
          "internalType": "address",
          "name": "account",
          "type": "address"
        }
      ],
      "name": "revokeRole",
      "outputs": [],
      "stateMutability": "nonpayable",
      "type": "function"
    },
    {
      "inputs": [
        {
          "internalType": "bytes4",
          "name": "interfaceId",
          "type": "bytes4"
        }
      ],
      "name": "supportsInterface",
      "outputs": [
        {
          "internalType": "bool",
          "name": "",
          "type": "bool"
        }
      ],
      "stateMutability": "view",
      "type": "function"
    },
    {
      "inputs": [
        {
          "internalType": "address",
          "name": "",
          "type": "address"
        }
      ],
      "name": "tokenInviter",
      "outputs": [
        {
          "internalType": "address",
          "name": "",
          "type": "address"
        }
      ],
      "stateMutability": "view",
      "type": "function"
    },
    {
      "inputs": [
        {
          "internalType": "uint256",
          "name": "",
          "type": "uint256"
        }
      ],
      "name": "tokenProfileOwner",
      "outputs": [
        {
          "internalType": "address",
          "name": "",
          "type": "address"
        }
      ],
      "stateMutability": "view",
      "type": "function"
    },
    {
      "inputs": [
        {
          "internalType": "uint256",
          "name": "",
          "type": "uint256"
        }
      ],
      "name": "tokensSupply",
      "outputs": [
        {
          "internalType": "uint256",
          "name": "",
          "type": "uint256"
        }
      ],
      "stateMutability": "view",
      "type": "function"
    }
  ],
  "bytecode": "0x6080604052600060025566038d7ea4c68000600f55348015601f57600080fd5b50614cfc8061002f6000396000f3fe608060405234801561001057600080fd5b50600436106102065760003560e01c806391d148541161011a578063d547741f116100ad578063dcb65b711161007c578063dcb65b7114610556578063de2dd22114610576578063ee204abb14610596578063efed5070146105bf578063f2b2a743146105d257600080fd5b8063d547741f146104ed578063d7615fef14610500578063d7e12e2414610513578063dbe7e3bd1461053357600080fd5b8063a217fddf116100e9578063a217fddf14610459578063a2ec8b3314610461578063aa9a068f146104a6578063cfef8b31146104ae57600080fd5b806391d14854146103e95780639697d188146103fc5780639acf34241461041d5780639ad1ee101461044657600080fd5b8063358b81661161019d5780635b93443e1161016c5780635b93443e1461037b578063680056151461038e5780637749642e146103a15780638301057b146103c157806386e46e5e146103d657600080fd5b8063358b81661461030857806336568abe14610328578063481c46d11461033b57806352fb4fa81461035b57600080fd5b8063248a9ca3116101d9578063248a9ca31461029e5780632c313046146102c15780632f2ff15d146102ca5780633383e795146102df57600080fd5b806301ffc9a71461020b57806306661abd146102335780631e285caa1461024a57806323628b571461028b575b600080fd5b61021e610219366004611cd6565b6105e5565b60405190151581526020015b60405180910390f35b61023c60025481565b60405190815260200161022a565b610273610258366004611d00565b6003602052600090815260409020546001600160a01b031681565b6040516001600160a01b03909116815260200161022a565b61023c610299366004611d35565b61061c565b61023c6102ac366004611d00565b60009081526020819052604090206001015490565b61023c600f5481565b6102dd6102d8366004611d5f565b61064d565b005b6102736102ed366004611d8b565b6007602052600090815260409020546001600160a01b031681565b61023c610316366004611d8b565b60086020526000908152604090205481565b6102dd610336366004611d5f565b610677565b61034e610349366004611d8b565b6106fa565b60405161022a9190611ed6565b61036e610369366004611fe0565b610aa1565b60405161022a9190612049565b6102dd61038936600461205c565b610c1c565b61021e61039c36600461205c565b610f9b565b61023c6103af366004611d00565b600c6020526000908152604090205481565b61023c600080516020614ca783398151915281565b61021e6103e4366004611fe0565b610ffb565b61021e6103f7366004611d5f565b61109d565b61040f61040a366004611d8b565b6110c6565b60405161022a92919061209a565b61027361042b366004611d00565b600e602052600090815260409020546001600160a01b031681565b610273610454366004611d00565b61116d565b61023c600081565b61027361046f36600461205c565b600660209081526000928352604090922081518083018401805192815290840192909301919091209152546001600160a01b031681565b61034e611197565b61021e6104bc36600461205c565b6005602090815260009283526040909220815180830184018051928152908401929093019190912091525460ff1681565b6102dd6104fb366004611d5f565b6113ea565b6102dd61050e366004611d5f565b61140f565b61023c610521366004611d00565b600b6020526000908152604090205481565b61021e610541366004611d00565b600d6020526000908152604090205460ff1681565b610569610564366004611d00565b611488565b60405161022a91906120bc565b61023c610584366004611d8b565b60096020526000908152604090205481565b61023c6105a4366004611d8b565b6001600160a01b031660009081526008602052604090205490565b6102dd6105cd3660046120cf565b611655565b6102dd6105e03660046120cf565b6116b0565b60006001600160e01b03198216637965db0b60e01b148061061657506301ffc9a760e01b6001600160e01b03198316145b92915050565b600a602052816000526040600020818154811061063857600080fd5b90600052602060002001600091509150505481565b600082815260208190526040902060010154610668816116f6565b6106728383611703565b505050565b6001600160a01b03811633146106ec5760405162461bcd60e51b815260206004820152602f60248201527f416363657373436f6e74726f6c3a2063616e206f6e6c792072656e6f756e636560448201526e103937b632b9903337b91039b2b63360891b60648201526084015b60405180910390fd5b6106f68282611787565b5050565b6001600160a01b0381166000908152600a6020908152604080832080548251818502810185019093528083526060949383018282801561075957602002820191906000526020600020905b815481526020019060010190808311610745575b505050505090506000815167ffffffffffffffff81111561077c5761077c611f3b565b6040519080825280602002602001820160405280156107b557816020015b6107a2611c7d565b81526020019060019003908161079a5790505b50905060005b8251811015610a9957600060018483815181106107da576107da6120f1565b6020026020010151815481106107f2576107f26120f1565b60009182526020808320909101546001600160a01b0316808352600490915260408083208151808301909252805492945090918290829061083290612107565b80601f016020809104026020016040519081016040528092919081815260200182805461085e90612107565b80156108ab5780601f10610880576101008083540402835291602001916108ab565b820191906000526020600020905b81548152906001019060200180831161088e57829003601f168201915b5050509183525050600182015460209091019060ff1660038111156108d2576108d2611df6565b60038111156108e3576108e3611df6565b815250509050604051806101200160405280836001600160a01b03168152602001826000015181526020018260200151600381111561092457610924611df6565b815260200186858151811061093b5761093b6120f1565b6020026020010151815260200160076000856001600160a01b03166001600160a01b0316815260200190815260200160002060009054906101000a90046001600160a01b03166001600160a01b03168152602001600c60008887815181106109a5576109a56120f1565b60200260200101518152602001908152602001600020548152602001600b60008887815181106109d7576109d76120f1565b60200260200101518152602001908152602001600020548152602001600d6000888781518110610a0957610a096120f1565b6020026020010151815260200190815260200160002060009054906101000a900460ff1615158152602001600e6000888781518110610a4a57610a4a6120f1565b6020908102919091018101518252810191909152604001600020546001600160a01b031690528451859085908110610a8457610a846120f1565b602090810291909101015250506001016107bb565b509392505050565b60606000839050600083604051602001610abb919061213b565b604051602081830303815290604052905060005b81518351610add9190612188565b8111610be357600160005b8351811015610b5257838181518110610b0357610b036120f1565b01602001516001600160f81b03191685610b1d838661219b565b81518110610b2d57610b2d6120f1565b01602001516001600160f81b03191614610b4a5760009150610b52565b600101610ae8565b508015610bd0576000835183610b68919061219b565b9050805b855181108015610ba15750858181518110610b8957610b896120f1565b6020910101516001600160f81b031916601160f91b14155b15610bb85780610bb0816121ae565b915050610b6c565b610bc38683836117ec565b9650505050505050610616565b5080610bdb816121ae565b915050610acf565b5060405162461bcd60e51b815260206004820152600d60248201526c12d95e481b9bdd08199bdd5b99609a1b60448201526064016106e3565b60056000836003811115610c3257610c32611df6565b6003811115610c4357610c43611df6565b815260200190815260200160002081604051610c5f91906121c7565b9081526040519081900360200190205460ff1615610cd25760405162461bcd60e51b815260206004820152602a60248201527f436f6e747261637420666f7220746869732070726f66696c6520616c726561646044820152691e4819195c1b1bde595960b21b60648201526084016106e3565b6000610cdf60025461190b565b604051602001610cef91906121e3565b6040516020818303038152906040529050600030600254838686604051610d1590611cc9565b610d2395949392919061220d565b604051809103906000f080158015610d3f573d6000803e3d6000fd5b509050610d5a600080516020614ca783398151915282611703565b6040518060400160405280848152602001856003811115610d7d57610d7d611df6565b90526001600160a01b038216600090815260046020526040902081518190610da590826122cc565b50602082015160018083018054909160ff1990911690836003811115610dcd57610dcd611df6565b021790555050600180548082019091557fb10e2d527612073b26eecdfd717e6a320cf44b4afac2b0732d9fcbe2b7fa0cf60180546001600160a01b0319166001600160a01b03841617905550336000908152600860205260408120805460c89290610e3990849061219b565b9091555033905060066000866003811115610e5657610e56611df6565b6003811115610e6757610e67611df6565b815260200190815260200160002084604051610e8391906121c7565b908152604080516020928190038301902080546001600160a01b0319166001600160a01b0394909416939093179092553360009081526009909152908120805491610ecd836121ae565b9190505550600160056000866003811115610eea57610eea611df6565b6003811115610efb57610efb611df6565b815260200190815260200160002084604051610f1791906121c7565b9081526040805160209281900383019020805460ff1916931515939093179092556001600160a01b0383166000908152600782528281208054336001600160a01b031990911681179091558152600a825291822060028054825460018101845592855292842090910191909155805491610f90836121ae565b919050555050505050565b600060056000846003811115610fb357610fb3611df6565b6003811115610fc457610fc4611df6565b815260200190815260200160002082604051610fe091906121c7565b9081526040519081900360200190205460ff16905092915050565b80518251600091849184911461101657600092505050610616565b6000805b825181101561109057828181518110611035576110356120f1565b602001015160f81c60f81b6001600160f81b03191684838151811061105c5761105c6120f1565b01602001516001600160f81b0319161461107d576000945050505050610616565b611086826121ae565b915060010161101a565b5060019695505050505050565b6000918252602082815260408084206001600160a01b0393909316845291905290205460ff1690565b6004602052600090815260409020805481906110e190612107565b80601f016020809104026020016040519081016040528092919081815260200182805461110d90612107565b801561115a5780601f1061112f5761010080835404028352916020019161115a565b820191906000526020600020905b81548152906001019060200180831161113d57829003601f168201915b5050506001909301549192505060ff1682565b6001818154811061117d57600080fd5b6000918252602090912001546001600160a01b0316905081565b60015460609060009067ffffffffffffffff8111156111b8576111b8611f3b565b6040519080825280602002602001820160405280156111f157816020015b6111de611c7d565b8152602001906001900390816111d65790505b50905060005b6001548110156113e457600060018281548110611216576112166120f1565b60009182526020808320909101546001600160a01b0316808352600490915260408083208151808301909252805492945090918290829061125690612107565b80601f016020809104026020016040519081016040528092919081815260200182805461128290612107565b80156112cf5780601f106112a4576101008083540402835291602001916112cf565b820191906000526020600020905b8154815290600101906020018083116112b257829003601f168201915b5050509183525050600182015460209091019060ff1660038111156112f6576112f6611df6565b600381111561130757611307611df6565b815250509050604051806101200160405280836001600160a01b03168152602001826000015181526020018260200151600381111561134857611348611df6565b815260208082018690526001600160a01b03808616600090815260078352604080822054831681860152888252600c8452808220546060860152888252600b8452808220546080860152888252600d84528082205460ff16151560a0860152888252600e90935291909120541660c09091015284518590859081106113cf576113cf6120f1565b602090810291909101015250506001016111f7565b50919050565b600082815260208190526040902060010154611405816116f6565b6106728383611787565b611427600080516020614ca78339815191523361109d565b6114435760405162461bcd60e51b81526004016106e39061238b565b6000918252600d60209081526040808420805460ff19166001179055600e90915290912080546001600160a01b039092166001600160a01b0319909216919091179055565b611490611c7d565b6000600183815481106114a5576114a56120f1565b60009182526020808320909101546001600160a01b031680835260049091526040808320815180830190925280549294509091829082906114e590612107565b80601f016020809104026020016040519081016040528092919081815260200182805461151190612107565b801561155e5780601f106115335761010080835404028352916020019161155e565b820191906000526020600020905b81548152906001019060200180831161154157829003601f168201915b5050509183525050600182015460209091019060ff16600381111561158557611585611df6565b600381111561159657611596611df6565b815250509050604051806101200160405280836001600160a01b0316815260200182600001518152602001826020015160038111156115d7576115d7611df6565b815260208082018790526001600160a01b03948516600090815260078252604080822054871681850152888252600c8352808220546060850152888252600b8352808220546080850152888252600d83528082205460ff16151560a0850152978152600e909152959095205490921660c09094019390935292915050565b61166d600080516020614ca78339815191523361109d565b6116895760405162461bcd60e51b81526004016106e39061238b565b6000828152600b6020526040812080548392906116a790849061219b565b90915550505050565b6116c8600080516020614ca78339815191523361109d565b6116e45760405162461bcd60e51b81526004016106e39061238b565b6000918252600c602052604090912055565b611700813361199e565b50565b61170d828261109d565b6106f6576000828152602081815260408083206001600160a01b03851684529091529020805460ff191660011790556117433390565b6001600160a01b0316816001600160a01b0316837f2f8788117e7eff1d82e926ec794901d17c78024a50270940304540a733656f0d60405160405180910390a45050565b611791828261109d565b156106f6576000828152602081815260408083206001600160a01b0385168085529252808320805460ff1916905551339285917ff6391f5c32d9c69d2a47ea670b442974b53935d1edc7fd64eb21e047a839171b9190a45050565b606081831080156117fe575083518211155b61184a5760405162461bcd60e51b815260206004820152601960248201527f496e76616c696420737562737472696e6720696e64696365730000000000000060448201526064016106e3565b60006118568484612188565b67ffffffffffffffff81111561186e5761186e611f3b565b6040519080825280601f01601f191660200182016040528015611898576020820181803683370190505b509050835b83811015611900578581815181106118b7576118b76120f1565b01602001516001600160f81b031916826118d18784612188565b815181106118e1576118e16120f1565b60200101906001600160f81b031916908160001a90535060010161189d565b5090505b9392505050565b60606000611918836119f7565b600101905060008167ffffffffffffffff81111561193857611938611f3b565b6040519080825280601f01601f191660200182016040528015611962576020820181803683370190505b5090508181016020015b600019016f181899199a1a9b1b9c1cb0b131b232b360811b600a86061a8153600a850494508461196c57509392505050565b6119a8828261109d565b6106f6576119b581611acf565b6119c0836020611ae1565b6040516020016119d19291906123ba565b60408051601f198184030181529082905262461bcd60e51b82526106e391600401612049565b60008072184f03e93ff9f4daa797ed6e38ed64bf6a1f0160401b8310611a365772184f03e93ff9f4daa797ed6e38ed64bf6a1f0160401b830492506040015b6d04ee2d6d415b85acef81000000008310611a62576d04ee2d6d415b85acef8100000000830492506020015b662386f26fc100008310611a8057662386f26fc10000830492506010015b6305f5e1008310611a98576305f5e100830492506008015b6127108310611aac57612710830492506004015b60648310611abe576064830492506002015b600a83106106165760010192915050565b60606106166001600160a01b03831660145b60606000611af083600261242f565b611afb90600261219b565b67ffffffffffffffff811115611b1357611b13611f3b565b6040519080825280601f01601f191660200182016040528015611b3d576020820181803683370190505b509050600360fc1b81600081518110611b5857611b586120f1565b60200101906001600160f81b031916908160001a905350600f60fb1b81600181518110611b8757611b876120f1565b60200101906001600160f81b031916908160001a9053506000611bab84600261242f565b611bb690600161219b565b90505b6001811115611c2e576f181899199a1a9b1b9c1cb0b131b232b360811b85600f1660108110611bea57611bea6120f1565b1a60f81b828281518110611c0057611c006120f1565b60200101906001600160f81b031916908160001a90535060049490941c93611c2781612446565b9050611bb9565b5083156119045760405162461bcd60e51b815260206004820181905260248201527f537472696e67733a20686578206c656e67746820696e73756666696369656e7460448201526064016106e3565b60408051610120810182526000808252606060208301529091820190815260006020820181905260408201819052606082018190526080820181905260a0820181905260c09091015290565b6128498061245e83390190565b600060208284031215611ce857600080fd5b81356001600160e01b03198116811461190457600080fd5b600060208284031215611d1257600080fd5b5035919050565b80356001600160a01b0381168114611d3057600080fd5b919050565b60008060408385031215611d4857600080fd5b611d5183611d19565b946020939093013593505050565b60008060408385031215611d7257600080fd5b82359150611d8260208401611d19565b90509250929050565b600060208284031215611d9d57600080fd5b61190482611d19565b60005b83811015611dc1578181015183820152602001611da9565b50506000910152565b60008151808452611de2816020860160208601611da6565b601f01601f19169290920160200192915050565b634e487b7160e01b600052602160045260246000fd5b60048110611e2a57634e487b7160e01b600052602160045260246000fd5b9052565b80516001600160a01b03168252600060208201516101206020850152611e58610120850182611dca565b90506040830151611e6c6040860182611e0c565b50606083015160608501526080830151611e9160808601826001600160a01b03169052565b5060a083015160a085015260c083015160c085015260e0830151611eb960e086018215159052565b50610100830151610a996101008601826001600160a01b03169052565b6000602082016020835280845180835260408501915060408160051b86010192506020860160005b82811015611f2f57603f19878603018452611f1a858351611e2e565b94506020938401939190910190600101611efe565b50929695505050505050565b634e487b7160e01b600052604160045260246000fd5b600082601f830112611f6257600080fd5b813567ffffffffffffffff811115611f7c57611f7c611f3b565b604051601f8201601f19908116603f0116810167ffffffffffffffff81118282101715611fab57611fab611f3b565b604052818152838201602001851015611fc357600080fd5b816020850160208301376000918101602001919091529392505050565b60008060408385031215611ff357600080fd5b823567ffffffffffffffff81111561200a57600080fd5b61201685828601611f51565b925050602083013567ffffffffffffffff81111561203357600080fd5b61203f85828601611f51565b9150509250929050565b6020815260006119046020830184611dca565b6000806040838503121561206f57600080fd5b82356004811061207e57600080fd5b9150602083013567ffffffffffffffff81111561203357600080fd5b6040815260006120ad6040830185611dca565b90506119046020830184611e0c565b6020815260006119046020830184611e2e565b600080604083850312156120e257600080fd5b50508035926020909101359150565b634e487b7160e01b600052603260045260246000fd5b600181811c9082168061211b57607f821691505b6020821081036113e457634e487b7160e01b600052602260045260246000fd5b601160f91b81528151600090612158816001850160208701611da6565b62111d1160e91b6001939091019283015250600401919050565b634e487b7160e01b600052601160045260246000fd5b8181038181111561061657610616612172565b8082018082111561061657610616612172565b6000600182016121c0576121c0612172565b5060010190565b600082516121d9818460208701611da6565b9190910192915050565b61192160f11b815260008251612200816002850160208701611da6565b9190910160020192915050565b60018060a01b038616815284602082015260c06040820152600660c0820152650c90985cd95960d21b60e082015261010060608201526000612253610100830186611dca565b6122606080840186611e0c565b82810360a08401526122728185611dca565b98975050505050505050565b601f82111561067257806000526020600020601f840160051c810160208510156122a55750805b601f840160051c820191505b818110156122c557600081556001016122b1565b5050505050565b815167ffffffffffffffff8111156122e6576122e6611f3b565b6122fa816122f48454612107565b8461227e565b6020601f82116001811461232e57600083156123165750848201515b600019600385901b1c1916600184901b1784556122c5565b600084815260208120601f198516915b8281101561235e578785015182556020948501946001909201910161233e565b508482101561237c5786840151600019600387901b60f8161c191681555b50505050600190811b01905550565b60208082526015908201527421b0b63632b91034b9903737ba1030903a37b5b2b760591b604082015260600190565b7f416363657373436f6e74726f6c3a206163636f756e74200000000000000000008152600083516123f2816017850160208801611da6565b7001034b99036b4b9b9b4b733903937b6329607d1b6017918401918201528351612423816028840160208801611da6565b01602801949350505050565b808202811582820484141761061657610616612172565b60008161245557612455612172565b50600019019056fe6080604052620f42406008556103e86009819055600a556000600b55601180546001600160a01b03191673f90085f5fd1a3beb8678623409b3811ecec5f6a517905534801561004d57600080fd5b5060405161284938038061284983398101604081905261006c916103b2565b8383600361007a8382610508565b5060046100878282610508565b5050506100a061009b61028f60201b60201c565b610293565b600f859055600e80546001600160a01b0319166001600160a01b038816179055600c805483919060ff191660018360038111156100df576100df6105c6565b0217905550600d6100f08282610508565b505060408051808201825261012c81526509184e72a000602080830191825260068054600181810183556000838152955160029283027ff652222313e28459528d920b65115c16c04f3efc82aaedc97be59f3f377c0d3f8181019290925595517ff652222313e28459528d920b65115c16c04f3efc82aaedc97be59f3f377c0d4096870155875180890189526102588152655af3107a400081870190815285548085018755868a529151918502808401929092555190870155875180890189526103e8815266038d7ea4c6800081870190815285548085018755868a529151918502808401929092555190870155875180890189526127108152662386f26fc1000081870190815285548085018755868a52915191850280840192909255519087015587518089018952620186a0815267016345785d8a000081870190815285548085018755868a5291519185028084019290925551908701558751808901909852620f42408852670de0b6b3a76400009488019485528354918201845592909552945193909402938401929092559051910155506105dc9350505050565b3390565b600580546001600160a01b038381166001600160a01b0319831681179093556040519116919082907f8be0079c531659141344cd1fd0a4f28419497f9722a3daafe3b4186f6b6457e090600090a35050565b634e487b7160e01b600052604160045260246000fd5b600082601f83011261030c57600080fd5b81516001600160401b03811115610325576103256102e5565b604051601f8201601f19908116603f011681016001600160401b0381118282101715610353576103536102e5565b60405281815283820160200185101561036b57600080fd5b60005b8281101561038a5760208186018101518383018201520161036e565b506000918101602001919091529392505050565b8051600481106103ad57600080fd5b919050565b60008060008060008060c087890312156103cb57600080fd5b86516001600160a01b03811681146103e257600080fd5b6020880151604089015191975095506001600160401b0381111561040557600080fd5b61041189828a016102fb565b606089015190955090506001600160401b0381111561042f57600080fd5b61043b89828a016102fb565b93505061044a6080880161039e565b60a08801519092506001600160401b0381111561046657600080fd5b61047289828a016102fb565b9150509295509295509295565b600181811c9082168061049357607f821691505b6020821081036104b357634e487b7160e01b600052602260045260246000fd5b50919050565b601f82111561050357806000526020600020601f840160051c810160208510156104e05750805b601f840160051c820191505b8181101561050057600081556001016104ec565b50505b505050565b81516001600160401b03811115610521576105216102e5565b6105358161052f845461047f565b846104b9565b6020601f82116001811461056957600083156105515750848201515b600019600385901b1c1916600184901b178455610500565b600084815260208120601f198516915b828110156105995787850151825560209485019460019092019101610579565b50848210156105b75786840151600019600387901b60f8161c191681555b50505050600190811b01905550565b634e487b7160e01b600052602160045260246000fd5b61225e806105eb6000396000f3fe6080604052600436106101ee5760003560e01c806361d8acfb1161010d578063a3e67610116100a0578063d5abeb011161006f578063d5abeb0114610583578063dd62ed3e14610599578063e834a834146105b9578063f2fde38b146105da578063f72aa729146105fa57600080fd5b8063a3e676101461050e578063a457c2d71461052e578063a9059cbb1461054e578063ab60636c1461056e57600080fd5b80638a497c4c116100dc5780638a497c4c146104865780638b7a435a146104bb5780638da5cb5b146104db57806395d89b41146104f957600080fd5b806361d8acfb146104065780636c11bcd31461041b57806370a082311461043b578063715018a61461047157600080fd5b8063313ce567116101855780634483b1f5116101545780634483b1f51461036057806347062402146103985780634af18f4f146103ae57806360b71d4e146103f057600080fd5b8063313ce567146102fa5780633610724e14610316578063395093511461032b5780633ccfd60b1461034b57600080fd5b806318160ddd116101c157806318160ddd1461029957806323b872dd146102ae5780632b14ca56146102ce5780632e187a68146102e457600080fd5b806306fdde03146101f3578063085d48831461021e578063095ea7b31461024557806317d70f7c14610275575b600080fd5b3480156101ff57600080fd5b5061020861061a565b604051610215919061198c565b60405180910390f35b34801561022a57600080fd5b50600c546102389060ff1681565b60405161021591906119a6565b34801561025157600080fd5b506102656102603660046119ea565b6106ac565b6040519015158152602001610215565b34801561028157600080fd5b5061028b600f5481565b604051908152602001610215565b3480156102a557600080fd5b5060025461028b565b3480156102ba57600080fd5b506102656102c9366004611a14565b6106c6565b3480156102da57600080fd5b5061028b600a5481565b3480156102f057600080fd5b5061028b60075481565b34801561030657600080fd5b5060405160128152602001610215565b610329610324366004611a51565b6106ea565b005b34801561033757600080fd5b506102656103463660046119ea565b610917565b34801561035757600080fd5b50610329610939565b34801561036c57600080fd5b50601154610380906001600160a01b031681565b6040516001600160a01b039091168152602001610215565b3480156103a457600080fd5b5061028b60095481565b3480156103ba57600080fd5b506103ce6103c9366004611a51565b6109e5565b6040805182518152602080840151908201529181015190820152606001610215565b3480156103fc57600080fd5b5061028b600b5481565b34801561041257600080fd5b50610329610b99565b34801561042757600080fd5b50610329610436366004611a51565b610c7e565b34801561044757600080fd5b5061028b610456366004611a6a565b6001600160a01b031660009081526020819052604090205490565b34801561047d57600080fd5b50610329610d86565b34801561049257600080fd5b506104a66104a1366004611a51565b610d9a565b60408051928352602083019190915201610215565b3480156104c757600080fd5b506103296104d6366004611d28565b610dc8565b3480156104e757600080fd5b506005546001600160a01b0316610380565b34801561050557600080fd5b50610208611069565b34801561051a57600080fd5b50601054610380906001600160a01b031681565b34801561053a57600080fd5b506102656105493660046119ea565b611078565b34801561055a57600080fd5b506102656105693660046119ea565b6110f3565b34801561057a57600080fd5b50610208611101565b34801561058f57600080fd5b5061028b60085481565b3480156105a557600080fd5b5061028b6105b4366004611e4b565b61118f565b3480156105c557600080fd5b5060105461026590600160a01b900460ff1681565b3480156105e657600080fd5b506103296105f5366004611a6a565b6111ba565b34801561060657600080fd5b506103ce610615366004611a51565b611233565b60606003805461062990611e7e565b80601f016020809104026020016040519081016040528092919081815260200182805461065590611e7e565b80156106a25780601f10610677576101008083540402835291602001916106a2565b820191906000526020600020905b81548152906001019060200180831161068557829003601f168201915b5050505050905090565b6000336106ba81858561148f565b60019150505b92915050565b6000336106d48582856115b3565b6106df85858561162d565b506001949350505050565b6000811161073f5760405162461bcd60e51b815260206004820181905260248201527f416d6f756e74206d7573742062652067726561746572207468616e207a65726f60448201526064015b60405180910390fd5b600854816007546107509190611ece565b11156107975760405162461bcd60e51b815260206004820152601660248201527545786365656473206d6178696d756d20737570706c7960501b6044820152606401610736565b60006107a2826109e5565b905080604001513410156107f85760405162461bcd60e51b815260206004820152601760248201527f496e73756666696369656e742066756e64732073656e740000000000000000006044820152606401610736565b8060200151600b600082825461080e9190611ece565b9250508190555081600760008282546108279190611ece565b90915550610837905033836117d1565b600e54600f546020830151604051630efed50760e41b8152600481019290925260248201526001600160a01b039091169063efed5070906044015b600060405180830381600087803b15801561088c57600080fd5b505af11580156108a0573d6000803e3d6000fd5b5050600e54600f5460075460405163f2b2a74360e01b81526001600160a01b03909316945063f2b2a74393506108e192600401918252602082015260400190565b600060405180830381600087803b1580156108fb57600080fd5b505af115801561090f573d6000803e3d6000fd5b505050505050565b6000336106ba81858561092a838361118f565b6109349190611ece565b61148f565b6010546001600160a01b031633146109a15760405162461bcd60e51b815260206004820152602560248201527f4f6e6c7920746f6b656e2070726f66696c65206f776e65722063616e20776974604482015264686472617760d81b6064820152608401610736565b601054600b546040516001600160a01b039092169181156108fc0291906000818181858888f193505050501580156109dd573d6000803e3d6000fd5b506000600b55565b610a0960405180606001604052806000815260200160008152602001600081525090565b600754600090815b600654811015610b485760068181548110610a2e57610a2e611ee1565b906000526020600020906002020160000154821015610b1a5760008260068381548110610a5d57610a5d611ee1565b906000526020600020906002020160000154610a799190611ef7565b9050808611610ac45760068281548110610a9557610a95611ee1565b90600052602060002090600202016001015486610ab29190611f0a565b610abc9085611ece565b935050610b48565b60068281548110610ad757610ad7611ee1565b90600052602060002090600202016001015481610af49190611f0a565b610afe9085611ece565b9350610b0a8187611ef7565b9550610b168184611ece565b9250505b60068181548110610b2d57610b2d611ee1565b60009182526020909120600290910201549150600101610a11565b50600061271060095484610b5c9190611f0a565b610b669190611f21565b90506000610b748285611ece565b6040805160608101825295865260208601939093529184019190915250909392505050565b6010546001600160a01b031615610bec5760405162461bcd60e51b8152602060048201526017602482015276141c9bd99a5b1948185b1c9958591e4818db185a5b5959604a1b6044820152606401610736565b601080546001600160a01b03191633908117909155600e54600f5460405163d7615fef60e01b8152600481019190915260248101929092526001600160a01b03169063d7615fef90604401600060405180830381600087803b158015610c5157600080fd5b505af1158015610c65573d6000803e3d6000fd5b50506010805460ff60a01b1916600160a01b1790555050565b600081118015610c9d5750336000908152602081905260409020548111155b610cda5760405162461bcd60e51b815260206004820152600e60248201526d125b9d985b1a5908185b5bdd5b9d60921b6044820152606401610736565b6000610ce582611233565b90508160076000828254610cf99190611ef7565b90915550508051604051339180156108fc02916000818181858888f19350505050158015610d2b573d6000803e3d6000fd5b508060200151600b6000828254610d429190611ece565b9091555050600e54600f546020830151604051630efed50760e41b8152600481019290925260248201526001600160a01b039091169063efed507090604401610872565b610d8e611890565b610d9860006118ea565b565b60068181548110610daa57600080fd5b60009182526020909120600290910201805460019091015490915082565b6010546001600160a01b031615610e1b5760405162461bcd60e51b8152602060048201526017602482015276141c9bd99a5b1948185b1c9958591e4818db185a5b5959604a1b6044820152606401610736565b600e5481516040908101519051630a5f69f560e31b81526000926001600160a01b0316916352fb4fa891610e529190600401611f43565b600060405180830381865afa158015610e6f573d6000803e3d6000fd5b505050506040513d6000823e601f3d908101601f19168201604052610e979190810190611f80565b600e54604051634372372f60e11b81529192506000916001600160a01b03909116906386e46e5e90610ed0908590600d90600401611ff6565b602060405180830381865afa158015610eed573d6000803e3d6000fd5b505050506040513d601f19601f82011682018060405250810190610f1191906120b7565b905080610f605760405162461bcd60e51b815260206004820152601d60248201527f4461746120646f65736e2774206d6174636820776974682070726f6f660000006044820152606401610736565b6011546040516354b0734f60e11b81526001600160a01b039091169063a960e69e90610f909086906004016120d9565b6020604051808303816000875af1158015610faf573d6000803e3d6000fd5b505050506040513d601f19601f82011682018060405250810190610fd391906120b7565b50601080546001600160a01b03191633908117909155600e54600f5460405163d7615fef60e01b8152600481019190915260248101929092526001600160a01b03169063d7615fef90604401600060405180830381600087803b15801561103957600080fd5b505af115801561104d573d6000803e3d6000fd5b50506010805460ff60a01b1916600160a01b1790555050505050565b60606004805461062990611e7e565b60003381611086828661118f565b9050838110156110e65760405162461bcd60e51b815260206004820152602560248201527f45524332303a2064656372656173656420616c6c6f77616e63652062656c6f77604482015264207a65726f60d81b6064820152608401610736565b6106df828686840361148f565b6000336106ba81858561162d565b600d805461110e90611e7e565b80601f016020809104026020016040519081016040528092919081815260200182805461113a90611e7e565b80156111875780601f1061115c57610100808354040283529160200191611187565b820191906000526020600020905b81548152906001019060200180831161116a57829003601f168201915b505050505081565b6001600160a01b03918216600090815260016020908152604080832093909416825291909152205490565b6111c2611890565b6001600160a01b0381166112275760405162461bcd60e51b815260206004820152602660248201527f4f776e61626c653a206e6577206f776e657220697320746865207a65726f206160448201526564647265737360d01b6064820152608401610736565b611230816118ea565b50565b61125760405180606001604052806000815260200160008152602001600081525090565b6007548211156112b95760405162461bcd60e51b815260206004820152602760248201527f416d6f756e7420746f2073656c6c206973206d6f7265207468616e20746f74616044820152666c537570706c7960c81b6064820152608401610736565b600754600654600091905b600081118015611301575060066112dc600183611ef7565b815481106112ec576112ec611ee1565b90600052602060002090600202016000015482105b156113185780611310816121f8565b9150506112c4565b806113228161220f565b9150505b801561143e5760006001821161133d57600061136d565b600661134a600284611ef7565b8154811061135a5761135a611ee1565b9060005260206000209060020201600001545b6113779084611ef7565b90508086116113cc57600661138d600184611ef7565b8154811061139d5761139d611ee1565b906000526020600020906002020160010154866113ba9190611f0a565b6113c49085611ece565b93505061143e565b60066113d9600184611ef7565b815481106113e9576113e9611ee1565b906000526020600020906002020160010154816114069190611f0a565b6114109085611ece565b935061141c8187611ef7565b95506114288184611ef7565b9250508080611436906121f8565b915050611326565b6000612710600a54856114519190611f0a565b61145b9190611f21565b905060006114698286611ef7565b604080516060810182529687526020870193909352918501919091525091949350505050565b6001600160a01b0383166114f15760405162461bcd60e51b8152602060048201526024808201527f45524332303a20617070726f76652066726f6d20746865207a65726f206164646044820152637265737360e01b6064820152608401610736565b6001600160a01b0382166115525760405162461bcd60e51b815260206004820152602260248201527f45524332303a20617070726f766520746f20746865207a65726f206164647265604482015261737360f01b6064820152608401610736565b6001600160a01b0383811660008181526001602090815260408083209487168084529482529182902085905590518481527f8c5be1e5ebec7d5bd14f71427d1e84f3dd0314c0f7b2291e5b200ac8c7c3b925910160405180910390a3505050565b60006115bf848461118f565b90506000198114611627578181101561161a5760405162461bcd60e51b815260206004820152601d60248201527f45524332303a20696e73756666696369656e7420616c6c6f77616e63650000006044820152606401610736565b611627848484840361148f565b50505050565b6001600160a01b0383166116915760405162461bcd60e51b815260206004820152602560248201527f45524332303a207472616e736665722066726f6d20746865207a65726f206164604482015264647265737360d81b6064820152608401610736565b6001600160a01b0382166116f35760405162461bcd60e51b815260206004820152602360248201527f45524332303a207472616e7366657220746f20746865207a65726f206164647260448201526265737360e81b6064820152608401610736565b6001600160a01b0383166000908152602081905260409020548181101561176b5760405162461bcd60e51b815260206004820152602660248201527f45524332303a207472616e7366657220616d6f756e7420657863656564732062604482015265616c616e636560d01b6064820152608401610736565b6001600160a01b03848116600081815260208181526040808320878703905593871680835291849020805487019055925185815290927fddf252ad1be2c89b69c2b068fc378daa952ba7f163c4a11628f55a4df523b3ef910160405180910390a3611627565b6001600160a01b0382166118275760405162461bcd60e51b815260206004820152601f60248201527f45524332303a206d696e7420746f20746865207a65726f2061646472657373006044820152606401610736565b80600260008282546118399190611ece565b90915550506001600160a01b038216600081815260208181526040808320805486019055518481527fddf252ad1be2c89b69c2b068fc378daa952ba7f163c4a11628f55a4df523b3ef910160405180910390a35050565b6005546001600160a01b03163314610d985760405162461bcd60e51b815260206004820181905260248201527f4f776e61626c653a2063616c6c6572206973206e6f7420746865206f776e65726044820152606401610736565b600580546001600160a01b038381166001600160a01b0319831681179093556040519116919082907f8be0079c531659141344cd1fd0a4f28419497f9722a3daafe3b4186f6b6457e090600090a35050565b60005b8381101561195757818101518382015260200161193f565b50506000910152565b6000815180845261197881602086016020860161193c565b601f01601f19169290920160200192915050565b60208152600061199f6020830184611960565b9392505050565b60208101600483106119c857634e487b7160e01b600052602160045260246000fd5b91905290565b80356001600160a01b03811681146119e557600080fd5b919050565b600080604083850312156119fd57600080fd5b611a06836119ce565b946020939093013593505050565b600080600060608486031215611a2957600080fd5b611a32846119ce565b9250611a40602085016119ce565b929592945050506040919091013590565b600060208284031215611a6357600080fd5b5035919050565b600060208284031215611a7c57600080fd5b61199f826119ce565b634e487b7160e01b600052604160045260246000fd5b604080519081016001600160401b0381118282101715611abd57611abd611a85565b60405290565b604051608081016001600160401b0381118282101715611abd57611abd611a85565b604051606081016001600160401b0381118282101715611abd57611abd611a85565b604051601f8201601f191681016001600160401b0381118282101715611b2f57611b2f611a85565b604052919050565b60006001600160401b03821115611b5057611b50611a85565b50601f01601f191660200190565b6000611b71611b6c84611b37565b611b07565b9050828152838383011115611b8557600080fd5b828260208301376000602084830101529392505050565b600082601f830112611bad57600080fd5b61199f83833560208501611b5e565b803563ffffffff811681146119e557600080fd5b600082601f830112611be157600080fd5b81356001600160401b03811115611bfa57611bfa611a85565b8060051b611c0a60208201611b07565b91825260208185018101929081019086841115611c2657600080fd5b6020860192505b83831015611c805782356001600160401b03811115611c4b57600080fd5b8601603f81018813611c5c57600080fd5b611c6e88602083013560408401611b5e565b83525060209283019290910190611c2d565b9695505050505050565b600081830360a0811215611c9d57600080fd5b611ca5611a9b565b91506080811215611cb557600080fd5b50611cbe611ac3565b82358152611cce602084016119ce565b6020820152611cdf60408401611bbc565b6040820152611cf060608401611bbc565b6060820152815260808201356001600160401b03811115611d1057600080fd5b611d1c84828501611bd0565b60208301525092915050565b600060208284031215611d3a57600080fd5b81356001600160401b03811115611d5057600080fd5b820160408185031215611d6257600080fd5b611d6a611a9b565b81356001600160401b03811115611d8057600080fd5b820160608187031215611d9257600080fd5b611d9a611ae5565b81356001600160401b03811115611db057600080fd5b611dbc88828501611b9c565b82525060208201356001600160401b03811115611dd857600080fd5b611de488828501611b9c565b60208301525060408201356001600160401b03811115611e0357600080fd5b611e0f88828501611b9c565b60408301525082525060208201356001600160401b03811115611e3157600080fd5b611e3d86828501611c8a565b602083015250949350505050565b60008060408385031215611e5e57600080fd5b611e67836119ce565b9150611e75602084016119ce565b90509250929050565b600181811c90821680611e9257607f821691505b602082108103611eb257634e487b7160e01b600052602260045260246000fd5b50919050565b634e487b7160e01b600052601160045260246000fd5b808201808211156106c0576106c0611eb8565b634e487b7160e01b600052603260045260246000fd5b818103818111156106c0576106c0611eb8565b80820281158282048414176106c0576106c0611eb8565b600082611f3e57634e487b7160e01b600052601260045260246000fd5b500490565b604081526000611f566040830184611960565b82810360208401526008815267757365726e616d6560c01b60208201526040810191505092915050565b600060208284031215611f9257600080fd5b81516001600160401b03811115611fa857600080fd5b8201601f81018413611fb957600080fd5b8051611fc7611b6c82611b37565b818152856020838501011115611fdc57600080fd5b611fed82602083016020860161193c565b95945050505050565b6040815260006120096040830185611960565b82810360208401528354600090600181811c9082168061202a57607f821691505b60208210810361204857634e487b7160e01b84526022600452602484fd5b818552602085019450808015612065576001811461207b576120a9565b60ff198416865282151560051b860194506120a9565b60008981526020902060005b848110156120a357815488820152600190910190602001612087565b87019550505b509298975050505050505050565b6000602082840312156120c957600080fd5b8151801515811461199f57600080fd5b60208152600082516040602084015280516060808501526120fd60c0850182611960565b90506020820151605f1985830301608086015261211a8282611960565b91505060408201519150605f198482030160a085015261213a8183611960565b9150506020840151601f1984830301604085015260a0820181518051845260018060a01b03602082015116602085015263ffffffff604082015116604085015263ffffffff6060820151166060850152506020820151915060a0608084015280825180835260c08501915060c08160051b860101925060208401935060005b818110156121eb5760bf198685030183526121d5848651611960565b60209586019590945092909201916001016121b9565b5091979650505050505050565b60008161220757612207611eb8565b506000190190565b60006001820161222157612221611eb8565b506001019056fea26469706673582212205301966aa986e71dacc98a476f1b47ec1c1cb3f725788d89cb57149b668a391d64736f6c634300081b0033a7197c38d9c4c7450c7f2cd20d0a17cbe7c344190d6c82a6b49a146e62439ae4a26469706673582212203a9bd6483c83bb6033b6271f3a6f8e2c0e79e0a8abc946605592788b26e1fd0064736f6c634300081b0033",
  "linkReferences": {},
  "deployedLinkReferences": {}
}