{
  "_format": "hh-sol-artifact-1",
  "contractName": "Factory",
  "sourceName": "contracts/Factory.sol",
  "abi": [
    {
      "anonymous": false,
      "inputs": [
        {
          "indexed": true,
          "internalType": "bytes32",
          "name": "role",
          "type": "bytes32"
        },
        {
          "indexed": true,
          "internalType": "bytes32",
          "name": "previousAdminRole",
          "type": "bytes32"
        },
        {
          "indexed": true,
          "internalType": "bytes32",
          "name": "newAdminRole",
          "type": "bytes32"
        }
      ],
      "name": "RoleAdminChanged",
      "type": "event"
    },
    {
      "anonymous": false,
      "inputs": [
        {
          "indexed": true,
          "internalType": "bytes32",
          "name": "role",
          "type": "bytes32"
        },
        {
          "indexed": true,
          "internalType": "address",
          "name": "account",
          "type": "address"
        },
        {
          "indexed": true,
          "internalType": "address",
          "name": "sender",
          "type": "address"
        }
      ],
      "name": "RoleGranted",
      "type": "event"
    },
    {
      "anonymous": false,
      "inputs": [
        {
          "indexed": true,
          "internalType": "bytes32",
          "name": "role",
          "type": "bytes32"
        },
        {
          "indexed": true,
          "internalType": "address",
          "name": "account",
          "type": "address"
        },
        {
          "indexed": true,
          "internalType": "address",
          "name": "sender",
          "type": "address"
        }
      ],
      "name": "RoleRevoked",
      "type": "event"
    },
    {
      "inputs": [],
      "name": "DEFAULT_ADMIN_ROLE",
      "outputs": [
        {
          "internalType": "bytes32",
          "name": "",
          "type": "bytes32"
        }
      ],
      "stateMutability": "view",
      "type": "function"
    },
    {
      "inputs": [],
      "name": "INVITE_FEE",
      "outputs": [
        {
          "internalType": "uint256",
          "name": "",
          "type": "uint256"
        }
      ],
      "stateMutability": "view",
      "type": "function"
    },
    {
      "inputs": [],
      "name": "TOKEN_ROLE",
      "outputs": [
        {
          "internalType": "bytes32",
          "name": "",
          "type": "bytes32"
        }
      ],
      "stateMutability": "view",
      "type": "function"
    },
    {
      "inputs": [
        {
          "internalType": "uint256",
          "name": "",
          "type": "uint256"
        }
      ],
      "name": "claimed",
      "outputs": [
        {
          "internalType": "bool",
          "name": "",
          "type": "bool"
        }
      ],
      "stateMutability": "view",
      "type": "function"
    },
    {
      "inputs": [],
      "name": "count",
      "outputs": [
        {
          "internalType": "uint256",
          "name": "",
          "type": "uint256"
        }
      ],
      "stateMutability": "view",
      "type": "function"
    },
    {
      "inputs": [
        {
          "internalType": "enum Factory.Provider",
          "name": "provider",
          "type": "uint8"
        },
        {
          "internalType": "string",
          "name": "profile",
          "type": "string"
        }
      ],
      "name": "createContract",
      "outputs": [],
      "stateMutability": "payable",
      "type": "function"
    },
    {
      "inputs": [
        {
          "internalType": "address",
          "name": "",
          "type": "address"
        }
      ],
      "name": "deployedAccounts",
      "outputs": [
        {
          "internalType": "string",
          "name": "profile",
          "type": "string"
        },
        {
          "internalType": "enum Factory.Provider",
          "name": "provider",
          "type": "uint8"
        }
      ],
      "stateMutability": "view",
      "type": "function"
    },
    {
      "inputs": [
        {
          "internalType": "uint256",
          "name": "",
          "type": "uint256"
        }
      ],
      "name": "deployedContract",
      "outputs": [
        {
          "internalType": "address",
          "name": "",
          "type": "address"
        }
      ],
      "stateMutability": "view",
      "type": "function"
    },
    {
      "inputs": [
        {
          "internalType": "uint256",
          "name": "",
          "type": "uint256"
        }
      ],
      "name": "deployedContracts",
      "outputs": [
        {
          "internalType": "address",
          "name": "",
          "type": "address"
        }
      ],
      "stateMutability": "view",
      "type": "function"
    },
    {
      "inputs": [
        {
          "internalType": "enum Factory.Provider",
          "name": "",
          "type": "uint8"
        },
        {
          "internalType": "string",
          "name": "",
          "type": "string"
        }
      ],
      "name": "deployedProfiles",
      "outputs": [
        {
          "internalType": "bool",
          "name": "",
          "type": "bool"
        }
      ],
      "stateMutability": "view",
      "type": "function"
    },
    {
      "inputs": [],
      "name": "getDeployedContracts",
      "outputs": [
        {
          "components": [
            {
              "internalType": "address",
              "name": "contractAddress",
              "type": "address"
            },
            {
              "internalType": "string",
              "name": "profile",
              "type": "string"
            },
            {
              "internalType": "enum Factory.Provider",
              "name": "provider",
              "type": "uint8"
            },
            {
              "internalType": "uint256",
              "name": "id",
              "type": "uint256"
            },
            {
              "internalType": "address",
              "name": "inviter",
              "type": "address"
            },
            {
              "internalType": "uint256",
              "name": "totalSupply",
              "type": "uint256"
            },
            {
              "internalType": "uint256",
              "name": "fee",
              "type": "uint256"
            },
            {
              "internalType": "bool",
              "name": "claimed",
              "type": "bool"
            },
            {
              "internalType": "address",
              "name": "profileOwner",
              "type": "address"
            }
          ],
          "internalType": "struct Factory.DeployedContract[]",
          "name": "",
          "type": "tuple[]"
        }
      ],
      "stateMutability": "view",
      "type": "function"
    },
    {
      "inputs": [
        {
          "internalType": "address",
          "name": "user",
          "type": "address"
        }
      ],
      "name": "getDeployedContractsByInviter",
      "outputs": [
        {
          "components": [
            {
              "internalType": "address",
              "name": "contractAddress",
              "type": "address"
            },
            {
              "internalType": "string",
              "name": "profile",
              "type": "string"
            },
            {
              "internalType": "enum Factory.Provider",
              "name": "provider",
              "type": "uint8"
            },
            {
              "internalType": "uint256",
              "name": "id",
              "type": "uint256"
            },
            {
              "internalType": "address",
              "name": "inviter",
              "type": "address"
            },
            {
              "internalType": "uint256",
              "name": "totalSupply",
              "type": "uint256"
            },
            {
              "internalType": "uint256",
              "name": "fee",
              "type": "uint256"
            },
            {
              "internalType": "bool",
              "name": "claimed",
              "type": "bool"
            },
            {
              "internalType": "address",
              "name": "profileOwner",
              "type": "address"
            }
          ],
          "internalType": "struct Factory.DeployedContract[]",
          "name": "",
          "type": "tuple[]"
        }
      ],
      "stateMutability": "view",
      "type": "function"
    },
    {
      "inputs": [
        {
          "internalType": "address",
          "name": "user",
          "type": "address"
        }
      ],
      "name": "getPoints",
      "outputs": [
        {
          "internalType": "uint256",
          "name": "",
          "type": "uint256"
        }
      ],
      "stateMutability": "view",
      "type": "function"
    },
    {
      "inputs": [
        {
          "internalType": "bytes32",
          "name": "role",
          "type": "bytes32"
        }
      ],
      "name": "getRoleAdmin",
      "outputs": [
        {
          "internalType": "bytes32",
          "name": "",
          "type": "bytes32"
        }
      ],
      "stateMutability": "view",
      "type": "function"
    },
    {
      "inputs": [
        {
          "internalType": "bytes32",
          "name": "role",
          "type": "bytes32"
        },
        {
          "internalType": "address",
          "name": "account",
          "type": "address"
        }
      ],
      "name": "grantRole",
      "outputs": [],
      "stateMutability": "nonpayable",
      "type": "function"
    },
    {
      "inputs": [
        {
          "internalType": "bytes32",
          "name": "role",
          "type": "bytes32"
        },
        {
          "internalType": "address",
          "name": "account",
          "type": "address"
        }
      ],
      "name": "hasRole",
      "outputs": [
        {
          "internalType": "bool",
          "name": "",
          "type": "bool"
        }
      ],
      "stateMutability": "view",
      "type": "function"
    },
    {
      "inputs": [
        {
          "internalType": "address",
          "name": "",
          "type": "address"
        }
      ],
      "name": "inviteCounts",
      "outputs": [
        {
          "internalType": "uint256",
          "name": "",
          "type": "uint256"
        }
      ],
      "stateMutability": "view",
      "type": "function"
    },
    {
      "inputs": [
        {
          "internalType": "enum Factory.Provider",
          "name": "",
          "type": "uint8"
        },
        {
          "internalType": "string",
          "name": "",
          "type": "string"
        }
      ],
      "name": "inviters",
      "outputs": [
        {
          "internalType": "address",
          "name": "",
          "type": "address"
        }
      ],
      "stateMutability": "view",
      "type": "function"
    },
    {
      "inputs": [
        {
          "internalType": "address",
          "name": "",
          "type": "address"
        },
        {
          "internalType": "uint256",
          "name": "",
          "type": "uint256"
        }
      ],
      "name": "invites",
      "outputs": [
        {
          "internalType": "uint256",
          "name": "",
          "type": "uint256"
        }
      ],
      "stateMutability": "view",
      "type": "function"
    },
    {
      "inputs": [
        {
          "internalType": "enum Factory.Provider",
          "name": "provider",
          "type": "uint8"
        },
        {
          "internalType": "string",
          "name": "profile",
          "type": "string"
        }
      ],
      "name": "isCreated",
      "outputs": [
        {
          "internalType": "bool",
          "name": "",
          "type": "bool"
        }
      ],
      "stateMutability": "view",
      "type": "function"
    },
    {
      "inputs": [
        {
          "internalType": "uint256",
          "name": "tokenId",
          "type": "uint256"
        },
        {
          "internalType": "address",
          "name": "tokenOwnerAddress",
          "type": "address"
        }
      ],
      "name": "onClaimed",
      "outputs": [],
      "stateMutability": "nonpayable",
      "type": "function"
    },
    {
      "inputs": [
        {
          "internalType": "uint256",
          "name": "tokenId",
          "type": "uint256"
        },
        {
          "internalType": "uint256",
          "name": "fee",
          "type": "uint256"
        }
      ],
      "name": "onFeeCollected",
      "outputs": [],
      "stateMutability": "nonpayable",
      "type": "function"
    },
    {
      "inputs": [
        {
          "internalType": "uint256",
          "name": "tokenId",
          "type": "uint256"
        },
        {
          "internalType": "uint256",
          "name": "totalSupply",
          "type": "uint256"
        }
      ],
      "name": "onTokensChange",
      "outputs": [],
      "stateMutability": "nonpayable",
      "type": "function"
    },
    {
      "inputs": [
        {
          "internalType": "address",
          "name": "",
          "type": "address"
        }
      ],
      "name": "points",
      "outputs": [
        {
          "internalType": "uint256",
          "name": "",
          "type": "uint256"
        }
      ],
      "stateMutability": "view",
      "type": "function"
    },
    {
      "inputs": [
        {
          "internalType": "uint256",
          "name": "",
          "type": "uint256"
        }
      ],
      "name": "profileFee",
      "outputs": [
        {
          "internalType": "uint256",
          "name": "",
          "type": "uint256"
        }
      ],
      "stateMutability": "view",
      "type": "function"
    },
    {
      "inputs": [
        {
          "internalType": "bytes32",
          "name": "role",
          "type": "bytes32"
        },
        {
          "internalType": "address",
          "name": "account",
          "type": "address"
        }
      ],
      "name": "renounceRole",
      "outputs": [],
      "stateMutability": "nonpayable",
      "type": "function"
    },
    {
      "inputs": [
        {
          "internalType": "bytes32",
          "name": "role",
          "type": "bytes32"
        },
        {
          "internalType": "address",
          "name": "account",
          "type": "address"
        }
      ],
      "name": "revokeRole",
      "outputs": [],
      "stateMutability": "nonpayable",
      "type": "function"
    },
    {
      "inputs": [
        {
          "internalType": "bytes4",
          "name": "interfaceId",
          "type": "bytes4"
        }
      ],
      "name": "supportsInterface",
      "outputs": [
        {
          "internalType": "bool",
          "name": "",
          "type": "bool"
        }
      ],
      "stateMutability": "view",
      "type": "function"
    },
    {
      "inputs": [
        {
          "internalType": "address",
          "name": "",
          "type": "address"
        }
      ],
      "name": "tokenInviter",
      "outputs": [
        {
          "internalType": "address",
          "name": "",
          "type": "address"
        }
      ],
      "stateMutability": "view",
      "type": "function"
    },
    {
      "inputs": [
        {
          "internalType": "uint256",
          "name": "",
          "type": "uint256"
        }
      ],
      "name": "tokenProfileOwner",
      "outputs": [
        {
          "internalType": "address",
          "name": "",
          "type": "address"
        }
      ],
      "stateMutability": "view",
      "type": "function"
    },
    {
      "inputs": [
        {
          "internalType": "uint256",
          "name": "",
          "type": "uint256"
        }
      ],
      "name": "tokensSupply",
      "outputs": [
        {
          "internalType": "uint256",
          "name": "",
          "type": "uint256"
        }
      ],
      "stateMutability": "view",
      "type": "function"
    }
  ],
  "bytecode": "0x6080604052600060025566038d7ea4c68000600f55348015601f57600080fd5b50613eb18061002f6000396000f3fe6080604052600436106101d85760003560e01c806391d1485411610102578063d547741f11610095578063de2dd22111610064578063de2dd22114610647578063ee204abb14610674578063efed5070146106aa578063f2b2a743146106ca57600080fd5b8063d547741f146105aa578063d7615fef146105ca578063d7e12e24146105ea578063dbe7e3bd1461061757600080fd5b8063a217fddf116100d1578063a217fddf146104e2578063a2ec8b33146104f7578063aa9a068f14610549578063cfef8b311461055e57600080fd5b806391d148541461043e5780639697d1881461045e5780639acf34241461048c5780639ad1ee10146104c257600080fd5b80633383e7951161017a5780635b93443e116101495780635b93443e146103bc57806368005615146103cf5780637749642e146103ef5780638301057b1461041c57600080fd5b80633383e7951461030c578063358b81661461034257806336568abe1461036f578063481c46d11461038f57600080fd5b806323628b57116101b657806323628b5714610284578063248a9ca3146102a45780632c313046146102d45780632f2ff15d146102ea57600080fd5b806301ffc9a7146101dd57806306661abd146102125780631e285caa14610236575b600080fd5b3480156101e957600080fd5b506101fd6101f8366004611979565b6106ea565b60405190151581526020015b60405180910390f35b34801561021e57600080fd5b5061022860025481565b604051908152602001610209565b34801561024257600080fd5b5061026c6102513660046119a3565b6003602052600090815260409020546001600160a01b031681565b6040516001600160a01b039091168152602001610209565b34801561029057600080fd5b5061022861029f3660046119d8565b610721565b3480156102b057600080fd5b506102286102bf3660046119a3565b60009081526020819052604090206001015490565b3480156102e057600080fd5b50610228600f5481565b3480156102f657600080fd5b5061030a610305366004611a02565b610752565b005b34801561031857600080fd5b5061026c610327366004611a2e565b6007602052600090815260409020546001600160a01b031681565b34801561034e57600080fd5b5061022861035d366004611a2e565b60086020526000908152604090205481565b34801561037b57600080fd5b5061030a61038a366004611a02565b61077c565b34801561039b57600080fd5b506103af6103aa366004611a2e565b6107ff565b6040516102099190611ad1565b61030a6103ca366004611bec565b610ba6565b3480156103db57600080fd5b506101fd6103ea366004611bec565b610fc5565b3480156103fb57600080fd5b5061022861040a3660046119a3565b600c6020526000908152604090205481565b34801561042857600080fd5b50610228600080516020613e5c83398151915281565b34801561044a57600080fd5b506101fd610459366004611a02565b611025565b34801561046a57600080fd5b5061047e610479366004611a2e565b61104e565b604051610209929190611cbc565b34801561049857600080fd5b5061026c6104a73660046119a3565b600e602052600090815260409020546001600160a01b031681565b3480156104ce57600080fd5b5061026c6104dd3660046119a3565b6110f5565b3480156104ee57600080fd5b50610228600081565b34801561050357600080fd5b5061026c610512366004611bec565b600660209081526000928352604090922081518083018401805192815290840192909301919091209152546001600160a01b031681565b34801561055557600080fd5b506103af61111f565b34801561056a57600080fd5b506101fd610579366004611bec565b6005602090815260009283526040909220815180830184018051928152908401929093019190912091525460ff1681565b3480156105b657600080fd5b5061030a6105c5366004611a02565b611372565b3480156105d657600080fd5b5061030a6105e5366004611a02565b611397565b3480156105f657600080fd5b506102286106053660046119a3565b600b6020526000908152604090205481565b34801561062357600080fd5b506101fd6106323660046119a3565b600d6020526000908152604090205460ff1681565b34801561065357600080fd5b50610228610662366004611a2e565b60096020526000908152604090205481565b34801561068057600080fd5b5061022861068f366004611a2e565b6001600160a01b031660009081526008602052604090205490565b3480156106b657600080fd5b5061030a6106c5366004611cde565b611410565b3480156106d657600080fd5b5061030a6106e5366004611cde565b61146b565b60006001600160e01b03198216637965db0b60e01b148061071b57506301ffc9a760e01b6001600160e01b03198316145b92915050565b600a602052816000526040600020818154811061073d57600080fd5b90600052602060002001600091509150505481565b60008281526020819052604090206001015461076d816114b1565b61077783836114be565b505050565b6001600160a01b03811633146107f15760405162461bcd60e51b815260206004820152602f60248201527f416363657373436f6e74726f6c3a2063616e206f6e6c792072656e6f756e636560448201526e103937b632b9903337b91039b2b63360891b60648201526084015b60405180910390fd5b6107fb8282611542565b5050565b6001600160a01b0381166000908152600a6020908152604080832080548251818502810185019093528083526060949383018282801561085e57602002820191906000526020600020905b81548152602001906001019080831161084a575b505050505090506000815167ffffffffffffffff81111561088157610881611bd6565b6040519080825280602002602001820160405280156108ba57816020015b6108a7611920565b81526020019060019003908161089f5790505b50905060005b8251811015610b9e57600060018483815181106108df576108df611d00565b6020026020010151815481106108f7576108f7611d00565b60009182526020808320909101546001600160a01b0316808352600490915260408083208151808301909252805492945090918290829061093790611d16565b80601f016020809104026020016040519081016040528092919081815260200182805461096390611d16565b80156109b05780601f10610985576101008083540402835291602001916109b0565b820191906000526020600020905b81548152906001019060200180831161099357829003601f168201915b5050509183525050600182015460209091019060ff1660038111156109d7576109d7611a99565b60038111156109e8576109e8611a99565b815250509050604051806101200160405280836001600160a01b031681526020018260000151815260200182602001516003811115610a2957610a29611a99565b8152602001868581518110610a4057610a40611d00565b6020026020010151815260200160076000856001600160a01b03166001600160a01b0316815260200190815260200160002060009054906101000a90046001600160a01b03166001600160a01b03168152602001600c6000888781518110610aaa57610aaa611d00565b60200260200101518152602001908152602001600020548152602001600b6000888781518110610adc57610adc611d00565b60200260200101518152602001908152602001600020548152602001600d6000888781518110610b0e57610b0e611d00565b6020026020010151815260200190815260200160002060009054906101000a900460ff1615158152602001600e6000888781518110610b4f57610b4f611d00565b6020908102919091018101518252810191909152604001600020546001600160a01b031690528451859085908110610b8957610b89611d00565b602090810291909101015250506001016108c0565b509392505050565b600f543414610be85760405162461bcd60e51b815260206004820152600e60248201526d125b9d985b1a5908185b5bdd5b9d60921b60448201526064016107e8565b60056000836003811115610bfe57610bfe611a99565b6003811115610c0f57610c0f611a99565b815260200190815260200160002081604051610c2b9190611d4a565b9081526040519081900360200190205460ff1615610c9e5760405162461bcd60e51b815260206004820152602a60248201527f436f6e747261637420666f7220746869732070726f66696c6520616c726561646044820152691e4819195c1b1bde595960b21b60648201526084016107e8565b6000610cab6002546115a7565b604051602001610cbb9190611d66565b6040516020818303038152906040529050600030600254838686604051610ce19061196c565b610cef959493929190611d90565b604051809103906000f080158015610d0b573d6000803e3d6000fd5b509050610d26600080516020613e5c833981519152826114be565b6040516001600160a01b038216903480156108fc02916000818181858888f19350505050158015610d5b573d6000803e3d6000fd5b506002546000908152600b602052604081208054349290610d7d908490611e17565b925050819055506040518060400160405280848152602001856003811115610da757610da7611a99565b90526001600160a01b038216600090815260046020526040902081518190610dcf9082611e78565b50602082015160018083018054909160ff1990911690836003811115610df757610df7611a99565b021790555050600180548082019091557fb10e2d527612073b26eecdfd717e6a320cf44b4afac2b0732d9fcbe2b7fa0cf60180546001600160a01b0319166001600160a01b03841617905550336000908152600860205260408120805460c89290610e63908490611e17565b9091555033905060066000866003811115610e8057610e80611a99565b6003811115610e9157610e91611a99565b815260200190815260200160002084604051610ead9190611d4a565b908152604080516020928190038301902080546001600160a01b0319166001600160a01b0394909416939093179092553360009081526009909152908120805491610ef783611f37565b9190505550600160056000866003811115610f1457610f14611a99565b6003811115610f2557610f25611a99565b815260200190815260200160002084604051610f419190611d4a565b9081526040805160209281900383019020805460ff1916931515939093179092556001600160a01b0383166000908152600782528281208054336001600160a01b031990911681179091558152600a825291822060028054825460018101845592855292842090910191909155805491610fba83611f37565b919050555050505050565b600060056000846003811115610fdd57610fdd611a99565b6003811115610fee57610fee611a99565b81526020019081526020016000208260405161100a9190611d4a565b9081526040519081900360200190205460ff16905092915050565b6000918252602082815260408084206001600160a01b0393909316845291905290205460ff1690565b60046020526000908152604090208054819061106990611d16565b80601f016020809104026020016040519081016040528092919081815260200182805461109590611d16565b80156110e25780601f106110b7576101008083540402835291602001916110e2565b820191906000526020600020905b8154815290600101906020018083116110c557829003601f168201915b5050506001909301549192505060ff1682565b6001818154811061110557600080fd5b6000918252602090912001546001600160a01b0316905081565b60015460609060009067ffffffffffffffff81111561114057611140611bd6565b60405190808252806020026020018201604052801561117957816020015b611166611920565b81526020019060019003908161115e5790505b50905060005b60015481101561136c5760006001828154811061119e5761119e611d00565b60009182526020808320909101546001600160a01b031680835260049091526040808320815180830190925280549294509091829082906111de90611d16565b80601f016020809104026020016040519081016040528092919081815260200182805461120a90611d16565b80156112575780601f1061122c57610100808354040283529160200191611257565b820191906000526020600020905b81548152906001019060200180831161123a57829003601f168201915b5050509183525050600182015460209091019060ff16600381111561127e5761127e611a99565b600381111561128f5761128f611a99565b815250509050604051806101200160405280836001600160a01b0316815260200182600001518152602001826020015160038111156112d0576112d0611a99565b815260208082018690526001600160a01b03808616600090815260078352604080822054831681860152888252600c8452808220546060860152888252600b8452808220546080860152888252600d84528082205460ff16151560a0860152888252600e90935291909120541660c090910152845185908590811061135757611357611d00565b6020908102919091010152505060010161117f565b50919050565b60008281526020819052604090206001015461138d816114b1565b6107778383611542565b6113af600080516020613e5c83398151915233611025565b6113cb5760405162461bcd60e51b81526004016107e890611f50565b6000918252600d60209081526040808420805460ff19166001179055600e90915290912080546001600160a01b039092166001600160a01b0319909216919091179055565b611428600080516020613e5c83398151915233611025565b6114445760405162461bcd60e51b81526004016107e890611f50565b6000828152600b602052604081208054839290611462908490611e17565b90915550505050565b611483600080516020613e5c83398151915233611025565b61149f5760405162461bcd60e51b81526004016107e890611f50565b6000918252600c602052604090912055565b6114bb813361163a565b50565b6114c88282611025565b6107fb576000828152602081815260408083206001600160a01b03851684529091529020805460ff191660011790556114fe3390565b6001600160a01b0316816001600160a01b0316837f2f8788117e7eff1d82e926ec794901d17c78024a50270940304540a733656f0d60405160405180910390a45050565b61154c8282611025565b156107fb576000828152602081815260408083206001600160a01b0385168085529252808320805460ff1916905551339285917ff6391f5c32d9c69d2a47ea670b442974b53935d1edc7fd64eb21e047a839171b9190a45050565b606060006115b483611693565b600101905060008167ffffffffffffffff8111156115d4576115d4611bd6565b6040519080825280601f01601f1916602001820160405280156115fe576020820181803683370190505b5090508181016020015b600019016f181899199a1a9b1b9c1cb0b131b232b360811b600a86061a8153600a850494508461160857509392505050565b6116448282611025565b6107fb576116518161176b565b61165c83602061177d565b60405160200161166d929190611f7f565b60408051601f198184030181529082905262461bcd60e51b82526107e891600401611ff4565b60008072184f03e93ff9f4daa797ed6e38ed64bf6a1f0160401b83106116d25772184f03e93ff9f4daa797ed6e38ed64bf6a1f0160401b830492506040015b6d04ee2d6d415b85acef810000000083106116fe576d04ee2d6d415b85acef8100000000830492506020015b662386f26fc10000831061171c57662386f26fc10000830492506010015b6305f5e1008310611734576305f5e100830492506008015b612710831061174857612710830492506004015b6064831061175a576064830492506002015b600a831061071b5760010192915050565b606061071b6001600160a01b03831660145b6060600061178c836002612007565b611797906002611e17565b67ffffffffffffffff8111156117af576117af611bd6565b6040519080825280601f01601f1916602001820160405280156117d9576020820181803683370190505b509050600360fc1b816000815181106117f4576117f4611d00565b60200101906001600160f81b031916908160001a905350600f60fb1b8160018151811061182357611823611d00565b60200101906001600160f81b031916908160001a9053506000611847846002612007565b611852906001611e17565b90505b60018111156118ca576f181899199a1a9b1b9c1cb0b131b232b360811b85600f166010811061188657611886611d00565b1a60f81b82828151811061189c5761189c611d00565b60200101906001600160f81b031916908160001a90535060049490941c936118c38161201e565b9050611855565b5083156119195760405162461bcd60e51b815260206004820181905260248201527f537472696e67733a20686578206c656e67746820696e73756666696369656e7460448201526064016107e8565b9392505050565b60408051610120810182526000808252606060208301529091820190815260006020820181905260408201819052606082018190526080820181905260a0820181905260c09091015290565b611e268061203683390190565b60006020828403121561198b57600080fd5b81356001600160e01b03198116811461191957600080fd5b6000602082840312156119b557600080fd5b5035919050565b80356001600160a01b03811681146119d357600080fd5b919050565b600080604083850312156119eb57600080fd5b6119f4836119bc565b946020939093013593505050565b60008060408385031215611a1557600080fd5b82359150611a25602084016119bc565b90509250929050565b600060208284031215611a4057600080fd5b611919826119bc565b60005b83811015611a64578181015183820152602001611a4c565b50506000910152565b60008151808452611a85816020860160208601611a49565b601f01601f19169290920160200192915050565b634e487b7160e01b600052602160045260246000fd5b60048110611acd57634e487b7160e01b600052602160045260246000fd5b9052565b6000602082016020835280845180835260408501915060408160051b86010192506020860160005b82811015611bca57868503603f19018452815180516001600160a01b0316865260208101516101206020880152611b34610120880182611a6d565b90506040820151611b486040890182611aaf565b50606082015160608801526080820151611b6d60808901826001600160a01b03169052565b5060a082015160a088015260c082015160c088015260e0820151611b9560e089018215159052565b506101008201519150611bb46101008801836001600160a01b03169052565b9550506020938401939190910190600101611af9565b50929695505050505050565b634e487b7160e01b600052604160045260246000fd5b60008060408385031215611bff57600080fd5b823560048110611c0e57600080fd5b9150602083013567ffffffffffffffff811115611c2a57600080fd5b8301601f81018513611c3b57600080fd5b803567ffffffffffffffff811115611c5557611c55611bd6565b604051601f8201601f19908116603f0116810167ffffffffffffffff81118282101715611c8457611c84611bd6565b604052818152828201602001871015611c9c57600080fd5b816020840160208301376000602083830101528093505050509250929050565b604081526000611ccf6040830185611a6d565b90506119196020830184611aaf565b60008060408385031215611cf157600080fd5b50508035926020909101359150565b634e487b7160e01b600052603260045260246000fd5b600181811c90821680611d2a57607f821691505b60208210810361136c57634e487b7160e01b600052602260045260246000fd5b60008251611d5c818460208701611a49565b9190910192915050565b61192160f11b815260008251611d83816002850160208701611a49565b9190910160020192915050565b60018060a01b038616815284602082015260c06040820152600660c0820152650c90985cd95960d21b60e082015261010060608201526000611dd6610100830186611a6d565b611de36080840186611aaf565b82810360a0840152611df58185611a6d565b98975050505050505050565b634e487b7160e01b600052601160045260246000fd5b8082018082111561071b5761071b611e01565b601f82111561077757806000526020600020601f840160051c81016020851015611e515750805b601f840160051c820191505b81811015611e715760008155600101611e5d565b5050505050565b815167ffffffffffffffff811115611e9257611e92611bd6565b611ea681611ea08454611d16565b84611e2a565b6020601f821160018114611eda5760008315611ec25750848201515b600019600385901b1c1916600184901b178455611e71565b600084815260208120601f198516915b82811015611f0a5787850151825560209485019460019092019101611eea565b5084821015611f285786840151600019600387901b60f8161c191681555b50505050600190811b01905550565b600060018201611f4957611f49611e01565b5060010190565b60208082526015908201527421b0b63632b91034b9903737ba1030903a37b5b2b760591b604082015260600190565b7f416363657373436f6e74726f6c3a206163636f756e7420000000000000000000815260008351611fb7816017850160208801611a49565b7001034b99036b4b9b9b4b733903937b6329607d1b6017918401918201528351611fe8816028840160208801611a49565b01602801949350505050565b6020815260006119196020830184611a6d565b808202811582820484141761071b5761071b611e01565b60008161202d5761202d611e01565b50600019019056fe6080604052620f42406008556103e86009556103e8600a5534801561002357600080fd5b50604051611e26380380611e2683398101604081905261004291610388565b8383600361005083826104de565b50600461005d82826104de565b50505061007661007161026560201b60201c565b610269565b600e859055600d80546001600160a01b0319166001600160a01b038816179055600b805483919060ff191660018360038111156100b5576100b561059c565b0217905550600c6100c682826104de565b505060408051808201825261012c81526509184e72a000602080830191825260068054600181810183556000838152955160029283027ff652222313e28459528d920b65115c16c04f3efc82aaedc97be59f3f377c0d3f8181019290925595517ff652222313e28459528d920b65115c16c04f3efc82aaedc97be59f3f377c0d4096870155875180890189526102588152655af3107a400081870190815285548085018755868a529151918502808401929092555190870155875180890189526103e8815266038d7ea4c6800081870190815285548085018755868a529151918502808401929092555190870155875180890189526127108152662386f26fc1000081870190815285548085018755868a52915191850280840192909255519087015587518089018952620186a0815267016345785d8a000081870190815285548085018755868a5291519185028084019290925551908701558751808901909852620f42408852670de0b6b3a76400009488019485528354918201845592909552945193909402938401929092559051910155506105b29350505050565b3390565b600580546001600160a01b038381166001600160a01b0319831681179093556040519116919082907f8be0079c531659141344cd1fd0a4f28419497f9722a3daafe3b4186f6b6457e090600090a35050565b634e487b7160e01b600052604160045260246000fd5b600082601f8301126102e257600080fd5b81516001600160401b038111156102fb576102fb6102bb565b604051601f8201601f19908116603f011681016001600160401b0381118282101715610329576103296102bb565b60405281815283820160200185101561034157600080fd5b60005b8281101561036057602081860181015183830182015201610344565b506000918101602001919091529392505050565b80516004811061038357600080fd5b919050565b60008060008060008060c087890312156103a157600080fd5b86516001600160a01b03811681146103b857600080fd5b6020880151604089015191975095506001600160401b038111156103db57600080fd5b6103e789828a016102d1565b606089015190955090506001600160401b0381111561040557600080fd5b61041189828a016102d1565b93505061042060808801610374565b60a08801519092506001600160401b0381111561043c57600080fd5b61044889828a016102d1565b9150509295509295509295565b600181811c9082168061046957607f821691505b60208210810361048957634e487b7160e01b600052602260045260246000fd5b50919050565b601f8211156104d957806000526020600020601f840160051c810160208510156104b65750805b601f840160051c820191505b818110156104d657600081556001016104c2565b50505b505050565b81516001600160401b038111156104f7576104f76102bb565b61050b816105058454610455565b8461048f565b6020601f82116001811461053f57600083156105275750848201515b600019600385901b1c1916600184901b1784556104d6565b600084815260208120601f198516915b8281101561056f578785015182556020948501946001909201910161054f565b508482101561058d5786840151600019600387901b60f8161c191681555b50505050600190811b01905550565b634e487b7160e01b600052602160045260246000fd5b611865806105c16000396000f3fe6080604052600436106101b75760003560e01c806370a08231116100ec578063a9059cbb1161008a578063dd62ed3e11610064578063dd62ed3e146104b1578063e834a834146104d1578063f2fde38b146104f2578063f487c0bc1461051257600080fd5b8063a9059cbb14610466578063ab60636c14610486578063d5abeb011461049b57600080fd5b80638da5cb5b116100c65780638da5cb5b146103df57806395d89b4114610411578063a3e6761014610426578063a457c2d71461044657600080fd5b806370a082311461035f578063715018a6146103955780638a497c4c146103aa57600080fd5b80632e187a6811610159578063395093511161013357806339509351146102f45780633ccfd60b1461031457806347062402146103295780636c11bcd31461033f57600080fd5b80632e187a68146102ad578063313ce567146102c35780633610724e146102df57600080fd5b806317d70f7c1161019557806317d70f7c1461023e57806318160ddd1461026257806323b872dd146102775780632b14ca561461029757600080fd5b806306fdde03146101bc578063085d4883146101e7578063095ea7b31461020e575b600080fd5b3480156101c857600080fd5b506101d1610527565b6040516101de91906115ec565b60405180910390f35b3480156101f357600080fd5b50600b546102019060ff1681565b6040516101de919061163a565b34801561021a57600080fd5b5061022e61022936600461167e565b6105b9565b60405190151581526020016101de565b34801561024a57600080fd5b50610254600e5481565b6040519081526020016101de565b34801561026e57600080fd5b50600254610254565b34801561028357600080fd5b5061022e6102923660046116a8565b6105d3565b3480156102a357600080fd5b50610254600a5481565b3480156102b957600080fd5b5061025460075481565b3480156102cf57600080fd5b50604051601281526020016101de565b6102f26102ed3660046116e5565b6105f7565b005b34801561030057600080fd5b5061022e61030f36600461167e565b6108ae565b34801561032057600080fd5b506102f26108d0565b34801561033557600080fd5b5061025460095481565b34801561034b57600080fd5b506102f261035a3660046116e5565b610974565b34801561036b57600080fd5b5061025461037a3660046116fe565b6001600160a01b031660009081526020819052604090205490565b3480156103a157600080fd5b506102f2610acf565b3480156103b657600080fd5b506103ca6103c53660046116e5565b610ae3565b604080519283526020830191909152016101de565b3480156103eb57600080fd5b506005546001600160a01b03165b6040516001600160a01b0390911681526020016101de565b34801561041d57600080fd5b506101d1610b11565b34801561043257600080fd5b50600f546103f9906001600160a01b031681565b34801561045257600080fd5b5061022e61046136600461167e565b610b20565b34801561047257600080fd5b5061022e61048136600461167e565b610b9b565b34801561049257600080fd5b506101d1610ba9565b3480156104a757600080fd5b5061025460085481565b3480156104bd57600080fd5b506102546104cc366004611720565b610c37565b3480156104dd57600080fd5b50600f5461022e90600160a01b900460ff1681565b3480156104fe57600080fd5b506102f261050d3660046116fe565b610c62565b34801561051e57600080fd5b506102f2610cd8565b60606003805461053690611753565b80601f016020809104026020016040519081016040528092919081815260200182805461056290611753565b80156105af5780601f10610584576101008083540402835291602001916105af565b820191906000526020600020905b81548152906001019060200180831161059257829003601f168201915b5050505050905090565b6000336105c7818585610d6a565b60019150505b92915050565b6000336105e1858285610e8f565b6105ec858585610f09565b506001949350505050565b6000811161064c5760405162461bcd60e51b815260206004820181905260248201527f416d6f756e74206d7573742062652067726561746572207468616e207a65726f60448201526064015b60405180910390fd5b6008548160075461065d91906117a3565b11156106a45760405162461bcd60e51b815260206004820152601660248201527545786365656473206d6178696d756d20737570706c7960501b6044820152606401610643565b60006106af826110ad565b90506000612710600954836106c491906117b6565b6106ce91906117cd565b905060006106dc82846117a3565b90508034101561072e5760405162461bcd60e51b815260206004820152601760248201527f496e73756666696369656e742066756e64732073656e740000000000000000006044820152606401610643565b836007600082825461074091906117a3565b90915550610750905033856111f7565b604080518581526020810185905233917f8fafebcaf9d154343dad25669bfa277f4fbacd7ac6b0c4fed522580e040a0f33910160405180910390a2803411156107cb57336108fc6107a183346117ef565b6040518115909202916000818181858888f193505050501580156107c9573d6000803e3d6000fd5b505b600d54600e54604051630efed50760e41b81526001600160a01b039092169163efed507091610807918690600401918252602082015260400190565b600060405180830381600087803b15801561082157600080fd5b505af1158015610835573d6000803e3d6000fd5b5050600d54600e5460075460405163f2b2a74360e01b81526001600160a01b03909316945063f2b2a743935061087692600401918252602082015260400190565b600060405180830381600087803b15801561089057600080fd5b505af11580156108a4573d6000803e3d6000fd5b5050505050505050565b6000336105c78185856108c18383610c37565b6108cb91906117a3565b610d6a565b600f546001600160a01b031633146109385760405162461bcd60e51b815260206004820152602560248201527f4f6e6c7920746f6b656e2070726f66696c65206f776e65722063616e20776974604482015264686472617760d81b6064820152608401610643565b600f546040516001600160a01b03909116904780156108fc02916000818181858888f19350505050158015610971573d6000803e3d6000fd5b50565b6000811180156109935750336000908152602081905260409020548111155b6109d05760405162461bcd60e51b815260206004820152600e60248201526d125b9d985b1a5908185b5bdd5b9d60921b6044820152606401610643565b60006109db826112b6565b90506000612710600a54836109f091906117b6565b6109fa91906117cd565b90506000610a0882846117ef565b90508360076000828254610a1c91906117ef565b90915550610a2c90503385611416565b604080518581526020810185905233917f2dcf9433d75db0d8b1c172641f85e319ffe4ad22e108a95d1847ceb906e5195d910160405180910390a2604051339082156108fc029083906000818181858888f19350505050158015610a94573d6000803e3d6000fd5b506005546040516001600160a01b039091169083156108fc029084906000818181858888f193505050501580156107c9573d6000803e3d6000fd5b610ad7611540565b610ae1600061159a565b565b60068181548110610af357600080fd5b60009182526020909120600290910201805460019091015490915082565b60606004805461053690611753565b60003381610b2e8286610c37565b905083811015610b8e5760405162461bcd60e51b815260206004820152602560248201527f45524332303a2064656372656173656420616c6c6f77616e63652062656c6f77604482015264207a65726f60d81b6064820152608401610643565b6105ec8286868403610d6a565b6000336105c7818585610f09565b600c8054610bb690611753565b80601f0160208091040260200160405190810160405280929190818152602001828054610be290611753565b8015610c2f5780601f10610c0457610100808354040283529160200191610c2f565b820191906000526020600020905b815481529060010190602001808311610c1257829003601f168201915b505050505081565b6001600160a01b03918216600090815260016020908152604080832093909416825291909152205490565b610c6a611540565b6001600160a01b038116610ccf5760405162461bcd60e51b815260206004820152602660248201527f4f776e61626c653a206e6577206f776e657220697320746865207a65726f206160448201526564647265737360d01b6064820152608401610643565b6109718161159a565b600f80546001600160a01b03191633908117909155600d54600e5460405163d7615fef60e01b8152600481019190915260248101929092526001600160a01b03169063d7615fef90604401600060405180830381600087803b158015610d3d57600080fd5b505af1158015610d51573d6000803e3d6000fd5b5050600f805460ff60a01b1916600160a01b1790555050565b6001600160a01b038316610dcc5760405162461bcd60e51b8152602060048201526024808201527f45524332303a20617070726f76652066726f6d20746865207a65726f206164646044820152637265737360e01b6064820152608401610643565b6001600160a01b038216610e2d5760405162461bcd60e51b815260206004820152602260248201527f45524332303a20617070726f766520746f20746865207a65726f206164647265604482015261737360f01b6064820152608401610643565b6001600160a01b0383811660008181526001602090815260408083209487168084529482529182902085905590518481527f8c5be1e5ebec7d5bd14f71427d1e84f3dd0314c0f7b2291e5b200ac8c7c3b92591015b60405180910390a3505050565b6000610e9b8484610c37565b90506000198114610f035781811015610ef65760405162461bcd60e51b815260206004820152601d60248201527f45524332303a20696e73756666696369656e7420616c6c6f77616e63650000006044820152606401610643565b610f038484848403610d6a565b50505050565b6001600160a01b038316610f6d5760405162461bcd60e51b815260206004820152602560248201527f45524332303a207472616e736665722066726f6d20746865207a65726f206164604482015264647265737360d81b6064820152608401610643565b6001600160a01b038216610fcf5760405162461bcd60e51b815260206004820152602360248201527f45524332303a207472616e7366657220746f20746865207a65726f206164647260448201526265737360e81b6064820152608401610643565b6001600160a01b038316600090815260208190526040902054818110156110475760405162461bcd60e51b815260206004820152602660248201527f45524332303a207472616e7366657220616d6f756e7420657863656564732062604482015265616c616e636560d01b6064820152608401610643565b6001600160a01b03848116600081815260208181526040808320878703905593871680835291849020805487019055925185815290927fddf252ad1be2c89b69c2b068fc378daa952ba7f163c4a11628f55a4df523b3ef910160405180910390a3610f03565b6007546000908190815b6006548110156111ee57600681815481106110d4576110d4611802565b9060005260206000209060020201600001548210156111c0576000826006838154811061110357611103611802565b90600052602060002090600202016000015461111f91906117ef565b905080861161116a576006828154811061113b5761113b611802565b9060005260206000209060020201600101548661115891906117b6565b61116290856117a3565b9350506111ee565b6006828154811061117d5761117d611802565b9060005260206000209060020201600101548161119a91906117b6565b6111a490856117a3565b93506111b081876117ef565b95506111bc81846117a3565b9250505b600681815481106111d3576111d3611802565b600091825260209091206002909102015491506001016110b7565b50909392505050565b6001600160a01b03821661124d5760405162461bcd60e51b815260206004820152601f60248201527f45524332303a206d696e7420746f20746865207a65726f2061646472657373006044820152606401610643565b806002600082825461125f91906117a3565b90915550506001600160a01b038216600081815260208181526040808320805486019055518481527fddf252ad1be2c89b69c2b068fc378daa952ba7f163c4a11628f55a4df523b3ef910160405180910390a35050565b600080600090506000836007546112cd91906117ef565b6006549091505b80156111ee5760066112e76001836117ef565b815481106112f7576112f7611802565b9060005260206000209060020201600001548210156113d25760008260066113206001856117ef565b8154811061133057611330611802565b90600052602060002090600202016000015461134c91906117ef565b90508086116113725760066113626001846117ef565b8154811061113b5761113b611802565b600661137f6001846117ef565b8154811061138f5761138f611802565b906000526020600020906002020160010154816113ac91906117b6565b6113b690856117a3565b93506113c281876117ef565b95506113ce81846117a3565b9250505b60066113df6001836117ef565b815481106113ef576113ef611802565b9060005260206000209060020201600001549150808061140e90611818565b9150506112d4565b6001600160a01b0382166114765760405162461bcd60e51b815260206004820152602160248201527f45524332303a206275726e2066726f6d20746865207a65726f206164647265736044820152607360f81b6064820152608401610643565b6001600160a01b038216600090815260208190526040902054818110156114ea5760405162461bcd60e51b815260206004820152602260248201527f45524332303a206275726e20616d6f756e7420657863656564732062616c616e604482015261636560f01b6064820152608401610643565b6001600160a01b0383166000818152602081815260408083208686039055600280548790039055518581529192917fddf252ad1be2c89b69c2b068fc378daa952ba7f163c4a11628f55a4df523b3ef9101610e82565b6005546001600160a01b03163314610ae15760405162461bcd60e51b815260206004820181905260248201527f4f776e61626c653a2063616c6c6572206973206e6f7420746865206f776e65726044820152606401610643565b600580546001600160a01b038381166001600160a01b0319831681179093556040519116919082907f8be0079c531659141344cd1fd0a4f28419497f9722a3daafe3b4186f6b6457e090600090a35050565b602081526000825180602084015260005b8181101561161a57602081860181015160408684010152016115fd565b506000604082850101526040601f19601f83011684010191505092915050565b602081016004831061165c57634e487b7160e01b600052602160045260246000fd5b91905290565b80356001600160a01b038116811461167957600080fd5b919050565b6000806040838503121561169157600080fd5b61169a83611662565b946020939093013593505050565b6000806000606084860312156116bd57600080fd5b6116c684611662565b92506116d460208501611662565b929592945050506040919091013590565b6000602082840312156116f757600080fd5b5035919050565b60006020828403121561171057600080fd5b61171982611662565b9392505050565b6000806040838503121561173357600080fd5b61173c83611662565b915061174a60208401611662565b90509250929050565b600181811c9082168061176757607f821691505b60208210810361178757634e487b7160e01b600052602260045260246000fd5b50919050565b634e487b7160e01b600052601160045260246000fd5b808201808211156105cd576105cd61178d565b80820281158282048414176105cd576105cd61178d565b6000826117ea57634e487b7160e01b600052601260045260246000fd5b500490565b818103818111156105cd576105cd61178d565b634e487b7160e01b600052603260045260246000fd5b6000816118275761182761178d565b50600019019056fea2646970667358221220d49becf33f923bf112251c5d6ac0b97dfa43e95cd7a45e3bf041592c8b6a844a64736f6c634300081b0033a7197c38d9c4c7450c7f2cd20d0a17cbe7c344190d6c82a6b49a146e62439ae4a2646970667358221220756f45b827756f14292db7af3188670c97c167163b625510b1b1c03de22f6cdd64736f6c634300081b0033",
  "linkReferences": {},
  "deployedLinkReferences": {}
}