{
  "_format": "hh-sol-artifact-1",
  "contractName": "Factory",
  "sourceName": "contracts/Factory.sol",
  "abi": [
    {
      "anonymous": false,
      "inputs": [
        {
          "indexed": true,
          "internalType": "bytes32",
          "name": "role",
          "type": "bytes32"
        },
        {
          "indexed": true,
          "internalType": "bytes32",
          "name": "previousAdminRole",
          "type": "bytes32"
        },
        {
          "indexed": true,
          "internalType": "bytes32",
          "name": "newAdminRole",
          "type": "bytes32"
        }
      ],
      "name": "RoleAdminChanged",
      "type": "event"
    },
    {
      "anonymous": false,
      "inputs": [
        {
          "indexed": true,
          "internalType": "bytes32",
          "name": "role",
          "type": "bytes32"
        },
        {
          "indexed": true,
          "internalType": "address",
          "name": "account",
          "type": "address"
        },
        {
          "indexed": true,
          "internalType": "address",
          "name": "sender",
          "type": "address"
        }
      ],
      "name": "RoleGranted",
      "type": "event"
    },
    {
      "anonymous": false,
      "inputs": [
        {
          "indexed": true,
          "internalType": "bytes32",
          "name": "role",
          "type": "bytes32"
        },
        {
          "indexed": true,
          "internalType": "address",
          "name": "account",
          "type": "address"
        },
        {
          "indexed": true,
          "internalType": "address",
          "name": "sender",
          "type": "address"
        }
      ],
      "name": "RoleRevoked",
      "type": "event"
    },
    {
      "inputs": [],
      "name": "DEFAULT_ADMIN_ROLE",
      "outputs": [
        {
          "internalType": "bytes32",
          "name": "",
          "type": "bytes32"
        }
      ],
      "stateMutability": "view",
      "type": "function"
    },
    {
      "inputs": [],
      "name": "INVITE_FEE",
      "outputs": [
        {
          "internalType": "uint256",
          "name": "",
          "type": "uint256"
        }
      ],
      "stateMutability": "view",
      "type": "function"
    },
    {
      "inputs": [],
      "name": "TOKEN_ROLE",
      "outputs": [
        {
          "internalType": "bytes32",
          "name": "",
          "type": "bytes32"
        }
      ],
      "stateMutability": "view",
      "type": "function"
    },
    {
      "inputs": [],
      "name": "count",
      "outputs": [
        {
          "internalType": "uint256",
          "name": "",
          "type": "uint256"
        }
      ],
      "stateMutability": "view",
      "type": "function"
    },
    {
      "inputs": [
        {
          "internalType": "enum Factory.Provider",
          "name": "provider",
          "type": "uint8"
        },
        {
          "internalType": "string",
          "name": "profile",
          "type": "string"
        }
      ],
      "name": "createContract",
      "outputs": [],
      "stateMutability": "payable",
      "type": "function"
    },
    {
      "inputs": [
        {
          "internalType": "address",
          "name": "",
          "type": "address"
        }
      ],
      "name": "deployedAccounts",
      "outputs": [
        {
          "internalType": "string",
          "name": "profile",
          "type": "string"
        },
        {
          "internalType": "enum Factory.Provider",
          "name": "provider",
          "type": "uint8"
        }
      ],
      "stateMutability": "view",
      "type": "function"
    },
    {
      "inputs": [
        {
          "internalType": "uint256",
          "name": "",
          "type": "uint256"
        }
      ],
      "name": "deployedContract",
      "outputs": [
        {
          "internalType": "address",
          "name": "",
          "type": "address"
        }
      ],
      "stateMutability": "view",
      "type": "function"
    },
    {
      "inputs": [
        {
          "internalType": "uint256",
          "name": "",
          "type": "uint256"
        }
      ],
      "name": "deployedContracts",
      "outputs": [
        {
          "internalType": "address",
          "name": "",
          "type": "address"
        }
      ],
      "stateMutability": "view",
      "type": "function"
    },
    {
      "inputs": [
        {
          "internalType": "enum Factory.Provider",
          "name": "",
          "type": "uint8"
        },
        {
          "internalType": "string",
          "name": "",
          "type": "string"
        }
      ],
      "name": "deployedProfiles",
      "outputs": [
        {
          "internalType": "bool",
          "name": "",
          "type": "bool"
        }
      ],
      "stateMutability": "view",
      "type": "function"
    },
    {
      "inputs": [],
      "name": "getDeployedContracts",
      "outputs": [
        {
          "components": [
            {
              "internalType": "address",
              "name": "contractAddress",
              "type": "address"
            },
            {
              "internalType": "string",
              "name": "profile",
              "type": "string"
            },
            {
              "internalType": "enum Factory.Provider",
              "name": "provider",
              "type": "uint8"
            },
            {
              "internalType": "uint256",
              "name": "id",
              "type": "uint256"
            },
            {
              "internalType": "address",
              "name": "inviter",
              "type": "address"
            }
          ],
          "internalType": "struct Factory.DeployedContract[]",
          "name": "",
          "type": "tuple[]"
        }
      ],
      "stateMutability": "view",
      "type": "function"
    },
    {
      "inputs": [
        {
          "internalType": "address",
          "name": "user",
          "type": "address"
        }
      ],
      "name": "getDeployedContractsByInviter",
      "outputs": [
        {
          "components": [
            {
              "internalType": "address",
              "name": "contractAddress",
              "type": "address"
            },
            {
              "internalType": "string",
              "name": "profile",
              "type": "string"
            },
            {
              "internalType": "enum Factory.Provider",
              "name": "provider",
              "type": "uint8"
            },
            {
              "internalType": "uint256",
              "name": "id",
              "type": "uint256"
            },
            {
              "internalType": "address",
              "name": "inviter",
              "type": "address"
            }
          ],
          "internalType": "struct Factory.DeployedContract[]",
          "name": "",
          "type": "tuple[]"
        }
      ],
      "stateMutability": "view",
      "type": "function"
    },
    {
      "inputs": [
        {
          "internalType": "address",
          "name": "user",
          "type": "address"
        }
      ],
      "name": "getPoints",
      "outputs": [
        {
          "internalType": "uint256",
          "name": "",
          "type": "uint256"
        }
      ],
      "stateMutability": "view",
      "type": "function"
    },
    {
      "inputs": [
        {
          "internalType": "bytes32",
          "name": "role",
          "type": "bytes32"
        }
      ],
      "name": "getRoleAdmin",
      "outputs": [
        {
          "internalType": "bytes32",
          "name": "",
          "type": "bytes32"
        }
      ],
      "stateMutability": "view",
      "type": "function"
    },
    {
      "inputs": [
        {
          "internalType": "bytes32",
          "name": "role",
          "type": "bytes32"
        },
        {
          "internalType": "address",
          "name": "account",
          "type": "address"
        }
      ],
      "name": "grantRole",
      "outputs": [],
      "stateMutability": "nonpayable",
      "type": "function"
    },
    {
      "inputs": [
        {
          "internalType": "bytes32",
          "name": "role",
          "type": "bytes32"
        },
        {
          "internalType": "address",
          "name": "account",
          "type": "address"
        }
      ],
      "name": "hasRole",
      "outputs": [
        {
          "internalType": "bool",
          "name": "",
          "type": "bool"
        }
      ],
      "stateMutability": "view",
      "type": "function"
    },
    {
      "inputs": [
        {
          "internalType": "address",
          "name": "",
          "type": "address"
        }
      ],
      "name": "inviteCounts",
      "outputs": [
        {
          "internalType": "uint256",
          "name": "",
          "type": "uint256"
        }
      ],
      "stateMutability": "view",
      "type": "function"
    },
    {
      "inputs": [
        {
          "internalType": "enum Factory.Provider",
          "name": "",
          "type": "uint8"
        },
        {
          "internalType": "string",
          "name": "",
          "type": "string"
        }
      ],
      "name": "inviters",
      "outputs": [
        {
          "internalType": "address",
          "name": "",
          "type": "address"
        }
      ],
      "stateMutability": "view",
      "type": "function"
    },
    {
      "inputs": [
        {
          "internalType": "address",
          "name": "",
          "type": "address"
        },
        {
          "internalType": "uint256",
          "name": "",
          "type": "uint256"
        }
      ],
      "name": "invites",
      "outputs": [
        {
          "internalType": "uint256",
          "name": "",
          "type": "uint256"
        }
      ],
      "stateMutability": "view",
      "type": "function"
    },
    {
      "inputs": [
        {
          "internalType": "enum Factory.Provider",
          "name": "provider",
          "type": "uint8"
        },
        {
          "internalType": "string",
          "name": "profile",
          "type": "string"
        }
      ],
      "name": "isCreated",
      "outputs": [
        {
          "internalType": "bool",
          "name": "",
          "type": "bool"
        }
      ],
      "stateMutability": "view",
      "type": "function"
    },
    {
      "inputs": [
        {
          "internalType": "address",
          "name": "",
          "type": "address"
        }
      ],
      "name": "points",
      "outputs": [
        {
          "internalType": "uint256",
          "name": "",
          "type": "uint256"
        }
      ],
      "stateMutability": "view",
      "type": "function"
    },
    {
      "inputs": [
        {
          "internalType": "bytes32",
          "name": "role",
          "type": "bytes32"
        },
        {
          "internalType": "address",
          "name": "account",
          "type": "address"
        }
      ],
      "name": "renounceRole",
      "outputs": [],
      "stateMutability": "nonpayable",
      "type": "function"
    },
    {
      "inputs": [
        {
          "internalType": "bytes32",
          "name": "role",
          "type": "bytes32"
        },
        {
          "internalType": "address",
          "name": "account",
          "type": "address"
        }
      ],
      "name": "revokeRole",
      "outputs": [],
      "stateMutability": "nonpayable",
      "type": "function"
    },
    {
      "inputs": [
        {
          "internalType": "bytes4",
          "name": "interfaceId",
          "type": "bytes4"
        }
      ],
      "name": "supportsInterface",
      "outputs": [
        {
          "internalType": "bool",
          "name": "",
          "type": "bool"
        }
      ],
      "stateMutability": "view",
      "type": "function"
    },
    {
      "inputs": [
        {
          "internalType": "address",
          "name": "",
          "type": "address"
        }
      ],
      "name": "tokenInviter",
      "outputs": [
        {
          "internalType": "address",
          "name": "",
          "type": "address"
        }
      ],
      "stateMutability": "view",
      "type": "function"
    }
  ],
  "bytecode": "0x6080604052600060025566038d7ea4c68000600b55348015601f57600080fd5b506137678061002f6000396000f3fe60806040526004361061014b5760003560e01c806368005615116100b6578063a2ec8b331161006f578063a2ec8b3314610419578063aa9a068f1461046b578063cfef8b3114610480578063d547741f146104cc578063de2dd221146104ec578063ee204abb1461051957600080fd5b806368005615146103425780638301057b1461036257806391d14854146103965780639697d188146103b65780639ad1ee10146103e4578063a217fddf1461040457600080fd5b80632f2ff15d116101085780632f2ff15d1461025d5780633383e7951461027f578063358b8166146102b557806336568abe146102e2578063481c46d1146103025780635b93443e1461032f57600080fd5b806301ffc9a71461015057806306661abd146101855780631e285caa146101a957806323628b57146101f7578063248a9ca3146102175780632c31304614610247575b600080fd5b34801561015c57600080fd5b5061017061016b366004611570565b61054f565b60405190151581526020015b60405180910390f35b34801561019157600080fd5b5061019b60025481565b60405190815260200161017c565b3480156101b557600080fd5b506101df6101c436600461159a565b6003602052600090815260409020546001600160a01b031681565b6040516001600160a01b03909116815260200161017c565b34801561020357600080fd5b5061019b6102123660046115cf565b610586565b34801561022357600080fd5b5061019b61023236600461159a565b60009081526020819052604090206001015490565b34801561025357600080fd5b5061019b600b5481565b34801561026957600080fd5b5061027d6102783660046115f9565b6105b7565b005b34801561028b57600080fd5b506101df61029a366004611625565b6007602052600090815260409020546001600160a01b031681565b3480156102c157600080fd5b5061019b6102d0366004611625565b60086020526000908152604090205481565b3480156102ee57600080fd5b5061027d6102fd3660046115f9565b6105e1565b34801561030e57600080fd5b5061032261031d366004611625565b610664565b60405161017c91906116c8565b61027d61033d366004611793565b61092a565b34801561034e57600080fd5b5061017061035d366004611793565b610d42565b34801561036e57600080fd5b5061019b7fa7197c38d9c4c7450c7f2cd20d0a17cbe7c344190d6c82a6b49a146e62439ae481565b3480156103a257600080fd5b506101706103b13660046115f9565b610da2565b3480156103c257600080fd5b506103d66103d1366004611625565b610dcb565b60405161017c929190611863565b3480156103f057600080fd5b506101df6103ff36600461159a565b610e72565b34801561041057600080fd5b5061019b600081565b34801561042557600080fd5b506101df610434366004611793565b600660209081526000928352604090922081518083018401805192815290840192909301919091209152546001600160a01b031681565b34801561047757600080fd5b50610322610e9c565b34801561048c57600080fd5b5061017061049b366004611793565b6005602090815260009283526040909220815180830184018051928152908401929093019190912091525460ff1681565b3480156104d857600080fd5b5061027d6104e73660046115f9565b6110cf565b3480156104f857600080fd5b5061019b610507366004611625565b60096020526000908152604090205481565b34801561052557600080fd5b5061019b610534366004611625565b6001600160a01b031660009081526008602052604090205490565b60006001600160e01b03198216637965db0b60e01b148061058057506301ffc9a760e01b6001600160e01b03198316145b92915050565b600a60205281600052604060002081815481106105a257600080fd5b90600052602060002001600091509150505481565b6000828152602081905260409020600101546105d2816110f4565b6105dc8383611101565b505050565b6001600160a01b03811633146106565760405162461bcd60e51b815260206004820152602f60248201527f416363657373436f6e74726f6c3a2063616e206f6e6c792072656e6f756e636560448201526e103937b632b9903337b91039b2b63360891b60648201526084015b60405180910390fd5b6106608282611185565b5050565b6001600160a01b0381166000908152600a602090815260408083208054825181850281018501909352808352606094938301828280156106c357602002820191906000526020600020905b8154815260200190600101908083116106af575b505050505090506000815167ffffffffffffffff8111156106e6576106e661177d565b60405190808252806020026020018201604052801561074957816020015b6107366040805160a0810182526000808252606060208301529091820190815260006020820181905260409091015290565b8152602001906001900390816107045790505b50905060005b8251811015610922576000600184838151811061076e5761076e611885565b60200260200101518154811061078657610786611885565b60009182526020808320909101546001600160a01b031680835260049091526040808320815180830190925280549294509091829082906107c69061189b565b80601f01602080910402602001604051908101604052809291908181526020018280546107f29061189b565b801561083f5780601f106108145761010080835404028352916020019161083f565b820191906000526020600020905b81548152906001019060200180831161082257829003601f168201915b5050509183525050600182015460209091019060ff16600381111561086657610866611690565b600381111561087757610877611690565b8152505090506040518060a00160405280836001600160a01b0316815260200182600001518152602001826020015160038111156108b7576108b7611690565b81526020018685815181106108ce576108ce611885565b60209081029190910181015182526001600160a01b03808616600090815260078352604090205416910152845185908590811061090d5761090d611885565b6020908102919091010152505060010161074f565b509392505050565b600082600381111561093e5761093e611690565b148061095b5750600182600381111561095957610959611690565b145b806109775750600282600381111561097557610975611690565b145b806109935750600382600381111561099157610991611690565b145b6109d25760405162461bcd60e51b815260206004820152601060248201526f24b73b30b634b210383937bb34b232b960811b604482015260640161064d565b600b543414610a145760405162461bcd60e51b815260206004820152600e60248201526d125b9d985b1a5908185b5bdd5b9d60921b604482015260640161064d565b60056000836003811115610a2a57610a2a611690565b6003811115610a3b57610a3b611690565b815260200190815260200160002081604051610a5791906118cf565b9081526040519081900360200190205460ff1615610aca5760405162461bcd60e51b815260206004820152602a60248201527f436f6e747261637420666f7220746869732070726f66696c6520616c726561646044820152691e4819195c1b1bde595960b21b606482015260840161064d565b6000610ad76002546111ea565b604051602001610ae791906118eb565b6040516020818303038152906040529050600030600254838686604051610b0d90611563565b610b1b959493929190611915565b604051809103906000f080158015610b37573d6000803e3d6000fd5b509050610b647fa7197c38d9c4c7450c7f2cd20d0a17cbe7c344190d6c82a6b49a146e62439ae482611101565b6040518060400160405280848152602001856003811115610b8757610b87611690565b90526001600160a01b038216600090815260046020526040902081518190610baf90826119d4565b50602082015160018083018054909160ff1990911690836003811115610bd757610bd7611690565b021790555050600180548082019091557fb10e2d527612073b26eecdfd717e6a320cf44b4afac2b0732d9fcbe2b7fa0cf60180546001600160a01b0319166001600160a01b03841617905550336000908152600860205260408120805460c89290610c43908490611aa9565b9091555033905060066000866003811115610c6057610c60611690565b6003811115610c7157610c71611690565b815260200190815260200160002084604051610c8d91906118cf565b908152604080516020928190038301902080546001600160a01b0319166001600160a01b0394909416939093179092553360009081526009909152908120805491610cd783611abc565b90915550506001600160a01b038116600090815260076020908152604080832080546001600160a01b031916339081179091558352600a8252822060028054825460018101845592855292842090910191909155805491610d3783611abc565b919050555050505050565b600060056000846003811115610d5a57610d5a611690565b6003811115610d6b57610d6b611690565b815260200190815260200160002082604051610d8791906118cf565b9081526040519081900360200190205460ff16905092915050565b6000918252602082815260408084206001600160a01b0393909316845291905290205460ff1690565b600460205260009081526040902080548190610de69061189b565b80601f0160208091040260200160405190810160405280929190818152602001828054610e129061189b565b8015610e5f5780601f10610e3457610100808354040283529160200191610e5f565b820191906000526020600020905b815481529060010190602001808311610e4257829003601f168201915b5050506001909301549192505060ff1682565b60018181548110610e8257600080fd5b6000918252602090912001546001600160a01b0316905081565b60015460609060009067ffffffffffffffff811115610ebd57610ebd61177d565b604051908082528060200260200182016040528015610f2057816020015b610f0d6040805160a0810182526000808252606060208301529091820190815260006020820181905260409091015290565b815260200190600190039081610edb5790505b50905060005b6001548110156110c957600060018281548110610f4557610f45611885565b60009182526020808320909101546001600160a01b03168083526004909152604080832081518083019092528054929450909182908290610f859061189b565b80601f0160208091040260200160405190810160405280929190818152602001828054610fb19061189b565b8015610ffe5780601f10610fd357610100808354040283529160200191610ffe565b820191906000526020600020905b815481529060010190602001808311610fe157829003601f168201915b5050509183525050600182015460209091019060ff16600381111561102557611025611690565b600381111561103657611036611690565b8152505090506040518060a00160405280836001600160a01b03168152602001826000015181526020018260200151600381111561107657611076611690565b815260208082018690526001600160a01b0380861660009081526007909252604091829020541691015284518590859081106110b4576110b4611885565b60209081029190910101525050600101610f26565b50919050565b6000828152602081905260409020600101546110ea816110f4565b6105dc8383611185565b6110fe813361127d565b50565b61110b8282610da2565b610660576000828152602081815260408083206001600160a01b03851684529091529020805460ff191660011790556111413390565b6001600160a01b0316816001600160a01b0316837f2f8788117e7eff1d82e926ec794901d17c78024a50270940304540a733656f0d60405160405180910390a45050565b61118f8282610da2565b15610660576000828152602081815260408083206001600160a01b0385168085529252808320805460ff1916905551339285917ff6391f5c32d9c69d2a47ea670b442974b53935d1edc7fd64eb21e047a839171b9190a45050565b606060006111f7836112d6565b600101905060008167ffffffffffffffff8111156112175761121761177d565b6040519080825280601f01601f191660200182016040528015611241576020820181803683370190505b5090508181016020015b600019016f181899199a1a9b1b9c1cb0b131b232b360811b600a86061a8153600a850494508461124b57509392505050565b6112878282610da2565b61066057611294816113ae565b61129f8360206113c0565b6040516020016112b0929190611ad5565b60408051601f198184030181529082905262461bcd60e51b825261064d91600401611b4a565b60008072184f03e93ff9f4daa797ed6e38ed64bf6a1f0160401b83106113155772184f03e93ff9f4daa797ed6e38ed64bf6a1f0160401b830492506040015b6d04ee2d6d415b85acef81000000008310611341576d04ee2d6d415b85acef8100000000830492506020015b662386f26fc10000831061135f57662386f26fc10000830492506010015b6305f5e1008310611377576305f5e100830492506008015b612710831061138b57612710830492506004015b6064831061139d576064830492506002015b600a83106105805760010192915050565b60606105806001600160a01b03831660145b606060006113cf836002611b5d565b6113da906002611aa9565b67ffffffffffffffff8111156113f2576113f261177d565b6040519080825280601f01601f19166020018201604052801561141c576020820181803683370190505b509050600360fc1b8160008151811061143757611437611885565b60200101906001600160f81b031916908160001a905350600f60fb1b8160018151811061146657611466611885565b60200101906001600160f81b031916908160001a905350600061148a846002611b5d565b611495906001611aa9565b90505b600181111561150d576f181899199a1a9b1b9c1cb0b131b232b360811b85600f16601081106114c9576114c9611885565b1a60f81b8282815181106114df576114df611885565b60200101906001600160f81b031916908160001a90535060049490941c9361150681611b74565b9050611498565b50831561155c5760405162461bcd60e51b815260206004820181905260248201527f537472696e67733a20686578206c656e67746820696e73756666696369656e74604482015260640161064d565b9392505050565b611ba680611b8c83390190565b60006020828403121561158257600080fd5b81356001600160e01b03198116811461155c57600080fd5b6000602082840312156115ac57600080fd5b5035919050565b80356001600160a01b03811681146115ca57600080fd5b919050565b600080604083850312156115e257600080fd5b6115eb836115b3565b946020939093013593505050565b6000806040838503121561160c57600080fd5b8235915061161c602084016115b3565b90509250929050565b60006020828403121561163757600080fd5b61155c826115b3565b60005b8381101561165b578181015183820152602001611643565b50506000910152565b6000815180845261167c816020860160208601611640565b601f01601f19169290920160200192915050565b634e487b7160e01b600052602160045260246000fd5b600481106116c457634e487b7160e01b600052602160045260246000fd5b9052565b6000602082016020835280845180835260408501915060408160051b86010192506020860160005b8281101561177157868503603f19018452815180516001600160a01b0316865260208082015160a09188018290529061172b90880182611664565b9050604082015161173f60408901826116a6565b50606082810151908801526080918201516001600160a01b0316919096015260209384019391909101906001016116f0565b50929695505050505050565b634e487b7160e01b600052604160045260246000fd5b600080604083850312156117a657600080fd5b8235600481106117b557600080fd5b9150602083013567ffffffffffffffff8111156117d157600080fd5b8301601f810185136117e257600080fd5b803567ffffffffffffffff8111156117fc576117fc61177d565b604051601f8201601f19908116603f0116810167ffffffffffffffff8111828210171561182b5761182b61177d565b60405281815282820160200187101561184357600080fd5b816020840160208301376000602083830101528093505050509250929050565b6040815260006118766040830185611664565b905061155c60208301846116a6565b634e487b7160e01b600052603260045260246000fd5b600181811c908216806118af57607f821691505b6020821081036110c957634e487b7160e01b600052602260045260246000fd5b600082516118e1818460208701611640565b9190910192915050565b61192160f11b815260008251611908816002850160208701611640565b9190910160020192915050565b60018060a01b038616815284602082015260c06040820152600660c0820152650c90985cd95960d21b60e08201526101006060820152600061195b610100830186611664565b61196860808401866116a6565b82810360a084015261197a8185611664565b98975050505050505050565b601f8211156105dc57806000526020600020601f840160051c810160208510156119ad5750805b601f840160051c820191505b818110156119cd57600081556001016119b9565b5050505050565b815167ffffffffffffffff8111156119ee576119ee61177d565b611a02816119fc845461189b565b84611986565b6020601f821160018114611a365760008315611a1e5750848201515b600019600385901b1c1916600184901b1784556119cd565b600084815260208120601f198516915b82811015611a665787850151825560209485019460019092019101611a46565b5084821015611a845786840151600019600387901b60f8161c191681555b50505050600190811b01905550565b634e487b7160e01b600052601160045260246000fd5b8082018082111561058057610580611a93565b600060018201611ace57611ace611a93565b5060010190565b7f416363657373436f6e74726f6c3a206163636f756e7420000000000000000000815260008351611b0d816017850160208801611640565b7001034b99036b4b9b9b4b733903937b6329607d1b6017918401918201528351611b3e816028840160208801611640565b01602801949350505050565b60208152600061155c6020830184611664565b808202811582820484141761058057610580611a93565b600081611b8357611b83611a93565b50600019019056fe6080604052620f42406008556103e86009556103e8600a5534801561002357600080fd5b50604051611ba6380380611ba683398101604081905261004291610388565b8383600361005083826104de565b50600461005d82826104de565b50505061007661007161026560201b60201c565b610269565b600e859055600d80546001600160a01b0319166001600160a01b038816179055600b805483919060ff191660018360038111156100b5576100b561059c565b0217905550600c6100c682826104de565b505060408051808201825261012c81526509184e72a000602080830191825260068054600181810183556000838152955160029283027ff652222313e28459528d920b65115c16c04f3efc82aaedc97be59f3f377c0d3f8181019290925595517ff652222313e28459528d920b65115c16c04f3efc82aaedc97be59f3f377c0d4096870155875180890189526102588152655af3107a400081870190815285548085018755868a529151918502808401929092555190870155875180890189526103e8815266038d7ea4c6800081870190815285548085018755868a529151918502808401929092555190870155875180890189526127108152662386f26fc1000081870190815285548085018755868a52915191850280840192909255519087015587518089018952620186a0815267016345785d8a000081870190815285548085018755868a5291519185028084019290925551908701558751808901909852620f42408852670de0b6b3a76400009488019485528354918201845592909552945193909402938401929092559051910155506105b29350505050565b3390565b600580546001600160a01b038381166001600160a01b0319831681179093556040519116919082907f8be0079c531659141344cd1fd0a4f28419497f9722a3daafe3b4186f6b6457e090600090a35050565b634e487b7160e01b600052604160045260246000fd5b600082601f8301126102e257600080fd5b81516001600160401b038111156102fb576102fb6102bb565b604051601f8201601f19908116603f011681016001600160401b0381118282101715610329576103296102bb565b60405281815283820160200185101561034157600080fd5b60005b8281101561036057602081860181015183830182015201610344565b506000918101602001919091529392505050565b80516004811061038357600080fd5b919050565b60008060008060008060c087890312156103a157600080fd5b86516001600160a01b03811681146103b857600080fd5b6020880151604089015191975095506001600160401b038111156103db57600080fd5b6103e789828a016102d1565b606089015190955090506001600160401b0381111561040557600080fd5b61041189828a016102d1565b93505061042060808801610374565b60a08801519092506001600160401b0381111561043c57600080fd5b61044889828a016102d1565b9150509295509295509295565b600181811c9082168061046957607f821691505b60208210810361048957634e487b7160e01b600052602260045260246000fd5b50919050565b601f8211156104d957806000526020600020601f840160051c810160208510156104b65750805b601f840160051c820191505b818110156104d657600081556001016104c2565b50505b505050565b81516001600160401b038111156104f7576104f76102bb565b61050b816105058454610455565b8461048f565b6020601f82116001811461053f57600083156105275750848201515b600019600385901b1c1916600184901b1784556104d6565b600084815260208120601f198516915b8281101561056f578785015182556020948501946001909201910161054f565b508482101561058d5786840151600019600387901b60f8161c191681555b50505050600190811b01905550565b634e487b7160e01b600052602160045260246000fd5b6115e5806105c16000396000f3fe6080604052600436106101665760003560e01c806347062402116100d157806395d89b411161008a578063ab60636c11610064578063ab60636c1461040b578063d5abeb0114610420578063dd62ed3e14610436578063f2fde38b1461045657600080fd5b806395d89b41146103b6578063a457c2d7146103cb578063a9059cbb146103eb57600080fd5b806347062402146102d85780636c11bcd3146102ee57806370a082311461030e578063715018a6146103445780638a497c4c146103595780638da5cb5b1461038e57600080fd5b80632b14ca56116101235780632b14ca56146102465780632e187a681461025c578063313ce567146102725780633610724e1461028e57806339509351146102a35780633ccfd60b146102c357600080fd5b806306fdde031461016b578063085d488314610196578063095ea7b3146101bd57806317d70f7c146101ed57806318160ddd1461021157806323b872dd14610226575b600080fd5b34801561017757600080fd5b50610180610476565b60405161018d919061136c565b60405180910390f35b3480156101a257600080fd5b50600b546101b09060ff1681565b60405161018d91906113ba565b3480156101c957600080fd5b506101dd6101d83660046113fe565b610508565b604051901515815260200161018d565b3480156101f957600080fd5b50610203600e5481565b60405190815260200161018d565b34801561021d57600080fd5b50600254610203565b34801561023257600080fd5b506101dd610241366004611428565b610522565b34801561025257600080fd5b50610203600a5481565b34801561026857600080fd5b5061020360075481565b34801561027e57600080fd5b506040516012815260200161018d565b6102a161029c366004611465565b610546565b005b3480156102af57600080fd5b506101dd6102be3660046113fe565b61075b565b3480156102cf57600080fd5b506102a161077d565b3480156102e457600080fd5b5061020360095481565b3480156102fa57600080fd5b506102a1610309366004611465565b6107c1565b34801561031a57600080fd5b5061020361032936600461147e565b6001600160a01b031660009081526020819052604090205490565b34801561035057600080fd5b506102a16108e1565b34801561036557600080fd5b50610379610374366004611465565b6108f5565b6040805192835260208301919091520161018d565b34801561039a57600080fd5b506005546040516001600160a01b03909116815260200161018d565b3480156103c257600080fd5b50610180610923565b3480156103d757600080fd5b506101dd6103e63660046113fe565b610932565b3480156103f757600080fd5b506101dd6104063660046113fe565b6109ad565b34801561041757600080fd5b506101806109bb565b34801561042c57600080fd5b5061020360085481565b34801561044257600080fd5b506102036104513660046114a0565b610a49565b34801561046257600080fd5b506102a161047136600461147e565b610a74565b606060038054610485906114d3565b80601f01602080910402602001604051908101604052809291908181526020018280546104b1906114d3565b80156104fe5780601f106104d3576101008083540402835291602001916104fe565b820191906000526020600020905b8154815290600101906020018083116104e157829003601f168201915b5050505050905090565b600033610516818585610aea565b60019150505b92915050565b600033610530858285610c0f565b61053b858585610c89565b506001949350505050565b6000811161059b5760405162461bcd60e51b815260206004820181905260248201527f416d6f756e74206d7573742062652067726561746572207468616e207a65726f60448201526064015b60405180910390fd5b600854816007546105ac9190611523565b11156105f35760405162461bcd60e51b815260206004820152601660248201527545786365656473206d6178696d756d20737570706c7960501b6044820152606401610592565b60006105fe82610e2d565b90506000612710600954836106139190611536565b61061d919061154d565b9050600061062b8284611523565b90508034101561067d5760405162461bcd60e51b815260206004820152601760248201527f496e73756666696369656e742066756e64732073656e740000000000000000006044820152606401610592565b836007600082825461068f9190611523565b9091555061069f90503385610f77565b604080518581526020810185905233917f8fafebcaf9d154343dad25669bfa277f4fbacd7ac6b0c4fed522580e040a0f33910160405180910390a28034111561071a57336108fc6106f0833461156f565b6040518115909202916000818181858888f19350505050158015610718573d6000803e3d6000fd5b505b6005546040516001600160a01b039091169083156108fc029084906000818181858888f19350505050158015610754573d6000803e3d6000fd5b5050505050565b60003361051681858561076e8383610a49565b6107789190611523565b610aea565b610785611036565b6005546040516001600160a01b03909116904780156108fc02916000818181858888f193505050501580156107be573d6000803e3d6000fd5b50565b6000811180156107e05750336000908152602081905260409020548111155b61081d5760405162461bcd60e51b815260206004820152600e60248201526d125b9d985b1a5908185b5bdd5b9d60921b6044820152606401610592565b600061082882611090565b90506000612710600a548361083d9190611536565b610847919061154d565b90506000610855828461156f565b90508360076000828254610869919061156f565b90915550610879905033856111f0565b604080518581526020810185905233917f2dcf9433d75db0d8b1c172641f85e319ffe4ad22e108a95d1847ceb906e5195d910160405180910390a2604051339082156108fc029083906000818181858888f19350505050158015610718573d6000803e3d6000fd5b6108e9611036565b6108f3600061131a565b565b6006818154811061090557600080fd5b60009182526020909120600290910201805460019091015490915082565b606060048054610485906114d3565b600033816109408286610a49565b9050838110156109a05760405162461bcd60e51b815260206004820152602560248201527f45524332303a2064656372656173656420616c6c6f77616e63652062656c6f77604482015264207a65726f60d81b6064820152608401610592565b61053b8286868403610aea565b600033610516818585610c89565b600c80546109c8906114d3565b80601f01602080910402602001604051908101604052809291908181526020018280546109f4906114d3565b8015610a415780601f10610a1657610100808354040283529160200191610a41565b820191906000526020600020905b815481529060010190602001808311610a2457829003601f168201915b505050505081565b6001600160a01b03918216600090815260016020908152604080832093909416825291909152205490565b610a7c611036565b6001600160a01b038116610ae15760405162461bcd60e51b815260206004820152602660248201527f4f776e61626c653a206e6577206f776e657220697320746865207a65726f206160448201526564647265737360d01b6064820152608401610592565b6107be8161131a565b6001600160a01b038316610b4c5760405162461bcd60e51b8152602060048201526024808201527f45524332303a20617070726f76652066726f6d20746865207a65726f206164646044820152637265737360e01b6064820152608401610592565b6001600160a01b038216610bad5760405162461bcd60e51b815260206004820152602260248201527f45524332303a20617070726f766520746f20746865207a65726f206164647265604482015261737360f01b6064820152608401610592565b6001600160a01b0383811660008181526001602090815260408083209487168084529482529182902085905590518481527f8c5be1e5ebec7d5bd14f71427d1e84f3dd0314c0f7b2291e5b200ac8c7c3b92591015b60405180910390a3505050565b6000610c1b8484610a49565b90506000198114610c835781811015610c765760405162461bcd60e51b815260206004820152601d60248201527f45524332303a20696e73756666696369656e7420616c6c6f77616e63650000006044820152606401610592565b610c838484848403610aea565b50505050565b6001600160a01b038316610ced5760405162461bcd60e51b815260206004820152602560248201527f45524332303a207472616e736665722066726f6d20746865207a65726f206164604482015264647265737360d81b6064820152608401610592565b6001600160a01b038216610d4f5760405162461bcd60e51b815260206004820152602360248201527f45524332303a207472616e7366657220746f20746865207a65726f206164647260448201526265737360e81b6064820152608401610592565b6001600160a01b03831660009081526020819052604090205481811015610dc75760405162461bcd60e51b815260206004820152602660248201527f45524332303a207472616e7366657220616d6f756e7420657863656564732062604482015265616c616e636560d01b6064820152608401610592565b6001600160a01b03848116600081815260208181526040808320878703905593871680835291849020805487019055925185815290927fddf252ad1be2c89b69c2b068fc378daa952ba7f163c4a11628f55a4df523b3ef910160405180910390a3610c83565b6007546000908190815b600654811015610f6e5760068181548110610e5457610e54611582565b906000526020600020906002020160000154821015610f405760008260068381548110610e8357610e83611582565b906000526020600020906002020160000154610e9f919061156f565b9050808611610eea5760068281548110610ebb57610ebb611582565b90600052602060002090600202016001015486610ed89190611536565b610ee29085611523565b935050610f6e565b60068281548110610efd57610efd611582565b90600052602060002090600202016001015481610f1a9190611536565b610f249085611523565b9350610f30818761156f565b9550610f3c8184611523565b9250505b60068181548110610f5357610f53611582565b60009182526020909120600290910201549150600101610e37565b50909392505050565b6001600160a01b038216610fcd5760405162461bcd60e51b815260206004820152601f60248201527f45524332303a206d696e7420746f20746865207a65726f2061646472657373006044820152606401610592565b8060026000828254610fdf9190611523565b90915550506001600160a01b038216600081815260208181526040808320805486019055518481527fddf252ad1be2c89b69c2b068fc378daa952ba7f163c4a11628f55a4df523b3ef910160405180910390a35050565b6005546001600160a01b031633146108f35760405162461bcd60e51b815260206004820181905260248201527f4f776e61626c653a2063616c6c6572206973206e6f7420746865206f776e65726044820152606401610592565b600080600090506000836007546110a7919061156f565b6006549091505b8015610f6e5760066110c160018361156f565b815481106110d1576110d1611582565b9060005260206000209060020201600001548210156111ac5760008260066110fa60018561156f565b8154811061110a5761110a611582565b906000526020600020906002020160000154611126919061156f565b905080861161114c57600661113c60018461156f565b81548110610ebb57610ebb611582565b600661115960018461156f565b8154811061116957611169611582565b906000526020600020906002020160010154816111869190611536565b6111909085611523565b935061119c818761156f565b95506111a88184611523565b9250505b60066111b960018361156f565b815481106111c9576111c9611582565b906000526020600020906002020160000154915080806111e890611598565b9150506110ae565b6001600160a01b0382166112505760405162461bcd60e51b815260206004820152602160248201527f45524332303a206275726e2066726f6d20746865207a65726f206164647265736044820152607360f81b6064820152608401610592565b6001600160a01b038216600090815260208190526040902054818110156112c45760405162461bcd60e51b815260206004820152602260248201527f45524332303a206275726e20616d6f756e7420657863656564732062616c616e604482015261636560f01b6064820152608401610592565b6001600160a01b0383166000818152602081815260408083208686039055600280548790039055518581529192917fddf252ad1be2c89b69c2b068fc378daa952ba7f163c4a11628f55a4df523b3ef9101610c02565b600580546001600160a01b038381166001600160a01b0319831681179093556040519116919082907f8be0079c531659141344cd1fd0a4f28419497f9722a3daafe3b4186f6b6457e090600090a35050565b602081526000825180602084015260005b8181101561139a576020818601810151604086840101520161137d565b506000604082850101526040601f19601f83011684010191505092915050565b60208101600483106113dc57634e487b7160e01b600052602160045260246000fd5b91905290565b80356001600160a01b03811681146113f957600080fd5b919050565b6000806040838503121561141157600080fd5b61141a836113e2565b946020939093013593505050565b60008060006060848603121561143d57600080fd5b611446846113e2565b9250611454602085016113e2565b929592945050506040919091013590565b60006020828403121561147757600080fd5b5035919050565b60006020828403121561149057600080fd5b611499826113e2565b9392505050565b600080604083850312156114b357600080fd5b6114bc836113e2565b91506114ca602084016113e2565b90509250929050565b600181811c908216806114e757607f821691505b60208210810361150757634e487b7160e01b600052602260045260246000fd5b50919050565b634e487b7160e01b600052601160045260246000fd5b8082018082111561051c5761051c61150d565b808202811582820484141761051c5761051c61150d565b60008261156a57634e487b7160e01b600052601260045260246000fd5b500490565b8181038181111561051c5761051c61150d565b634e487b7160e01b600052603260045260246000fd5b6000816115a7576115a761150d565b50600019019056fea264697066735822122097880b14d5c60c6201c90fca1a99301be422b83604bacf2edf8041367a45bb9a64736f6c634300081b0033a264697066735822122073dea366939af8c96e7819e7f60d8a24a16a202a75cbe5ec2463414b9e4e61e564736f6c634300081b0033",
  "linkReferences": {},
  "deployedLinkReferences": {}
}