{
  "_format": "hh-sol-artifact-1",
  "contractName": "Factory",
  "sourceName": "contracts/Factory.sol",
  "abi": [
    {
      "anonymous": false,
      "inputs": [
        {
          "indexed": true,
          "internalType": "bytes32",
          "name": "role",
          "type": "bytes32"
        },
        {
          "indexed": true,
          "internalType": "bytes32",
          "name": "previousAdminRole",
          "type": "bytes32"
        },
        {
          "indexed": true,
          "internalType": "bytes32",
          "name": "newAdminRole",
          "type": "bytes32"
        }
      ],
      "name": "RoleAdminChanged",
      "type": "event"
    },
    {
      "anonymous": false,
      "inputs": [
        {
          "indexed": true,
          "internalType": "bytes32",
          "name": "role",
          "type": "bytes32"
        },
        {
          "indexed": true,
          "internalType": "address",
          "name": "account",
          "type": "address"
        },
        {
          "indexed": true,
          "internalType": "address",
          "name": "sender",
          "type": "address"
        }
      ],
      "name": "RoleGranted",
      "type": "event"
    },
    {
      "anonymous": false,
      "inputs": [
        {
          "indexed": true,
          "internalType": "bytes32",
          "name": "role",
          "type": "bytes32"
        },
        {
          "indexed": true,
          "internalType": "address",
          "name": "account",
          "type": "address"
        },
        {
          "indexed": true,
          "internalType": "address",
          "name": "sender",
          "type": "address"
        }
      ],
      "name": "RoleRevoked",
      "type": "event"
    },
    {
      "inputs": [],
      "name": "DEFAULT_ADMIN_ROLE",
      "outputs": [
        {
          "internalType": "bytes32",
          "name": "",
          "type": "bytes32"
        }
      ],
      "stateMutability": "view",
      "type": "function"
    },
    {
      "inputs": [],
      "name": "INVITE_FEE",
      "outputs": [
        {
          "internalType": "uint256",
          "name": "",
          "type": "uint256"
        }
      ],
      "stateMutability": "view",
      "type": "function"
    },
    {
      "inputs": [],
      "name": "TOKEN_ROLE",
      "outputs": [
        {
          "internalType": "bytes32",
          "name": "",
          "type": "bytes32"
        }
      ],
      "stateMutability": "view",
      "type": "function"
    },
    {
      "inputs": [
        {
          "internalType": "uint256",
          "name": "",
          "type": "uint256"
        }
      ],
      "name": "claimed",
      "outputs": [
        {
          "internalType": "bool",
          "name": "",
          "type": "bool"
        }
      ],
      "stateMutability": "view",
      "type": "function"
    },
    {
      "inputs": [],
      "name": "count",
      "outputs": [
        {
          "internalType": "uint256",
          "name": "",
          "type": "uint256"
        }
      ],
      "stateMutability": "view",
      "type": "function"
    },
    {
      "inputs": [
        {
          "internalType": "enum Factory.Provider",
          "name": "provider",
          "type": "uint8"
        },
        {
          "internalType": "string",
          "name": "profile",
          "type": "string"
        }
      ],
      "name": "createContract",
      "outputs": [],
      "stateMutability": "nonpayable",
      "type": "function"
    },
    {
      "inputs": [
        {
          "internalType": "address",
          "name": "",
          "type": "address"
        }
      ],
      "name": "deployedAccounts",
      "outputs": [
        {
          "internalType": "string",
          "name": "profile",
          "type": "string"
        },
        {
          "internalType": "enum Factory.Provider",
          "name": "provider",
          "type": "uint8"
        }
      ],
      "stateMutability": "view",
      "type": "function"
    },
    {
      "inputs": [
        {
          "internalType": "uint256",
          "name": "",
          "type": "uint256"
        }
      ],
      "name": "deployedContract",
      "outputs": [
        {
          "internalType": "address",
          "name": "",
          "type": "address"
        }
      ],
      "stateMutability": "view",
      "type": "function"
    },
    {
      "inputs": [
        {
          "internalType": "uint256",
          "name": "",
          "type": "uint256"
        }
      ],
      "name": "deployedContracts",
      "outputs": [
        {
          "internalType": "address",
          "name": "",
          "type": "address"
        }
      ],
      "stateMutability": "view",
      "type": "function"
    },
    {
      "inputs": [
        {
          "internalType": "enum Factory.Provider",
          "name": "",
          "type": "uint8"
        },
        {
          "internalType": "string",
          "name": "",
          "type": "string"
        }
      ],
      "name": "deployedProfiles",
      "outputs": [
        {
          "internalType": "bool",
          "name": "",
          "type": "bool"
        }
      ],
      "stateMutability": "view",
      "type": "function"
    },
    {
      "inputs": [
        {
          "internalType": "uint256",
          "name": "tokenId",
          "type": "uint256"
        }
      ],
      "name": "getDeployedContractByTokenId",
      "outputs": [
        {
          "components": [
            {
              "internalType": "address",
              "name": "contractAddress",
              "type": "address"
            },
            {
              "internalType": "string",
              "name": "profile",
              "type": "string"
            },
            {
              "internalType": "enum Factory.Provider",
              "name": "provider",
              "type": "uint8"
            },
            {
              "internalType": "uint256",
              "name": "id",
              "type": "uint256"
            },
            {
              "internalType": "address",
              "name": "inviter",
              "type": "address"
            },
            {
              "internalType": "uint256",
              "name": "totalSupply",
              "type": "uint256"
            },
            {
              "internalType": "uint256",
              "name": "fee",
              "type": "uint256"
            },
            {
              "internalType": "bool",
              "name": "claimed",
              "type": "bool"
            },
            {
              "internalType": "address",
              "name": "profileOwner",
              "type": "address"
            }
          ],
          "internalType": "struct Factory.DeployedContract",
          "name": "",
          "type": "tuple"
        }
      ],
      "stateMutability": "view",
      "type": "function"
    },
    {
      "inputs": [],
      "name": "getDeployedContracts",
      "outputs": [
        {
          "components": [
            {
              "internalType": "address",
              "name": "contractAddress",
              "type": "address"
            },
            {
              "internalType": "string",
              "name": "profile",
              "type": "string"
            },
            {
              "internalType": "enum Factory.Provider",
              "name": "provider",
              "type": "uint8"
            },
            {
              "internalType": "uint256",
              "name": "id",
              "type": "uint256"
            },
            {
              "internalType": "address",
              "name": "inviter",
              "type": "address"
            },
            {
              "internalType": "uint256",
              "name": "totalSupply",
              "type": "uint256"
            },
            {
              "internalType": "uint256",
              "name": "fee",
              "type": "uint256"
            },
            {
              "internalType": "bool",
              "name": "claimed",
              "type": "bool"
            },
            {
              "internalType": "address",
              "name": "profileOwner",
              "type": "address"
            }
          ],
          "internalType": "struct Factory.DeployedContract[]",
          "name": "",
          "type": "tuple[]"
        }
      ],
      "stateMutability": "view",
      "type": "function"
    },
    {
      "inputs": [
        {
          "internalType": "address",
          "name": "user",
          "type": "address"
        }
      ],
      "name": "getDeployedContractsByInviter",
      "outputs": [
        {
          "components": [
            {
              "internalType": "address",
              "name": "contractAddress",
              "type": "address"
            },
            {
              "internalType": "string",
              "name": "profile",
              "type": "string"
            },
            {
              "internalType": "enum Factory.Provider",
              "name": "provider",
              "type": "uint8"
            },
            {
              "internalType": "uint256",
              "name": "id",
              "type": "uint256"
            },
            {
              "internalType": "address",
              "name": "inviter",
              "type": "address"
            },
            {
              "internalType": "uint256",
              "name": "totalSupply",
              "type": "uint256"
            },
            {
              "internalType": "uint256",
              "name": "fee",
              "type": "uint256"
            },
            {
              "internalType": "bool",
              "name": "claimed",
              "type": "bool"
            },
            {
              "internalType": "address",
              "name": "profileOwner",
              "type": "address"
            }
          ],
          "internalType": "struct Factory.DeployedContract[]",
          "name": "",
          "type": "tuple[]"
        }
      ],
      "stateMutability": "view",
      "type": "function"
    },
    {
      "inputs": [
        {
          "internalType": "address",
          "name": "user",
          "type": "address"
        }
      ],
      "name": "getPoints",
      "outputs": [
        {
          "internalType": "uint256",
          "name": "",
          "type": "uint256"
        }
      ],
      "stateMutability": "view",
      "type": "function"
    },
    {
      "inputs": [
        {
          "internalType": "bytes32",
          "name": "role",
          "type": "bytes32"
        }
      ],
      "name": "getRoleAdmin",
      "outputs": [
        {
          "internalType": "bytes32",
          "name": "",
          "type": "bytes32"
        }
      ],
      "stateMutability": "view",
      "type": "function"
    },
    {
      "inputs": [
        {
          "internalType": "bytes32",
          "name": "role",
          "type": "bytes32"
        },
        {
          "internalType": "address",
          "name": "account",
          "type": "address"
        }
      ],
      "name": "grantRole",
      "outputs": [],
      "stateMutability": "nonpayable",
      "type": "function"
    },
    {
      "inputs": [
        {
          "internalType": "bytes32",
          "name": "role",
          "type": "bytes32"
        },
        {
          "internalType": "address",
          "name": "account",
          "type": "address"
        }
      ],
      "name": "hasRole",
      "outputs": [
        {
          "internalType": "bool",
          "name": "",
          "type": "bool"
        }
      ],
      "stateMutability": "view",
      "type": "function"
    },
    {
      "inputs": [
        {
          "internalType": "address",
          "name": "",
          "type": "address"
        }
      ],
      "name": "inviteCounts",
      "outputs": [
        {
          "internalType": "uint256",
          "name": "",
          "type": "uint256"
        }
      ],
      "stateMutability": "view",
      "type": "function"
    },
    {
      "inputs": [
        {
          "internalType": "enum Factory.Provider",
          "name": "",
          "type": "uint8"
        },
        {
          "internalType": "string",
          "name": "",
          "type": "string"
        }
      ],
      "name": "inviters",
      "outputs": [
        {
          "internalType": "address",
          "name": "",
          "type": "address"
        }
      ],
      "stateMutability": "view",
      "type": "function"
    },
    {
      "inputs": [
        {
          "internalType": "address",
          "name": "",
          "type": "address"
        },
        {
          "internalType": "uint256",
          "name": "",
          "type": "uint256"
        }
      ],
      "name": "invites",
      "outputs": [
        {
          "internalType": "uint256",
          "name": "",
          "type": "uint256"
        }
      ],
      "stateMutability": "view",
      "type": "function"
    },
    {
      "inputs": [
        {
          "internalType": "enum Factory.Provider",
          "name": "provider",
          "type": "uint8"
        },
        {
          "internalType": "string",
          "name": "profile",
          "type": "string"
        }
      ],
      "name": "isCreated",
      "outputs": [
        {
          "internalType": "bool",
          "name": "",
          "type": "bool"
        }
      ],
      "stateMutability": "view",
      "type": "function"
    },
    {
      "inputs": [
        {
          "internalType": "uint256",
          "name": "tokenId",
          "type": "uint256"
        },
        {
          "internalType": "address",
          "name": "tokenOwnerAddress",
          "type": "address"
        }
      ],
      "name": "onClaimed",
      "outputs": [],
      "stateMutability": "nonpayable",
      "type": "function"
    },
    {
      "inputs": [
        {
          "internalType": "uint256",
          "name": "tokenId",
          "type": "uint256"
        },
        {
          "internalType": "uint256",
          "name": "fee",
          "type": "uint256"
        }
      ],
      "name": "onFeeCollected",
      "outputs": [],
      "stateMutability": "nonpayable",
      "type": "function"
    },
    {
      "inputs": [
        {
          "internalType": "uint256",
          "name": "tokenId",
          "type": "uint256"
        },
        {
          "internalType": "uint256",
          "name": "totalSupply",
          "type": "uint256"
        }
      ],
      "name": "onTokensChange",
      "outputs": [],
      "stateMutability": "nonpayable",
      "type": "function"
    },
    {
      "inputs": [
        {
          "internalType": "address",
          "name": "",
          "type": "address"
        }
      ],
      "name": "points",
      "outputs": [
        {
          "internalType": "uint256",
          "name": "",
          "type": "uint256"
        }
      ],
      "stateMutability": "view",
      "type": "function"
    },
    {
      "inputs": [
        {
          "internalType": "uint256",
          "name": "",
          "type": "uint256"
        }
      ],
      "name": "profileFee",
      "outputs": [
        {
          "internalType": "uint256",
          "name": "",
          "type": "uint256"
        }
      ],
      "stateMutability": "view",
      "type": "function"
    },
    {
      "inputs": [
        {
          "internalType": "bytes32",
          "name": "role",
          "type": "bytes32"
        },
        {
          "internalType": "address",
          "name": "account",
          "type": "address"
        }
      ],
      "name": "renounceRole",
      "outputs": [],
      "stateMutability": "nonpayable",
      "type": "function"
    },
    {
      "inputs": [
        {
          "internalType": "bytes32",
          "name": "role",
          "type": "bytes32"
        },
        {
          "internalType": "address",
          "name": "account",
          "type": "address"
        }
      ],
      "name": "revokeRole",
      "outputs": [],
      "stateMutability": "nonpayable",
      "type": "function"
    },
    {
      "inputs": [
        {
          "internalType": "bytes4",
          "name": "interfaceId",
          "type": "bytes4"
        }
      ],
      "name": "supportsInterface",
      "outputs": [
        {
          "internalType": "bool",
          "name": "",
          "type": "bool"
        }
      ],
      "stateMutability": "view",
      "type": "function"
    },
    {
      "inputs": [
        {
          "internalType": "address",
          "name": "",
          "type": "address"
        }
      ],
      "name": "tokenInviter",
      "outputs": [
        {
          "internalType": "address",
          "name": "",
          "type": "address"
        }
      ],
      "stateMutability": "view",
      "type": "function"
    },
    {
      "inputs": [
        {
          "internalType": "uint256",
          "name": "",
          "type": "uint256"
        }
      ],
      "name": "tokenProfileOwner",
      "outputs": [
        {
          "internalType": "address",
          "name": "",
          "type": "address"
        }
      ],
      "stateMutability": "view",
      "type": "function"
    },
    {
      "inputs": [
        {
          "internalType": "uint256",
          "name": "",
          "type": "uint256"
        }
      ],
      "name": "tokensSupply",
      "outputs": [
        {
          "internalType": "uint256",
          "name": "",
          "type": "uint256"
        }
      ],
      "stateMutability": "view",
      "type": "function"
    }
  ],
  "bytecode": "0x6080604052600060025566038d7ea4c68000600f55348015601f57600080fd5b50613f658061002f6000396000f3fe608060405234801561001057600080fd5b50600436106101f05760003560e01c80639697d1881161010f578063d7615fef116100a2578063de2dd22111610071578063de2dd2211461052d578063ee204abb1461054d578063efed507014610576578063f2b2a7431461058957600080fd5b8063d7615fef146104b7578063d7e12e24146104ca578063dbe7e3bd146104ea578063dcb65b711461050d57600080fd5b8063a2ec8b33116100de578063a2ec8b3314610418578063aa9a068f1461045d578063cfef8b3114610465578063d547741f146104a457600080fd5b80639697d188146103b35780639acf3424146103d45780639ad1ee10146103fd578063a217fddf1461041057600080fd5b8063358b816611610187578063680056151161015657806368005615146103585780637749642e1461036b5780638301057b1461038b57806391d14854146103a057600080fd5b8063358b8166146102f257806336568abe14610312578063481c46d1146103255780635b93443e1461034557600080fd5b8063248a9ca3116101c3578063248a9ca3146102885780632c313046146102ab5780632f2ff15d146102b45780633383e795146102c957600080fd5b806301ffc9a7146101f557806306661abd1461021d5780631e285caa1461023457806323628b5714610275575b600080fd5b610208610203366004611958565b61059c565b60405190151581526020015b60405180910390f35b61022660025481565b604051908152602001610214565b61025d610242366004611982565b6003602052600090815260409020546001600160a01b031681565b6040516001600160a01b039091168152602001610214565b6102266102833660046119b7565b6105d3565b610226610296366004611982565b60009081526020819052604090206001015490565b610226600f5481565b6102c76102c23660046119e1565b610604565b005b61025d6102d7366004611a0d565b6007602052600090815260409020546001600160a01b031681565b610226610300366004611a0d565b60086020526000908152604090205481565b6102c76103203660046119e1565b61062e565b610338610333366004611a0d565b6106b1565b6040516102149190611b58565b6102c7610353366004611bd3565b610a58565b610208610366366004611bd3565b610dd7565b610226610379366004611982565b600c6020526000908152604090205481565b610226600080516020613f1083398151915281565b6102086103ae3660046119e1565b610e37565b6103c66103c1366004611a0d565b610e60565b604051610214929190611ca3565b61025d6103e2366004611982565b600e602052600090815260409020546001600160a01b031681565b61025d61040b366004611982565b610f07565b610226600081565b61025d610426366004611bd3565b600660209081526000928352604090922081518083018401805192815290840192909301919091209152546001600160a01b031681565b610338610f31565b610208610473366004611bd3565b6005602090815260009283526040909220815180830184018051928152908401929093019190912091525460ff1681565b6102c76104b23660046119e1565b611184565b6102c76104c53660046119e1565b6111a9565b6102266104d8366004611982565b600b6020526000908152604090205481565b6102086104f8366004611982565b600d6020526000908152604090205460ff1681565b61052061051b366004611982565b611222565b6040516102149190611cc5565b61022661053b366004611a0d565b60096020526000908152604090205481565b61022661055b366004611a0d565b6001600160a01b031660009081526008602052604090205490565b6102c7610584366004611cd8565b6113ef565b6102c7610597366004611cd8565b61144a565b60006001600160e01b03198216637965db0b60e01b14806105cd57506301ffc9a760e01b6001600160e01b03198316145b92915050565b600a60205281600052604060002081815481106105ef57600080fd5b90600052602060002001600091509150505481565b60008281526020819052604090206001015461061f81611490565b610629838361149d565b505050565b6001600160a01b03811633146106a35760405162461bcd60e51b815260206004820152602f60248201527f416363657373436f6e74726f6c3a2063616e206f6e6c792072656e6f756e636560448201526e103937b632b9903337b91039b2b63360891b60648201526084015b60405180910390fd5b6106ad8282611521565b5050565b6001600160a01b0381166000908152600a6020908152604080832080548251818502810185019093528083526060949383018282801561071057602002820191906000526020600020905b8154815260200190600101908083116106fc575b505050505090506000815167ffffffffffffffff81111561073357610733611bbd565b60405190808252806020026020018201604052801561076c57816020015b6107596118ff565b8152602001906001900390816107515790505b50905060005b8251811015610a50576000600184838151811061079157610791611cfa565b6020026020010151815481106107a9576107a9611cfa565b60009182526020808320909101546001600160a01b031680835260049091526040808320815180830190925280549294509091829082906107e990611d10565b80601f016020809104026020016040519081016040528092919081815260200182805461081590611d10565b80156108625780601f1061083757610100808354040283529160200191610862565b820191906000526020600020905b81548152906001019060200180831161084557829003601f168201915b5050509183525050600182015460209091019060ff16600381111561088957610889611a78565b600381111561089a5761089a611a78565b815250509050604051806101200160405280836001600160a01b0316815260200182600001518152602001826020015160038111156108db576108db611a78565b81526020018685815181106108f2576108f2611cfa565b6020026020010151815260200160076000856001600160a01b03166001600160a01b0316815260200190815260200160002060009054906101000a90046001600160a01b03166001600160a01b03168152602001600c600088878151811061095c5761095c611cfa565b60200260200101518152602001908152602001600020548152602001600b600088878151811061098e5761098e611cfa565b60200260200101518152602001908152602001600020548152602001600d60008887815181106109c0576109c0611cfa565b6020026020010151815260200190815260200160002060009054906101000a900460ff1615158152602001600e6000888781518110610a0157610a01611cfa565b6020908102919091018101518252810191909152604001600020546001600160a01b031690528451859085908110610a3b57610a3b611cfa565b60209081029190910101525050600101610772565b509392505050565b60056000836003811115610a6e57610a6e611a78565b6003811115610a7f57610a7f611a78565b815260200190815260200160002081604051610a9b9190611d44565b9081526040519081900360200190205460ff1615610b0e5760405162461bcd60e51b815260206004820152602a60248201527f436f6e747261637420666f7220746869732070726f66696c6520616c726561646044820152691e4819195c1b1bde595960b21b606482015260840161069a565b6000610b1b600254611586565b604051602001610b2b9190611d60565b6040516020818303038152906040529050600030600254838686604051610b519061194b565b610b5f959493929190611d8a565b604051809103906000f080158015610b7b573d6000803e3d6000fd5b509050610b96600080516020613f108339815191528261149d565b6040518060400160405280848152602001856003811115610bb957610bb9611a78565b90526001600160a01b038216600090815260046020526040902081518190610be19082611e49565b50602082015160018083018054909160ff1990911690836003811115610c0957610c09611a78565b021790555050600180548082019091557fb10e2d527612073b26eecdfd717e6a320cf44b4afac2b0732d9fcbe2b7fa0cf60180546001600160a01b0319166001600160a01b03841617905550336000908152600860205260408120805460c89290610c75908490611f1e565b9091555033905060066000866003811115610c9257610c92611a78565b6003811115610ca357610ca3611a78565b815260200190815260200160002084604051610cbf9190611d44565b908152604080516020928190038301902080546001600160a01b0319166001600160a01b0394909416939093179092553360009081526009909152908120805491610d0983611f31565b9190505550600160056000866003811115610d2657610d26611a78565b6003811115610d3757610d37611a78565b815260200190815260200160002084604051610d539190611d44565b9081526040805160209281900383019020805460ff1916931515939093179092556001600160a01b0383166000908152600782528281208054336001600160a01b031990911681179091558152600a825291822060028054825460018101845592855292842090910191909155805491610dcc83611f31565b919050555050505050565b600060056000846003811115610def57610def611a78565b6003811115610e0057610e00611a78565b815260200190815260200160002082604051610e1c9190611d44565b9081526040519081900360200190205460ff16905092915050565b6000918252602082815260408084206001600160a01b0393909316845291905290205460ff1690565b600460205260009081526040902080548190610e7b90611d10565b80601f0160208091040260200160405190810160405280929190818152602001828054610ea790611d10565b8015610ef45780601f10610ec957610100808354040283529160200191610ef4565b820191906000526020600020905b815481529060010190602001808311610ed757829003601f168201915b5050506001909301549192505060ff1682565b60018181548110610f1757600080fd5b6000918252602090912001546001600160a01b0316905081565b60015460609060009067ffffffffffffffff811115610f5257610f52611bbd565b604051908082528060200260200182016040528015610f8b57816020015b610f786118ff565b815260200190600190039081610f705790505b50905060005b60015481101561117e57600060018281548110610fb057610fb0611cfa565b60009182526020808320909101546001600160a01b03168083526004909152604080832081518083019092528054929450909182908290610ff090611d10565b80601f016020809104026020016040519081016040528092919081815260200182805461101c90611d10565b80156110695780601f1061103e57610100808354040283529160200191611069565b820191906000526020600020905b81548152906001019060200180831161104c57829003601f168201915b5050509183525050600182015460209091019060ff16600381111561109057611090611a78565b60038111156110a1576110a1611a78565b815250509050604051806101200160405280836001600160a01b0316815260200182600001518152602001826020015160038111156110e2576110e2611a78565b815260208082018690526001600160a01b03808616600090815260078352604080822054831681860152888252600c8452808220546060860152888252600b8452808220546080860152888252600d84528082205460ff16151560a0860152888252600e90935291909120541660c090910152845185908590811061116957611169611cfa565b60209081029190910101525050600101610f91565b50919050565b60008281526020819052604090206001015461119f81611490565b6106298383611521565b6111c1600080516020613f1083398151915233610e37565b6111dd5760405162461bcd60e51b815260040161069a90611f4a565b6000918252600d60209081526040808420805460ff19166001179055600e90915290912080546001600160a01b039092166001600160a01b0319909216919091179055565b61122a6118ff565b60006001838154811061123f5761123f611cfa565b60009182526020808320909101546001600160a01b0316808352600490915260408083208151808301909252805492945090918290829061127f90611d10565b80601f01602080910402602001604051908101604052809291908181526020018280546112ab90611d10565b80156112f85780601f106112cd576101008083540402835291602001916112f8565b820191906000526020600020905b8154815290600101906020018083116112db57829003601f168201915b5050509183525050600182015460209091019060ff16600381111561131f5761131f611a78565b600381111561133057611330611a78565b815250509050604051806101200160405280836001600160a01b03168152602001826000015181526020018260200151600381111561137157611371611a78565b815260208082018790526001600160a01b03948516600090815260078252604080822054871681850152888252600c8352808220546060850152888252600b8352808220546080850152888252600d83528082205460ff16151560a0850152978152600e909152959095205490921660c09094019390935292915050565b611407600080516020613f1083398151915233610e37565b6114235760405162461bcd60e51b815260040161069a90611f4a565b6000828152600b602052604081208054839290611441908490611f1e565b90915550505050565b611462600080516020613f1083398151915233610e37565b61147e5760405162461bcd60e51b815260040161069a90611f4a565b6000918252600c602052604090912055565b61149a8133611619565b50565b6114a78282610e37565b6106ad576000828152602081815260408083206001600160a01b03851684529091529020805460ff191660011790556114dd3390565b6001600160a01b0316816001600160a01b0316837f2f8788117e7eff1d82e926ec794901d17c78024a50270940304540a733656f0d60405160405180910390a45050565b61152b8282610e37565b156106ad576000828152602081815260408083206001600160a01b0385168085529252808320805460ff1916905551339285917ff6391f5c32d9c69d2a47ea670b442974b53935d1edc7fd64eb21e047a839171b9190a45050565b6060600061159383611672565b600101905060008167ffffffffffffffff8111156115b3576115b3611bbd565b6040519080825280601f01601f1916602001820160405280156115dd576020820181803683370190505b5090508181016020015b600019016f181899199a1a9b1b9c1cb0b131b232b360811b600a86061a8153600a85049450846115e757509392505050565b6116238282610e37565b6106ad576116308161174a565b61163b83602061175c565b60405160200161164c929190611f79565b60408051601f198184030181529082905262461bcd60e51b825261069a91600401611fee565b60008072184f03e93ff9f4daa797ed6e38ed64bf6a1f0160401b83106116b15772184f03e93ff9f4daa797ed6e38ed64bf6a1f0160401b830492506040015b6d04ee2d6d415b85acef810000000083106116dd576d04ee2d6d415b85acef8100000000830492506020015b662386f26fc1000083106116fb57662386f26fc10000830492506010015b6305f5e1008310611713576305f5e100830492506008015b612710831061172757612710830492506004015b60648310611739576064830492506002015b600a83106105cd5760010192915050565b60606105cd6001600160a01b03831660145b6060600061176b836002612001565b611776906002611f1e565b67ffffffffffffffff81111561178e5761178e611bbd565b6040519080825280601f01601f1916602001820160405280156117b8576020820181803683370190505b509050600360fc1b816000815181106117d3576117d3611cfa565b60200101906001600160f81b031916908160001a905350600f60fb1b8160018151811061180257611802611cfa565b60200101906001600160f81b031916908160001a9053506000611826846002612001565b611831906001611f1e565b90505b60018111156118a9576f181899199a1a9b1b9c1cb0b131b232b360811b85600f166010811061186557611865611cfa565b1a60f81b82828151811061187b5761187b611cfa565b60200101906001600160f81b031916908160001a90535060049490941c936118a281612018565b9050611834565b5083156118f85760405162461bcd60e51b815260206004820181905260248201527f537472696e67733a20686578206c656e67746820696e73756666696369656e74604482015260640161069a565b9392505050565b60408051610120810182526000808252606060208301529091820190815260006020820181905260408201819052606082018190526080820181905260a0820181905260c09091015290565b611ee08061203083390190565b60006020828403121561196a57600080fd5b81356001600160e01b0319811681146118f857600080fd5b60006020828403121561199457600080fd5b5035919050565b80356001600160a01b03811681146119b257600080fd5b919050565b600080604083850312156119ca57600080fd5b6119d38361199b565b946020939093013593505050565b600080604083850312156119f457600080fd5b82359150611a046020840161199b565b90509250929050565b600060208284031215611a1f57600080fd5b6118f88261199b565b60005b83811015611a43578181015183820152602001611a2b565b50506000910152565b60008151808452611a64816020860160208601611a28565b601f01601f19169290920160200192915050565b634e487b7160e01b600052602160045260246000fd5b60048110611aac57634e487b7160e01b600052602160045260246000fd5b9052565b80516001600160a01b03168252600060208201516101206020850152611ada610120850182611a4c565b90506040830151611aee6040860182611a8e565b50606083015160608501526080830151611b1360808601826001600160a01b03169052565b5060a083015160a085015260c083015160c085015260e0830151611b3b60e086018215159052565b50610100830151610a506101008601826001600160a01b03169052565b6000602082016020835280845180835260408501915060408160051b86010192506020860160005b82811015611bb157603f19878603018452611b9c858351611ab0565b94506020938401939190910190600101611b80565b50929695505050505050565b634e487b7160e01b600052604160045260246000fd5b60008060408385031215611be657600080fd5b823560048110611bf557600080fd5b9150602083013567ffffffffffffffff811115611c1157600080fd5b8301601f81018513611c2257600080fd5b803567ffffffffffffffff811115611c3c57611c3c611bbd565b604051601f8201601f19908116603f0116810167ffffffffffffffff81118282101715611c6b57611c6b611bbd565b604052818152828201602001871015611c8357600080fd5b816020840160208301376000602083830101528093505050509250929050565b604081526000611cb66040830185611a4c565b90506118f86020830184611a8e565b6020815260006118f86020830184611ab0565b60008060408385031215611ceb57600080fd5b50508035926020909101359150565b634e487b7160e01b600052603260045260246000fd5b600181811c90821680611d2457607f821691505b60208210810361117e57634e487b7160e01b600052602260045260246000fd5b60008251611d56818460208701611a28565b9190910192915050565b61192160f11b815260008251611d7d816002850160208701611a28565b9190910160020192915050565b60018060a01b038616815284602082015260c06040820152600660c0820152650c90985cd95960d21b60e082015261010060608201526000611dd0610100830186611a4c565b611ddd6080840186611a8e565b82810360a0840152611def8185611a4c565b98975050505050505050565b601f82111561062957806000526020600020601f840160051c81016020851015611e225750805b601f840160051c820191505b81811015611e425760008155600101611e2e565b5050505050565b815167ffffffffffffffff811115611e6357611e63611bbd565b611e7781611e718454611d10565b84611dfb565b6020601f821160018114611eab5760008315611e935750848201515b600019600385901b1c1916600184901b178455611e42565b600084815260208120601f198516915b82811015611edb5787850151825560209485019460019092019101611ebb565b5084821015611ef95786840151600019600387901b60f8161c191681555b50505050600190811b01905550565b634e487b7160e01b600052601160045260246000fd5b808201808211156105cd576105cd611f08565b600060018201611f4357611f43611f08565b5060010190565b60208082526015908201527421b0b63632b91034b9903737ba1030903a37b5b2b760591b604082015260600190565b7f416363657373436f6e74726f6c3a206163636f756e7420000000000000000000815260008351611fb1816017850160208801611a28565b7001034b99036b4b9b9b4b733903937b6329607d1b6017918401918201528351611fe2816028840160208801611a28565b01602801949350505050565b6020815260006118f86020830184611a4c565b80820281158282048414176105cd576105cd611f08565b60008161202757612027611f08565b50600019019056fe6080604052620f42406008556103e86009556103e8600a556000600b5534801561002857600080fd5b50604051611ee0380380611ee08339810160408190526100479161038d565b8383600361005583826104e3565b50600461006282826104e3565b50505061007b61007661026a60201b60201c565b61026e565b600f859055600e80546001600160a01b0319166001600160a01b038816179055600c805483919060ff191660018360038111156100ba576100ba6105a1565b0217905550600d6100cb82826104e3565b505060408051808201825261012c81526509184e72a000602080830191825260068054600181810183556000838152955160029283027ff652222313e28459528d920b65115c16c04f3efc82aaedc97be59f3f377c0d3f8181019290925595517ff652222313e28459528d920b65115c16c04f3efc82aaedc97be59f3f377c0d4096870155875180890189526102588152655af3107a400081870190815285548085018755868a529151918502808401929092555190870155875180890189526103e8815266038d7ea4c6800081870190815285548085018755868a529151918502808401929092555190870155875180890189526127108152662386f26fc1000081870190815285548085018755868a52915191850280840192909255519087015587518089018952620186a0815267016345785d8a000081870190815285548085018755868a5291519185028084019290925551908701558751808901909852620f42408852670de0b6b3a76400009488019485528354918201845592909552945193909402938401929092559051910155506105b79350505050565b3390565b600580546001600160a01b038381166001600160a01b0319831681179093556040519116919082907f8be0079c531659141344cd1fd0a4f28419497f9722a3daafe3b4186f6b6457e090600090a35050565b634e487b7160e01b600052604160045260246000fd5b600082601f8301126102e757600080fd5b81516001600160401b03811115610300576103006102c0565b604051601f8201601f19908116603f011681016001600160401b038111828210171561032e5761032e6102c0565b60405281815283820160200185101561034657600080fd5b60005b8281101561036557602081860181015183830182015201610349565b506000918101602001919091529392505050565b80516004811061038857600080fd5b919050565b60008060008060008060c087890312156103a657600080fd5b86516001600160a01b03811681146103bd57600080fd5b6020880151604089015191975095506001600160401b038111156103e057600080fd5b6103ec89828a016102d6565b606089015190955090506001600160401b0381111561040a57600080fd5b61041689828a016102d6565b93505061042560808801610379565b60a08801519092506001600160401b0381111561044157600080fd5b61044d89828a016102d6565b9150509295509295509295565b600181811c9082168061046e57607f821691505b60208210810361048e57634e487b7160e01b600052602260045260246000fd5b50919050565b601f8211156104de57806000526020600020601f840160051c810160208510156104bb5750805b601f840160051c820191505b818110156104db57600081556001016104c7565b50505b505050565b81516001600160401b038111156104fc576104fc6102c0565b6105108161050a845461045a565b84610494565b6020601f821160018114610544576000831561052c5750848201515b600019600385901b1c1916600184901b1784556104db565b600084815260208120601f198516915b828110156105745787850151825560209485019460019092019101610554565b50848210156105925786840151600019600387901b60f8161c191681555b50505050600190811b01905550565b634e487b7160e01b600052602160045260246000fd5b61191a806105c66000396000f3fe6080604052600436106101d85760003560e01c806360b71d4e11610102578063a457c2d711610095578063dd62ed3e11610064578063dd62ed3e1461053f578063e834a8341461055f578063f2fde38b14610580578063f72aa729146105a057600080fd5b8063a457c2d7146104d4578063a9059cbb146104f4578063ab60636c14610514578063d5abeb011461052957600080fd5b80638a497c4c116100d15780638a497c4c146104385780638da5cb5b1461046d57806395d89b411461049f578063a3e67610146104b457600080fd5b806360b71d4e146103b75780636c11bcd3146103cd57806370a08231146103ed578063715018a61461042357600080fd5b80632e187a681161017a5780633ccfd60b116101495780633ccfd60b14610335578063470624021461034a5780634af18f4f146103605780634c4adc5c146103a257600080fd5b80632e187a68146102ce578063313ce567146102e45780633610724e14610300578063395093511461031557600080fd5b806317d70f7c116101b657806317d70f7c1461025f57806318160ddd1461028357806323b872dd146102985780632b14ca56146102b857600080fd5b806306fdde03146101dd578063085d488314610208578063095ea7b31461022f575b600080fd5b3480156101e957600080fd5b506101f26105c0565b6040516101ff91906116a1565b60405180910390f35b34801561021457600080fd5b50600c546102229060ff1681565b6040516101ff91906116ef565b34801561023b57600080fd5b5061024f61024a366004611733565b610652565b60405190151581526020016101ff565b34801561026b57600080fd5b50610275600f5481565b6040519081526020016101ff565b34801561028f57600080fd5b50600254610275565b3480156102a457600080fd5b5061024f6102b336600461175d565b61066c565b3480156102c457600080fd5b50610275600a5481565b3480156102da57600080fd5b5061027560075481565b3480156102f057600080fd5b50604051601281526020016101ff565b61031361030e36600461179a565b610690565b005b34801561032157600080fd5b5061024f610330366004611733565b6108bd565b34801561034157600080fd5b506103136108df565b34801561035657600080fd5b5061027560095481565b34801561036c57600080fd5b5061038061037b36600461179a565b61098b565b60408051825181526020808401519082015291810151908201526060016101ff565b3480156103ae57600080fd5b50610313610b3f565b3480156103c357600080fd5b50610275600b5481565b3480156103d957600080fd5b506103136103e836600461179a565b610bd1565b3480156103f957600080fd5b506102756104083660046117b3565b6001600160a01b031660009081526020819052604090205490565b34801561042f57600080fd5b50610313610ce4565b34801561044457600080fd5b5061045861045336600461179a565b610cf8565b604080519283526020830191909152016101ff565b34801561047957600080fd5b506005546001600160a01b03165b6040516001600160a01b0390911681526020016101ff565b3480156104ab57600080fd5b506101f2610d26565b3480156104c057600080fd5b50601054610487906001600160a01b031681565b3480156104e057600080fd5b5061024f6104ef366004611733565b610d35565b34801561050057600080fd5b5061024f61050f366004611733565b610db0565b34801561052057600080fd5b506101f2610dbe565b34801561053557600080fd5b5061027560085481565b34801561054b57600080fd5b5061027561055a3660046117d5565b610e4c565b34801561056b57600080fd5b5060105461024f90600160a01b900460ff1681565b34801561058c57600080fd5b5061031361059b3660046117b3565b610e77565b3480156105ac57600080fd5b506103806105bb36600461179a565b610ef0565b6060600380546105cf90611808565b80601f01602080910402602001604051908101604052809291908181526020018280546105fb90611808565b80156106485780601f1061061d57610100808354040283529160200191610648565b820191906000526020600020905b81548152906001019060200180831161062b57829003601f168201915b5050505050905090565b6000336106608185856110c9565b60019150505b92915050565b60003361067a8582856111ee565b610685858585611268565b506001949350505050565b600081116106e55760405162461bcd60e51b815260206004820181905260248201527f416d6f756e74206d7573742062652067726561746572207468616e207a65726f60448201526064015b60405180910390fd5b600854816007546106f69190611858565b111561073d5760405162461bcd60e51b815260206004820152601660248201527545786365656473206d6178696d756d20737570706c7960501b60448201526064016106dc565b60006107488261098b565b9050806040015134101561079e5760405162461bcd60e51b815260206004820152601760248201527f496e73756666696369656e742066756e64732073656e7400000000000000000060448201526064016106dc565b8060200151600b60008282546107b49190611858565b9250508190555081600760008282546107cd9190611858565b909155506107dd9050338361140c565b600e54600f546020830151604051630efed50760e41b8152600481019290925260248201526001600160a01b039091169063efed5070906044015b600060405180830381600087803b15801561083257600080fd5b505af1158015610846573d6000803e3d6000fd5b5050600e54600f5460075460405163f2b2a74360e01b81526001600160a01b03909316945063f2b2a743935061088792600401918252602082015260400190565b600060405180830381600087803b1580156108a157600080fd5b505af11580156108b5573d6000803e3d6000fd5b505050505050565b6000336106608185856108d08383610e4c565b6108da9190611858565b6110c9565b6010546001600160a01b031633146109475760405162461bcd60e51b815260206004820152602560248201527f4f6e6c7920746f6b656e2070726f66696c65206f776e65722063616e20776974604482015264686472617760d81b60648201526084016106dc565b601054600b546040516001600160a01b039092169181156108fc0291906000818181858888f19350505050158015610983573d6000803e3d6000fd5b506000600b55565b6109af60405180606001604052806000815260200160008152602001600081525090565b600754600090815b600654811015610aee57600681815481106109d4576109d461186b565b906000526020600020906002020160000154821015610ac05760008260068381548110610a0357610a0361186b565b906000526020600020906002020160000154610a1f9190611881565b9050808611610a6a5760068281548110610a3b57610a3b61186b565b90600052602060002090600202016001015486610a589190611894565b610a629085611858565b935050610aee565b60068281548110610a7d57610a7d61186b565b90600052602060002090600202016001015481610a9a9190611894565b610aa49085611858565b9350610ab08187611881565b9550610abc8184611858565b9250505b60068181548110610ad357610ad361186b565b600091825260209091206002909102015491506001016109b7565b50600061271060095484610b029190611894565b610b0c91906118ab565b90506000610b1a8285611858565b6040805160608101825295865260208601939093529184019190915250909392505050565b601080546001600160a01b03191633908117909155600e54600f5460405163d7615fef60e01b8152600481019190915260248101929092526001600160a01b03169063d7615fef90604401600060405180830381600087803b158015610ba457600080fd5b505af1158015610bb8573d6000803e3d6000fd5b50506010805460ff60a01b1916600160a01b1790555050565b600081118015610bf05750336000908152602081905260409020548111155b610c2d5760405162461bcd60e51b815260206004820152600e60248201526d125b9d985b1a5908185b5bdd5b9d60921b60448201526064016106dc565b6000610c3882610ef0565b90508160076000828254610c4c9190611881565b90915550610c5c905033836114cb565b8051604051339180156108fc02916000818181858888f19350505050158015610c89573d6000803e3d6000fd5b508060200151600b6000828254610ca09190611858565b9091555050600e54600f546020830151604051630efed50760e41b8152600481019290925260248201526001600160a01b039091169063efed507090604401610818565b610cec6115f5565b610cf6600061164f565b565b60068181548110610d0857600080fd5b60009182526020909120600290910201805460019091015490915082565b6060600480546105cf90611808565b60003381610d438286610e4c565b905083811015610da35760405162461bcd60e51b815260206004820152602560248201527f45524332303a2064656372656173656420616c6c6f77616e63652062656c6f77604482015264207a65726f60d81b60648201526084016106dc565b61068582868684036110c9565b600033610660818585611268565b600d8054610dcb90611808565b80601f0160208091040260200160405190810160405280929190818152602001828054610df790611808565b8015610e445780601f10610e1957610100808354040283529160200191610e44565b820191906000526020600020905b815481529060010190602001808311610e2757829003601f168201915b505050505081565b6001600160a01b03918216600090815260016020908152604080832093909416825291909152205490565b610e7f6115f5565b6001600160a01b038116610ee45760405162461bcd60e51b815260206004820152602660248201527f4f776e61626c653a206e6577206f776e657220697320746865207a65726f206160448201526564647265737360d01b60648201526084016106dc565b610eed8161164f565b50565b610f1460405180606001604052806000815260200160008152602001600081525090565b60008083600754610f259190611881565b6006549091505b801561109d576006610f3f600183611881565b81548110610f4f57610f4f61186b565b906000526020600020906002020160000154821015611059576000826006610f78600185611881565b81548110610f8857610f8861186b565b906000526020600020906002020160000154610fa49190611881565b9050808611610ff9576006610fba600184611881565b81548110610fca57610fca61186b565b90600052602060002090600202016001015486610fe79190611894565b610ff19085611858565b93505061109d565b6006611006600184611881565b815481106110165761101661186b565b906000526020600020906002020160010154816110339190611894565b61103d9085611858565b93506110498187611881565b95506110558184611858565b9250505b6006611066600183611881565b815481106110765761107661186b565b90600052602060002090600202016000015491508080611095906118cd565b915050610f2c565b506000612710600a54846110b19190611894565b6110bb91906118ab565b90506000610b1a8285611881565b6001600160a01b03831661112b5760405162461bcd60e51b8152602060048201526024808201527f45524332303a20617070726f76652066726f6d20746865207a65726f206164646044820152637265737360e01b60648201526084016106dc565b6001600160a01b03821661118c5760405162461bcd60e51b815260206004820152602260248201527f45524332303a20617070726f766520746f20746865207a65726f206164647265604482015261737360f01b60648201526084016106dc565b6001600160a01b0383811660008181526001602090815260408083209487168084529482529182902085905590518481527f8c5be1e5ebec7d5bd14f71427d1e84f3dd0314c0f7b2291e5b200ac8c7c3b92591015b60405180910390a3505050565b60006111fa8484610e4c565b9050600019811461126257818110156112555760405162461bcd60e51b815260206004820152601d60248201527f45524332303a20696e73756666696369656e7420616c6c6f77616e636500000060448201526064016106dc565b61126284848484036110c9565b50505050565b6001600160a01b0383166112cc5760405162461bcd60e51b815260206004820152602560248201527f45524332303a207472616e736665722066726f6d20746865207a65726f206164604482015264647265737360d81b60648201526084016106dc565b6001600160a01b03821661132e5760405162461bcd60e51b815260206004820152602360248201527f45524332303a207472616e7366657220746f20746865207a65726f206164647260448201526265737360e81b60648201526084016106dc565b6001600160a01b038316600090815260208190526040902054818110156113a65760405162461bcd60e51b815260206004820152602660248201527f45524332303a207472616e7366657220616d6f756e7420657863656564732062604482015265616c616e636560d01b60648201526084016106dc565b6001600160a01b03848116600081815260208181526040808320878703905593871680835291849020805487019055925185815290927fddf252ad1be2c89b69c2b068fc378daa952ba7f163c4a11628f55a4df523b3ef910160405180910390a3611262565b6001600160a01b0382166114625760405162461bcd60e51b815260206004820152601f60248201527f45524332303a206d696e7420746f20746865207a65726f20616464726573730060448201526064016106dc565b80600260008282546114749190611858565b90915550506001600160a01b038216600081815260208181526040808320805486019055518481527fddf252ad1be2c89b69c2b068fc378daa952ba7f163c4a11628f55a4df523b3ef910160405180910390a35050565b6001600160a01b03821661152b5760405162461bcd60e51b815260206004820152602160248201527f45524332303a206275726e2066726f6d20746865207a65726f206164647265736044820152607360f81b60648201526084016106dc565b6001600160a01b0382166000908152602081905260409020548181101561159f5760405162461bcd60e51b815260206004820152602260248201527f45524332303a206275726e20616d6f756e7420657863656564732062616c616e604482015261636560f01b60648201526084016106dc565b6001600160a01b0383166000818152602081815260408083208686039055600280548790039055518581529192917fddf252ad1be2c89b69c2b068fc378daa952ba7f163c4a11628f55a4df523b3ef91016111e1565b6005546001600160a01b03163314610cf65760405162461bcd60e51b815260206004820181905260248201527f4f776e61626c653a2063616c6c6572206973206e6f7420746865206f776e657260448201526064016106dc565b600580546001600160a01b038381166001600160a01b0319831681179093556040519116919082907f8be0079c531659141344cd1fd0a4f28419497f9722a3daafe3b4186f6b6457e090600090a35050565b602081526000825180602084015260005b818110156116cf57602081860181015160408684010152016116b2565b506000604082850101526040601f19601f83011684010191505092915050565b602081016004831061171157634e487b7160e01b600052602160045260246000fd5b91905290565b80356001600160a01b038116811461172e57600080fd5b919050565b6000806040838503121561174657600080fd5b61174f83611717565b946020939093013593505050565b60008060006060848603121561177257600080fd5b61177b84611717565b925061178960208501611717565b929592945050506040919091013590565b6000602082840312156117ac57600080fd5b5035919050565b6000602082840312156117c557600080fd5b6117ce82611717565b9392505050565b600080604083850312156117e857600080fd5b6117f183611717565b91506117ff60208401611717565b90509250929050565b600181811c9082168061181c57607f821691505b60208210810361183c57634e487b7160e01b600052602260045260246000fd5b50919050565b634e487b7160e01b600052601160045260246000fd5b8082018082111561066657610666611842565b634e487b7160e01b600052603260045260246000fd5b8181038181111561066657610666611842565b808202811582820484141761066657610666611842565b6000826118c857634e487b7160e01b600052601260045260246000fd5b500490565b6000816118dc576118dc611842565b50600019019056fea26469706673582212207e72f2f6303fb13bcedf69d11cd8857704e8973fc077a8120f1413dbe9878dac64736f6c634300081b0033a7197c38d9c4c7450c7f2cd20d0a17cbe7c344190d6c82a6b49a146e62439ae4a2646970667358221220c23eb166c12188b1e7df02d9e207619a7f31e644b979907fc7ab2de7e1ba158364736f6c634300081b0033",
  "linkReferences": {},
  "deployedLinkReferences": {}
}