{
    "_format": "hh-sol-artifact-1",
    "contractName": "Reclaim",
    "sourceName": "contracts/Reclaim.sol",
    "abi": [
        {
            "inputs": [],
            "name": "Reclaim__GroupAlreadyExists",
            "type": "error"
        },
        {
            "inputs": [],
            "name": "Reclaim__UserAlreadyMerkelized",
            "type": "error"
        },
        {
            "anonymous": false,
            "inputs": [
                {
                    "indexed": false,
                    "internalType": "address",
                    "name": "previousAdmin",
                    "type": "address"
                },
                {
                    "indexed": false,
                    "internalType": "address",
                    "name": "newAdmin",
                    "type": "address"
                }
            ],
            "name": "AdminChanged",
            "type": "event"
        },
        {
            "anonymous": false,
            "inputs": [
                {
                    "indexed": true,
                    "internalType": "address",
                    "name": "beacon",
                    "type": "address"
                }
            ],
            "name": "BeaconUpgraded",
            "type": "event"
        },
        {
            "anonymous": false,
            "inputs": [
                {
                    "indexed": true,
                    "internalType": "bytes32",
                    "name": "dappId",
                    "type": "bytes32"
                }
            ],
            "name": "DappCreated",
            "type": "event"
        },
        {
            "anonymous": false,
            "inputs": [
                {
                    "components": [
                        {
                            "internalType": "uint32",
                            "name": "id",
                            "type": "uint32"
                        },
                        {
                            "internalType": "uint32",
                            "name": "timestampStart",
                            "type": "uint32"
                        },
                        {
                            "internalType": "uint32",
                            "name": "timestampEnd",
                            "type": "uint32"
                        },
                        {
                            "components": [
                                {
                                    "internalType": "address",
                                    "name": "addr",
                                    "type": "address"
                                },
                                {
                                    "internalType": "string",
                                    "name": "host",
                                    "type": "string"
                                }
                            ],
                            "internalType": "struct Reclaim.Witness[]",
                            "name": "witnesses",
                            "type": "tuple[]"
                        },
                        {
                            "internalType": "uint8",
                            "name": "minimumWitnessesForClaimCreation",
                            "type": "uint8"
                        }
                    ],
                    "indexed": false,
                    "internalType": "struct Reclaim.Epoch",
                    "name": "epoch",
                    "type": "tuple"
                }
            ],
            "name": "EpochAdded",
            "type": "event"
        },
        {
            "anonymous": false,
            "inputs": [
                {
                    "indexed": true,
                    "internalType": "uint256",
                    "name": "groupId",
                    "type": "uint256"
                },
                {
                    "indexed": true,
                    "internalType": "string",
                    "name": "provider",
                    "type": "string"
                }
            ],
            "name": "GroupCreated",
            "type": "event"
        },
        {
            "anonymous": false,
            "inputs": [
                {
                    "indexed": false,
                    "internalType": "uint8",
                    "name": "version",
                    "type": "uint8"
                }
            ],
            "name": "Initialized",
            "type": "event"
        },
        {
            "anonymous": false,
            "inputs": [
                {
                    "indexed": true,
                    "internalType": "address",
                    "name": "previousOwner",
                    "type": "address"
                },
                {
                    "indexed": true,
                    "internalType": "address",
                    "name": "newOwner",
                    "type": "address"
                }
            ],
            "name": "OwnershipTransferred",
            "type": "event"
        },
        {
            "anonymous": false,
            "inputs": [
                {
                    "indexed": true,
                    "internalType": "address",
                    "name": "implementation",
                    "type": "address"
                }
            ],
            "name": "Upgraded",
            "type": "event"
        },
        {
            "inputs": [
                {
                    "components": [
                        {
                            "internalType": "address",
                            "name": "addr",
                            "type": "address"
                        },
                        {
                            "internalType": "string",
                            "name": "host",
                            "type": "string"
                        }
                    ],
                    "internalType": "struct Reclaim.Witness[]",
                    "name": "witnesses",
                    "type": "tuple[]"
                },
                {
                    "internalType": "uint8",
                    "name": "requisiteWitnessesForClaimCreate",
                    "type": "uint8"
                }
            ],
            "name": "addNewEpoch",
            "outputs": [],
            "stateMutability": "nonpayable",
            "type": "function"
        },
        {
            "inputs": [
                {
                    "internalType": "uint256",
                    "name": "id",
                    "type": "uint256"
                }
            ],
            "name": "createDapp",
            "outputs": [],
            "stateMutability": "nonpayable",
            "type": "function"
        },
        {
            "inputs": [
                {
                    "internalType": "string",
                    "name": "provider",
                    "type": "string"
                },
                {
                    "internalType": "uint256",
                    "name": "merkleTreeDepth",
                    "type": "uint256"
                }
            ],
            "name": "createGroup",
            "outputs": [],
            "stateMutability": "nonpayable",
            "type": "function"
        },
        {
            "inputs": [],
            "name": "currentEpoch",
            "outputs": [
                {
                    "internalType": "uint32",
                    "name": "",
                    "type": "uint32"
                }
            ],
            "stateMutability": "view",
            "type": "function"
        },
        {
            "inputs": [],
            "name": "epochDurationS",
            "outputs": [
                {
                    "internalType": "uint32",
                    "name": "",
                    "type": "uint32"
                }
            ],
            "stateMutability": "view",
            "type": "function"
        },
        {
            "inputs": [
                {
                    "internalType": "uint256",
                    "name": "",
                    "type": "uint256"
                }
            ],
            "name": "epochs",
            "outputs": [
                {
                    "internalType": "uint32",
                    "name": "id",
                    "type": "uint32"
                },
                {
                    "internalType": "uint32",
                    "name": "timestampStart",
                    "type": "uint32"
                },
                {
                    "internalType": "uint32",
                    "name": "timestampEnd",
                    "type": "uint32"
                },
                {
                    "internalType": "uint8",
                    "name": "minimumWitnessesForClaimCreation",
                    "type": "uint8"
                }
            ],
            "stateMutability": "view",
            "type": "function"
        },
        {
            "inputs": [
                {
                    "internalType": "string",
                    "name": "data",
                    "type": "string"
                },
                {
                    "internalType": "string",
                    "name": "target",
                    "type": "string"
                }
            ],
            "name": "extractFieldFromContext",
            "outputs": [
                {
                    "internalType": "string",
                    "name": "",
                    "type": "string"
                }
            ],
            "stateMutability": "pure",
            "type": "function"
        },
        {
            "inputs": [
                {
                    "internalType": "uint32",
                    "name": "epoch",
                    "type": "uint32"
                }
            ],
            "name": "fetchEpoch",
            "outputs": [
                {
                    "components": [
                        {
                            "internalType": "uint32",
                            "name": "id",
                            "type": "uint32"
                        },
                        {
                            "internalType": "uint32",
                            "name": "timestampStart",
                            "type": "uint32"
                        },
                        {
                            "internalType": "uint32",
                            "name": "timestampEnd",
                            "type": "uint32"
                        },
                        {
                            "components": [
                                {
                                    "internalType": "address",
                                    "name": "addr",
                                    "type": "address"
                                },
                                {
                                    "internalType": "string",
                                    "name": "host",
                                    "type": "string"
                                }
                            ],
                            "internalType": "struct Reclaim.Witness[]",
                            "name": "witnesses",
                            "type": "tuple[]"
                        },
                        {
                            "internalType": "uint8",
                            "name": "minimumWitnessesForClaimCreation",
                            "type": "uint8"
                        }
                    ],
                    "internalType": "struct Reclaim.Epoch",
                    "name": "",
                    "type": "tuple"
                }
            ],
            "stateMutability": "view",
            "type": "function"
        },
        {
            "inputs": [
                {
                    "internalType": "uint32",
                    "name": "epoch",
                    "type": "uint32"
                },
                {
                    "internalType": "bytes32",
                    "name": "identifier",
                    "type": "bytes32"
                },
                {
                    "internalType": "uint32",
                    "name": "timestampS",
                    "type": "uint32"
                }
            ],
            "name": "fetchWitnessesForClaim",
            "outputs": [
                {
                    "components": [
                        {
                            "internalType": "address",
                            "name": "addr",
                            "type": "address"
                        },
                        {
                            "internalType": "string",
                            "name": "host",
                            "type": "string"
                        }
                    ],
                    "internalType": "struct Reclaim.Witness[]",
                    "name": "",
                    "type": "tuple[]"
                }
            ],
            "stateMutability": "view",
            "type": "function"
        },
        {
            "inputs": [
                {
                    "internalType": "string",
                    "name": "provider",
                    "type": "string"
                },
                {
                    "internalType": "string",
                    "name": "params",
                    "type": "string"
                }
            ],
            "name": "getMerkelizedUserParams",
            "outputs": [
                {
                    "internalType": "bool",
                    "name": "",
                    "type": "bool"
                }
            ],
            "stateMutability": "view",
            "type": "function"
        },
        {
            "inputs": [
                {
                    "components": [
                        {
                            "components": [
                                {
                                    "internalType": "string",
                                    "name": "provider",
                                    "type": "string"
                                },
                                {
                                    "internalType": "string",
                                    "name": "parameters",
                                    "type": "string"
                                },
                                {
                                    "internalType": "string",
                                    "name": "context",
                                    "type": "string"
                                }
                            ],
                            "internalType": "struct Claims.ClaimInfo",
                            "name": "claimInfo",
                            "type": "tuple"
                        },
                        {
                            "components": [
                                {
                                    "components": [
                                        {
                                            "internalType": "bytes32",
                                            "name": "identifier",
                                            "type": "bytes32"
                                        },
                                        {
                                            "internalType": "address",
                                            "name": "owner",
                                            "type": "address"
                                        },
                                        {
                                            "internalType": "uint32",
                                            "name": "timestampS",
                                            "type": "uint32"
                                        },
                                        {
                                            "internalType": "uint32",
                                            "name": "epoch",
                                            "type": "uint32"
                                        }
                                    ],
                                    "internalType": "struct Claims.CompleteClaimData",
                                    "name": "claim",
                                    "type": "tuple"
                                },
                                {
                                    "internalType": "bytes[]",
                                    "name": "signatures",
                                    "type": "bytes[]"
                                }
                            ],
                            "internalType": "struct Claims.SignedClaim",
                            "name": "signedClaim",
                            "type": "tuple"
                        }
                    ],
                    "internalType": "struct Reclaim.Proof",
                    "name": "proof",
                    "type": "tuple"
                }
            ],
            "name": "getProviderFromProof",
            "outputs": [
                {
                    "internalType": "string",
                    "name": "",
                    "type": "string"
                }
            ],
            "stateMutability": "pure",
            "type": "function"
        },
        {
            "inputs": [
                {
                    "internalType": "address",
                    "name": "_semaphoreAddress",
                    "type": "address"
                }
            ],
            "name": "initialize",
            "outputs": [],
            "stateMutability": "nonpayable",
            "type": "function"
        },
        {
            "inputs": [
                {
                    "components": [
                        {
                            "components": [
                                {
                                    "internalType": "string",
                                    "name": "provider",
                                    "type": "string"
                                },
                                {
                                    "internalType": "string",
                                    "name": "parameters",
                                    "type": "string"
                                },
                                {
                                    "internalType": "string",
                                    "name": "context",
                                    "type": "string"
                                }
                            ],
                            "internalType": "struct Claims.ClaimInfo",
                            "name": "claimInfo",
                            "type": "tuple"
                        },
                        {
                            "components": [
                                {
                                    "components": [
                                        {
                                            "internalType": "bytes32",
                                            "name": "identifier",
                                            "type": "bytes32"
                                        },
                                        {
                                            "internalType": "address",
                                            "name": "owner",
                                            "type": "address"
                                        },
                                        {
                                            "internalType": "uint32",
                                            "name": "timestampS",
                                            "type": "uint32"
                                        },
                                        {
                                            "internalType": "uint32",
                                            "name": "epoch",
                                            "type": "uint32"
                                        }
                                    ],
                                    "internalType": "struct Claims.CompleteClaimData",
                                    "name": "claim",
                                    "type": "tuple"
                                },
                                {
                                    "internalType": "bytes[]",
                                    "name": "signatures",
                                    "type": "bytes[]"
                                }
                            ],
                            "internalType": "struct Claims.SignedClaim",
                            "name": "signedClaim",
                            "type": "tuple"
                        }
                    ],
                    "internalType": "struct Reclaim.Proof",
                    "name": "proof",
                    "type": "tuple"
                },
                {
                    "internalType": "uint256",
                    "name": "_identityCommitment",
                    "type": "uint256"
                }
            ],
            "name": "merkelizeUser",
            "outputs": [],
            "stateMutability": "nonpayable",
            "type": "function"
        },
        {
            "inputs": [],
            "name": "owner",
            "outputs": [
                {
                    "internalType": "address",
                    "name": "",
                    "type": "address"
                }
            ],
            "stateMutability": "view",
            "type": "function"
        },
        {
            "inputs": [],
            "name": "proxiableUUID",
            "outputs": [
                {
                    "internalType": "bytes32",
                    "name": "",
                    "type": "bytes32"
                }
            ],
            "stateMutability": "view",
            "type": "function"
        },
        {
            "inputs": [],
            "name": "renounceOwnership",
            "outputs": [],
            "stateMutability": "nonpayable",
            "type": "function"
        },
        {
            "inputs": [],
            "name": "semaphoreAddress",
            "outputs": [
                {
                    "internalType": "address",
                    "name": "",
                    "type": "address"
                }
            ],
            "stateMutability": "view",
            "type": "function"
        },
        {
            "inputs": [
                {
                    "internalType": "address",
                    "name": "newOwner",
                    "type": "address"
                }
            ],
            "name": "transferOwnership",
            "outputs": [],
            "stateMutability": "nonpayable",
            "type": "function"
        },
        {
            "inputs": [
                {
                    "internalType": "address",
                    "name": "newImplementation",
                    "type": "address"
                }
            ],
            "name": "upgradeTo",
            "outputs": [],
            "stateMutability": "nonpayable",
            "type": "function"
        },
        {
            "inputs": [
                {
                    "internalType": "address",
                    "name": "newImplementation",
                    "type": "address"
                },
                {
                    "internalType": "bytes",
                    "name": "data",
                    "type": "bytes"
                }
            ],
            "name": "upgradeToAndCall",
            "outputs": [],
            "stateMutability": "payable",
            "type": "function"
        },
        {
            "inputs": [
                {
                    "internalType": "string",
                    "name": "provider",
                    "type": "string"
                },
                {
                    "internalType": "uint256",
                    "name": "_merkleTreeRoot",
                    "type": "uint256"
                },
                {
                    "internalType": "uint256",
                    "name": "_signal",
                    "type": "uint256"
                },
                {
                    "internalType": "uint256",
                    "name": "_nullifierHash",
                    "type": "uint256"
                },
                {
                    "internalType": "uint256",
                    "name": "_externalNullifier",
                    "type": "uint256"
                },
                {
                    "internalType": "bytes32",
                    "name": "dappId",
                    "type": "bytes32"
                },
                {
                    "internalType": "uint256[8]",
                    "name": "_proof",
                    "type": "uint256[8]"
                }
            ],
            "name": "verifyMerkelIdentity",
            "outputs": [
                {
                    "internalType": "bool",
                    "name": "",
                    "type": "bool"
                }
            ],
            "stateMutability": "nonpayable",
            "type": "function"
        },
        {
            "inputs": [
                {
                    "components": [
                        {
                            "components": [
                                {
                                    "internalType": "string",
                                    "name": "provider",
                                    "type": "string"
                                },
                                {
                                    "internalType": "string",
                                    "name": "parameters",
                                    "type": "string"
                                },
                                {
                                    "internalType": "string",
                                    "name": "context",
                                    "type": "string"
                                }
                            ],
                            "internalType": "struct Claims.ClaimInfo",
                            "name": "claimInfo",
                            "type": "tuple"
                        },
                        {
                            "components": [
                                {
                                    "components": [
                                        {
                                            "internalType": "bytes32",
                                            "name": "identifier",
                                            "type": "bytes32"
                                        },
                                        {
                                            "internalType": "address",
                                            "name": "owner",
                                            "type": "address"
                                        },
                                        {
                                            "internalType": "uint32",
                                            "name": "timestampS",
                                            "type": "uint32"
                                        },
                                        {
                                            "internalType": "uint32",
                                            "name": "epoch",
                                            "type": "uint32"
                                        }
                                    ],
                                    "internalType": "struct Claims.CompleteClaimData",
                                    "name": "claim",
                                    "type": "tuple"
                                },
                                {
                                    "internalType": "bytes[]",
                                    "name": "signatures",
                                    "type": "bytes[]"
                                }
                            ],
                            "internalType": "struct Claims.SignedClaim",
                            "name": "signedClaim",
                            "type": "tuple"
                        }
                    ],
                    "internalType": "struct Reclaim.Proof",
                    "name": "proof",
                    "type": "tuple"
                }
            ],
            "name": "verifyProof",
            "outputs": [
                {
                    "internalType": "bool",
                    "name": "",
                    "type": "bool"
                }
            ],
            "stateMutability": "nonpayable",
            "type": "function"
        }
    ],
    "bytecode": "0x60a060405230608052348015601357600080fd5b50608051613a9f61004b600039600081816106b3015281816106fc0152818161102b0152818161106b01526110fe0152613a9f6000f3fe6080604052600436106101355760003560e01c8063739c6891116100ab578063a960e69e1161006f578063a960e69e14610396578063c4d66de8146103b6578063c6b61e4c146103d6578063e367fc6a14610426578063f2fde38b14610446578063f7da2ac91461046657600080fd5b8063739c6891146102d0578063766718081461030057806379ffdb1d146103245780638925affe146103445780638da5cb5b1461036457600080fd5b80634729504c116100fd5780634729504c146102255780634f1ef2861461024557806352d1902d146102585780635438243c1461027b5780635ee4a99e1461029b578063715018a6146102bb57600080fd5b806310abbe561461013a578063289989fd146101705780633659cfe6146101a95780633755667e146101cb5780633d3c3e07146101f8575b600080fd5b34801561014657600080fd5b5061015a6101553660046129a0565b610486565b6040516101679190612a2c565b60405180910390f35b34801561017c57600080fd5b5060ca5461019490600160a01b900463ffffffff1681565b60405163ffffffff9091168152602001610167565b3480156101b557600080fd5b506101c96101c4366004612ac6565b6106a9565b005b3480156101d757600080fd5b506101eb6101e6366004612c0b565b610791565b6040516101679190612c72565b34801561020457600080fd5b50610218610213366004612c85565b610ab2565b6040516101679190612ca0565b34801561023157600080fd5b506101c9610240366004612d6b565b610dcc565b6101c9610253366004612df8565b611021565b34801561026457600080fd5b5061026d6110f1565b604051908152602001610167565b34801561028757600080fd5b506101c9610296366004612e31565b6111a4565b3480156102a757600080fd5b506101eb6102b6366004613075565b515190565b3480156102c757600080fd5b506101c9611278565b3480156102dc57600080fd5b506102f06102eb366004612c0b565b61128c565b6040519015158152602001610167565b34801561030c57600080fd5b5060ca5461019490600160c01b900463ffffffff1681565b34801561033057600080fd5b506101c961033f3660046130a9565b6112b3565b34801561035057600080fd5b506102f061035f3660046130ed565b611426565b34801561037057600080fd5b506097546001600160a01b03165b6040516001600160a01b039091168152602001610167565b3480156103a257600080fd5b506102f06103b1366004613075565b611506565b3480156103c257600080fd5b506101c96103d1366004612ac6565b6117cf565b3480156103e257600080fd5b506103f66103f1366004612e31565b611904565b6040805163ffffffff95861681529385166020850152919093169082015260ff9091166060820152608001610167565b34801561043257600080fd5b506101c9610441366004613174565b611950565b34801561045257600080fd5b506101c9610461366004612ac6565b611a5b565b34801561047257600080fd5b5060ca5461037e906001600160a01b031681565b6060600061049385610ab2565b905060006104c1856040516020016104ad91815260200190565b604051602081830303815290604052611ad1565b6104d08763ffffffff16611c8a565b6104e0846080015160ff16611c8a565b6104ef8763ffffffff16611c8a565b60405160200161050294939291906131a9565b60405160208183030381529060405290506000818051906020012060405160200161052f91815260200190565b60405160208183030381529060405290506000836060015190506000846080015160ff166001600160401b0381111561056a5761056a612ae3565b6040519080825280602002602001820160405280156105b057816020015b6040805180820190915260008152606060208201528152602001906001900390816105885790505b5082519091506000805b876080015160ff168163ffffffff1610156106995760006105db8784611db5565b905060006105e98583613245565b90508681815181106105fd576105fd613259565b6020026020010151868463ffffffff168151811061061d5761061d613259565b602090810291909101015286610634600187613285565b8151811061064457610644613259565b602002602001015187828151811061065e5761065e613259565b60209081029190910101528751610676856004613298565b6106809190613245565b935061068d600186613285565b945050506001016105ba565b50919a9950505050505050505050565b6001600160a01b037f00000000000000000000000000000000000000000000000000000000000000001630036106fa5760405162461bcd60e51b81526004016106f1906132ab565b60405180910390fd5b7f00000000000000000000000000000000000000000000000000000000000000006001600160a01b0316610743600080516020613a23833981519152546001600160a01b031690565b6001600160a01b0316146107695760405162461bcd60e51b81526004016106f1906132f7565b61077281611e30565b6040805160008082526020820190925261078e91839190611e38565b50565b805182516060918491849111156107ea5760405162461bcd60e51b815260206004820152601a60248201527f746172676574206973206c6f6e676572207468616e206461746100000000000060448201526064016106f1565b60008060005b835185516107fe9190613285565b81116108b457600160005b8551811080156108165750815b156108825785818151811061082d5761082d613259565b01602001516001600160f81b031916876108478386613298565b8151811061085757610857613259565b01602001516001600160f81b0319161461087057600091505b8061087a81613343565b915050610809565b5080156108a15784516108959083613298565b935060019250506108b4565b50806108ac81613343565b9150506107f0565b50806108d55760405180602001604052806000815250945050505050610aac565b815b84518110801561094757508481815181106108f4576108f4613259565b6020910101516001600160f81b031916601160f91b14801561094557508461091d600183613285565b8151811061092d5761092d613259565b6020910101516001600160f81b031916601760fa1b14155b155b1561095e578061095681613343565b9150506108d7565b82811115806109cd575084818151811061097a5761097a613259565b6020910101516001600160f81b031916601160f91b1480156109cb5750846109a3600183613285565b815181106109b3576109b3613259565b6020910101516001600160f81b031916601760fa1b14155b155b156109ee576040518060200160405280600081525095505050505050610aac565b60006109fa8483613285565b6001600160401b03811115610a1157610a11612ae3565b6040519080825280601f01601f191660200182016040528015610a3b576020820181803683370190505b509050835b82811015610aa357868181518110610a5a57610a5a613259565b01602001516001600160f81b03191682610a748784613285565b81518110610a8457610a84613259565b60200101906001600160f81b031916908160001a905350600101610a40565b50955050505050505b92915050565b6040805160a08101825260008082526020820181905291810182905260608082015260808101919091528163ffffffff16600003610c685760c98054610afa90600190613285565b81548110610b0a57610b0a613259565b600091825260208083206040805160a0810182526003909402909101805463ffffffff80821686526401000000008204811686860152600160401b90910416848301526001810180548351818602810186019094528084529495919460608701949192909184015b82821015610c4b576000848152602090819020604080518082019091526002850290910180546001600160a01b031682526001810180549293919291840191610bba9061335c565b80601f0160208091040260200160405190810160405280929190818152602001828054610be69061335c565b8015610c335780601f10610c0857610100808354040283529160200191610c33565b820191906000526020600020905b815481529060010190602001808311610c1657829003601f168201915b50505050508152505081526020019060010190610b72565b505050908252506002919091015460ff1660209091015292915050565b60c9610c75600184613396565b63ffffffff1681548110610c8b57610c8b613259565b600091825260208083206040805160a0810182526003909402909101805463ffffffff80821686526401000000008204811686860152600160401b90910416848301526001810180548351818602810186019094528084529495919460608701949192909184015b82821015610c4b576000848152602090819020604080518082019091526002850290910180546001600160a01b031682526001810180549293919291840191610d3b9061335c565b80601f0160208091040260200160405190810160405280929190818152602001828054610d679061335c565b8015610db45780601f10610d8957610100808354040283529160200191610db4565b820191906000526020600020905b815481529060010190602001808311610d9757829003601f168201915b50505050508152505081526020019060010190610cf3565b610dd4611fa8565b60ca54600160a01b900463ffffffff16600003610e035760ca805463ffffffff60a01b19166102a360a71b1790555b60c95415610e5e5760c98054429190610e1e90600190613285565b81548110610e2e57610e2e613259565b906000526020600020906003020160000160086101000a81548163ffffffff021916908363ffffffff1602179055505b600160ca60188282829054906101000a900463ffffffff16610e8091906133b2565b825463ffffffff9182166101009390930a92830292820219169190911790915560c9805460018101825560009190915260ca805460039092027f66be4f155c5ef2ebd3772b228f2f00681e4ed5826cdb3b1943cc11ad15ad1d28018054428086166401000000000267ffffffffffffffff19909216600160c01b9095048616949094171781559054909350610f1e92600160a01b9091041690613298565b81546bffffffff00000000000000001916600160401b63ffffffff929092169190910217815560028101805460ff191660ff841617905560005b83811015610fb45781600101858583818110610f7657610f76613259565b9050602002810190610f8891906133ce565b815460018101835560009283526020909220909160020201610faa828261343c565b5050600101610f58565b5060c980547fb2a1462b8d912a9fe495da7a1188c48bb87bac4644a0931aa4ce2dd7017ce3659190610fe890600190613285565b81548110610ff857610ff8613259565b90600052602060002090600302016040516110139190613560565b60405180910390a150505050565b6001600160a01b037f00000000000000000000000000000000000000000000000000000000000000001630036110695760405162461bcd60e51b81526004016106f1906132ab565b7f00000000000000000000000000000000000000000000000000000000000000006001600160a01b03166110b2600080516020613a23833981519152546001600160a01b031690565b6001600160a01b0316146110d85760405162461bcd60e51b81526004016106f1906132f7565b6110e182611e30565b6110ed82826001611e38565b5050565b6000306001600160a01b037f000000000000000000000000000000000000000000000000000000000000000016146111915760405162461bcd60e51b815260206004820152603860248201527f555550535570677261646561626c653a206d757374206e6f742062652063616c60448201527f6c6564207468726f7567682064656c656761746563616c6c000000000000000060648201526084016106f1565b50600080516020613a2383398151915290565b6040516bffffffffffffffffffffffff193360601b166020820152603481018290526000906054016040516020818303038152906040528051906020012090508160cf6000838152602001908152602001600020540361123c5760405162461bcd60e51b81526020600482015260136024820152724461707020416c72656164792045786973747360681b60448201526064016106f1565b600081815260cf60205260408082208490555182917fe1ba945d9cf27531473738a81cb433321b8fccb7aa326b0dd4f820c23a6d277f91a25050565b611280611fa8565b61128a6000612002565b565b6000806112998484612054565b600090815260ce602052604090205460ff16949350505050565b60cd5460ff16156112f75760405162461bcd60e51b815260206004820152600e60248201526d4e6f2072652d656e7472616e637960901b60448201526064016106f1565b60cd805460ff19166001179055815151600090611313906120ab565b8351805160209091015191925060009161132d9190612054565b600081815260ce602052604090205490915060ff1615156001036113645760405163fd2131a160e01b815260040160405180910390fd5b61136d84611506565b50600082815260cb602052604090205460ff16151560011461139757835151611397906014611950565b60ca54604051631783efc360e01b815260048101849052602481018590526001600160a01b0390911690631783efc390604401600060405180830381600087803b1580156113e457600080fd5b505af11580156113f8573d6000803e3d6000fd5b50505060009182525060ce60205260409020805460ff1990811660011790915560cd80549091169055505050565b600082815260cf602052604081205484146114765760405162461bcd60e51b815260206004820152601060248201526f11185c1c08139bdd0810dc99585d195960821b60448201526064016106f1565b6000611481896120ab565b60ca54604051633bc778e360e01b81529192506001600160a01b031690633bc778e3906114bc9084908c908c908c908c908b906004016136a2565b600060405180830381600087803b1580156114d657600080fd5b505af19250505080156114e7575060015b6114f55760009150506114fb565b60019150505b979650505050505050565b60008082602001516020015151116115505760405162461bcd60e51b815260206004820152600d60248201526c4e6f207369676e61747572657360981b60448201526064016106f1565b60408051808201909152602080840180515183525181015190820152825160009061157a90612100565b60208501515151909150811461158f57600080fd5b602084015151606081015181516040909201516000926115af9291610486565b905060006115bc84612143565b9050815181511461162d5760405162461bcd60e51b815260206004820152603560248201527f4e756d626572206f66207369676e617475726573206e6f7420657175616c20746044820152746f206e756d626572206f66207769746e657373657360581b60648201526084016106f1565b60005b81518110156116f05760005b82518110156116e7578181146116df5782818151811061165e5761165e613259565b60200260200101516001600160a01b031683838151811061168157611681613259565b60200260200101516001600160a01b0316036116df5760405162461bcd60e51b815260206004820152601b60248201527f4475706c696361746564205369676e61747572657320466f756e64000000000060448201526064016106f1565b60010161163c565b50600101611630565b5060005b8460200151518110156117c5576000805b845181101561176e5784818151811061172057611720613259565b6020026020010151600001516001600160a01b031684848151811061174757611747613259565b60200260200101516001600160a01b031603611766576001915061176e565b600101611705565b50806117bc5760405162461bcd60e51b815260206004820152601960248201527f5369676e6174757265206e6f7420617070726f7072696174650000000000000060448201526064016106f1565b506001016116f4565b5050505050919050565b600054610100900460ff16158080156117ef5750600054600160ff909116105b806118095750303b158015611809575060005460ff166001145b61186c5760405162461bcd60e51b815260206004820152602e60248201527f496e697469616c697a61626c653a20636f6e747261637420697320616c72656160448201526d191e481a5b9a5d1a585b1a5e995960921b60648201526084016106f1565b6000805460ff19166001179055801561188f576000805461ff0019166101001790555b611897612212565b60ca80546001600160a01b0384166001600160e01b0319909116176102a360a71b17905580156110ed576000805461ff0019169055604051600181527f7f26b83ff96e1f2b6a682f133852f6798a09c465da95921460cefb38474024989060200160405180910390a15050565b60c9818154811061191457600080fd5b60009182526020909120600390910201805460029091015463ffffffff80831693506401000000008304811692600160401b9004169060ff1684565b600061195b836120ab565b600081815260cb602052604090205490915060ff16151560010361199257604051638cdd92e960e01b815260040160405180910390fd5b60ca54604051639c11214160e01b815260048101839052602481018490523060448201526001600160a01b0390911690639c11214190606401600060405180830381600087803b1580156119e557600080fd5b505af11580156119f9573d6000803e3d6000fd5b505050600082815260cb602052604090819020805460ff1916600117905551611a24915084906136da565b6040519081900381209082907fa27df82d27a5b2a66bcd0c6210f8024283ed1197a6d8e30372f8df2e487c376e90600090a3505050565b611a63611fa8565b6001600160a01b038116611ac85760405162461bcd60e51b815260206004820152602660248201527f4f776e61626c653a206e6577206f776e657220697320746865207a65726f206160448201526564647265737360d01b60648201526084016106f1565b61078e81612002565b6060600082516002611ae391906136ec565b6001600160401b03811115611afa57611afa612ae3565b6040519080825280601f01601f191660200182016040528015611b24576020820181803683370190505b5060408051808201909152601081526f181899199a1a9b1b9c1cb0b131b232b360811b602082015290915060005b8451811015611c6057818251868381518110611b7057611b70613259565b0160200151611b82919060f81c613703565b81518110611b9257611b92613259565b01602001516001600160f81b03191683611bad8360026136ec565b81518110611bbd57611bbd613259565b60200101906001600160f81b031916908160001a905350818251868381518110611be957611be9613259565b0160200151611bfb919060f81c613245565b81518110611c0b57611c0b613259565b01602001516001600160f81b03191683611c268360026136ec565b611c31906001613298565b81518110611c4157611c41613259565b60200101906001600160f81b031916908160001a905350600101611b52565b5081604051602001611c729190613717565b60405160208183030381529060405292505050919050565b606081600003611cb15750506040805180820190915260018152600360fc1b602082015290565b8160005b8115611cdb5780611cc581613343565b9150611cd49050600a83613703565b9150611cb5565b6000816001600160401b03811115611cf557611cf5612ae3565b6040519080825280601f01601f191660200182016040528015611d1f576020820181803683370190505b509050815b8515611dac57611d35600182613285565b90506000611d44600a88613703565b611d4f90600a6136ec565b611d599088613285565b611d64906030613741565b905060008160f81b905080848481518110611d8157611d81613259565b60200101906001600160f81b031916908160001a905350611da3600a89613703565b97505050611d24565b50949350505050565b8151600090611dc5836004613298565b1115611e215760405162461bcd60e51b815260206004820152602560248201527f4f6666736574202b2034206d7573742062652077697468696e206461746120626044820152646f756e647360d81b60648201526084016106f1565b50016004015163ffffffff1690565b61078e611fa8565b7f4910fdfa16fed3260ed0e7147f7cc6da11a60208b5b9406d12a635614ffd91435460ff1615611e7057611e6b83612241565b505050565b826001600160a01b03166352d1902d6040518163ffffffff1660e01b8152600401602060405180830381865afa925050508015611eca575060408051601f3d908101601f19168201909252611ec79181019061375a565b60015b611f2d5760405162461bcd60e51b815260206004820152602e60248201527f45524331393637557067726164653a206e657720696d706c656d656e7461746960448201526d6f6e206973206e6f74205555505360901b60648201526084016106f1565b600080516020613a238339815191528114611f9c5760405162461bcd60e51b815260206004820152602960248201527f45524331393637557067726164653a20756e737570706f727465642070726f786044820152681a58589b195555525160ba1b60648201526084016106f1565b50611e6b8383836122dd565b6097546001600160a01b0316331461128a5760405162461bcd60e51b815260206004820181905260248201527f4f776e61626c653a2063616c6c6572206973206e6f7420746865206f776e657260448201526064016106f1565b609780546001600160a01b038381166001600160a01b0319831681179093556040519116919082907f8be0079c531659141344cd1fd0a4f28419497f9722a3daafe3b4186f6b6457e090600090a35050565b600080604051806040016040528060018152602001601d60f91b8152509050600084828560405160200161208a93929190613773565b60408051808303601f19018152919052805160209091012095945050505050565b600080829050600081805190602001206040516020016120cd91815260200190565b604051602081830303815290604052905060006120f782600484516120f29190613285565b611db5565b95945050505050565b600080826000015183602001518460400151604051602001612124939291906137b6565b60408051601f1981840301815291905280516020909101209392505050565b606060006121548360000151612308565b905060008360200151516001600160401b0381111561217557612175612ae3565b60405190808252806020026020018201604052801561219e578160200160208202803683370190505b50905060005b84602001515181101561220a576121d883866020015183815181106121cb576121cb613259565b6020026020010151612380565b8282815181106121ea576121ea613259565b6001600160a01b03909216602092830291909101909101526001016121a4565b509392505050565b600054610100900460ff166122395760405162461bcd60e51b81526004016106f190613815565b61128a6123c9565b6001600160a01b0381163b6122ae5760405162461bcd60e51b815260206004820152602d60248201527f455243313936373a206e657720696d706c656d656e746174696f6e206973206e60448201526c1bdd08184818dbdb9d1c9858dd609a1b60648201526084016106f1565b600080516020613a2383398151915280546001600160a01b0319166001600160a01b0392909216919091179055565b6122e6836123f9565b6000825111806122f35750805b15611e6b576123028383612439565b50505050565b606061232482600001516040516020016104ad91815260200190565b6123318360200151612465565b612344846040015163ffffffff16611c8a565b612357856060015163ffffffff16611c8a565b60405160200161236a94939291906131a9565b6040516020818303038152906040529050919050565b60008061238d8451611c8a565b8460405160200161239f929190613860565b6040516020818303038152906040528051906020012090506123c181846125c7565b949350505050565b600054610100900460ff166123f05760405162461bcd60e51b81526004016106f190613815565b61128a33612002565b61240281612241565b6040516001600160a01b038216907fbc7cd75a20ee27fd9adebab32041f755214dbc6bffa90cc0225b39da2e5c2d3b90600090a250565b606061245e8383604051806060016040528060278152602001613a43602791396125e3565b9392505050565b60408051602880825260608281019093526000919060208201818036833701905050905060005b601481101561259e5760006124a2826013613285565b6124ad9060086136ec565b6124b89060026139a2565b6124cb906001600160a01b038716613703565b60f81b9050600060108260f81c6124e291906139ae565b60f81b905060008160f81c60106124f991906139d0565b8360f81c61250791906139f3565b60f81b90506125158261265b565b856125218660026136ec565b8151811061253157612531613259565b60200101906001600160f81b031916908160001a9053506125518161265b565b8561255d8660026136ec565b612568906001613298565b8151811061257857612578613259565b60200101906001600160f81b031916908160001a905350506001909201915061248c9050565b50806040516020016125b09190613717565b604051602081830303815290604052915050919050565b60008060006125d68585612696565b9150915061220a816126db565b6060600080856001600160a01b03168560405161260091906136da565b600060405180830381855af49150503d806000811461263b576040519150601f19603f3d011682016040523d82523d6000602084013e612640565b606091505b509150915061265186838387612825565b9695505050505050565b6000600a60f883901c10156126825761267960f883901c6030613741565b60f81b92915050565b61267960f883901c6057613741565b919050565b60008082516041036126cc5760208301516040840151606085015160001a6126c08782858561289e565b945094505050506126d4565b506000905060025b9250929050565b60008160048111156126ef576126ef613a0c565b036126f75750565b600181600481111561270b5761270b613a0c565b036127585760405162461bcd60e51b815260206004820152601860248201527f45434453413a20696e76616c6964207369676e6174757265000000000000000060448201526064016106f1565b600281600481111561276c5761276c613a0c565b036127b95760405162461bcd60e51b815260206004820152601f60248201527f45434453413a20696e76616c6964207369676e6174757265206c656e6774680060448201526064016106f1565b60038160048111156127cd576127cd613a0c565b0361078e5760405162461bcd60e51b815260206004820152602260248201527f45434453413a20696e76616c6964207369676e6174757265202773272076616c604482015261756560f01b60648201526084016106f1565b6060831561289457825160000361288d576001600160a01b0385163b61288d5760405162461bcd60e51b815260206004820152601d60248201527f416464726573733a2063616c6c20746f206e6f6e2d636f6e747261637400000060448201526064016106f1565b50816123c1565b6123c18383612962565b6000807f7fffffffffffffffffffffffffffffff5d576e7357a4501ddfe92f46681b20a08311156128d55750600090506003612959565b6040805160008082526020820180845289905260ff881692820192909252606081018690526080810185905260019060a0016020604051602081039080840390855afa158015612929573d6000803e3d6000fd5b5050604051601f1901519150506001600160a01b03811661295257600060019250925050612959565b9150600090505b94509492505050565b8151156129725781518083602001fd5b8060405162461bcd60e51b81526004016106f19190612c72565b803563ffffffff8116811461269157600080fd5b6000806000606084860312156129b557600080fd5b6129be8461298c565b9250602084013591506129d36040850161298c565b90509250925092565b60005b838110156129f75781810151838201526020016129df565b50506000910152565b60008151808452612a188160208601602086016129dc565b601f01601f19169290920160200192915050565b6000602082016020835280845180835260408501915060408160051b86010192506020860160005b82811015612aa557868503603f19018452815180516001600160a01b03168652602090810151604091870182905290612a8f90870182612a00565b9550506020938401939190910190600101612a54565b50929695505050505050565b6001600160a01b038116811461078e57600080fd5b600060208284031215612ad857600080fd5b813561245e81612ab1565b634e487b7160e01b600052604160045260246000fd5b604080519081016001600160401b0381118282101715612b1b57612b1b612ae3565b60405290565b604051608081016001600160401b0381118282101715612b1b57612b1b612ae3565b604051606081016001600160401b0381118282101715612b1b57612b1b612ae3565b604051601f8201601f191681016001600160401b0381118282101715612b8d57612b8d612ae3565b604052919050565b600082601f830112612ba657600080fd5b8135602083016000806001600160401b03841115612bc657612bc6612ae3565b50601f8301601f1916602001612bdb81612b65565b915050828152858383011115612bf057600080fd5b82826020830137600092810160200192909252509392505050565b60008060408385031215612c1e57600080fd5b82356001600160401b03811115612c3457600080fd5b612c4085828601612b95565b92505060208301356001600160401b03811115612c5c57600080fd5b612c6885828601612b95565b9150509250929050565b60208152600061245e6020830184612a00565b600060208284031215612c9757600080fd5b61245e8261298c565b60208152600060c0820163ffffffff845116602084015263ffffffff602085015116604084015263ffffffff6040850151166060840152606084015160a0608085015281815180845260e08601915060e08160051b870101935060208301925060005b81811015612d545786850360df19018352835180516001600160a01b03168652602090810151604091870182905290612d3e90870182612a00565b9550506020938401939290920191600101612d03565b50505050608084015160ff811660a085015261220a565b600080600060408486031215612d8057600080fd5b83356001600160401b03811115612d9657600080fd5b8401601f81018613612da757600080fd5b80356001600160401b03811115612dbd57600080fd5b8660208260051b8401011115612dd257600080fd5b60209182019450925084013560ff81168114612ded57600080fd5b809150509250925092565b60008060408385031215612e0b57600080fd5b8235612e1681612ab1565b915060208301356001600160401b03811115612c5c57600080fd5b600060208284031215612e4357600080fd5b5035919050565b600082601f830112612e5b57600080fd5b81356001600160401b03811115612e7457612e74612ae3565b8060051b612e8460208201612b65565b91825260208185018101929081019086841115612ea057600080fd5b6020860192505b838310156126515782356001600160401b03811115612ec557600080fd5b612ed4886020838a0101612b95565b83525060209283019290910190612ea7565b600081830360a0811215612ef957600080fd5b612f01612af9565b91506080811215612f1157600080fd5b50612f1a612b21565b823581526020830135612f2c81612ab1565b6020820152612f3d6040840161298c565b6040820152612f4e6060840161298c565b6060820152815260808201356001600160401b03811115612f6e57600080fd5b612f7a84828501612e4a565b60208301525092915050565b600060408284031215612f9857600080fd5b612fa0612af9565b905081356001600160401b03811115612fb857600080fd5b820160608185031215612fca57600080fd5b612fd2612b43565b81356001600160401b03811115612fe857600080fd5b612ff486828501612b95565b82525060208201356001600160401b0381111561301057600080fd5b61301c86828501612b95565b60208301525060408201356001600160401b0381111561303b57600080fd5b61304786828501612b95565b60408301525082525060208201356001600160401b0381111561306957600080fd5b612f7a84828501612ee6565b60006020828403121561308757600080fd5b81356001600160401b0381111561309d57600080fd5b6123c184828501612f86565b600080604083850312156130bc57600080fd5b82356001600160401b038111156130d257600080fd5b6130de85828601612f86565b95602094909401359450505050565b60008060008060008060006101c0888a03121561310957600080fd5b87356001600160401b0381111561311f57600080fd5b61312b8a828b01612b95565b9750506020880135955060408801359450606088013593506080880135925060a088013591506101c0880189101561316257600080fd5b60c08801905092959891949750929550565b6000806040838503121561318757600080fd5b82356001600160401b0381111561319d57600080fd5b6130de85828601612b95565b600085516131bb818460208a016129dc565b600560f91b90830190815285516131d9816001840160208a016129dc565b600560f91b6001929091019182015284516131fb8160028401602089016129dc565b600181830101915050600560f91b600182015283516132218160028401602088016129dc565b016002019695505050505050565b634e487b7160e01b600052601260045260246000fd5b6000826132545761325461322f565b500690565b634e487b7160e01b600052603260045260246000fd5b634e487b7160e01b600052601160045260246000fd5b81810381811115610aac57610aac61326f565b80820180821115610aac57610aac61326f565b6020808252602c908201527f46756e6374696f6e206d7573742062652063616c6c6564207468726f7567682060408201526b19195b1959d85d1958d85b1b60a21b606082015260800190565b6020808252602c908201527f46756e6374696f6e206d7573742062652063616c6c6564207468726f7567682060408201526b6163746976652070726f787960a01b606082015260800190565b6000600182016133555761335561326f565b5060010190565b600181811c9082168061337057607f821691505b60208210810361339057634e487b7160e01b600052602260045260246000fd5b50919050565b63ffffffff8281168282160390811115610aac57610aac61326f565b63ffffffff8181168382160190811115610aac57610aac61326f565b60008235603e198336030181126133e457600080fd5b9190910192915050565b601f821115611e6b57806000526020600020601f840160051c810160208510156134155750805b601f840160051c820191505b818110156134355760008155600101613421565b5050505050565b813561344781612ab1565b81546001600160a01b0319166001600160a01b039190911617815560018101602083013536849003601e1901811261347e57600080fd5b830180356001600160401b038111801561349757600080fd5b8136036020840113156134a957600080fd5b60009050506134c2816134bc855461335c565b856133ee565b6000601f8211600181146134f957600083156134e15750838201602001355b600019600385901b1c1916600184901b178555613557565b600085815260208120601f198516915b8281101561352b57602085880181013583559485019460019092019101613509565b508482101561354b5760001960f88660031b161c19602085880101351681555b505060018360011b0185555b50505050505050565b60208152600060c08201835463ffffffff8116602085015263ffffffff8160201c16604085015263ffffffff8160401c166060850152506001840160a0608085015281815480845260e08601915060e08160051b8701019350826000526020600020925060005b8181101561368a5786850360df1901835283546001600160a01b03168552604060208601526001840180546000906135fe8161335c565b8060408a0152600182166000811461361d57600181146136395761366d565b60ff19831660608b0152606082151560051b8b0101935061366d565b84600052602060002060005b838110156136645781548c820160600152600190910190602001613645565b8b016060019450505b5091975050506002949094019350602092909201916001016135c7565b50505050600284015460ff1660a0840181905261220a565b60006101a0820190508782528660208301528560408301528460608301528360808301526101008360a0840137979650505050505050565b600082516133e48184602087016129dc565b8082028115828204841417610aac57610aac61326f565b6000826137125761371261322f565b500490565b61060f60f31b8152600082516137348160028501602087016129dc565b9190910160020192915050565b60ff8181168382160190811115610aac57610aac61326f565b60006020828403121561376c57600080fd5b5051919050565b600084516137858184602089016129dc565b8451908301906137998183602089016129dc565b84519101906137ac8183602088016129dc565b0195945050505050565b600084516137c88184602089016129dc565b600560f91b90830190815284516137e68160018401602089016129dc565b600560f91b6001929091019182015283516138088160028401602088016129dc565b0160020195945050505050565b6020808252602b908201527f496e697469616c697a61626c653a20636f6e7472616374206973206e6f74206960408201526a6e697469616c697a696e6760a81b606082015260800190565b7f19457468657265756d205369676e6564204d6573736167653a0a00000000000081526000835161389881601a8501602088016129dc565b8351908301906138af81601a8401602088016129dc565b01601a01949350505050565b6001815b60018411156138f6578085048111156138da576138da61326f565b60018416156138e857908102905b60019390931c9280026138bf565b935093915050565b60008261390d57506001610aac565b8161391a57506000610aac565b8160018114613930576002811461393a57613956565b6001915050610aac565b60ff84111561394b5761394b61326f565b50506001821b610aac565b5060208310610133831016604e8410600b8410161715613979575081810a610aac565b61398660001984846138bb565b806000190482111561399a5761399a61326f565b029392505050565b600061245e83836138fe565b600060ff8316806139c1576139c161322f565b8060ff84160491505092915050565b60ff81811683821602908116908181146139ec576139ec61326f565b5092915050565b60ff8281168282160390811115610aac57610aac61326f565b634e487b7160e01b600052602160045260246000fdfe360894a13ba1a3210667c828492db98dca3e2076cc3735a920a3ca505d382bbc416464726573733a206c6f772d6c6576656c2064656c65676174652063616c6c206661696c6564a26469706673582212200361e943523a05fbec29d68aadbbc64f4c85fe3c01c2db06c40496a491c753dc64736f6c634300081b0033",
    "linkReferences": {},
    "deployedLinkReferences": {}
}