{
  "_format": "hh-sol-artifact-1",
  "contractName": "Registry",
  "sourceName": "contracts/Registry.sol",
  "abi": [
    {
      "inputs": [
        {
          "internalType": "address",
          "name": "_reclaimAddress",
          "type": "address"
        }
      ],
      "stateMutability": "nonpayable",
      "type": "constructor"
    },
    {
      "anonymous": false,
      "inputs": [
        {
          "indexed": true,
          "internalType": "address",
          "name": "previousOwner",
          "type": "address"
        },
        {
          "indexed": true,
          "internalType": "address",
          "name": "newOwner",
          "type": "address"
        }
      ],
      "name": "OwnershipTransferred",
      "type": "event"
    },
    {
      "inputs": [
        {
          "internalType": "uint256",
          "name": "",
          "type": "uint256"
        }
      ],
      "name": "allProfiles",
      "outputs": [
        {
          "internalType": "string",
          "name": "id",
          "type": "string"
        },
        {
          "internalType": "enum Registry.Provider",
          "name": "provider",
          "type": "uint8"
        }
      ],
      "stateMutability": "view",
      "type": "function"
    },
    {
      "inputs": [
        {
          "components": [
            {
              "components": [
                {
                  "internalType": "string",
                  "name": "provider",
                  "type": "string"
                },
                {
                  "internalType": "string",
                  "name": "parameters",
                  "type": "string"
                },
                {
                  "internalType": "string",
                  "name": "context",
                  "type": "string"
                }
              ],
              "internalType": "struct Claims.ClaimInfo",
              "name": "claimInfo",
              "type": "tuple"
            },
            {
              "components": [
                {
                  "components": [
                    {
                      "internalType": "bytes32",
                      "name": "identifier",
                      "type": "bytes32"
                    },
                    {
                      "internalType": "address",
                      "name": "owner",
                      "type": "address"
                    },
                    {
                      "internalType": "uint32",
                      "name": "timestampS",
                      "type": "uint32"
                    },
                    {
                      "internalType": "uint32",
                      "name": "epoch",
                      "type": "uint32"
                    }
                  ],
                  "internalType": "struct Claims.CompleteClaimData",
                  "name": "claim",
                  "type": "tuple"
                },
                {
                  "internalType": "bytes[]",
                  "name": "signatures",
                  "type": "bytes[]"
                }
              ],
              "internalType": "struct Claims.SignedClaim",
              "name": "signedClaim",
              "type": "tuple"
            }
          ],
          "internalType": "struct Reclaim.Proof",
          "name": "proof",
          "type": "tuple"
        },
        {
          "components": [
            {
              "internalType": "string",
              "name": "id",
              "type": "string"
            },
            {
              "internalType": "enum Registry.Provider",
              "name": "provider",
              "type": "uint8"
            }
          ],
          "internalType": "struct Registry.Profile",
          "name": "profile",
          "type": "tuple"
        }
      ],
      "name": "claim",
      "outputs": [],
      "stateMutability": "nonpayable",
      "type": "function"
    },
    {
      "inputs": [
        {
          "internalType": "enum Registry.Provider",
          "name": "",
          "type": "uint8"
        },
        {
          "internalType": "string",
          "name": "",
          "type": "string"
        }
      ],
      "name": "claimed",
      "outputs": [
        {
          "internalType": "bool",
          "name": "",
          "type": "bool"
        }
      ],
      "stateMutability": "view",
      "type": "function"
    },
    {
      "inputs": [
        {
          "internalType": "enum Registry.Provider",
          "name": "",
          "type": "uint8"
        },
        {
          "internalType": "string",
          "name": "",
          "type": "string"
        }
      ],
      "name": "claimedAddress",
      "outputs": [
        {
          "internalType": "address",
          "name": "",
          "type": "address"
        }
      ],
      "stateMutability": "view",
      "type": "function"
    },
    {
      "inputs": [
        {
          "internalType": "address",
          "name": "inviteSender",
          "type": "address"
        }
      ],
      "name": "claimedInviteCountsOfSender",
      "outputs": [
        {
          "internalType": "uint256",
          "name": "",
          "type": "uint256"
        }
      ],
      "stateMutability": "view",
      "type": "function"
    },
    {
      "inputs": [
        {
          "internalType": "enum Registry.Provider",
          "name": "",
          "type": "uint8"
        },
        {
          "internalType": "string",
          "name": "id",
          "type": "string"
        }
      ],
      "name": "claimedInvitesByProfileCounts",
      "outputs": [
        {
          "internalType": "uint256",
          "name": "",
          "type": "uint256"
        }
      ],
      "stateMutability": "view",
      "type": "function"
    },
    {
      "inputs": [
        {
          "internalType": "address",
          "name": "claimerAddress",
          "type": "address"
        }
      ],
      "name": "claimedProfiles",
      "outputs": [
        {
          "internalType": "string",
          "name": "id",
          "type": "string"
        },
        {
          "internalType": "enum Registry.Provider",
          "name": "provider",
          "type": "uint8"
        }
      ],
      "stateMutability": "view",
      "type": "function"
    },
    {
      "inputs": [],
      "name": "getAddressesWithClaimedInvites",
      "outputs": [
        {
          "internalType": "address[]",
          "name": "",
          "type": "address[]"
        },
        {
          "internalType": "uint256[]",
          "name": "",
          "type": "uint256[]"
        }
      ],
      "stateMutability": "view",
      "type": "function"
    },
    {
      "inputs": [],
      "name": "getAddressesWithInviteCounts",
      "outputs": [
        {
          "internalType": "address[]",
          "name": "",
          "type": "address[]"
        },
        {
          "internalType": "uint256[]",
          "name": "",
          "type": "uint256[]"
        }
      ],
      "stateMutability": "view",
      "type": "function"
    },
    {
      "inputs": [],
      "name": "getInviteAndClaimedCounts",
      "outputs": [
        {
          "components": [
            {
              "internalType": "address",
              "name": "invitee",
              "type": "address"
            },
            {
              "internalType": "uint256",
              "name": "totalInvites",
              "type": "uint256"
            },
            {
              "internalType": "uint256",
              "name": "claimedInvites",
              "type": "uint256"
            }
          ],
          "internalType": "struct Registry.InviteeDetails[]",
          "name": "",
          "type": "tuple[]"
        }
      ],
      "stateMutability": "view",
      "type": "function"
    },
    {
      "inputs": [],
      "name": "getInvitedProfiles",
      "outputs": [
        {
          "components": [
            {
              "internalType": "string",
              "name": "id",
              "type": "string"
            },
            {
              "internalType": "enum Registry.Provider",
              "name": "provider",
              "type": "uint8"
            }
          ],
          "internalType": "struct Registry.Profile[]",
          "name": "",
          "type": "tuple[]"
        }
      ],
      "stateMutability": "view",
      "type": "function"
    },
    {
      "inputs": [],
      "name": "getInviters",
      "outputs": [
        {
          "components": [
            {
              "internalType": "string",
              "name": "id",
              "type": "string"
            },
            {
              "internalType": "enum Registry.Provider",
              "name": "provider",
              "type": "uint8"
            },
            {
              "internalType": "uint256",
              "name": "inviteCount",
              "type": "uint256"
            },
            {
              "internalType": "uint256",
              "name": "claimCount",
              "type": "uint256"
            }
          ],
          "internalType": "struct Registry.ProfileInviteDetails[]",
          "name": "",
          "type": "tuple[]"
        }
      ],
      "stateMutability": "view",
      "type": "function"
    },
    {
      "inputs": [
        {
          "components": [
            {
              "internalType": "string",
              "name": "id",
              "type": "string"
            },
            {
              "internalType": "enum Registry.Provider",
              "name": "provider",
              "type": "uint8"
            }
          ],
          "internalType": "struct Registry.Profile",
          "name": "profile",
          "type": "tuple"
        }
      ],
      "name": "getProfileBalanceAndInviteCount",
      "outputs": [
        {
          "internalType": "uint256",
          "name": "balance",
          "type": "uint256"
        },
        {
          "internalType": "uint256",
          "name": "inviteCount",
          "type": "uint256"
        },
        {
          "internalType": "bool",
          "name": "profileClaimed",
          "type": "bool"
        }
      ],
      "stateMutability": "view",
      "type": "function"
    },
    {
      "inputs": [
        {
          "internalType": "address",
          "name": "",
          "type": "address"
        }
      ],
      "name": "hasSentInvite",
      "outputs": [
        {
          "internalType": "bool",
          "name": "",
          "type": "bool"
        }
      ],
      "stateMutability": "view",
      "type": "function"
    },
    {
      "inputs": [
        {
          "components": [
            {
              "internalType": "string",
              "name": "id",
              "type": "string"
            },
            {
              "internalType": "enum Registry.Provider",
              "name": "provider",
              "type": "uint8"
            }
          ],
          "internalType": "struct Registry.Profile",
          "name": "profile",
          "type": "tuple"
        }
      ],
      "name": "invite",
      "outputs": [],
      "stateMutability": "payable",
      "type": "function"
    },
    {
      "inputs": [
        {
          "internalType": "address",
          "name": "inviteSender",
          "type": "address"
        }
      ],
      "name": "inviteCounts",
      "outputs": [
        {
          "internalType": "uint256",
          "name": "",
          "type": "uint256"
        }
      ],
      "stateMutability": "view",
      "type": "function"
    },
    {
      "inputs": [
        {
          "internalType": "uint256",
          "name": "",
          "type": "uint256"
        }
      ],
      "name": "inviteSenders",
      "outputs": [
        {
          "internalType": "address",
          "name": "",
          "type": "address"
        }
      ],
      "stateMutability": "view",
      "type": "function"
    },
    {
      "inputs": [
        {
          "internalType": "address",
          "name": "inviteSender",
          "type": "address"
        },
        {
          "internalType": "uint256",
          "name": "",
          "type": "uint256"
        }
      ],
      "name": "invitedProfiles",
      "outputs": [
        {
          "internalType": "string",
          "name": "id",
          "type": "string"
        },
        {
          "internalType": "enum Registry.Provider",
          "name": "provider",
          "type": "uint8"
        }
      ],
      "stateMutability": "view",
      "type": "function"
    },
    {
      "inputs": [
        {
          "internalType": "enum Registry.Provider",
          "name": "",
          "type": "uint8"
        },
        {
          "internalType": "string",
          "name": "id",
          "type": "string"
        },
        {
          "internalType": "uint256",
          "name": "",
          "type": "uint256"
        }
      ],
      "name": "inviters",
      "outputs": [
        {
          "internalType": "address",
          "name": "",
          "type": "address"
        }
      ],
      "stateMutability": "view",
      "type": "function"
    },
    {
      "inputs": [],
      "name": "owner",
      "outputs": [
        {
          "internalType": "address",
          "name": "",
          "type": "address"
        }
      ],
      "stateMutability": "view",
      "type": "function"
    },
    {
      "inputs": [
        {
          "internalType": "address",
          "name": "",
          "type": "address"
        }
      ],
      "name": "points",
      "outputs": [
        {
          "internalType": "uint256",
          "name": "",
          "type": "uint256"
        }
      ],
      "stateMutability": "view",
      "type": "function"
    },
    {
      "inputs": [],
      "name": "reclaimAddress",
      "outputs": [
        {
          "internalType": "address",
          "name": "",
          "type": "address"
        }
      ],
      "stateMutability": "view",
      "type": "function"
    },
    {
      "inputs": [
        {
          "internalType": "enum Registry.Provider",
          "name": "",
          "type": "uint8"
        },
        {
          "internalType": "string",
          "name": "",
          "type": "string"
        }
      ],
      "name": "registry",
      "outputs": [
        {
          "internalType": "uint256",
          "name": "",
          "type": "uint256"
        }
      ],
      "stateMutability": "view",
      "type": "function"
    },
    {
      "inputs": [],
      "name": "renounceOwnership",
      "outputs": [],
      "stateMutability": "nonpayable",
      "type": "function"
    },
    {
      "inputs": [],
      "name": "resetRegistry",
      "outputs": [],
      "stateMutability": "nonpayable",
      "type": "function"
    },
    {
      "inputs": [],
      "name": "totalProfilesCount",
      "outputs": [
        {
          "internalType": "uint256",
          "name": "",
          "type": "uint256"
        }
      ],
      "stateMutability": "view",
      "type": "function"
    },
    {
      "inputs": [
        {
          "internalType": "address",
          "name": "newOwner",
          "type": "address"
        }
      ],
      "name": "transferOwnership",
      "outputs": [],
      "stateMutability": "nonpayable",
      "type": "function"
    },
    {
      "inputs": [],
      "name": "updatePoints",
      "outputs": [],
      "stateMutability": "nonpayable",
      "type": "function"
    },
    {
      "inputs": [
        {
          "internalType": "address",
          "name": "",
          "type": "address"
        },
        {
          "internalType": "enum Registry.Provider",
          "name": "",
          "type": "uint8"
        }
      ],
      "name": "userProfiles",
      "outputs": [
        {
          "internalType": "string",
          "name": "id",
          "type": "string"
        }
      ],
      "stateMutability": "view",
      "type": "function"
    }
  ],
  "bytecode": "0x6080604052600180546001600160a01b03191673f90085f5fd1a3beb8678623409b3811ecec5f6a5179055600060025534801561003b57600080fd5b50604051612f38380380612f3883398101604081905261005a916100d8565b61006333610088565b600180546001600160a01b0319166001600160a01b0392909216919091179055610108565b600080546001600160a01b038381166001600160a01b0319831681178455604051919092169283917f8be0079c531659141344cd1fd0a4f28419497f9722a3daafe3b4186f6b6457e09190a35050565b6000602082840312156100ea57600080fd5b81516001600160a01b038116811461010157600080fd5b9392505050565b612e21806101176000396000f3fe6080604052600436106101c25760003560e01c8063715018a6116100f7578063c5dc9aa111610095578063df39ecfd11610064578063df39ecfd146105ed578063f2fde38b1461060d578063f44910b11461062d578063f74a71df1461067657600080fd5b8063c5dc9aa114610532578063c8c953d51461057e578063d2d048f114610593578063de2dd221146105c057600080fd5b806383ba1ddc116100d157806383ba1ddc146104bf5780638da5cb5b146104d4578063aeade0e6146104f2578063c59497551461051257600080fd5b8063715018a6146104655780637685bbff1461047a5780637b412bdb1461049c57600080fd5b80634ad72055116101645780636d5fbd5e1161013e5780636d5fbd5e146103c25780636dffca65146103e25780636ee14c6c1461040f5780636fa003951461044f57600080fd5b80634ad72055146103395780635a297837146103595780635cc9318d1461037957600080fd5b80631a6a57f4116101a05780631a6a57f4146102355780631e0289f51461025757806326d6403b14610294578063358b8166146102fe57600080fd5b80630420f236146101c7578063124bf2a3146101f257806313b2138414610207575b600080fd5b3480156101d357600080fd5b506101dc61068b565b6040516101e99190612257565b60405180910390f35b61020561020036600461245c565b6107a7565b005b34801561021357600080fd5b506102276102223660046124af565b610c94565b6040516101e9929190612561565b34801561024157600080fd5b5061024a610d60565b6040516101e99190612583565b34801561026357600080fd5b5061027761027236600461245c565b610ffb565b6040805193845260208401929092521515908201526060016101e9565b3480156102a057600080fd5b506102e66102af36600461261a565b600560209081526000928352604090922081518083018401805192815290840192909301919091209152546001600160a01b031681565b6040516001600160a01b0390911681526020016101e9565b34801561030a57600080fd5b5061032b610319366004612667565b60106020526000908152604090205481565b6040519081526020016101e9565b34801561034557600080fd5b506102056103543660046127ee565b61112a565b34801561036557600080fd5b506102e6610374366004612934565b61160e565b34801561038557600080fd5b5061032b61039436600461261a565b600a602090815260009283526040909220815180830184018051928152908401929093019190912091525481565b3480156103ce57600080fd5b506102276103dd366004612667565b611662565b3480156103ee57600080fd5b506104026103fd36600461298b565b61167d565b6040516101e991906129be565b34801561041b57600080fd5b5061043f61042a366004612667565b600f6020526000908152604090205460ff1681565b60405190151581526020016101e9565b34801561045b57600080fd5b5061032b60025481565b34801561047157600080fd5b50610205611722565b34801561048657600080fd5b5061048f611736565b6040516101e991906129d1565b3480156104a857600080fd5b506104b1611865565b6040516101e9929190612a4b565b3480156104cb57600080fd5b506102056119c3565b3480156104e057600080fd5b506000546001600160a01b03166102e6565b3480156104fe57600080fd5b506001546102e6906001600160a01b031681565b34801561051e57600080fd5b506102e661052d366004612ad6565b611bab565b34801561053e57600080fd5b5061043f61054d36600461261a565b6004602090815260009283526040909220815180830184018051928152908401929093019190912091525460ff1681565b34801561058a57600080fd5b506104b1611bd5565b34801561059f57600080fd5b5061032b6105ae366004612667565b60096020526000908152604090205481565b3480156105cc57600080fd5b5061032b6105db366004612667565b60086020526000908152604090205481565b3480156105f957600080fd5b50610227610608366004612ad6565b611d28565b34801561061957600080fd5b50610205610628366004612667565b611d5b565b34801561063957600080fd5b5061032b61064836600461261a565b6003602090815260009283526040909220815180830184018051928152908401929093019190912091525481565b34801561068257600080fd5b50610205611dd1565b600d546060906000816001600160401b038111156106ab576106ab6122bc565b60405190808252806020026020018201604052801561070957816020015b6106f6604051806060016040528060006001600160a01b0316815260200160008152602001600081525090565b8152602001906001900390816106c95790505b50905060005b828110156107a0576000600d828154811061072c5761072c612aef565b6000918252602080832090910154604080516060810182526001600160a01b039092168083528085526008845281852054838501528085526009909352928390205492810192909252845190925084908490811061078c5761078c612aef565b60209081029190910101525060010161070f565b5092915050565b6000816020015160038111156107bf576107bf612529565b14806107e057506001816020015160038111156107de576107de612529565b145b8061080057506002816020015160038111156107fe576107fe612529565b145b80610820575060038160200151600381111561081e5761081e612529565b145b6108645760405162461bcd60e51b815260206004820152601060248201526f24b73b30b634b210383937bb34b232b960811b60448201526064015b60405180910390fd5b34655af3107a4000146108aa5760405162461bcd60e51b815260206004820152600e60248201526d125b9d985b1a5908185b5bdd5b9d60921b604482015260640161085b565b60046000826020015160038111156108c4576108c4612529565b60038111156108d5576108d5612529565b815260200190815260200160002081600001516040516108f59190612b05565b9081526040519081900360200190205460ff161561094f5760405162461bcd60e51b8152602060048201526017602482015276141c9bd99a5b1948185b1c9958591e4818db185a5b5959604a1b604482015260640161085b565b34600360008360200151600381111561096a5761096a612529565b600381111561097b5761097b612529565b8152602001908152602001600020826000015160405161099b9190612b05565b908152602001604051809103902060008282546109b89190612b37565b92505081905550600060046000836020015160038111156109db576109db612529565b60038111156109ec576109ec612529565b81526020019081526020016000208260000151604051610a0c9190612b05565b908152602001604051809103902060006101000a81548160ff021916908315150217905550600b600082602001516003811115610a4b57610a4b612529565b6003811115610a5c57610a5c612529565b81526020019081526020016000208160000151604051610a7c9190612b05565b908152604080516020928190038301902080546001808201835560009283528483209091018054336001600160a01b031990911681179091558252600784529181208054928301815581529190912082518392600202909101908190610ae29082612bd3565b50602082015160018083018054909160ff1990911690836003811115610b0a57610b0a612529565b0217905550503360009081526008602052604081208054925090610b2d83612c91565b9091555050336000908152600f602052604090205460ff16610ba457600d805460018181019092557fd7b6990105719101dabeb77144f2a3385c8033acd3af97e9423a695e81ad1eb50180546001600160a01b031916339081179091556000908152600f60205260409020805460ff191690911790555b600b600082602001516003811115610bbe57610bbe612529565b6003811115610bcf57610bcf612529565b81526020019081526020016000208160000151604051610bef9190612b05565b90815260405190819003602001902054600103610c915760028054906000610c1683612c91565b9091555050600e8054600181018255600091909152815182916002027fbb7b4a454dc3493923482f07822329ed19e8244eff582cc204f8554c3620c3fd01908190610c619082612bd3565b50602082015160018083018054909160ff1990911690836003811115610c8957610c89612529565b021790555050505b50565b60076020528160005260406000208181548110610cb057600080fd5b906000526020600020906002020160009150915050806000018054610cd490612b50565b80601f0160208091040260200160405190810160405280929190818152602001828054610d0090612b50565b8015610d4d5780601f10610d2257610100808354040283529160200191610d4d565b820191906000526020600020905b815481529060010190602001808311610d3057829003601f168201915b5050506001909301549192505060ff1682565b606060006002546001600160401b03811115610d7e57610d7e6122bc565b604051908082528060200260200182016040528015610ddb57816020015b610dc8604080516080810190915260608152602081016000815260200160008152602001600081525090565b815260200190600190039081610d9c5790505b50905060005b600254811015610ff5576000600e8281548110610e0057610e00612aef565b9060005260206000209060020201604051806040016040529081600082018054610e2990612b50565b80601f0160208091040260200160405190810160405280929190818152602001828054610e5590612b50565b8015610ea25780601f10610e7757610100808354040283529160200191610ea2565b820191906000526020600020905b815481529060010190602001808311610e8557829003601f168201915b5050509183525050600182015460209091019060ff166003811115610ec957610ec9612529565b6003811115610eda57610eda612529565b81525050905060405180608001604052808260000151815260200182602001516003811115610f0b57610f0b612529565b8152602001600b600084602001516003811115610f2a57610f2a612529565b6003811115610f3b57610f3b612529565b81526020019081526020016000208360000151604051610f5b9190612b05565b9081526020016040518091039020805490508152602001600a600084602001516003811115610f8c57610f8c612529565b6003811115610f9d57610f9d612529565b81526020019081526020016000208360000151604051610fbd9190612b05565b908152602001604051809103902054815250838381518110610fe157610fe1612aef565b602090810291909101015250600101610de1565b50919050565b6000806000600360008560200151600381111561101a5761101a612529565b600381111561102b5761102b612529565b8152602001908152602001600020846000015160405161104b9190612b05565b9081526020016040518091039020549250600460008560200151600381111561107657611076612529565b600381111561108757611087612529565b815260200190815260200160002084600001516040516110a79190612b05565b908152602001604051809103902060009054906101000a900460ff169050600b6000856020015160038111156110df576110df612529565b60038111156110f0576110f0612529565b815260200190815260200160002084600001516040516111109190612b05565b908152604051908190036020019020549294929350919050565b600460008260200151600381111561114457611144612529565b600381111561115557611155612529565b815260200190815260200160002081600001516040516111759190612b05565b9081526040519081900360200190205460ff16156111cf5760405162461bcd60e51b8152602060048201526017602482015276141c9bd99a5b1948185b1c9958591e4818db185a5b5959604a1b604482015260640161085b565b6001546040516354b0734f60e11b81526000916001600160a01b03169063a960e69e90611200908690600401612caa565b6020604051808303816000875af115801561121f573d6000803e3d6000fd5b505050506040513d601f19601f820116820180604052508101906112439190612dc9565b9050806112825760405162461bcd60e51b815260206004820152600d60248201526c24b73b30b634b210283937b7b360991b604482015260640161085b565b6000600360008460200151600381111561129e5761129e612529565b60038111156112af576112af612529565b815260200190815260200160002083600001516040516112cf9190612b05565b9081526020016040518091039020549050600081116113265760405162461bcd60e51b81526020600482015260136024820152724e6f2062616c616e636520746f20636c61696d60681b604482015260640161085b565b604051339082156108fc029083906000818181858888f19350505050158015611353573d6000803e3d6000fd5b506000600360008560200151600381111561137057611370612529565b600381111561138157611381612529565b815260200190815260200160002084600001516040516113a19190612b05565b908152602001604051809103902081905550600160046000856020015160038111156113cf576113cf612529565b60038111156113e0576113e0612529565b815260200190815260200160002084600001516040516114009190612b05565b908152602001604051809103902060006101000a81548160ff0219169083151502179055506000600b60008560200151600381111561144157611441612529565b600381111561145257611452612529565b815260200190815260200160002084600001516040516114729190612b05565b90815260200160405180910390208054905090506000600b6000866020015160038111156114a2576114a2612529565b60038111156114b3576114b3612529565b815260200190815260200160002085600001516040516114d39190612b05565b908152604080519182900360209081018320805480830285018301909352828452919083018282801561152f57602002820191906000526020600020905b81546001600160a01b03168152600190910190602001808311611511575b5050505050905060005b82811015611598576009600083838151811061155757611557612aef565b60200260200101516001600160a01b03166001600160a01b031681526020019081526020016000206000815461158c90612c91565b90915550600101611539565b50600a6000866020015160038111156115b3576115b3612529565b60038111156115c4576115c4612529565b815260200190815260200160002085600001516040516115e49190612b05565b908152604051908190036020019020805490600061160183612c91565b9190505550505050505050565b600b602090815260008481526040902083518085018301805192815290830192850192909220915280548290811061164557600080fd5b6000918252602090912001546001600160a01b0316925083915050565b600660205260009081526040902080548190610cd490612b50565b600c602090815260009283526040808420909152908252902080546116a190612b50565b80601f01602080910402602001604051908101604052809291908181526020018280546116cd90612b50565b801561171a5780601f106116ef5761010080835404028352916020019161171a565b820191906000526020600020905b8154815290600101906020018083116116fd57829003601f168201915b505050505081565b61172a6120f2565b611734600061214c565b565b336000908152600760209081526040808320805482518185028101850190935280835260609492939192909184015b8282101561185c578382906000526020600020906002020160405180604001604052908160008201805461179890612b50565b80601f01602080910402602001604051908101604052809291908181526020018280546117c490612b50565b80156118115780601f106117e657610100808354040283529160200191611811565b820191906000526020600020905b8154815290600101906020018083116117f457829003601f168201915b5050509183525050600182015460209091019060ff16600381111561183857611838612529565b600381111561184957611849612529565b8152505081526020019060010190611765565b50505050905090565b600d5460609081906000816001600160401b03811115611887576118876122bc565b6040519080825280602002602001820160405280156118b0578160200160208202803683370190505b5090506000826001600160401b038111156118cd576118cd6122bc565b6040519080825280602002602001820160405280156118f6578160200160208202803683370190505b50905060005b838110156119b8576000600d828154811061191957611919612aef565b9060005260206000200160009054906101000a90046001600160a01b031690508084838151811061194c5761194c612aef565b60200260200101906001600160a01b031690816001600160a01b03168152505060086000826001600160a01b03166001600160a01b03168152602001908152602001600020548383815181106119a4576119a4612aef565b6020908102919091010152506001016118fc565b509094909350915050565b3360009081526007602090815260408083205460109092528220829055905b81811015611ba757336000908152600760205260408120805483908110611a0b57611a0b612aef565b9060005260206000209060020201604051806040016040529081600082018054611a3490612b50565b80601f0160208091040260200160405190810160405280929190818152602001828054611a6090612b50565b8015611aad5780601f10611a8257610100808354040283529160200191611aad565b820191906000526020600020905b815481529060010190602001808311611a9057829003601f168201915b5050509183525050600182015460209091019060ff166003811115611ad457611ad4612529565b6003811115611ae557611ae5612529565b905250336000908152601060205260408120805492935060c892909190611b0d908490612b37565b925050819055506004600082602001516003811115611b2e57611b2e612529565b6003811115611b3f57611b3f612529565b81526020019081526020016000208160000151604051611b5f9190612b05565b9081526040519081900360200190205460ff1615611b9e5733600090815260106020526040812080546101f49290611b98908490612b37565b90915550505b506001016119e2565b5050565b600d8181548110611bbb57600080fd5b6000918252602090912001546001600160a01b0316905081565b600d5460609081906000816001600160401b03811115611bf757611bf76122bc565b604051908082528060200260200182016040528015611c20578160200160208202803683370190505b5090506000826001600160401b03811115611c3d57611c3d6122bc565b604051908082528060200260200182016040528015611c66578160200160208202803683370190505b50905060005b838110156119b8576000600d8281548110611c8957611c89612aef565b9060005260206000200160009054906101000a90046001600160a01b0316905080848381518110611cbc57611cbc612aef565b60200260200101906001600160a01b031690816001600160a01b03168152505060096000826001600160a01b03166001600160a01b0316815260200190815260200160002054838381518110611d1457611d14612aef565b602090810291909101015250600101611c6c565b600e8181548110611d3857600080fd5b9060005260206000209060020201600091509050806000018054610cd490612b50565b611d636120f2565b6001600160a01b038116611dc85760405162461bcd60e51b815260206004820152602660248201527f4f776e61626c653a206e6577206f776e657220697320746865207a65726f206160448201526564647265737360d01b606482015260840161085b565b610c918161214c565b611dd96120f2565b60005b600d54811015611e68576000600d8281548110611dfb57611dfb612aef565b60009182526020808320909101546001600160a01b0316808352600790915260408220909250611e2a9161219c565b6001600160a01b0316600090815260086020908152604080832083905560098252808320839055600f9091529020805460ff19169055600101611ddc565b50611e75600d60006121bd565b60005b6004811015610c91576000816003811115611e9557611e95612529565b905060005b600d548110156120e8576000600d8281548110611eb957611eb9612aef565b60009182526020808320909101546001600160a01b031680835260078252604080842080548251818602810186019093528083529295509092909190849084015b82821015611ff15783829060005260206000209060020201604051806040016040529081600082018054611f2d90612b50565b80601f0160208091040260200160405190810160405280929190818152602001828054611f5990612b50565b8015611fa65780601f10611f7b57610100808354040283529160200191611fa6565b820191906000526020600020905b815481529060010190602001808311611f8957829003601f168201915b5050509183525050600182015460209091019060ff166003811115611fcd57611fcd612529565b6003811115611fde57611fde612529565b8152505081526020019060010190611efa565b50505050905060005b81518110156120dd57600082828151811061201757612017612aef565b60200260200101516000015190506003600087600381111561203b5761203b612529565b600381111561204c5761204c612529565b8152602001908152602001600020816040516120689190612b05565b9081526020016040518091039020600090556004600087600381111561209057612090612529565b60038111156120a1576120a1612529565b8152602001908152602001600020816040516120bd9190612b05565b908152604051908190036020019020805460ff1916905550600101611ffa565b505050600101611e9a565b5050600101611e78565b6000546001600160a01b031633146117345760405162461bcd60e51b815260206004820181905260248201527f4f776e61626c653a2063616c6c6572206973206e6f7420746865206f776e6572604482015260640161085b565b600080546001600160a01b038381166001600160a01b0319831681178455604051919092169283917f8be0079c531659141344cd1fd0a4f28419497f9722a3daafe3b4186f6b6457e09190a35050565b5080546000825560020290600052602060002090810190610c9191906121db565b5080546000825590600052602060002090810190610c919190612208565b808211156122045760006121ef828261221d565b5060018101805460ff191690556002016121db565b5090565b5b808211156122045760008155600101612209565b50805461222990612b50565b6000825580601f10612239575050565b601f016020900490600052602060002090810190610c919190612208565b602080825282518282018190526000918401906040840190835b818110156122b157835180516001600160a01b03168452602080820151818601526040918201519185019190915290930192606090920191600101612271565b509095945050505050565b634e487b7160e01b600052604160045260246000fd5b604080519081016001600160401b03811182821017156122f4576122f46122bc565b60405290565b604051608081016001600160401b03811182821017156122f4576122f46122bc565b604051606081016001600160401b03811182821017156122f4576122f46122bc565b604051601f8201601f191681016001600160401b0381118282101715612366576123666122bc565b604052919050565b6000806001600160401b03841115612388576123886122bc565b50601f8301601f191660200161239d8161233e565b9150508281528383830111156123b257600080fd5b828260208301376000602084830101529392505050565b600082601f8301126123da57600080fd5b6123e98383356020850161236e565b9392505050565b8035600481106123ff57600080fd5b919050565b60006040828403121561241657600080fd5b61241e6122d2565b905081356001600160401b0381111561243657600080fd5b612442848285016123c9565b825250612451602083016123f0565b602082015292915050565b60006020828403121561246e57600080fd5b81356001600160401b0381111561248457600080fd5b61249084828501612404565b949350505050565b80356001600160a01b03811681146123ff57600080fd5b600080604083850312156124c257600080fd5b6124cb83612498565b946020939093013593505050565b60005b838110156124f45781810151838201526020016124dc565b50506000910152565b600081518084526125158160208601602086016124d9565b601f01601f19169290920160200192915050565b634e487b7160e01b600052602160045260246000fd5b6004811061255d57634e487b7160e01b600052602160045260246000fd5b9052565b60408152600061257460408301856124fd565b90506123e9602083018461253f565b6000602082016020835280845180835260408501915060408160051b86010192506020860160005b8281101561260e57603f1987860301845281518051608087526125d160808801826124fd565b905060208201516125e5602089018261253f565b5060408281015190880152606091820151919096015260209384019391909101906001016125ab565b50929695505050505050565b6000806040838503121561262d57600080fd5b612636836123f0565b915060208301356001600160401b0381111561265157600080fd5b61265d858286016123c9565b9150509250929050565b60006020828403121561267957600080fd5b6123e982612498565b803563ffffffff811681146123ff57600080fd5b600082601f8301126126a757600080fd5b81356001600160401b038111156126c0576126c06122bc565b8060051b6126d06020820161233e565b918252602081850181019290810190868411156126ec57600080fd5b6020860192505b838310156127465782356001600160401b0381111561271157600080fd5b8601603f8101881361272257600080fd5b6127348860208301356040840161236e565b835250602092830192909101906126f3565b9695505050505050565b600081830360a081121561276357600080fd5b61276b6122d2565b9150608081121561277b57600080fd5b506127846122fa565b8235815261279460208401612498565b60208201526127a560408401612682565b60408201526127b660608401612682565b6060820152815260808201356001600160401b038111156127d657600080fd5b6127e284828501612696565b60208301525092915050565b6000806040838503121561280157600080fd5b82356001600160401b0381111561281757600080fd5b83016040818603121561282957600080fd5b6128316122d2565b81356001600160401b0381111561284757600080fd5b82016060818803121561285957600080fd5b61286161231c565b81356001600160401b0381111561287757600080fd5b612883898285016123c9565b82525060208201356001600160401b0381111561289f57600080fd5b6128ab898285016123c9565b60208301525060408201356001600160401b038111156128ca57600080fd5b6128d6898285016123c9565b60408301525082525060208201356001600160401b038111156128f857600080fd5b61290487828501612750565b602083015250809350505060208301356001600160401b0381111561292857600080fd5b61265d85828601612404565b60008060006060848603121561294957600080fd5b612952846123f0565b925060208401356001600160401b0381111561296d57600080fd5b612979868287016123c9565b93969395505050506040919091013590565b6000806040838503121561299e57600080fd5b6129a783612498565b91506129b5602084016123f0565b90509250929050565b6020815260006123e960208301846124fd565b6000602082016020835280845180835260408501915060408160051b86010192506020860160005b8281101561260e57603f198786030184528151805160408752612a1f60408801826124fd565b905060208201519150612a35602088018361253f565b95505060209384019391909101906001016129f9565b6040808252835190820181905260009060208501906060840190835b81811015612a8e5783516001600160a01b0316835260209384019390920191600101612a67565b50508381036020808601919091528551808352918101925085019060005b81811015612aca578251845260209384019390920191600101612aac565b50919695505050505050565b600060208284031215612ae857600080fd5b5035919050565b634e487b7160e01b600052603260045260246000fd5b60008251612b178184602087016124d9565b9190910192915050565b634e487b7160e01b600052601160045260246000fd5b80820180821115612b4a57612b4a612b21565b92915050565b600181811c90821680612b6457607f821691505b602082108103610ff557634e487b7160e01b600052602260045260246000fd5b601f821115612bce57806000526020600020601f840160051c81016020851015612bab5750805b601f840160051c820191505b81811015612bcb5760008155600101612bb7565b50505b505050565b81516001600160401b03811115612bec57612bec6122bc565b612c0081612bfa8454612b50565b84612b84565b6020601f821160018114612c345760008315612c1c5750848201515b600019600385901b1c1916600184901b178455612bcb565b600084815260208120601f198516915b82811015612c645787850151825560209485019460019092019101612c44565b5084821015612c825786840151600019600387901b60f8161c191681555b50505050600190811b01905550565b600060018201612ca357612ca3612b21565b5060010190565b6020815260008251604060208401528051606080850152612cce60c08501826124fd565b90506020820151605f19858303016080860152612ceb82826124fd565b91505060408201519150605f198482030160a0850152612d0b81836124fd565b9150506020840151601f1984830301604085015260a0820181518051845260018060a01b03602082015116602085015263ffffffff604082015116604085015263ffffffff6060820151166060850152506020820151915060a0608084015280825180835260c08501915060c08160051b860101925060208401935060005b81811015612dbc5760bf19868503018352612da68486516124fd565b6020958601959094509290920191600101612d8a565b5091979650505050505050565b600060208284031215612ddb57600080fd5b815180151581146123e957600080fdfea2646970667358221220f94956811d7e3b274088506447a16c5ff3435e62f1e400da2924b3eb2f4c676664736f6c634300081b0033",
  "linkReferences": {},
  "deployedLinkReferences": {}
}