{
  "_format": "hh-sol-artifact-1",
  "contractName": "Registry",
  "sourceName": "contracts/Registry.sol",
  "abi": [
    {
      "anonymous": false,
      "inputs": [
        {
          "indexed": true,
          "internalType": "address",
          "name": "previousOwner",
          "type": "address"
        },
        {
          "indexed": true,
          "internalType": "address",
          "name": "newOwner",
          "type": "address"
        }
      ],
      "name": "OwnershipTransferred",
      "type": "event"
    },
    {
      "inputs": [
        {
          "components": [
            {
              "internalType": "string",
              "name": "id",
              "type": "string"
            },
            {
              "internalType": "enum Registry.Provider",
              "name": "provider",
              "type": "uint8"
            }
          ],
          "internalType": "struct Registry.Profile",
          "name": "profile",
          "type": "tuple"
        }
      ],
      "name": "claim",
      "outputs": [],
      "stateMutability": "nonpayable",
      "type": "function"
    },
    {
      "inputs": [
        {
          "internalType": "enum Registry.Provider",
          "name": "",
          "type": "uint8"
        },
        {
          "internalType": "string",
          "name": "",
          "type": "string"
        }
      ],
      "name": "claimed",
      "outputs": [
        {
          "internalType": "bool",
          "name": "",
          "type": "bool"
        }
      ],
      "stateMutability": "view",
      "type": "function"
    },
    {
      "inputs": [
        {
          "internalType": "enum Registry.Provider",
          "name": "",
          "type": "uint8"
        },
        {
          "internalType": "string",
          "name": "",
          "type": "string"
        }
      ],
      "name": "claimedAddress",
      "outputs": [
        {
          "internalType": "address",
          "name": "",
          "type": "address"
        }
      ],
      "stateMutability": "view",
      "type": "function"
    },
    {
      "inputs": [
        {
          "internalType": "address",
          "name": "inviteSender",
          "type": "address"
        }
      ],
      "name": "claimedInviteCounts",
      "outputs": [
        {
          "internalType": "uint256",
          "name": "",
          "type": "uint256"
        }
      ],
      "stateMutability": "view",
      "type": "function"
    },
    {
      "inputs": [
        {
          "internalType": "address",
          "name": "claimerAddress",
          "type": "address"
        }
      ],
      "name": "claimedProfiles",
      "outputs": [
        {
          "internalType": "string",
          "name": "id",
          "type": "string"
        },
        {
          "internalType": "enum Registry.Provider",
          "name": "provider",
          "type": "uint8"
        }
      ],
      "stateMutability": "view",
      "type": "function"
    },
    {
      "inputs": [],
      "name": "getAddressesWithClaimedInvites",
      "outputs": [
        {
          "internalType": "address[]",
          "name": "",
          "type": "address[]"
        },
        {
          "internalType": "uint256[]",
          "name": "",
          "type": "uint256[]"
        }
      ],
      "stateMutability": "view",
      "type": "function"
    },
    {
      "inputs": [],
      "name": "getAddressesWithInviteCounts",
      "outputs": [
        {
          "internalType": "address[]",
          "name": "",
          "type": "address[]"
        },
        {
          "internalType": "uint256[]",
          "name": "",
          "type": "uint256[]"
        }
      ],
      "stateMutability": "view",
      "type": "function"
    },
    {
      "inputs": [],
      "name": "getInviteAndClaimedCounts",
      "outputs": [
        {
          "components": [
            {
              "internalType": "address",
              "name": "invitee",
              "type": "address"
            },
            {
              "internalType": "uint256",
              "name": "totalInvites",
              "type": "uint256"
            },
            {
              "internalType": "uint256",
              "name": "claimedInvites",
              "type": "uint256"
            }
          ],
          "internalType": "struct Registry.InviteeDetails[]",
          "name": "",
          "type": "tuple[]"
        }
      ],
      "stateMutability": "view",
      "type": "function"
    },
    {
      "inputs": [],
      "name": "getInvitedProfiles",
      "outputs": [
        {
          "components": [
            {
              "internalType": "string",
              "name": "id",
              "type": "string"
            },
            {
              "internalType": "enum Registry.Provider",
              "name": "provider",
              "type": "uint8"
            }
          ],
          "internalType": "struct Registry.Profile[]",
          "name": "",
          "type": "tuple[]"
        }
      ],
      "stateMutability": "view",
      "type": "function"
    },
    {
      "inputs": [
        {
          "internalType": "address",
          "name": "user",
          "type": "address"
        }
      ],
      "name": "getInviters",
      "outputs": [
        {
          "internalType": "address[]",
          "name": "",
          "type": "address[]"
        },
        {
          "internalType": "address[]",
          "name": "",
          "type": "address[]"
        },
        {
          "internalType": "address[]",
          "name": "",
          "type": "address[]"
        },
        {
          "internalType": "address[]",
          "name": "",
          "type": "address[]"
        }
      ],
      "stateMutability": "view",
      "type": "function"
    },
    {
      "inputs": [
        {
          "components": [
            {
              "internalType": "string",
              "name": "id",
              "type": "string"
            },
            {
              "internalType": "enum Registry.Provider",
              "name": "provider",
              "type": "uint8"
            }
          ],
          "internalType": "struct Registry.Profile",
          "name": "profile",
          "type": "tuple"
        }
      ],
      "name": "getProfileBalanceAndInviteCount",
      "outputs": [
        {
          "internalType": "uint256",
          "name": "balance",
          "type": "uint256"
        },
        {
          "internalType": "uint256",
          "name": "inviteCount",
          "type": "uint256"
        },
        {
          "internalType": "bool",
          "name": "profileClaimed",
          "type": "bool"
        }
      ],
      "stateMutability": "view",
      "type": "function"
    },
    {
      "inputs": [
        {
          "internalType": "address",
          "name": "",
          "type": "address"
        }
      ],
      "name": "hasSentInvite",
      "outputs": [
        {
          "internalType": "bool",
          "name": "",
          "type": "bool"
        }
      ],
      "stateMutability": "view",
      "type": "function"
    },
    {
      "inputs": [
        {
          "components": [
            {
              "internalType": "string",
              "name": "id",
              "type": "string"
            },
            {
              "internalType": "enum Registry.Provider",
              "name": "provider",
              "type": "uint8"
            }
          ],
          "internalType": "struct Registry.Profile",
          "name": "profile",
          "type": "tuple"
        }
      ],
      "name": "invite",
      "outputs": [],
      "stateMutability": "payable",
      "type": "function"
    },
    {
      "inputs": [
        {
          "internalType": "address",
          "name": "inviteSender",
          "type": "address"
        }
      ],
      "name": "inviteCounts",
      "outputs": [
        {
          "internalType": "uint256",
          "name": "",
          "type": "uint256"
        }
      ],
      "stateMutability": "view",
      "type": "function"
    },
    {
      "inputs": [
        {
          "internalType": "uint256",
          "name": "",
          "type": "uint256"
        }
      ],
      "name": "inviteSenders",
      "outputs": [
        {
          "internalType": "address",
          "name": "",
          "type": "address"
        }
      ],
      "stateMutability": "view",
      "type": "function"
    },
    {
      "inputs": [
        {
          "internalType": "address",
          "name": "inviteSender",
          "type": "address"
        },
        {
          "internalType": "uint256",
          "name": "",
          "type": "uint256"
        }
      ],
      "name": "invitedProfiles",
      "outputs": [
        {
          "internalType": "string",
          "name": "id",
          "type": "string"
        },
        {
          "internalType": "enum Registry.Provider",
          "name": "provider",
          "type": "uint8"
        }
      ],
      "stateMutability": "view",
      "type": "function"
    },
    {
      "inputs": [
        {
          "internalType": "enum Registry.Provider",
          "name": "",
          "type": "uint8"
        },
        {
          "internalType": "string",
          "name": "id",
          "type": "string"
        },
        {
          "internalType": "uint256",
          "name": "",
          "type": "uint256"
        }
      ],
      "name": "inviters",
      "outputs": [
        {
          "internalType": "address",
          "name": "",
          "type": "address"
        }
      ],
      "stateMutability": "view",
      "type": "function"
    },
    {
      "inputs": [],
      "name": "owner",
      "outputs": [
        {
          "internalType": "address",
          "name": "",
          "type": "address"
        }
      ],
      "stateMutability": "view",
      "type": "function"
    },
    {
      "inputs": [
        {
          "internalType": "enum Registry.Provider",
          "name": "",
          "type": "uint8"
        },
        {
          "internalType": "string",
          "name": "",
          "type": "string"
        }
      ],
      "name": "registry",
      "outputs": [
        {
          "internalType": "uint256",
          "name": "",
          "type": "uint256"
        }
      ],
      "stateMutability": "view",
      "type": "function"
    },
    {
      "inputs": [],
      "name": "renounceOwnership",
      "outputs": [],
      "stateMutability": "nonpayable",
      "type": "function"
    },
    {
      "inputs": [],
      "name": "resetRegistry",
      "outputs": [],
      "stateMutability": "nonpayable",
      "type": "function"
    },
    {
      "inputs": [
        {
          "internalType": "address",
          "name": "newOwner",
          "type": "address"
        }
      ],
      "name": "transferOwnership",
      "outputs": [],
      "stateMutability": "nonpayable",
      "type": "function"
    },
    {
      "inputs": [
        {
          "internalType": "address",
          "name": "",
          "type": "address"
        },
        {
          "internalType": "enum Registry.Provider",
          "name": "",
          "type": "uint8"
        }
      ],
      "name": "userProfiles",
      "outputs": [
        {
          "internalType": "string",
          "name": "id",
          "type": "string"
        }
      ],
      "stateMutability": "view",
      "type": "function"
    },
    {
      "inputs": [],
      "name": "viewInvitedProfiles",
      "outputs": [
        {
          "components": [
            {
              "internalType": "string",
              "name": "id",
              "type": "string"
            },
            {
              "internalType": "enum Registry.Provider",
              "name": "provider",
              "type": "uint8"
            },
            {
              "internalType": "uint256",
              "name": "balance",
              "type": "uint256"
            },
            {
              "internalType": "uint256",
              "name": "claimed",
              "type": "uint256"
            }
          ],
          "internalType": "struct Registry.ProfileDetails[]",
          "name": "",
          "type": "tuple[]"
        }
      ],
      "stateMutability": "view",
      "type": "function"
    }
  ],
  "bytecode": "0x608060405234801561001057600080fd5b5061002d61002261003260201b60201c565b61003a60201b60201c565b6100fe565b600033905090565b60008060009054906101000a900473ffffffffffffffffffffffffffffffffffffffff169050816000806101000a81548173ffffffffffffffffffffffffffffffffffffffff021916908373ffffffffffffffffffffffffffffffffffffffff1602179055508173ffffffffffffffffffffffffffffffffffffffff168173ffffffffffffffffffffffffffffffffffffffff167f8be0079c531659141344cd1fd0a4f28419497f9722a3daafe3b4186f6b6457e060405160405180910390a35050565b6140238061010d6000396000f3fe60806040526004361061014b5760003560e01c80637685bbff116100b6578063c8c953d51161006f578063c8c953d5146104ed578063de2dd22114610519578063e9df953014610556578063f2fde38b14610593578063f44910b1146105bc578063f74a71df146105f95761014b565b80637685bbff146103b15780637b412bdb146103dc5780638da5cb5b14610408578063a0a2110114610433578063c594975514610473578063c5dc9aa1146104b05761014b565b80633a2e9ad5116101085780633a2e9ad51461027c5780635a297837146102a55780636d5fbd5e146102e25780636dffca65146103205780636ee14c6c1461035d578063715018a61461039a5761014b565b80630420f2361461015057806309a1581d1461017b578063124bf2a3146101a657806313b21384146101c25780631e0289f51461020057806326d6403b1461023f575b600080fd5b34801561015c57600080fd5b50610165610610565b6040516101729190612e17565b60405180910390f35b34801561018757600080fd5b506101906107a6565b60405161019d9190613065565b60405180910390f35b6101c060048036038101906101bb919061326b565b610ad1565b005b3480156101ce57600080fd5b506101e960048036038101906101e4919061330c565b611083565b6040516101f79291906133a5565b60405180910390f35b34801561020c57600080fd5b506102276004803603810190610222919061326b565b611159565b604051610236939291906133ff565b60405180910390f35b34801561024b57600080fd5b5061026660048036038101906102619190613436565b611270565b60405161027391906134a1565b60405180910390f35b34801561028857600080fd5b506102a3600480360381019061029e919061326b565b6112c8565b005b3480156102b157600080fd5b506102cc60048036038101906102c791906134bc565b61158f565b6040516102d991906134a1565b60405180910390f35b3480156102ee57600080fd5b506103096004803603810190610304919061352b565b611600565b6040516103179291906133a5565b60405180910390f35b34801561032c57600080fd5b5061034760048036038101906103429190613558565b6116b9565b6040516103549190613598565b60405180910390f35b34801561036957600080fd5b50610384600480360381019061037f919061352b565b611766565b60405161039191906135ba565b60405180910390f35b3480156103a657600080fd5b506103af611786565b005b3480156103bd57600080fd5b506103c661179a565b6040516103d391906136d4565b60405180910390f35b3480156103e857600080fd5b506103f1611903565b6040516103ff929190613854565b60405180910390f35b34801561041457600080fd5b5061041d611ac1565b60405161042a91906134a1565b60405180910390f35b34801561043f57600080fd5b5061045a6004803603810190610455919061352b565b611aea565b60405161046a949392919061388b565b60405180910390f35b34801561047f57600080fd5b5061049a600480360381019061049591906138ec565b612277565b6040516104a791906134a1565b60405180910390f35b3480156104bc57600080fd5b506104d760048036038101906104d29190613436565b6122b6565b6040516104e491906135ba565b60405180910390f35b3480156104f957600080fd5b506105026122fb565b604051610510929190613854565b60405180910390f35b34801561052557600080fd5b50610540600480360381019061053b919061352b565b6124b9565b60405161054d9190613919565b60405180910390f35b34801561056257600080fd5b5061057d6004803603810190610578919061352b565b6124d1565b60405161058a9190613919565b60405180910390f35b34801561059f57600080fd5b506105ba60048036038101906105b5919061352b565b6124e9565b005b3480156105c857600080fd5b506105e360048036038101906105de9190613436565b61256c565b6040516105f09190613919565b60405180910390f35b34801561060557600080fd5b5061060e6125a7565b005b60606000600a80549050905060008167ffffffffffffffff811115610638576106376130a0565b5b60405190808252806020026020018201604052801561067157816020015b61065e612b7e565b8152602001906001900390816106565790505b50905060005b8281101561079d576000600a828154811061069557610694613934565b5b9060005260206000200160009054906101000a900473ffffffffffffffffffffffffffffffffffffffff16905060405180606001604052808273ffffffffffffffffffffffffffffffffffffffff168152602001600660008473ffffffffffffffffffffffffffffffffffffffff1673ffffffffffffffffffffffffffffffffffffffff168152602001908152602001600020548152602001600760008473ffffffffffffffffffffffffffffffffffffffff1673ffffffffffffffffffffffffffffffffffffffff1681526020019081526020016000205481525083838151811061078457610783613934565b5b6020026020010181905250508080600101915050610677565b50809250505090565b60606000600560003373ffffffffffffffffffffffffffffffffffffffff1673ffffffffffffffffffffffffffffffffffffffff16815260200190815260200160002080549050905060008167ffffffffffffffff81111561080b5761080a6130a0565b5b60405190808252806020026020018201604052801561084457816020015b610831612bb5565b8152602001906001900390816108295790505b50905060005b82811015610ac8576000600560003373ffffffffffffffffffffffffffffffffffffffff1673ffffffffffffffffffffffffffffffffffffffff16815260200190815260200160002082815481106108a5576108a4613934565b5b90600052602060002090600202016040518060400160405290816000820180546108ce90613992565b80601f01602080910402602001604051908101604052809291908181526020018280546108fa90613992565b80156109475780601f1061091c57610100808354040283529160200191610947565b820191906000526020600020905b81548152906001019060200180831161092a57829003601f168201915b505050505081526020016001820160009054906101000a900460ff16600381111561097557610974612ef5565b5b600381111561098757610986612ef5565b5b815250509050604051806080016040528082600001518152602001826020015160038111156109b9576109b8612ef5565b5b815260200160016000846020015160038111156109d9576109d8612ef5565b5b60038111156109eb576109ea612ef5565b5b81526020019081526020016000208360000151604051610a0b91906139ff565b90815260200160405180910390205481526020016002600084602001516003811115610a3a57610a39612ef5565b5b6003811115610a4c57610a4b612ef5565b5b81526020019081526020016000208360000151604051610a6c91906139ff565b908152602001604051809103902060009054906101000a900460ff16610a93576000610a96565b60015b60ff16815250838381518110610aaf57610aae613934565b5b602002602001018190525050808060010191505061084a565b50809250505090565b60006003811115610ae557610ae4612ef5565b5b81602001516003811115610afc57610afb612ef5565b5b1480610b30575060016003811115610b1757610b16612ef5565b5b81602001516003811115610b2e57610b2d612ef5565b5b145b80610b63575060026003811115610b4a57610b49612ef5565b5b81602001516003811115610b6157610b60612ef5565b5b145b80610b955750600380811115610b7c57610b7b612ef5565b5b81602001516003811115610b9357610b92612ef5565b5b145b610bd4576040517f08c379a0000000000000000000000000000000000000000000000000000000008152600401610bcb90613a62565b60405180910390fd5b655af3107a40003414610c1c576040517f08c379a0000000000000000000000000000000000000000000000000000000008152600401610c1390613ace565b60405180910390fd5b600015156002600083602001516003811115610c3b57610c3a612ef5565b5b6003811115610c4d57610c4c612ef5565b5b81526020019081526020016000208260000151604051610c6d91906139ff565b908152602001604051809103902060009054906101000a900460ff16151514610ccb576040517f08c379a0000000000000000000000000000000000000000000000000000000008152600401610cc290613b3a565b60405180910390fd5b346001600083602001516003811115610ce757610ce6612ef5565b5b6003811115610cf957610cf8612ef5565b5b81526020019081526020016000208260000151604051610d1991906139ff565b90815260200160405180910390206000828254610d369190613b89565b9250508190555060006002600083602001516003811115610d5a57610d59612ef5565b5b6003811115610d6c57610d6b612ef5565b5b81526020019081526020016000208260000151604051610d8c91906139ff565b908152602001604051809103902060006101000a81548160ff0219169083151502179055506008600082602001516003811115610dcc57610dcb612ef5565b5b6003811115610dde57610ddd612ef5565b5b81526020019081526020016000208160000151604051610dfe91906139ff565b9081526020016040518091039020339080600181540180825580915050600190039060005260206000200160009091909190916101000a81548173ffffffffffffffffffffffffffffffffffffffff021916908373ffffffffffffffffffffffffffffffffffffffff160217905550600560003373ffffffffffffffffffffffffffffffffffffffff1673ffffffffffffffffffffffffffffffffffffffff1681526020019081526020016000208190806001815401808255809150506001900390600052602060002090600202016000909190919091506000820151816000019081610eeb9190613d69565b5060208201518160010160006101000a81548160ff02191690836003811115610f1757610f16612ef5565b5b02179055505050600660003373ffffffffffffffffffffffffffffffffffffffff1673ffffffffffffffffffffffffffffffffffffffff1681526020019081526020016000206000815480929190610f6e90613e3b565b9190505550600b60003373ffffffffffffffffffffffffffffffffffffffff1673ffffffffffffffffffffffffffffffffffffffff16815260200190815260200160002060009054906101000a900460ff1661108057600a339080600181540180825580915050600190039060005260206000200160009091909190916101000a81548173ffffffffffffffffffffffffffffffffffffffff021916908373ffffffffffffffffffffffffffffffffffffffff1602179055506001600b60003373ffffffffffffffffffffffffffffffffffffffff1673ffffffffffffffffffffffffffffffffffffffff16815260200190815260200160002060006101000a81548160ff0219169083151502179055505b50565b6005602052816000526040600020818154811061109f57600080fd5b9060005260206000209060020201600091509150508060000180546110c390613992565b80601f01602080910402602001604051908101604052809291908181526020018280546110ef90613992565b801561113c5780601f106111115761010080835404028352916020019161113c565b820191906000526020600020905b81548152906001019060200180831161111f57829003601f168201915b5050505050908060010160009054906101000a900460ff16905082565b6000806000600160008560200151600381111561117957611178612ef5565b5b600381111561118b5761118a612ef5565b5b815260200190815260200160002084600001516040516111ab91906139ff565b9081526020016040518091039020549250600660003373ffffffffffffffffffffffffffffffffffffffff1673ffffffffffffffffffffffffffffffffffffffff168152602001908152602001600020549150600260008560200151600381111561121957611218612ef5565b5b600381111561122b5761122a612ef5565b5b8152602001908152602001600020846000015160405161124b91906139ff565b908152602001604051809103902060009054906101000a900460ff1690509193909250565b6003602052816000526040600020818051602081018201805184825260208301602085012081835280955050505050506000915091509054906101000a900473ffffffffffffffffffffffffffffffffffffffff1681565b6000151560026000836020015160038111156112e7576112e6612ef5565b5b60038111156112f9576112f8612ef5565b5b8152602001908152602001600020826000015160405161131991906139ff565b908152602001604051809103902060009054906101000a900460ff16151514611377576040517f08c379a000000000000000000000000000000000000000000000000000000000815260040161136e90613b3a565b60405180910390fd5b6000600160008360200151600381111561139457611393612ef5565b5b60038111156113a6576113a5612ef5565b5b815260200190815260200160002082600001516040516113c691906139ff565b90815260200160405180910390205490506000811161141a576040517f08c379a000000000000000000000000000000000000000000000000000000000815260040161141190613ecf565b60405180910390fd5b3373ffffffffffffffffffffffffffffffffffffffff166108fc829081150290604051600060405180830381858888f19350505050158015611460573d6000803e3d6000fd5b506000600160008460200151600381111561147e5761147d612ef5565b5b60038111156114905761148f612ef5565b5b815260200190815260200160002083600001516040516114b091906139ff565b908152602001604051809103902081905550600160026000846020015160038111156114df576114de612ef5565b5b60038111156114f1576114f0612ef5565b5b8152602001908152602001600020836000015160405161151191906139ff565b908152602001604051809103902060006101000a81548160ff021916908315150217905550600760003373ffffffffffffffffffffffffffffffffffffffff1673ffffffffffffffffffffffffffffffffffffffff168152602001908152602001600020600081548092919061158690613e3b565b91905055505050565b60086020528260005260406000208280516020810182018051848252602083016020850120818352809550505050505081815481106115cd57600080fd5b90600052602060002001600092509250509054906101000a900473ffffffffffffffffffffffffffffffffffffffff1681565b600460205280600052604060002060009150905080600001805461162390613992565b80601f016020809104026020016040519081016040528092919081815260200182805461164f90613992565b801561169c5780601f106116715761010080835404028352916020019161169c565b820191906000526020600020905b81548152906001019060200180831161167f57829003601f168201915b5050505050908060010160009054906101000a900460ff16905082565b60096020528160005260406000206020528060005260406000206000915091505080546116e590613992565b80601f016020809104026020016040519081016040528092919081815260200182805461171190613992565b801561175e5780601f106117335761010080835404028352916020019161175e565b820191906000526020600020905b81548152906001019060200180831161174157829003601f168201915b505050505081565b600b6020528060005260406000206000915054906101000a900460ff1681565b61178e612a34565b6117986000612ab2565b565b6060600560003373ffffffffffffffffffffffffffffffffffffffff1673ffffffffffffffffffffffffffffffffffffffff168152602001908152602001600020805480602002602001604051908101604052809291908181526020016000905b828210156118fa578382906000526020600020906002020160405180604001604052908160008201805461182e90613992565b80601f016020809104026020016040519081016040528092919081815260200182805461185a90613992565b80156118a75780601f1061187c576101008083540402835291602001916118a7565b820191906000526020600020905b81548152906001019060200180831161188a57829003601f168201915b505050505081526020016001820160009054906101000a900460ff1660038111156118d5576118d4612ef5565b5b60038111156118e7576118e6612ef5565b5b81525050815260200190600101906117fb565b50505050905090565b6060806000600a80549050905060008167ffffffffffffffff81111561192c5761192b6130a0565b5b60405190808252806020026020018201604052801561195a5781602001602082028036833780820191505090505b50905060008267ffffffffffffffff811115611979576119786130a0565b5b6040519080825280602002602001820160405280156119a75781602001602082028036833780820191505090505b50905060005b83811015611ab3576000600a82815481106119cb576119ca613934565b5b9060005260206000200160009054906101000a900473ffffffffffffffffffffffffffffffffffffffff16905080848381518110611a0c57611a0b613934565b5b602002602001019073ffffffffffffffffffffffffffffffffffffffff16908173ffffffffffffffffffffffffffffffffffffffff1681525050600660008273ffffffffffffffffffffffffffffffffffffffff1673ffffffffffffffffffffffffffffffffffffffff16815260200190815260200160002054838381518110611a9957611a98613934565b5b6020026020010181815250505080806001019150506119ad565b508181945094505050509091565b60008060009054906101000a900473ffffffffffffffffffffffffffffffffffffffff16905090565b6060806060806000600960008773ffffffffffffffffffffffffffffffffffffffff1673ffffffffffffffffffffffffffffffffffffffff1681526020019081526020016000206000806003811115611b4657611b45612ef5565b5b6003811115611b5857611b57612ef5565b5b81526020019081526020016000208054611b7190613992565b80601f0160208091040260200160405190810160405280929190818152602001828054611b9d90613992565b8015611bea5780601f10611bbf57610100808354040283529160200191611bea565b820191906000526020600020905b815481529060010190602001808311611bcd57829003601f168201915b505050505090506000600960008873ffffffffffffffffffffffffffffffffffffffff1673ffffffffffffffffffffffffffffffffffffffff168152602001908152602001600020600060016003811115611c4857611c47612ef5565b5b6003811115611c5a57611c59612ef5565b5b81526020019081526020016000208054611c7390613992565b80601f0160208091040260200160405190810160405280929190818152602001828054611c9f90613992565b8015611cec5780601f10611cc157610100808354040283529160200191611cec565b820191906000526020600020905b815481529060010190602001808311611ccf57829003601f168201915b505050505090506000600960008973ffffffffffffffffffffffffffffffffffffffff1673ffffffffffffffffffffffffffffffffffffffff1681526020019081526020016000206000600380811115611d4957611d48612ef5565b5b6003811115611d5b57611d5a612ef5565b5b81526020019081526020016000208054611d7490613992565b80601f0160208091040260200160405190810160405280929190818152602001828054611da090613992565b8015611ded5780601f10611dc257610100808354040283529160200191611ded565b820191906000526020600020905b815481529060010190602001808311611dd057829003601f168201915b505050505090506000600960008a73ffffffffffffffffffffffffffffffffffffffff1673ffffffffffffffffffffffffffffffffffffffff168152602001908152602001600020600060026003811115611e4b57611e4a612ef5565b5b6003811115611e5d57611e5c612ef5565b5b81526020019081526020016000208054611e7690613992565b80601f0160208091040260200160405190810160405280929190818152602001828054611ea290613992565b8015611eef5780601f10611ec457610100808354040283529160200191611eef565b820191906000526020600020905b815481529060010190602001808311611ed257829003601f168201915b5050505050905060086000806003811115611f0d57611f0c612ef5565b5b6003811115611f1f57611f1e612ef5565b5b815260200190815260200160002084604051611f3b91906139ff565b90815260200160405180910390206008600060016003811115611f6157611f60612ef5565b5b6003811115611f7357611f72612ef5565b5b815260200190815260200160002084604051611f8f91906139ff565b908152602001604051809103902060086000600380811115611fb457611fb3612ef5565b5b6003811115611fc657611fc5612ef5565b5b815260200190815260200160002084604051611fe291906139ff565b9081526020016040518091039020600860006002600381111561200857612007612ef5565b5b600381111561201a57612019612ef5565b5b81526020019081526020016000208460405161203691906139ff565b9081526020016040518091039020838054806020026020016040519081016040528092919081815260200182805480156120c557602002820191906000526020600020905b8160009054906101000a900473ffffffffffffffffffffffffffffffffffffffff1673ffffffffffffffffffffffffffffffffffffffff168152602001906001019080831161207b575b505050505093508280548060200260200160405190810160405280929190818152602001828054801561214d57602002820191906000526020600020905b8160009054906101000a900473ffffffffffffffffffffffffffffffffffffffff1673ffffffffffffffffffffffffffffffffffffffff1681526020019060010190808311612103575b50505050509250818054806020026020016040519081016040528092919081815260200182805480156121d557602002820191906000526020600020905b8160009054906101000a900473ffffffffffffffffffffffffffffffffffffffff1673ffffffffffffffffffffffffffffffffffffffff168152602001906001019080831161218b575b505050505091508080548060200260200160405190810160405280929190818152602001828054801561225d57602002820191906000526020600020905b8160009054906101000a900473ffffffffffffffffffffffffffffffffffffffff1673ffffffffffffffffffffffffffffffffffffffff1681526020019060010190808311612213575b505050505090509750975097509750505050509193509193565b600a818154811061228757600080fd5b906000526020600020016000915054906101000a900473ffffffffffffffffffffffffffffffffffffffff1681565b6002602052816000526040600020818051602081018201805184825260208301602085012081835280955050505050506000915091509054906101000a900460ff1681565b6060806000600a80549050905060008167ffffffffffffffff811115612324576123236130a0565b5b6040519080825280602002602001820160405280156123525781602001602082028036833780820191505090505b50905060008267ffffffffffffffff811115612371576123706130a0565b5b60405190808252806020026020018201604052801561239f5781602001602082028036833780820191505090505b50905060005b838110156124ab576000600a82815481106123c3576123c2613934565b5b9060005260206000200160009054906101000a900473ffffffffffffffffffffffffffffffffffffffff1690508084838151811061240457612403613934565b5b602002602001019073ffffffffffffffffffffffffffffffffffffffff16908173ffffffffffffffffffffffffffffffffffffffff1681525050600760008273ffffffffffffffffffffffffffffffffffffffff1673ffffffffffffffffffffffffffffffffffffffff1681526020019081526020016000205483838151811061249157612490613934565b5b6020026020010181815250505080806001019150506123a5565b508181945094505050509091565b60066020528060005260406000206000915090505481565b60076020528060005260406000206000915090505481565b6124f1612a34565b600073ffffffffffffffffffffffffffffffffffffffff168173ffffffffffffffffffffffffffffffffffffffff1603612560576040517f08c379a000000000000000000000000000000000000000000000000000000000815260040161255790613f61565b60405180910390fd5b61256981612ab2565b50565b600160205281600052604060002081805160208101820180518482526020830160208501208183528095505050505050600091509150505481565b6125af612a34565b60005b600a80549050811015612730576000600a82815481106125d5576125d4613934565b5b9060005260206000200160009054906101000a900473ffffffffffffffffffffffffffffffffffffffff169050600560008273ffffffffffffffffffffffffffffffffffffffff1673ffffffffffffffffffffffffffffffffffffffff168152602001908152602001600020600061264d9190612bef565b600660008273ffffffffffffffffffffffffffffffffffffffff1673ffffffffffffffffffffffffffffffffffffffff16815260200190815260200160002060009055600760008273ffffffffffffffffffffffffffffffffffffffff1673ffffffffffffffffffffffffffffffffffffffff16815260200190815260200160002060009055600b60008273ffffffffffffffffffffffffffffffffffffffff1673ffffffffffffffffffffffffffffffffffffffff16815260200190815260200160002060006101000a81549060ff02191690555080806001019150506125b2565b50600a600061273f9190612c13565b60005b6004811015612a315760008160038111156127605761275f612ef5565b5b905060005b600a80549050811015612a22576000600a828154811061278857612787613934565b5b9060005260206000200160009054906101000a900473ffffffffffffffffffffffffffffffffffffffff1690506000600560008373ffffffffffffffffffffffffffffffffffffffff1673ffffffffffffffffffffffffffffffffffffffff168152602001908152602001600020805480602002602001604051908101604052809291908181526020016000905b82821015612915578382906000526020600020906002020160405180604001604052908160008201805461284990613992565b80601f016020809104026020016040519081016040528092919081815260200182805461287590613992565b80156128c25780601f10612897576101008083540402835291602001916128c2565b820191906000526020600020905b8154815290600101906020018083116128a557829003601f168201915b505050505081526020016001820160009054906101000a900460ff1660038111156128f0576128ef612ef5565b5b600381111561290257612901612ef5565b5b8152505081526020019060010190612816565b50505050905060005b8151811015612a1257600082828151811061293c5761293b613934565b5b60200260200101516000015190506001600087600381111561296157612960612ef5565b5b600381111561297357612972612ef5565b5b81526020019081526020016000208160405161298f91906139ff565b908152602001604051809103902060009055600260008760038111156129b8576129b7612ef5565b5b60038111156129ca576129c9612ef5565b5b8152602001908152602001600020816040516129e691906139ff565b908152602001604051809103902060006101000a81549060ff021916905550808060010191505061291e565b5050508080600101915050612765565b50508080600101915050612742565b50565b612a3c612b76565b73ffffffffffffffffffffffffffffffffffffffff16612a5a611ac1565b73ffffffffffffffffffffffffffffffffffffffff1614612ab0576040517f08c379a0000000000000000000000000000000000000000000000000000000008152600401612aa790613fcd565b60405180910390fd5b565b60008060009054906101000a900473ffffffffffffffffffffffffffffffffffffffff169050816000806101000a81548173ffffffffffffffffffffffffffffffffffffffff021916908373ffffffffffffffffffffffffffffffffffffffff1602179055508173ffffffffffffffffffffffffffffffffffffffff168173ffffffffffffffffffffffffffffffffffffffff167f8be0079c531659141344cd1fd0a4f28419497f9722a3daafe3b4186f6b6457e060405160405180910390a35050565b600033905090565b6040518060600160405280600073ffffffffffffffffffffffffffffffffffffffff16815260200160008152602001600081525090565b60405180608001604052806060815260200160006003811115612bdb57612bda612ef5565b5b815260200160008152602001600081525090565b5080546000825560020290600052602060002090810190612c109190612c34565b50565b5080546000825590600052602060002090810190612c319190612c6f565b50565b5b80821115612c6b5760008082016000612c4e9190612c8c565b6001820160006101000a81549060ff021916905550600201612c35565b5090565b5b80821115612c88576000816000905550600101612c70565b5090565b508054612c9890613992565b6000825580601f10612caa5750612cc9565b601f016020900490600052602060002090810190612cc89190612c6f565b5b50565b600081519050919050565b600082825260208201905092915050565b6000819050602082019050919050565b600073ffffffffffffffffffffffffffffffffffffffff82169050919050565b6000612d2382612cf8565b9050919050565b612d3381612d18565b82525050565b6000819050919050565b612d4c81612d39565b82525050565b606082016000820151612d686000850182612d2a565b506020820151612d7b6020850182612d43565b506040820151612d8e6040850182612d43565b50505050565b6000612da08383612d52565b60608301905092915050565b6000602082019050919050565b6000612dc482612ccc565b612dce8185612cd7565b9350612dd983612ce8565b8060005b83811015612e0a578151612df18882612d94565b9750612dfc83612dac565b925050600181019050612ddd565b5085935050505092915050565b60006020820190508181036000830152612e318184612db9565b905092915050565b600081519050919050565b600082825260208201905092915050565b6000819050602082019050919050565b600081519050919050565b600082825260208201905092915050565b60005b83811015612e9f578082015181840152602081019050612e84565b60008484015250505050565b6000601f19601f8301169050919050565b6000612ec782612e65565b612ed18185612e70565b9350612ee1818560208601612e81565b612eea81612eab565b840191505092915050565b7f4e487b7100000000000000000000000000000000000000000000000000000000600052602160045260246000fd5b60048110612f3557612f34612ef5565b5b50565b6000819050612f4682612f24565b919050565b6000612f5682612f38565b9050919050565b612f6681612f4b565b82525050565b60006080830160008301518482036000860152612f898282612ebc565b9150506020830151612f9e6020860182612f5d565b506040830151612fb16040860182612d43565b506060830151612fc46060860182612d43565b508091505092915050565b6000612fdb8383612f6c565b905092915050565b6000602082019050919050565b6000612ffb82612e39565b6130058185612e44565b93508360208202850161301785612e55565b8060005b8581101561305357848403895281516130348582612fcf565b945061303f83612fe3565b925060208a0199505060018101905061301b565b50829750879550505050505092915050565b6000602082019050818103600083015261307f8184612ff0565b905092915050565b6000604051905090565b600080fd5b600080fd5b600080fd5b7f4e487b7100000000000000000000000000000000000000000000000000000000600052604160045260246000fd5b6130d882612eab565b810181811067ffffffffffffffff821117156130f7576130f66130a0565b5b80604052505050565b600061310a613087565b905061311682826130cf565b919050565b600080fd5b600080fd5b600080fd5b600067ffffffffffffffff821115613145576131446130a0565b5b61314e82612eab565b9050602081019050919050565b82818337600083830152505050565b600061317d6131788461312a565b613100565b90508281526020810184848401111561319957613198613125565b5b6131a484828561315b565b509392505050565b600082601f8301126131c1576131c0613120565b5b81356131d184826020860161316a565b91505092915050565b600481106131e757600080fd5b50565b6000813590506131f9816131da565b92915050565b6000604082840312156132155761321461309b565b5b61321f6040613100565b9050600082013567ffffffffffffffff81111561323f5761323e61311b565b5b61324b848285016131ac565b600083015250602061325f848285016131ea565b60208301525092915050565b60006020828403121561328157613280613091565b5b600082013567ffffffffffffffff81111561329f5761329e613096565b5b6132ab848285016131ff565b91505092915050565b6132bd81612d18565b81146132c857600080fd5b50565b6000813590506132da816132b4565b92915050565b6132e981612d39565b81146132f457600080fd5b50565b600081359050613306816132e0565b92915050565b6000806040838503121561332357613322613091565b5b6000613331858286016132cb565b9250506020613342858286016132f7565b9150509250929050565b600082825260208201905092915050565b600061336882612e65565b613372818561334c565b9350613382818560208601612e81565b61338b81612eab565b840191505092915050565b61339f81612f4b565b82525050565b600060408201905081810360008301526133bf818561335d565b90506133ce6020830184613396565b9392505050565b6133de81612d39565b82525050565b60008115159050919050565b6133f9816133e4565b82525050565b600060608201905061341460008301866133d5565b61342160208301856133d5565b61342e60408301846133f0565b949350505050565b6000806040838503121561344d5761344c613091565b5b600061345b858286016131ea565b925050602083013567ffffffffffffffff81111561347c5761347b613096565b5b613488858286016131ac565b9150509250929050565b61349b81612d18565b82525050565b60006020820190506134b66000830184613492565b92915050565b6000806000606084860312156134d5576134d4613091565b5b60006134e3868287016131ea565b935050602084013567ffffffffffffffff81111561350457613503613096565b5b613510868287016131ac565b9250506040613521868287016132f7565b9150509250925092565b60006020828403121561354157613540613091565b5b600061354f848285016132cb565b91505092915050565b6000806040838503121561356f5761356e613091565b5b600061357d858286016132cb565b925050602061358e858286016131ea565b9150509250929050565b600060208201905081810360008301526135b2818461335d565b905092915050565b60006020820190506135cf60008301846133f0565b92915050565b600081519050919050565b600082825260208201905092915050565b6000819050602082019050919050565b6000604083016000830151848203600086015261361e8282612ebc565b91505060208301516136336020860182612f5d565b508091505092915050565b600061364a8383613601565b905092915050565b6000602082019050919050565b600061366a826135d5565b61367481856135e0565b935083602082028501613686856135f1565b8060005b858110156136c257848403895281516136a3858261363e565b94506136ae83613652565b925060208a0199505060018101905061368a565b50829750879550505050505092915050565b600060208201905081810360008301526136ee818461365f565b905092915050565b600081519050919050565b600082825260208201905092915050565b6000819050602082019050919050565b600061372e8383612d2a565b60208301905092915050565b6000602082019050919050565b6000613752826136f6565b61375c8185613701565b935061376783613712565b8060005b8381101561379857815161377f8882613722565b975061378a8361373a565b92505060018101905061376b565b5085935050505092915050565b600081519050919050565b600082825260208201905092915050565b6000819050602082019050919050565b60006137dd8383612d43565b60208301905092915050565b6000602082019050919050565b6000613801826137a5565b61380b81856137b0565b9350613816836137c1565b8060005b8381101561384757815161382e88826137d1565b9750613839836137e9565b92505060018101905061381a565b5085935050505092915050565b6000604082019050818103600083015261386e8185613747565b9050818103602083015261388281846137f6565b90509392505050565b600060808201905081810360008301526138a58187613747565b905081810360208301526138b98186613747565b905081810360408301526138cd8185613747565b905081810360608301526138e18184613747565b905095945050505050565b60006020828403121561390257613901613091565b5b6000613910848285016132f7565b91505092915050565b600060208201905061392e60008301846133d5565b92915050565b7f4e487b7100000000000000000000000000000000000000000000000000000000600052603260045260246000fd5b7f4e487b7100000000000000000000000000000000000000000000000000000000600052602260045260246000fd5b600060028204905060018216806139aa57607f821691505b6020821081036139bd576139bc613963565b5b50919050565b600081905092915050565b60006139d982612e65565b6139e381856139c3565b93506139f3818560208601612e81565b80840191505092915050565b6000613a0b82846139ce565b915081905092915050565b7f496e76616c69642070726f766964657200000000000000000000000000000000600082015250565b6000613a4c60108361334c565b9150613a5782613a16565b602082019050919050565b60006020820190508181036000830152613a7b81613a3f565b9050919050565b7f496e76616c696420616d6f756e74000000000000000000000000000000000000600082015250565b6000613ab8600e8361334c565b9150613ac382613a82565b602082019050919050565b60006020820190508181036000830152613ae781613aab565b9050919050565b7f50726f66696c6520616c726561647920636c61696d6564000000000000000000600082015250565b6000613b2460178361334c565b9150613b2f82613aee565b602082019050919050565b60006020820190508181036000830152613b5381613b17565b9050919050565b7f4e487b7100000000000000000000000000000000000000000000000000000000600052601160045260246000fd5b6000613b9482612d39565b9150613b9f83612d39565b9250828201905080821115613bb757613bb6613b5a565b5b92915050565b60008190508160005260206000209050919050565b60006020601f8301049050919050565b600082821b905092915050565b600060088302613c1f7fffffffffffffffffffffffffffffffffffffffffffffffffffffffffffffffff82613be2565b613c298683613be2565b95508019841693508086168417925050509392505050565b6000819050919050565b6000613c66613c61613c5c84612d39565b613c41565b612d39565b9050919050565b6000819050919050565b613c8083613c4b565b613c94613c8c82613c6d565b848454613bef565b825550505050565b600090565b613ca9613c9c565b613cb4818484613c77565b505050565b5b81811015613cd857613ccd600082613ca1565b600181019050613cba565b5050565b601f821115613d1d57613cee81613bbd565b613cf784613bd2565b81016020851015613d06578190505b613d1a613d1285613bd2565b830182613cb9565b50505b505050565b600082821c905092915050565b6000613d4060001984600802613d22565b1980831691505092915050565b6000613d598383613d2f565b9150826002028217905092915050565b613d7282612e65565b67ffffffffffffffff811115613d8b57613d8a6130a0565b5b613d958254613992565b613da0828285613cdc565b600060209050601f831160018114613dd35760008415613dc1578287015190505b613dcb8582613d4d565b865550613e33565b601f198416613de186613bbd565b60005b82811015613e0957848901518255600182019150602085019450602081019050613de4565b86831015613e265784890151613e22601f891682613d2f565b8355505b6001600288020188555050505b505050505050565b6000613e4682612d39565b91507fffffffffffffffffffffffffffffffffffffffffffffffffffffffffffffffff8203613e7857613e77613b5a565b5b600182019050919050565b7f4e6f2062616c616e636520746f20636c61696d00000000000000000000000000600082015250565b6000613eb960138361334c565b9150613ec482613e83565b602082019050919050565b60006020820190508181036000830152613ee881613eac565b9050919050565b7f4f776e61626c653a206e6577206f776e657220697320746865207a65726f206160008201527f6464726573730000000000000000000000000000000000000000000000000000602082015250565b6000613f4b60268361334c565b9150613f5682613eef565b604082019050919050565b60006020820190508181036000830152613f7a81613f3e565b9050919050565b7f4f776e61626c653a2063616c6c6572206973206e6f7420746865206f776e6572600082015250565b6000613fb760208361334c565b9150613fc282613f81565b602082019050919050565b60006020820190508181036000830152613fe681613faa565b905091905056fea2646970667358221220dbcf6e2bc50ce7fbab11781e6bff4236afee9492c9c5957f77dda07f4883acda64736f6c634300081b0033",
  "linkReferences": {},
  "deployedLinkReferences": {}
}