{
  "_format": "hh-sol-artifact-1",
  "contractName": "Registry",
  "sourceName": "contracts/Registry.sol",
  "abi": [
    {
      "anonymous": false,
      "inputs": [
        {
          "indexed": true,
          "internalType": "address",
          "name": "previousOwner",
          "type": "address"
        },
        {
          "indexed": true,
          "internalType": "address",
          "name": "newOwner",
          "type": "address"
        }
      ],
      "name": "OwnershipTransferred",
      "type": "event"
    },
    {
      "inputs": [
        {
          "internalType": "uint256",
          "name": "",
          "type": "uint256"
        }
      ],
      "name": "allProfiles",
      "outputs": [
        {
          "internalType": "string",
          "name": "id",
          "type": "string"
        },
        {
          "internalType": "enum Registry.Provider",
          "name": "provider",
          "type": "uint8"
        }
      ],
      "stateMutability": "view",
      "type": "function"
    },
    {
      "inputs": [
        {
          "components": [
            {
              "internalType": "string",
              "name": "id",
              "type": "string"
            },
            {
              "internalType": "enum Registry.Provider",
              "name": "provider",
              "type": "uint8"
            }
          ],
          "internalType": "struct Registry.Profile",
          "name": "profile",
          "type": "tuple"
        }
      ],
      "name": "claim",
      "outputs": [],
      "stateMutability": "nonpayable",
      "type": "function"
    },
    {
      "inputs": [
        {
          "components": [
            {
              "components": [
                {
                  "internalType": "string",
                  "name": "provider",
                  "type": "string"
                },
                {
                  "internalType": "string",
                  "name": "parameters",
                  "type": "string"
                },
                {
                  "internalType": "string",
                  "name": "context",
                  "type": "string"
                }
              ],
              "internalType": "struct Claims.ClaimInfo",
              "name": "claimInfo",
              "type": "tuple"
            },
            {
              "components": [
                {
                  "components": [
                    {
                      "internalType": "bytes32",
                      "name": "identifier",
                      "type": "bytes32"
                    },
                    {
                      "internalType": "address",
                      "name": "owner",
                      "type": "address"
                    },
                    {
                      "internalType": "uint32",
                      "name": "timestampS",
                      "type": "uint32"
                    },
                    {
                      "internalType": "uint32",
                      "name": "epoch",
                      "type": "uint32"
                    }
                  ],
                  "internalType": "struct Claims.CompleteClaimData",
                  "name": "claim",
                  "type": "tuple"
                },
                {
                  "internalType": "bytes[]",
                  "name": "signatures",
                  "type": "bytes[]"
                }
              ],
              "internalType": "struct Claims.SignedClaim",
              "name": "signedClaim",
              "type": "tuple"
            }
          ],
          "internalType": "struct Reclaim.Proof",
          "name": "proof",
          "type": "tuple"
        },
        {
          "components": [
            {
              "internalType": "string",
              "name": "id",
              "type": "string"
            },
            {
              "internalType": "enum Registry.Provider",
              "name": "provider",
              "type": "uint8"
            }
          ],
          "internalType": "struct Registry.Profile",
          "name": "profile",
          "type": "tuple"
        }
      ],
      "name": "claimWithProof",
      "outputs": [],
      "stateMutability": "nonpayable",
      "type": "function"
    },
    {
      "inputs": [
        {
          "internalType": "enum Registry.Provider",
          "name": "",
          "type": "uint8"
        },
        {
          "internalType": "string",
          "name": "",
          "type": "string"
        }
      ],
      "name": "claimed",
      "outputs": [
        {
          "internalType": "bool",
          "name": "",
          "type": "bool"
        }
      ],
      "stateMutability": "view",
      "type": "function"
    },
    {
      "inputs": [
        {
          "internalType": "enum Registry.Provider",
          "name": "",
          "type": "uint8"
        },
        {
          "internalType": "string",
          "name": "",
          "type": "string"
        }
      ],
      "name": "claimedAddress",
      "outputs": [
        {
          "internalType": "address",
          "name": "",
          "type": "address"
        }
      ],
      "stateMutability": "view",
      "type": "function"
    },
    {
      "inputs": [
        {
          "internalType": "address",
          "name": "inviteSender",
          "type": "address"
        }
      ],
      "name": "claimedInviteCountsOfSender",
      "outputs": [
        {
          "internalType": "uint256",
          "name": "",
          "type": "uint256"
        }
      ],
      "stateMutability": "view",
      "type": "function"
    },
    {
      "inputs": [
        {
          "internalType": "enum Registry.Provider",
          "name": "",
          "type": "uint8"
        },
        {
          "internalType": "string",
          "name": "id",
          "type": "string"
        }
      ],
      "name": "claimedInvitesByProfileCounts",
      "outputs": [
        {
          "internalType": "uint256",
          "name": "",
          "type": "uint256"
        }
      ],
      "stateMutability": "view",
      "type": "function"
    },
    {
      "inputs": [
        {
          "internalType": "address",
          "name": "claimerAddress",
          "type": "address"
        }
      ],
      "name": "claimedProfiles",
      "outputs": [
        {
          "internalType": "string",
          "name": "id",
          "type": "string"
        },
        {
          "internalType": "enum Registry.Provider",
          "name": "provider",
          "type": "uint8"
        }
      ],
      "stateMutability": "view",
      "type": "function"
    },
    {
      "inputs": [],
      "name": "getAddressesWithClaimedInvites",
      "outputs": [
        {
          "internalType": "address[]",
          "name": "",
          "type": "address[]"
        },
        {
          "internalType": "uint256[]",
          "name": "",
          "type": "uint256[]"
        }
      ],
      "stateMutability": "view",
      "type": "function"
    },
    {
      "inputs": [],
      "name": "getAddressesWithInviteCounts",
      "outputs": [
        {
          "internalType": "address[]",
          "name": "",
          "type": "address[]"
        },
        {
          "internalType": "uint256[]",
          "name": "",
          "type": "uint256[]"
        }
      ],
      "stateMutability": "view",
      "type": "function"
    },
    {
      "inputs": [],
      "name": "getInviteAndClaimedCounts",
      "outputs": [
        {
          "components": [
            {
              "internalType": "address",
              "name": "invitee",
              "type": "address"
            },
            {
              "internalType": "uint256",
              "name": "totalInvites",
              "type": "uint256"
            },
            {
              "internalType": "uint256",
              "name": "claimedInvites",
              "type": "uint256"
            }
          ],
          "internalType": "struct Registry.InviteeDetails[]",
          "name": "",
          "type": "tuple[]"
        }
      ],
      "stateMutability": "view",
      "type": "function"
    },
    {
      "inputs": [],
      "name": "getInvitedProfiles",
      "outputs": [
        {
          "components": [
            {
              "internalType": "string",
              "name": "id",
              "type": "string"
            },
            {
              "internalType": "enum Registry.Provider",
              "name": "provider",
              "type": "uint8"
            }
          ],
          "internalType": "struct Registry.Profile[]",
          "name": "",
          "type": "tuple[]"
        }
      ],
      "stateMutability": "view",
      "type": "function"
    },
    {
      "inputs": [],
      "name": "getInviters",
      "outputs": [
        {
          "components": [
            {
              "internalType": "string",
              "name": "id",
              "type": "string"
            },
            {
              "internalType": "enum Registry.Provider",
              "name": "provider",
              "type": "uint8"
            },
            {
              "internalType": "uint256",
              "name": "inviteCount",
              "type": "uint256"
            },
            {
              "internalType": "uint256",
              "name": "claimCount",
              "type": "uint256"
            }
          ],
          "internalType": "struct Registry.ProfileInviteDetails[]",
          "name": "",
          "type": "tuple[]"
        }
      ],
      "stateMutability": "view",
      "type": "function"
    },
    {
      "inputs": [
        {
          "components": [
            {
              "internalType": "string",
              "name": "id",
              "type": "string"
            },
            {
              "internalType": "enum Registry.Provider",
              "name": "provider",
              "type": "uint8"
            }
          ],
          "internalType": "struct Registry.Profile",
          "name": "profile",
          "type": "tuple"
        }
      ],
      "name": "getProfileBalanceAndInviteCount",
      "outputs": [
        {
          "internalType": "uint256",
          "name": "balance",
          "type": "uint256"
        },
        {
          "internalType": "uint256",
          "name": "inviteCount",
          "type": "uint256"
        },
        {
          "internalType": "bool",
          "name": "profileClaimed",
          "type": "bool"
        }
      ],
      "stateMutability": "view",
      "type": "function"
    },
    {
      "inputs": [
        {
          "internalType": "address",
          "name": "",
          "type": "address"
        }
      ],
      "name": "hasSentInvite",
      "outputs": [
        {
          "internalType": "bool",
          "name": "",
          "type": "bool"
        }
      ],
      "stateMutability": "view",
      "type": "function"
    },
    {
      "inputs": [
        {
          "components": [
            {
              "internalType": "string",
              "name": "id",
              "type": "string"
            },
            {
              "internalType": "enum Registry.Provider",
              "name": "provider",
              "type": "uint8"
            }
          ],
          "internalType": "struct Registry.Profile",
          "name": "profile",
          "type": "tuple"
        }
      ],
      "name": "invite",
      "outputs": [],
      "stateMutability": "payable",
      "type": "function"
    },
    {
      "inputs": [
        {
          "internalType": "address",
          "name": "inviteSender",
          "type": "address"
        }
      ],
      "name": "inviteCounts",
      "outputs": [
        {
          "internalType": "uint256",
          "name": "",
          "type": "uint256"
        }
      ],
      "stateMutability": "view",
      "type": "function"
    },
    {
      "inputs": [
        {
          "internalType": "uint256",
          "name": "",
          "type": "uint256"
        }
      ],
      "name": "inviteSenders",
      "outputs": [
        {
          "internalType": "address",
          "name": "",
          "type": "address"
        }
      ],
      "stateMutability": "view",
      "type": "function"
    },
    {
      "inputs": [
        {
          "internalType": "address",
          "name": "inviteSender",
          "type": "address"
        },
        {
          "internalType": "uint256",
          "name": "",
          "type": "uint256"
        }
      ],
      "name": "invitedProfiles",
      "outputs": [
        {
          "internalType": "string",
          "name": "id",
          "type": "string"
        },
        {
          "internalType": "enum Registry.Provider",
          "name": "provider",
          "type": "uint8"
        }
      ],
      "stateMutability": "view",
      "type": "function"
    },
    {
      "inputs": [
        {
          "internalType": "enum Registry.Provider",
          "name": "",
          "type": "uint8"
        },
        {
          "internalType": "string",
          "name": "id",
          "type": "string"
        },
        {
          "internalType": "uint256",
          "name": "",
          "type": "uint256"
        }
      ],
      "name": "inviters",
      "outputs": [
        {
          "internalType": "address",
          "name": "",
          "type": "address"
        }
      ],
      "stateMutability": "view",
      "type": "function"
    },
    {
      "inputs": [],
      "name": "owner",
      "outputs": [
        {
          "internalType": "address",
          "name": "",
          "type": "address"
        }
      ],
      "stateMutability": "view",
      "type": "function"
    },
    {
      "inputs": [
        {
          "internalType": "address",
          "name": "",
          "type": "address"
        }
      ],
      "name": "points",
      "outputs": [
        {
          "internalType": "uint256",
          "name": "",
          "type": "uint256"
        }
      ],
      "stateMutability": "view",
      "type": "function"
    },
    {
      "inputs": [],
      "name": "reclaimAddress",
      "outputs": [
        {
          "internalType": "address",
          "name": "",
          "type": "address"
        }
      ],
      "stateMutability": "view",
      "type": "function"
    },
    {
      "inputs": [
        {
          "internalType": "enum Registry.Provider",
          "name": "",
          "type": "uint8"
        },
        {
          "internalType": "string",
          "name": "",
          "type": "string"
        }
      ],
      "name": "registry",
      "outputs": [
        {
          "internalType": "uint256",
          "name": "",
          "type": "uint256"
        }
      ],
      "stateMutability": "view",
      "type": "function"
    },
    {
      "inputs": [],
      "name": "renounceOwnership",
      "outputs": [],
      "stateMutability": "nonpayable",
      "type": "function"
    },
    {
      "inputs": [],
      "name": "resetRegistry",
      "outputs": [],
      "stateMutability": "nonpayable",
      "type": "function"
    },
    {
      "inputs": [],
      "name": "totalProfilesCount",
      "outputs": [
        {
          "internalType": "uint256",
          "name": "",
          "type": "uint256"
        }
      ],
      "stateMutability": "view",
      "type": "function"
    },
    {
      "inputs": [
        {
          "internalType": "address",
          "name": "newOwner",
          "type": "address"
        }
      ],
      "name": "transferOwnership",
      "outputs": [],
      "stateMutability": "nonpayable",
      "type": "function"
    },
    {
      "inputs": [],
      "name": "updatePoints",
      "outputs": [],
      "stateMutability": "nonpayable",
      "type": "function"
    },
    {
      "inputs": [
        {
          "internalType": "address",
          "name": "",
          "type": "address"
        },
        {
          "internalType": "enum Registry.Provider",
          "name": "",
          "type": "uint8"
        }
      ],
      "name": "userProfiles",
      "outputs": [
        {
          "internalType": "string",
          "name": "id",
          "type": "string"
        }
      ],
      "stateMutability": "view",
      "type": "function"
    }
  ],
  "bytecode": "0x6080604052600180546001600160a01b03191673f90085f5fd1a3beb8678623409b3811ecec5f6a51790556000600255348015603a57600080fd5b506042336046565b6096565b600080546001600160a01b038381166001600160a01b0319831681178455604051919092169283917f8be0079c531659141344cd1fd0a4f28419497f9722a3daafe3b4186f6b6457e09190a35050565b61323e806100a56000396000f3fe6080604052600436106101cd5760003560e01c8063715018a6116100f7578063c5dc9aa111610095578063df39ecfd11610064578063df39ecfd14610618578063f2fde38b14610638578063f44910b114610658578063f74a71df146106a157600080fd5b8063c5dc9aa11461055d578063c8c953d5146105a9578063d2d048f1146105be578063de2dd221146105eb57600080fd5b806383ba1ddc116100d157806383ba1ddc146104ea5780638da5cb5b146104ff578063aeade0e61461051d578063c59497551461053d57600080fd5b8063715018a6146104905780637685bbff146104a55780637b412bdb146104c757600080fd5b8063358b81661161016f5780636d5fbd5e1161013e5780636d5fbd5e146103ed5780636dffca651461040d5780636ee14c6c1461043a5780636fa003951461047a57600080fd5b8063358b8166146103295780633a2e9ad5146103645780635a297837146103845780635cc9318d146103a457600080fd5b80631a6a57f4116101ab5780631a6a57f4146102405780631e0289f51461026257806326d6403b1461029f5780632788e5a31461030957600080fd5b80630420f236146101d2578063124bf2a3146101fd57806313b2138414610212575b600080fd5b3480156101de57600080fd5b506101e76106b6565b6040516101f4919061263d565b60405180910390f35b61021061020b366004612842565b6107d2565b005b34801561021e57600080fd5b5061023261022d366004612895565b610c95565b6040516101f4929190612947565b34801561024c57600080fd5b50610255610d61565b6040516101f49190612969565b34801561026e57600080fd5b5061028261027d366004612842565b610ffc565b6040805193845260208401929092521515908201526060016101f4565b3480156102ab57600080fd5b506102f16102ba366004612a00565b600560209081526000928352604090922081518083018401805192815290840192909301919091209152546001600160a01b031681565b6040516001600160a01b0390911681526020016101f4565b34801561031557600080fd5b50610210610324366004612bb9565b61112b565b34801561033557600080fd5b50610356610344366004612cff565b60106020526000908152604090205481565b6040519081526020016101f4565b34801561037057600080fd5b5061021061037f366004612842565b6115ea565b34801561039057600080fd5b506102f161039f366004612d1a565b6119f4565b3480156103b057600080fd5b506103566103bf366004612a00565b600a602090815260009283526040909220815180830184018051928152908401929093019190912091525481565b3480156103f957600080fd5b50610232610408366004612cff565b611a48565b34801561041957600080fd5b5061042d610428366004612d71565b611a63565b6040516101f49190612da4565b34801561044657600080fd5b5061046a610455366004612cff565b600f6020526000908152604090205460ff1681565b60405190151581526020016101f4565b34801561048657600080fd5b5061035660025481565b34801561049c57600080fd5b50610210611b08565b3480156104b157600080fd5b506104ba611b1c565b6040516101f49190612db7565b3480156104d357600080fd5b506104dc611c4b565b6040516101f4929190612e31565b3480156104f657600080fd5b50610210611da9565b34801561050b57600080fd5b506000546001600160a01b03166102f1565b34801561052957600080fd5b506001546102f1906001600160a01b031681565b34801561054957600080fd5b506102f1610558366004612ebc565b611f91565b34801561056957600080fd5b5061046a610578366004612a00565b6004602090815260009283526040909220815180830184018051928152908401929093019190912091525460ff1681565b3480156105b557600080fd5b506104dc611fbb565b3480156105ca57600080fd5b506103566105d9366004612cff565b60096020526000908152604090205481565b3480156105f757600080fd5b50610356610606366004612cff565b60086020526000908152604090205481565b34801561062457600080fd5b50610232610633366004612ebc565b61210e565b34801561064457600080fd5b50610210610653366004612cff565b612141565b34801561066457600080fd5b50610356610673366004612a00565b6003602090815260009283526040909220815180830184018051928152908401929093019190912091525481565b3480156106ad57600080fd5b506102106121b7565b600d546060906000816001600160401b038111156106d6576106d66126a2565b60405190808252806020026020018201604052801561073457816020015b610721604051806060016040528060006001600160a01b0316815260200160008152602001600081525090565b8152602001906001900390816106f45790505b50905060005b828110156107cb576000600d828154811061075757610757612ed5565b6000918252602080832090910154604080516060810182526001600160a01b03909216808352808552600884528185205483850152808552600990935292839020549281019290925284519092508490849081106107b7576107b7612ed5565b60209081029190910101525060010161073a565b5092915050565b6000816020015160038111156107ea576107ea61290f565b148061080b57506001816020015160038111156108095761080961290f565b145b8061082b57506002816020015160038111156108295761082961290f565b145b8061084b57506003816020015160038111156108495761084961290f565b145b61088f5760405162461bcd60e51b815260206004820152601060248201526f24b73b30b634b210383937bb34b232b960811b60448201526064015b60405180910390fd5b34655af3107a4000146108d55760405162461bcd60e51b815260206004820152600e60248201526d125b9d985b1a5908185b5bdd5b9d60921b6044820152606401610886565b60046000826020015160038111156108ef576108ef61290f565b60038111156109005761090061290f565b815260200190815260200160002081600001516040516109209190612eeb565b9081526040519081900360200190205460ff16156109505760405162461bcd60e51b815260040161088690612f07565b34600360008360200151600381111561096b5761096b61290f565b600381111561097c5761097c61290f565b8152602001908152602001600020826000015160405161099c9190612eeb565b908152602001604051809103902060008282546109b99190612f54565b92505081905550600060046000836020015160038111156109dc576109dc61290f565b60038111156109ed576109ed61290f565b81526020019081526020016000208260000151604051610a0d9190612eeb565b908152602001604051809103902060006101000a81548160ff021916908315150217905550600b600082602001516003811115610a4c57610a4c61290f565b6003811115610a5d57610a5d61290f565b81526020019081526020016000208160000151604051610a7d9190612eeb565b908152604080516020928190038301902080546001808201835560009283528483209091018054336001600160a01b031990911681179091558252600784529181208054928301815581529190912082518392600202909101908190610ae39082612ff0565b50602082015160018083018054909160ff1990911690836003811115610b0b57610b0b61290f565b0217905550503360009081526008602052604081208054925090610b2e836130ae565b9091555050336000908152600f602052604090205460ff16610ba557600d805460018181019092557fd7b6990105719101dabeb77144f2a3385c8033acd3af97e9423a695e81ad1eb50180546001600160a01b031916339081179091556000908152600f60205260409020805460ff191690911790555b600b600082602001516003811115610bbf57610bbf61290f565b6003811115610bd057610bd061290f565b81526020019081526020016000208160000151604051610bf09190612eeb565b90815260405190819003602001902054600103610c925760028054906000610c17836130ae565b9091555050600e8054600181018255600091909152815182916002027fbb7b4a454dc3493923482f07822329ed19e8244eff582cc204f8554c3620c3fd01908190610c629082612ff0565b50602082015160018083018054909160ff1990911690836003811115610c8a57610c8a61290f565b021790555050505b50565b60076020528160005260406000208181548110610cb157600080fd5b906000526020600020906002020160009150915050806000018054610cd590612f6d565b80601f0160208091040260200160405190810160405280929190818152602001828054610d0190612f6d565b8015610d4e5780601f10610d2357610100808354040283529160200191610d4e565b820191906000526020600020905b815481529060010190602001808311610d3157829003601f168201915b5050506001909301549192505060ff1682565b606060006002546001600160401b03811115610d7f57610d7f6126a2565b604051908082528060200260200182016040528015610ddc57816020015b610dc9604080516080810190915260608152602081016000815260200160008152602001600081525090565b815260200190600190039081610d9d5790505b50905060005b600254811015610ff6576000600e8281548110610e0157610e01612ed5565b9060005260206000209060020201604051806040016040529081600082018054610e2a90612f6d565b80601f0160208091040260200160405190810160405280929190818152602001828054610e5690612f6d565b8015610ea35780601f10610e7857610100808354040283529160200191610ea3565b820191906000526020600020905b815481529060010190602001808311610e8657829003601f168201915b5050509183525050600182015460209091019060ff166003811115610eca57610eca61290f565b6003811115610edb57610edb61290f565b81525050905060405180608001604052808260000151815260200182602001516003811115610f0c57610f0c61290f565b8152602001600b600084602001516003811115610f2b57610f2b61290f565b6003811115610f3c57610f3c61290f565b81526020019081526020016000208360000151604051610f5c9190612eeb565b9081526020016040518091039020805490508152602001600a600084602001516003811115610f8d57610f8d61290f565b6003811115610f9e57610f9e61290f565b81526020019081526020016000208360000151604051610fbe9190612eeb565b908152602001604051809103902054815250838381518110610fe257610fe2612ed5565b602090810291909101015250600101610de2565b50919050565b6000806000600360008560200151600381111561101b5761101b61290f565b600381111561102c5761102c61290f565b8152602001908152602001600020846000015160405161104c9190612eeb565b908152602001604051809103902054925060046000856020015160038111156110775761107761290f565b60038111156110885761108861290f565b815260200190815260200160002084600001516040516110a89190612eeb565b908152602001604051809103902060009054906101000a900460ff169050600b6000856020015160038111156110e0576110e061290f565b60038111156110f1576110f161290f565b815260200190815260200160002084600001516040516111119190612eeb565b908152604051908190036020019020549294929350919050565b60046000826020015160038111156111455761114561290f565b60038111156111565761115661290f565b815260200190815260200160002081600001516040516111769190612eeb565b9081526040519081900360200190205460ff16156111a65760405162461bcd60e51b815260040161088690612f07565b6001546040516354b0734f60e11b81526000916001600160a01b03169063a960e69e906111d79086906004016130c7565b6020604051808303816000875af11580156111f6573d6000803e3d6000fd5b505050506040513d601f19601f8201168201806040525081019061121a91906131e6565b9050806112595760405162461bcd60e51b815260206004820152600d60248201526c24b73b30b634b210283937b7b360991b6044820152606401610886565b600060036000846020015160038111156112755761127561290f565b60038111156112865761128661290f565b815260200190815260200160002083600001516040516112a69190612eeb565b9081526020016040518091039020549050600081116112fd5760405162461bcd60e51b81526020600482015260136024820152724e6f2062616c616e636520746f20636c61696d60681b6044820152606401610886565b604051339082156108fc029083906000818181858888f1935050505015801561132a573d6000803e3d6000fd5b50600060036000856020015160038111156113475761134761290f565b60038111156113585761135861290f565b815260200190815260200160002084600001516040516113789190612eeb565b908152602001604051809103902081905550600160046000856020015160038111156113a6576113a661290f565b60038111156113b7576113b761290f565b815260200190815260200160002084600001516040516113d79190612eeb565b908152602001604051809103902060006101000a81548160ff0219169083151502179055506000600b6000856020015160038111156114185761141861290f565b60038111156114295761142961290f565b815260200190815260200160002084600001516040516114499190612eeb565b90815260200160405180910390208054905090506000600b6000866020015160038111156114795761147961290f565b600381111561148a5761148a61290f565b815260200190815260200160002085600001516040516114aa9190612eeb565b908152604080519182900360209081018320805480830285018301909352828452919083018282801561150657602002820191906000526020600020905b81546001600160a01b031681526001909101906020018083116114e8575b5050505050905060005b82811015611574576009600083838151811061152e5761152e612ed5565b60200260200101516001600160a01b03166001600160a01b031681526020019081526020016000206000815480929190611567906130ae565b9091555050600101611510565b50600a60008660200151600381111561158f5761158f61290f565b60038111156115a0576115a061290f565b815260200190815260200160002085600001516040516115c09190612eeb565b90815260405190819003602001902080549060006115dd836130ae565b9190505550505050505050565b60046000826020015160038111156116045761160461290f565b60038111156116155761161561290f565b815260200190815260200160002081600001516040516116359190612eeb565b9081526040519081900360200190205460ff16156116655760405162461bcd60e51b815260040161088690612f07565b600060036000836020015160038111156116815761168161290f565b60038111156116925761169261290f565b815260200190815260200160002082600001516040516116b29190612eeb565b9081526020016040518091039020549050600081116117095760405162461bcd60e51b81526020600482015260136024820152724e6f2062616c616e636520746f20636c61696d60681b6044820152606401610886565b604051339082156108fc029083906000818181858888f19350505050158015611736573d6000803e3d6000fd5b50600060036000846020015160038111156117535761175361290f565b60038111156117645761176461290f565b815260200190815260200160002083600001516040516117849190612eeb565b908152602001604051809103902081905550600160046000846020015160038111156117b2576117b261290f565b60038111156117c3576117c361290f565b815260200190815260200160002083600001516040516117e39190612eeb565b908152602001604051809103902060006101000a81548160ff0219169083151502179055506000600b6000846020015160038111156118245761182461290f565b60038111156118355761183561290f565b815260200190815260200160002083600001516040516118559190612eeb565b90815260200160405180910390208054905090506000600b6000856020015160038111156118855761188561290f565b60038111156118965761189661290f565b815260200190815260200160002084600001516040516118b69190612eeb565b908152604080519182900360209081018320805480830285018301909352828452919083018282801561191257602002820191906000526020600020905b81546001600160a01b031681526001909101906020018083116118f4575b5050505050905060005b82811015611980576009600083838151811061193a5761193a612ed5565b60200260200101516001600160a01b03166001600160a01b031681526020019081526020016000206000815480929190611973906130ae565b909155505060010161191c565b50600a60008560200151600381111561199b5761199b61290f565b60038111156119ac576119ac61290f565b815260200190815260200160002084600001516040516119cc9190612eeb565b90815260405190819003602001902080549060006119e9836130ae565b919050555050505050565b600b6020908152600084815260409020835180850183018051928152908301928501929092209152805482908110611a2b57600080fd5b6000918252602090912001546001600160a01b0316925083915050565b600660205260009081526040902080548190610cd590612f6d565b600c60209081526000928352604080842090915290825290208054611a8790612f6d565b80601f0160208091040260200160405190810160405280929190818152602001828054611ab390612f6d565b8015611b005780601f10611ad557610100808354040283529160200191611b00565b820191906000526020600020905b815481529060010190602001808311611ae357829003601f168201915b505050505081565b611b106124d8565b611b1a6000612532565b565b336000908152600760209081526040808320805482518185028101850190935280835260609492939192909184015b82821015611c425783829060005260206000209060020201604051806040016040529081600082018054611b7e90612f6d565b80601f0160208091040260200160405190810160405280929190818152602001828054611baa90612f6d565b8015611bf75780601f10611bcc57610100808354040283529160200191611bf7565b820191906000526020600020905b815481529060010190602001808311611bda57829003601f168201915b5050509183525050600182015460209091019060ff166003811115611c1e57611c1e61290f565b6003811115611c2f57611c2f61290f565b8152505081526020019060010190611b4b565b50505050905090565b600d5460609081906000816001600160401b03811115611c6d57611c6d6126a2565b604051908082528060200260200182016040528015611c96578160200160208202803683370190505b5090506000826001600160401b03811115611cb357611cb36126a2565b604051908082528060200260200182016040528015611cdc578160200160208202803683370190505b50905060005b83811015611d9e576000600d8281548110611cff57611cff612ed5565b9060005260206000200160009054906101000a90046001600160a01b0316905080848381518110611d3257611d32612ed5565b60200260200101906001600160a01b031690816001600160a01b03168152505060086000826001600160a01b03166001600160a01b0316815260200190815260200160002054838381518110611d8a57611d8a612ed5565b602090810291909101015250600101611ce2565b509094909350915050565b3360009081526007602090815260408083205460109092528220829055905b81811015611f8d57336000908152600760205260408120805483908110611df157611df1612ed5565b9060005260206000209060020201604051806040016040529081600082018054611e1a90612f6d565b80601f0160208091040260200160405190810160405280929190818152602001828054611e4690612f6d565b8015611e935780601f10611e6857610100808354040283529160200191611e93565b820191906000526020600020905b815481529060010190602001808311611e7657829003601f168201915b5050509183525050600182015460209091019060ff166003811115611eba57611eba61290f565b6003811115611ecb57611ecb61290f565b905250336000908152601060205260408120805492935060c892909190611ef3908490612f54565b925050819055506004600082602001516003811115611f1457611f1461290f565b6003811115611f2557611f2561290f565b81526020019081526020016000208160000151604051611f459190612eeb565b9081526040519081900360200190205460ff1615611f845733600090815260106020526040812080546101f49290611f7e908490612f54565b90915550505b50600101611dc8565b5050565b600d8181548110611fa157600080fd5b6000918252602090912001546001600160a01b0316905081565b600d5460609081906000816001600160401b03811115611fdd57611fdd6126a2565b604051908082528060200260200182016040528015612006578160200160208202803683370190505b5090506000826001600160401b03811115612023576120236126a2565b60405190808252806020026020018201604052801561204c578160200160208202803683370190505b50905060005b83811015611d9e576000600d828154811061206f5761206f612ed5565b9060005260206000200160009054906101000a90046001600160a01b03169050808483815181106120a2576120a2612ed5565b60200260200101906001600160a01b031690816001600160a01b03168152505060096000826001600160a01b03166001600160a01b03168152602001908152602001600020548383815181106120fa576120fa612ed5565b602090810291909101015250600101612052565b600e818154811061211e57600080fd5b9060005260206000209060020201600091509050806000018054610cd590612f6d565b6121496124d8565b6001600160a01b0381166121ae5760405162461bcd60e51b815260206004820152602660248201527f4f776e61626c653a206e6577206f776e657220697320746865207a65726f206160448201526564647265737360d01b6064820152608401610886565b610c9281612532565b6121bf6124d8565b60005b600d5481101561224e576000600d82815481106121e1576121e1612ed5565b60009182526020808320909101546001600160a01b031680835260079091526040822090925061221091612582565b6001600160a01b0316600090815260086020908152604080832083905560098252808320839055600f9091529020805460ff191690556001016121c2565b5061225b600d60006125a3565b60005b6004811015610c9257600081600381111561227b5761227b61290f565b905060005b600d548110156124ce576000600d828154811061229f5761229f612ed5565b60009182526020808320909101546001600160a01b031680835260078252604080842080548251818602810186019093528083529295509092909190849084015b828210156123d7578382906000526020600020906002020160405180604001604052908160008201805461231390612f6d565b80601f016020809104026020016040519081016040528092919081815260200182805461233f90612f6d565b801561238c5780601f106123615761010080835404028352916020019161238c565b820191906000526020600020905b81548152906001019060200180831161236f57829003601f168201915b5050509183525050600182015460209091019060ff1660038111156123b3576123b361290f565b60038111156123c4576123c461290f565b81525050815260200190600101906122e0565b50505050905060005b81518110156124c35760008282815181106123fd576123fd612ed5565b6020026020010151600001519050600360008760038111156124215761242161290f565b60038111156124325761243261290f565b81526020019081526020016000208160405161244e9190612eeb565b908152602001604051809103902060009055600460008760038111156124765761247661290f565b60038111156124875761248761290f565b8152602001908152602001600020816040516124a39190612eeb565b908152604051908190036020019020805460ff19169055506001016123e0565b505050600101612280565b505060010161225e565b6000546001600160a01b03163314611b1a5760405162461bcd60e51b815260206004820181905260248201527f4f776e61626c653a2063616c6c6572206973206e6f7420746865206f776e65726044820152606401610886565b600080546001600160a01b038381166001600160a01b0319831681178455604051919092169283917f8be0079c531659141344cd1fd0a4f28419497f9722a3daafe3b4186f6b6457e09190a35050565b5080546000825560020290600052602060002090810190610c9291906125c1565b5080546000825590600052602060002090810190610c9291906125ee565b808211156125ea5760006125d58282612603565b5060018101805460ff191690556002016125c1565b5090565b5b808211156125ea57600081556001016125ef565b50805461260f90612f6d565b6000825580601f1061261f575050565b601f016020900490600052602060002090810190610c9291906125ee565b602080825282518282018190526000918401906040840190835b8181101561269757835180516001600160a01b03168452602080820151818601526040918201519185019190915290930192606090920191600101612657565b509095945050505050565b634e487b7160e01b600052604160045260246000fd5b604080519081016001600160401b03811182821017156126da576126da6126a2565b60405290565b604051608081016001600160401b03811182821017156126da576126da6126a2565b604051606081016001600160401b03811182821017156126da576126da6126a2565b604051601f8201601f191681016001600160401b038111828210171561274c5761274c6126a2565b604052919050565b6000806001600160401b0384111561276e5761276e6126a2565b50601f8301601f191660200161278381612724565b91505082815283838301111561279857600080fd5b828260208301376000602084830101529392505050565b600082601f8301126127c057600080fd5b6127cf83833560208501612754565b9392505050565b8035600481106127e557600080fd5b919050565b6000604082840312156127fc57600080fd5b6128046126b8565b905081356001600160401b0381111561281c57600080fd5b612828848285016127af565b825250612837602083016127d6565b602082015292915050565b60006020828403121561285457600080fd5b81356001600160401b0381111561286a57600080fd5b612876848285016127ea565b949350505050565b80356001600160a01b03811681146127e557600080fd5b600080604083850312156128a857600080fd5b6128b18361287e565b946020939093013593505050565b60005b838110156128da5781810151838201526020016128c2565b50506000910152565b600081518084526128fb8160208601602086016128bf565b601f01601f19169290920160200192915050565b634e487b7160e01b600052602160045260246000fd5b6004811061294357634e487b7160e01b600052602160045260246000fd5b9052565b60408152600061295a60408301856128e3565b90506127cf6020830184612925565b6000602082016020835280845180835260408501915060408160051b86010192506020860160005b828110156129f457603f1987860301845281518051608087526129b760808801826128e3565b905060208201516129cb6020890182612925565b506040828101519088015260609182015191909601526020938401939190910190600101612991565b50929695505050505050565b60008060408385031215612a1357600080fd5b612a1c836127d6565b915060208301356001600160401b03811115612a3757600080fd5b612a43858286016127af565b9150509250929050565b803563ffffffff811681146127e557600080fd5b600082601f830112612a7257600080fd5b81356001600160401b03811115612a8b57612a8b6126a2565b8060051b612a9b60208201612724565b91825260208185018101929081019086841115612ab757600080fd5b6020860192505b83831015612b115782356001600160401b03811115612adc57600080fd5b8601603f81018813612aed57600080fd5b612aff88602083013560408401612754565b83525060209283019290910190612abe565b9695505050505050565b600081830360a0811215612b2e57600080fd5b612b366126b8565b91506080811215612b4657600080fd5b50612b4f6126e0565b82358152612b5f6020840161287e565b6020820152612b7060408401612a4d565b6040820152612b8160608401612a4d565b6060820152815260808201356001600160401b03811115612ba157600080fd5b612bad84828501612a61565b60208301525092915050565b60008060408385031215612bcc57600080fd5b82356001600160401b03811115612be257600080fd5b830160408186031215612bf457600080fd5b612bfc6126b8565b81356001600160401b03811115612c1257600080fd5b820160608188031215612c2457600080fd5b612c2c612702565b81356001600160401b03811115612c4257600080fd5b612c4e898285016127af565b82525060208201356001600160401b03811115612c6a57600080fd5b612c76898285016127af565b60208301525060408201356001600160401b03811115612c9557600080fd5b612ca1898285016127af565b60408301525082525060208201356001600160401b03811115612cc357600080fd5b612ccf87828501612b1b565b602083015250809350505060208301356001600160401b03811115612cf357600080fd5b612a43858286016127ea565b600060208284031215612d1157600080fd5b6127cf8261287e565b600080600060608486031215612d2f57600080fd5b612d38846127d6565b925060208401356001600160401b03811115612d5357600080fd5b612d5f868287016127af565b93969395505050506040919091013590565b60008060408385031215612d8457600080fd5b612d8d8361287e565b9150612d9b602084016127d6565b90509250929050565b6020815260006127cf60208301846128e3565b6000602082016020835280845180835260408501915060408160051b86010192506020860160005b828110156129f457603f198786030184528151805160408752612e0560408801826128e3565b905060208201519150612e1b6020880183612925565b9550506020938401939190910190600101612ddf565b6040808252835190820181905260009060208501906060840190835b81811015612e745783516001600160a01b0316835260209384019390920191600101612e4d565b50508381036020808601919091528551808352918101925085019060005b81811015612eb0578251845260209384019390920191600101612e92565b50919695505050505050565b600060208284031215612ece57600080fd5b5035919050565b634e487b7160e01b600052603260045260246000fd5b60008251612efd8184602087016128bf565b9190910192915050565b60208082526017908201527f50726f66696c6520616c726561647920636c61696d6564000000000000000000604082015260600190565b634e487b7160e01b600052601160045260246000fd5b80820180821115612f6757612f67612f3e565b92915050565b600181811c90821680612f8157607f821691505b602082108103610ff657634e487b7160e01b600052602260045260246000fd5b601f821115612feb57806000526020600020601f840160051c81016020851015612fc85750805b601f840160051c820191505b81811015612fe85760008155600101612fd4565b50505b505050565b81516001600160401b03811115613009576130096126a2565b61301d816130178454612f6d565b84612fa1565b6020601f82116001811461305157600083156130395750848201515b600019600385901b1c1916600184901b178455612fe8565b600084815260208120601f198516915b828110156130815787850151825560209485019460019092019101613061565b508482101561309f5786840151600019600387901b60f8161c191681555b50505050600190811b01905550565b6000600182016130c0576130c0612f3e565b5060010190565b60208152600082516040602084015280516060808501526130eb60c08501826128e3565b90506020820151605f1985830301608086015261310882826128e3565b91505060408201519150605f198482030160a085015261312881836128e3565b9150506020840151601f1984830301604085015260a0820181518051845260018060a01b03602082015116602085015263ffffffff604082015116604085015263ffffffff6060820151166060850152506020820151915060a0608084015280825180835260c08501915060c08160051b860101925060208401935060005b818110156131d95760bf198685030183526131c38486516128e3565b60209586019590945092909201916001016131a7565b5091979650505050505050565b6000602082840312156131f857600080fd5b815180151581146127cf57600080fdfea2646970667358221220175d5aa592da5c0d7282323a7caca962ed354aff297cd72351e383cb50035fb364736f6c634300081b0033",
  "linkReferences": {},
  "deployedLinkReferences": {}
}