{
  "_format": "hh-sol-artifact-1",
  "contractName": "Registry",
  "address": "0x5FbDB2315678afecb367f032d93F642f64180aa3",
  "sourceName": "contracts/Registry.sol",
  "abi": [
    {
      "anonymous": false,
      "inputs": [
        {
          "indexed": true,
          "internalType": "address",
          "name": "previousOwner",
          "type": "address"
        },
        {
          "indexed": true,
          "internalType": "address",
          "name": "newOwner",
          "type": "address"
        }
      ],
      "name": "OwnershipTransferred",
      "type": "event"
    },
    {
      "inputs": [
        {
          "components": [
            {
              "internalType": "string",
              "name": "id",
              "type": "string"
            },
            {
              "internalType": "enum Registry.Provider",
              "name": "provider",
              "type": "uint8"
            }
          ],
          "internalType": "struct Registry.Profile",
          "name": "profile",
          "type": "tuple"
        }
      ],
      "name": "claim",
      "outputs": [],
      "stateMutability": "nonpayable",
      "type": "function"
    },
    {
      "inputs": [
        {
          "internalType": "enum Registry.Provider",
          "name": "",
          "type": "uint8"
        },
        {
          "internalType": "string",
          "name": "",
          "type": "string"
        }
      ],
      "name": "claimed",
      "outputs": [
        {
          "internalType": "bool",
          "name": "",
          "type": "bool"
        }
      ],
      "stateMutability": "view",
      "type": "function"
    },
    {
      "inputs": [
        {
          "internalType": "enum Registry.Provider",
          "name": "",
          "type": "uint8"
        },
        {
          "internalType": "string",
          "name": "",
          "type": "string"
        }
      ],
      "name": "claimedAddress",
      "outputs": [
        {
          "internalType": "address",
          "name": "",
          "type": "address"
        }
      ],
      "stateMutability": "view",
      "type": "function"
    },
    {
      "inputs": [
        {
          "internalType": "address",
          "name": "",
          "type": "address"
        }
      ],
      "name": "claimedInviteCounts",
      "outputs": [
        {
          "internalType": "uint256",
          "name": "",
          "type": "uint256"
        }
      ],
      "stateMutability": "view",
      "type": "function"
    },
    {
      "inputs": [
        {
          "internalType": "address",
          "name": "claimerAddress",
          "type": "address"
        }
      ],
      "name": "claimedProfiles",
      "outputs": [
        {
          "internalType": "string",
          "name": "id",
          "type": "string"
        },
        {
          "internalType": "enum Registry.Provider",
          "name": "provider",
          "type": "uint8"
        }
      ],
      "stateMutability": "view",
      "type": "function"
    },
    {
      "inputs": [],
      "name": "getAddressesWithClaimedInvites",
      "outputs": [
        {
          "internalType": "address[]",
          "name": "",
          "type": "address[]"
        },
        {
          "internalType": "uint256[]",
          "name": "",
          "type": "uint256[]"
        }
      ],
      "stateMutability": "view",
      "type": "function"
    },
    {
      "inputs": [],
      "name": "getAddressesWithInviteCounts",
      "outputs": [
        {
          "internalType": "address[]",
          "name": "",
          "type": "address[]"
        },
        {
          "internalType": "uint256[]",
          "name": "",
          "type": "uint256[]"
        }
      ],
      "stateMutability": "view",
      "type": "function"
    },
    {
      "inputs": [],
      "name": "getInvitedProfiles",
      "outputs": [
        {
          "components": [
            {
              "internalType": "string",
              "name": "id",
              "type": "string"
            },
            {
              "internalType": "enum Registry.Provider",
              "name": "provider",
              "type": "uint8"
            }
          ],
          "internalType": "struct Registry.Profile[]",
          "name": "",
          "type": "tuple[]"
        }
      ],
      "stateMutability": "view",
      "type": "function"
    },
    {
      "inputs": [
        {
          "components": [
            {
              "internalType": "string",
              "name": "id",
              "type": "string"
            },
            {
              "internalType": "enum Registry.Provider",
              "name": "provider",
              "type": "uint8"
            }
          ],
          "internalType": "struct Registry.Profile",
          "name": "profile",
          "type": "tuple"
        }
      ],
      "name": "getProfileBalanceAndInviteCount",
      "outputs": [
        {
          "internalType": "uint256",
          "name": "balance",
          "type": "uint256"
        },
        {
          "internalType": "uint256",
          "name": "inviteCount",
          "type": "uint256"
        }
      ],
      "stateMutability": "view",
      "type": "function"
    },
    {
      "inputs": [
        {
          "internalType": "address",
          "name": "",
          "type": "address"
        }
      ],
      "name": "hasSentInvite",
      "outputs": [
        {
          "internalType": "bool",
          "name": "",
          "type": "bool"
        }
      ],
      "stateMutability": "view",
      "type": "function"
    },
    {
      "inputs": [
        {
          "components": [
            {
              "internalType": "string",
              "name": "id",
              "type": "string"
            },
            {
              "internalType": "enum Registry.Provider",
              "name": "provider",
              "type": "uint8"
            }
          ],
          "internalType": "struct Registry.Profile",
          "name": "profile",
          "type": "tuple"
        }
      ],
      "name": "invite",
      "outputs": [],
      "stateMutability": "payable",
      "type": "function"
    },
    {
      "inputs": [
        {
          "internalType": "address",
          "name": "inviteSender",
          "type": "address"
        }
      ],
      "name": "inviteCounts",
      "outputs": [
        {
          "internalType": "uint256",
          "name": "",
          "type": "uint256"
        }
      ],
      "stateMutability": "view",
      "type": "function"
    },
    {
      "inputs": [
        {
          "internalType": "uint256",
          "name": "",
          "type": "uint256"
        }
      ],
      "name": "inviteSenders",
      "outputs": [
        {
          "internalType": "address",
          "name": "",
          "type": "address"
        }
      ],
      "stateMutability": "view",
      "type": "function"
    },
    {
      "inputs": [
        {
          "internalType": "address",
          "name": "inviteSender",
          "type": "address"
        },
        {
          "internalType": "uint256",
          "name": "",
          "type": "uint256"
        }
      ],
      "name": "invitedProfiles",
      "outputs": [
        {
          "internalType": "string",
          "name": "id",
          "type": "string"
        },
        {
          "internalType": "enum Registry.Provider",
          "name": "provider",
          "type": "uint8"
        }
      ],
      "stateMutability": "view",
      "type": "function"
    },
    {
      "inputs": [],
      "name": "owner",
      "outputs": [
        {
          "internalType": "address",
          "name": "",
          "type": "address"
        }
      ],
      "stateMutability": "view",
      "type": "function"
    },
    {
      "inputs": [
        {
          "internalType": "enum Registry.Provider",
          "name": "",
          "type": "uint8"
        },
        {
          "internalType": "string",
          "name": "",
          "type": "string"
        }
      ],
      "name": "registry",
      "outputs": [
        {
          "internalType": "uint256",
          "name": "",
          "type": "uint256"
        }
      ],
      "stateMutability": "view",
      "type": "function"
    },
    {
      "inputs": [],
      "name": "renounceOwnership",
      "outputs": [],
      "stateMutability": "nonpayable",
      "type": "function"
    },
    {
      "inputs": [],
      "name": "resetRegistry",
      "outputs": [],
      "stateMutability": "nonpayable",
      "type": "function"
    },
    {
      "inputs": [
        {
          "internalType": "address",
          "name": "newOwner",
          "type": "address"
        }
      ],
      "name": "transferOwnership",
      "outputs": [],
      "stateMutability": "nonpayable",
      "type": "function"
    },
    {
      "inputs": [],
      "name": "viewInvitedProfiles",
      "outputs": [
        {
          "components": [
            {
              "internalType": "string",
              "name": "id",
              "type": "string"
            },
            {
              "internalType": "enum Registry.Provider",
              "name": "provider",
              "type": "uint8"
            },
            {
              "internalType": "uint256",
              "name": "balance",
              "type": "uint256"
            },
            {
              "internalType": "uint256",
              "name": "claimed",
              "type": "uint256"
            }
          ],
          "internalType": "struct Registry.ProfileDetails[]",
          "name": "",
          "type": "tuple[]"
        }
      ],
      "stateMutability": "view",
      "type": "function"
    }
  ],
  "bytecode": "0x608060405234801561001057600080fd5b5061002d61002261003260201b60201c565b61003a60201b60201c565b6100fe565b600033905090565b60008060009054906101000a900473ffffffffffffffffffffffffffffffffffffffff169050816000806101000a81548173ffffffffffffffffffffffffffffffffffffffff021916908373ffffffffffffffffffffffffffffffffffffffff1602179055508173ffffffffffffffffffffffffffffffffffffffff168173ffffffffffffffffffffffffffffffffffffffff167f8be0079c531659141344cd1fd0a4f28419497f9722a3daafe3b4186f6b6457e060405160405180910390a35050565b61311b8061010d6000396000f3fe60806040526004361061011f5760003560e01c80637b412bdb116100a0578063de2dd22111610064578063de2dd22114610407578063e9df953014610444578063f2fde38b14610481578063f44910b1146104aa578063f74a71df146104e75761011f565b80637b412bdb1461030a5780638da5cb5b14610336578063c594975514610361578063c5dc9aa11461039e578063c8c953d5146103db5761011f565b80633a2e9ad5116100e75780633a2e9ad5146102245780636d5fbd5e1461024d5780636ee14c6c1461028b578063715018a6146102c85780637685bbff146102df5761011f565b806309a1581d14610124578063124bf2a31461014f57806313b213841461016b5780631e0289f5146101a957806326d6403b146101e7575b600080fd5b34801561013057600080fd5b506101396104fe565b604051610146919061225c565b60405180910390f35b61016960048036038101906101649190612462565b610829565b005b34801561017757600080fd5b50610192600480360381019061018d9190612535565b610d1f565b6040516101a09291906125ce565b60405180910390f35b3480156101b557600080fd5b506101d060048036038101906101cb9190612462565b610df5565b6040516101de92919061260d565b60405180910390f35b3480156101f357600080fd5b5061020e60048036038101906102099190612636565b610e9d565b60405161021b91906126a1565b60405180910390f35b34801561023057600080fd5b5061024b60048036038101906102469190612462565b610ef5565b005b34801561025957600080fd5b50610274600480360381019061026f91906126bc565b6111bc565b6040516102829291906125ce565b60405180910390f35b34801561029757600080fd5b506102b260048036038101906102ad91906126bc565b611275565b6040516102bf9190612704565b60405180910390f35b3480156102d457600080fd5b506102dd611295565b005b3480156102eb57600080fd5b506102f46112a9565b604051610301919061281e565b60405180910390f35b34801561031657600080fd5b5061031f611412565b60405161032d9291906129ad565b60405180910390f35b34801561034257600080fd5b5061034b6115d0565b60405161035891906126a1565b60405180910390f35b34801561036d57600080fd5b50610388600480360381019061038391906129e4565b6115f9565b60405161039591906126a1565b60405180910390f35b3480156103aa57600080fd5b506103c560048036038101906103c09190612636565b611638565b6040516103d29190612704565b60405180910390f35b3480156103e757600080fd5b506103f061167d565b6040516103fe9291906129ad565b60405180910390f35b34801561041357600080fd5b5061042e600480360381019061042991906126bc565b61183b565b60405161043b9190612a11565b60405180910390f35b34801561045057600080fd5b5061046b600480360381019061046691906126bc565b611853565b6040516104789190612a11565b60405180910390f35b34801561048d57600080fd5b506104a860048036038101906104a391906126bc565b61186b565b005b3480156104b657600080fd5b506104d160048036038101906104cc9190612636565b6118ee565b6040516104de9190612a11565b60405180910390f35b3480156104f357600080fd5b506104fc611929565b005b60606000600560003373ffffffffffffffffffffffffffffffffffffffff1673ffffffffffffffffffffffffffffffffffffffff16815260200190815260200160002080549050905060008167ffffffffffffffff81111561056357610562612297565b5b60405190808252806020026020018201604052801561059c57816020015b610589611f00565b8152602001906001900390816105815790505b50905060005b82811015610820576000600560003373ffffffffffffffffffffffffffffffffffffffff1673ffffffffffffffffffffffffffffffffffffffff16815260200190815260200160002082815481106105fd576105fc612a2c565b5b906000526020600020906002020160405180604001604052908160008201805461062690612a8a565b80601f016020809104026020016040519081016040528092919081815260200182805461065290612a8a565b801561069f5780601f106106745761010080835404028352916020019161069f565b820191906000526020600020905b81548152906001019060200180831161068257829003601f168201915b505050505081526020016001820160009054906101000a900460ff1660038111156106cd576106cc6120d3565b5b60038111156106df576106de6120d3565b5b81525050905060405180608001604052808260000151815260200182602001516003811115610711576107106120d3565b5b81526020016001600084602001516003811115610731576107306120d3565b5b6003811115610743576107426120d3565b5b815260200190815260200160002083600001516040516107639190612af7565b90815260200160405180910390205481526020016002600084602001516003811115610792576107916120d3565b5b60038111156107a4576107a36120d3565b5b815260200190815260200160002083600001516040516107c49190612af7565b908152602001604051809103902060009054906101000a900460ff166107eb5760006107ee565b60015b60ff1681525083838151811061080757610806612a2c565b5b60200260200101819052505080806001019150506105a2565b50809250505090565b6000600381111561083d5761083c6120d3565b5b81602001516003811115610854576108536120d3565b5b148061088857506001600381111561086f5761086e6120d3565b5b81602001516003811115610886576108856120d3565b5b145b806108bb5750600260038111156108a2576108a16120d3565b5b816020015160038111156108b9576108b86120d3565b5b145b806108ed57506003808111156108d4576108d36120d3565b5b816020015160038111156108eb576108ea6120d3565b5b145b61092c576040517f08c379a000000000000000000000000000000000000000000000000000000000815260040161092390612b5a565b60405180910390fd5b655af3107a40003414610974576040517f08c379a000000000000000000000000000000000000000000000000000000000815260040161096b90612bc6565b60405180910390fd5b600015156002600083602001516003811115610993576109926120d3565b5b60038111156109a5576109a46120d3565b5b815260200190815260200160002082600001516040516109c59190612af7565b908152602001604051809103902060009054906101000a900460ff16151514610a23576040517f08c379a0000000000000000000000000000000000000000000000000000000008152600401610a1a90612c32565b60405180910390fd5b346001600083602001516003811115610a3f57610a3e6120d3565b5b6003811115610a5157610a506120d3565b5b81526020019081526020016000208260000151604051610a719190612af7565b90815260200160405180910390206000828254610a8e9190612c81565b9250508190555060006002600083602001516003811115610ab257610ab16120d3565b5b6003811115610ac457610ac36120d3565b5b81526020019081526020016000208260000151604051610ae49190612af7565b908152602001604051809103902060006101000a81548160ff021916908315150217905550600560003373ffffffffffffffffffffffffffffffffffffffff1673ffffffffffffffffffffffffffffffffffffffff1681526020019081526020016000208190806001815401808255809150506001900390600052602060002090600202016000909190919091506000820151816000019081610b879190612e61565b5060208201518160010160006101000a81548160ff02191690836003811115610bb357610bb26120d3565b5b02179055505050600660003373ffffffffffffffffffffffffffffffffffffffff1673ffffffffffffffffffffffffffffffffffffffff1681526020019081526020016000206000815480929190610c0a90612f33565b9190505550600960003373ffffffffffffffffffffffffffffffffffffffff1673ffffffffffffffffffffffffffffffffffffffff16815260200190815260200160002060009054906101000a900460ff16610d1c576008339080600181540180825580915050600190039060005260206000200160009091909190916101000a81548173ffffffffffffffffffffffffffffffffffffffff021916908373ffffffffffffffffffffffffffffffffffffffff1602179055506001600960003373ffffffffffffffffffffffffffffffffffffffff1673ffffffffffffffffffffffffffffffffffffffff16815260200190815260200160002060006101000a81548160ff0219169083151502179055505b50565b60056020528160005260406000208181548110610d3b57600080fd5b906000526020600020906002020160009150915050806000018054610d5f90612a8a565b80601f0160208091040260200160405190810160405280929190818152602001828054610d8b90612a8a565b8015610dd85780601f10610dad57610100808354040283529160200191610dd8565b820191906000526020600020905b815481529060010190602001808311610dbb57829003601f168201915b5050505050908060010160009054906101000a900460ff16905082565b6000806001600084602001516003811115610e1357610e126120d3565b5b6003811115610e2557610e246120d3565b5b81526020019081526020016000208360000151604051610e459190612af7565b9081526020016040518091039020549150600660003373ffffffffffffffffffffffffffffffffffffffff1673ffffffffffffffffffffffffffffffffffffffff168152602001908152602001600020549050915091565b6003602052816000526040600020818051602081018201805184825260208301602085012081835280955050505050506000915091509054906101000a900473ffffffffffffffffffffffffffffffffffffffff1681565b600015156002600083602001516003811115610f1457610f136120d3565b5b6003811115610f2657610f256120d3565b5b81526020019081526020016000208260000151604051610f469190612af7565b908152602001604051809103902060009054906101000a900460ff16151514610fa4576040517f08c379a0000000000000000000000000000000000000000000000000000000008152600401610f9b90612c32565b60405180910390fd5b60006001600083602001516003811115610fc157610fc06120d3565b5b6003811115610fd357610fd26120d3565b5b81526020019081526020016000208260000151604051610ff39190612af7565b908152602001604051809103902054905060008111611047576040517f08c379a000000000000000000000000000000000000000000000000000000000815260040161103e90612fc7565b60405180910390fd5b3373ffffffffffffffffffffffffffffffffffffffff166108fc829081150290604051600060405180830381858888f1935050505015801561108d573d6000803e3d6000fd5b50600060016000846020015160038111156110ab576110aa6120d3565b5b60038111156110bd576110bc6120d3565b5b815260200190815260200160002083600001516040516110dd9190612af7565b9081526020016040518091039020819055506001600260008460200151600381111561110c5761110b6120d3565b5b600381111561111e5761111d6120d3565b5b8152602001908152602001600020836000015160405161113e9190612af7565b908152602001604051809103902060006101000a81548160ff021916908315150217905550600760003373ffffffffffffffffffffffffffffffffffffffff1673ffffffffffffffffffffffffffffffffffffffff16815260200190815260200160002060008154809291906111b390612f33565b91905055505050565b60046020528060005260406000206000915090508060000180546111df90612a8a565b80601f016020809104026020016040519081016040528092919081815260200182805461120b90612a8a565b80156112585780601f1061122d57610100808354040283529160200191611258565b820191906000526020600020905b81548152906001019060200180831161123b57829003601f168201915b5050505050908060010160009054906101000a900460ff16905082565b60096020528060005260406000206000915054906101000a900460ff1681565b61129d611db6565b6112a76000611e34565b565b6060600560003373ffffffffffffffffffffffffffffffffffffffff1673ffffffffffffffffffffffffffffffffffffffff168152602001908152602001600020805480602002602001604051908101604052809291908181526020016000905b82821015611409578382906000526020600020906002020160405180604001604052908160008201805461133d90612a8a565b80601f016020809104026020016040519081016040528092919081815260200182805461136990612a8a565b80156113b65780601f1061138b576101008083540402835291602001916113b6565b820191906000526020600020905b81548152906001019060200180831161139957829003601f168201915b505050505081526020016001820160009054906101000a900460ff1660038111156113e4576113e36120d3565b5b60038111156113f6576113f56120d3565b5b815250508152602001906001019061130a565b50505050905090565b6060806000600880549050905060008167ffffffffffffffff81111561143b5761143a612297565b5b6040519080825280602002602001820160405280156114695781602001602082028036833780820191505090505b50905060008267ffffffffffffffff81111561148857611487612297565b5b6040519080825280602002602001820160405280156114b65781602001602082028036833780820191505090505b50905060005b838110156115c2576000600882815481106114da576114d9612a2c565b5b9060005260206000200160009054906101000a900473ffffffffffffffffffffffffffffffffffffffff1690508084838151811061151b5761151a612a2c565b5b602002602001019073ffffffffffffffffffffffffffffffffffffffff16908173ffffffffffffffffffffffffffffffffffffffff1681525050600660008273ffffffffffffffffffffffffffffffffffffffff1673ffffffffffffffffffffffffffffffffffffffff168152602001908152602001600020548383815181106115a8576115a7612a2c565b5b6020026020010181815250505080806001019150506114bc565b508181945094505050509091565b60008060009054906101000a900473ffffffffffffffffffffffffffffffffffffffff16905090565b6008818154811061160957600080fd5b906000526020600020016000915054906101000a900473ffffffffffffffffffffffffffffffffffffffff1681565b6002602052816000526040600020818051602081018201805184825260208301602085012081835280955050505050506000915091509054906101000a900460ff1681565b6060806000600880549050905060008167ffffffffffffffff8111156116a6576116a5612297565b5b6040519080825280602002602001820160405280156116d45781602001602082028036833780820191505090505b50905060008267ffffffffffffffff8111156116f3576116f2612297565b5b6040519080825280602002602001820160405280156117215781602001602082028036833780820191505090505b50905060005b8381101561182d5760006008828154811061174557611744612a2c565b5b9060005260206000200160009054906101000a900473ffffffffffffffffffffffffffffffffffffffff1690508084838151811061178657611785612a2c565b5b602002602001019073ffffffffffffffffffffffffffffffffffffffff16908173ffffffffffffffffffffffffffffffffffffffff1681525050600760008273ffffffffffffffffffffffffffffffffffffffff1673ffffffffffffffffffffffffffffffffffffffff1681526020019081526020016000205483838151811061181357611812612a2c565b5b602002602001018181525050508080600101915050611727565b508181945094505050509091565b60066020528060005260406000206000915090505481565b60076020528060005260406000206000915090505481565b611873611db6565b600073ffffffffffffffffffffffffffffffffffffffff168173ffffffffffffffffffffffffffffffffffffffff16036118e2576040517f08c379a00000000000000000000000000000000000000000000000000000000081526004016118d990613059565b60405180910390fd5b6118eb81611e34565b50565b600160205281600052604060002081805160208101820180518482526020830160208501208183528095505050505050600091509150505481565b611931611db6565b60005b600880549050811015611ab25760006008828154811061195757611956612a2c565b5b9060005260206000200160009054906101000a900473ffffffffffffffffffffffffffffffffffffffff169050600560008273ffffffffffffffffffffffffffffffffffffffff1673ffffffffffffffffffffffffffffffffffffffff16815260200190815260200160002060006119cf9190611f3a565b600660008273ffffffffffffffffffffffffffffffffffffffff1673ffffffffffffffffffffffffffffffffffffffff16815260200190815260200160002060009055600760008273ffffffffffffffffffffffffffffffffffffffff1673ffffffffffffffffffffffffffffffffffffffff16815260200190815260200160002060009055600960008273ffffffffffffffffffffffffffffffffffffffff1673ffffffffffffffffffffffffffffffffffffffff16815260200190815260200160002060006101000a81549060ff0219169055508080600101915050611934565b5060086000611ac19190611f5e565b60005b6004811015611db3576000816003811115611ae257611ae16120d3565b5b905060005b600880549050811015611da457600060088281548110611b0a57611b09612a2c565b5b9060005260206000200160009054906101000a900473ffffffffffffffffffffffffffffffffffffffff1690506000600560008373ffffffffffffffffffffffffffffffffffffffff1673ffffffffffffffffffffffffffffffffffffffff168152602001908152602001600020805480602002602001604051908101604052809291908181526020016000905b82821015611c975783829060005260206000209060020201604051806040016040529081600082018054611bcb90612a8a565b80601f0160208091040260200160405190810160405280929190818152602001828054611bf790612a8a565b8015611c445780601f10611c1957610100808354040283529160200191611c44565b820191906000526020600020905b815481529060010190602001808311611c2757829003601f168201915b505050505081526020016001820160009054906101000a900460ff166003811115611c7257611c716120d3565b5b6003811115611c8457611c836120d3565b5b8152505081526020019060010190611b98565b50505050905060005b8151811015611d94576000828281518110611cbe57611cbd612a2c565b5b602002602001015160000151905060016000876003811115611ce357611ce26120d3565b5b6003811115611cf557611cf46120d3565b5b815260200190815260200160002081604051611d119190612af7565b90815260200160405180910390206000905560026000876003811115611d3a57611d396120d3565b5b6003811115611d4c57611d4b6120d3565b5b815260200190815260200160002081604051611d689190612af7565b908152602001604051809103902060006101000a81549060ff0219169055508080600101915050611ca0565b5050508080600101915050611ae7565b50508080600101915050611ac4565b50565b611dbe611ef8565b73ffffffffffffffffffffffffffffffffffffffff16611ddc6115d0565b73ffffffffffffffffffffffffffffffffffffffff1614611e32576040517f08c379a0000000000000000000000000000000000000000000000000000000008152600401611e29906130c5565b60405180910390fd5b565b60008060009054906101000a900473ffffffffffffffffffffffffffffffffffffffff169050816000806101000a81548173ffffffffffffffffffffffffffffffffffffffff021916908373ffffffffffffffffffffffffffffffffffffffff1602179055508173ffffffffffffffffffffffffffffffffffffffff168173ffffffffffffffffffffffffffffffffffffffff167f8be0079c531659141344cd1fd0a4f28419497f9722a3daafe3b4186f6b6457e060405160405180910390a35050565b600033905090565b60405180608001604052806060815260200160006003811115611f2657611f256120d3565b5b815260200160008152602001600081525090565b5080546000825560020290600052602060002090810190611f5b9190611f7f565b50565b5080546000825590600052602060002090810190611f7c9190611fba565b50565b5b80821115611fb65760008082016000611f999190611fd7565b6001820160006101000a81549060ff021916905550600201611f80565b5090565b5b80821115611fd3576000816000905550600101611fbb565b5090565b508054611fe390612a8a565b6000825580601f10611ff55750612014565b601f0160209004906000526020600020908101906120139190611fba565b5b50565b600081519050919050565b600082825260208201905092915050565b6000819050602082019050919050565b600081519050919050565b600082825260208201905092915050565b60005b8381101561207d578082015181840152602081019050612062565b60008484015250505050565b6000601f19601f8301169050919050565b60006120a582612043565b6120af818561204e565b93506120bf81856020860161205f565b6120c881612089565b840191505092915050565b7f4e487b7100000000000000000000000000000000000000000000000000000000600052602160045260246000fd5b60048110612113576121126120d3565b5b50565b600081905061212482612102565b919050565b600061213482612116565b9050919050565b61214481612129565b82525050565b6000819050919050565b61215d8161214a565b82525050565b60006080830160008301518482036000860152612180828261209a565b9150506020830151612195602086018261213b565b5060408301516121a86040860182612154565b5060608301516121bb6060860182612154565b508091505092915050565b60006121d28383612163565b905092915050565b6000602082019050919050565b60006121f282612017565b6121fc8185612022565b93508360208202850161220e85612033565b8060005b8581101561224a578484038952815161222b85826121c6565b9450612236836121da565b925060208a01995050600181019050612212565b50829750879550505050505092915050565b6000602082019050818103600083015261227681846121e7565b905092915050565b6000604051905090565b600080fd5b600080fd5b600080fd5b7f4e487b7100000000000000000000000000000000000000000000000000000000600052604160045260246000fd5b6122cf82612089565b810181811067ffffffffffffffff821117156122ee576122ed612297565b5b80604052505050565b600061230161227e565b905061230d82826122c6565b919050565b600080fd5b600080fd5b600080fd5b600067ffffffffffffffff82111561233c5761233b612297565b5b61234582612089565b9050602081019050919050565b82818337600083830152505050565b600061237461236f84612321565b6122f7565b9050828152602081018484840111156123905761238f61231c565b5b61239b848285612352565b509392505050565b600082601f8301126123b8576123b7612317565b5b81356123c8848260208601612361565b91505092915050565b600481106123de57600080fd5b50565b6000813590506123f0816123d1565b92915050565b60006040828403121561240c5761240b612292565b5b61241660406122f7565b9050600082013567ffffffffffffffff81111561243657612435612312565b5b612442848285016123a3565b6000830152506020612456848285016123e1565b60208301525092915050565b60006020828403121561247857612477612288565b5b600082013567ffffffffffffffff8111156124965761249561228d565b5b6124a2848285016123f6565b91505092915050565b600073ffffffffffffffffffffffffffffffffffffffff82169050919050565b60006124d6826124ab565b9050919050565b6124e6816124cb565b81146124f157600080fd5b50565b600081359050612503816124dd565b92915050565b6125128161214a565b811461251d57600080fd5b50565b60008135905061252f81612509565b92915050565b6000806040838503121561254c5761254b612288565b5b600061255a858286016124f4565b925050602061256b85828601612520565b9150509250929050565b600082825260208201905092915050565b600061259182612043565b61259b8185612575565b93506125ab81856020860161205f565b6125b481612089565b840191505092915050565b6125c881612129565b82525050565b600060408201905081810360008301526125e88185612586565b90506125f760208301846125bf565b9392505050565b6126078161214a565b82525050565b600060408201905061262260008301856125fe565b61262f60208301846125fe565b9392505050565b6000806040838503121561264d5761264c612288565b5b600061265b858286016123e1565b925050602083013567ffffffffffffffff81111561267c5761267b61228d565b5b612688858286016123a3565b9150509250929050565b61269b816124cb565b82525050565b60006020820190506126b66000830184612692565b92915050565b6000602082840312156126d2576126d1612288565b5b60006126e0848285016124f4565b91505092915050565b60008115159050919050565b6126fe816126e9565b82525050565b600060208201905061271960008301846126f5565b92915050565b600081519050919050565b600082825260208201905092915050565b6000819050602082019050919050565b60006040830160008301518482036000860152612768828261209a565b915050602083015161277d602086018261213b565b508091505092915050565b6000612794838361274b565b905092915050565b6000602082019050919050565b60006127b48261271f565b6127be818561272a565b9350836020820285016127d08561273b565b8060005b8581101561280c57848403895281516127ed8582612788565b94506127f88361279c565b925060208a019950506001810190506127d4565b50829750879550505050505092915050565b6000602082019050818103600083015261283881846127a9565b905092915050565b600081519050919050565b600082825260208201905092915050565b6000819050602082019050919050565b612875816124cb565b82525050565b6000612887838361286c565b60208301905092915050565b6000602082019050919050565b60006128ab82612840565b6128b5818561284b565b93506128c08361285c565b8060005b838110156128f15781516128d8888261287b565b97506128e383612893565b9250506001810190506128c4565b5085935050505092915050565b600081519050919050565b600082825260208201905092915050565b6000819050602082019050919050565b60006129368383612154565b60208301905092915050565b6000602082019050919050565b600061295a826128fe565b6129648185612909565b935061296f8361291a565b8060005b838110156129a0578151612987888261292a565b975061299283612942565b925050600181019050612973565b5085935050505092915050565b600060408201905081810360008301526129c781856128a0565b905081810360208301526129db818461294f565b90509392505050565b6000602082840312156129fa576129f9612288565b5b6000612a0884828501612520565b91505092915050565b6000602082019050612a2660008301846125fe565b92915050565b7f4e487b7100000000000000000000000000000000000000000000000000000000600052603260045260246000fd5b7f4e487b7100000000000000000000000000000000000000000000000000000000600052602260045260246000fd5b60006002820490506001821680612aa257607f821691505b602082108103612ab557612ab4612a5b565b5b50919050565b600081905092915050565b6000612ad182612043565b612adb8185612abb565b9350612aeb81856020860161205f565b80840191505092915050565b6000612b038284612ac6565b915081905092915050565b7f496e76616c69642070726f766964657200000000000000000000000000000000600082015250565b6000612b44601083612575565b9150612b4f82612b0e565b602082019050919050565b60006020820190508181036000830152612b7381612b37565b9050919050565b7f496e76616c696420616d6f756e74000000000000000000000000000000000000600082015250565b6000612bb0600e83612575565b9150612bbb82612b7a565b602082019050919050565b60006020820190508181036000830152612bdf81612ba3565b9050919050565b7f50726f66696c6520616c726561647920636c61696d6564000000000000000000600082015250565b6000612c1c601783612575565b9150612c2782612be6565b602082019050919050565b60006020820190508181036000830152612c4b81612c0f565b9050919050565b7f4e487b7100000000000000000000000000000000000000000000000000000000600052601160045260246000fd5b6000612c8c8261214a565b9150612c978361214a565b9250828201905080821115612caf57612cae612c52565b5b92915050565b60008190508160005260206000209050919050565b60006020601f8301049050919050565b600082821b905092915050565b600060088302612d177fffffffffffffffffffffffffffffffffffffffffffffffffffffffffffffffff82612cda565b612d218683612cda565b95508019841693508086168417925050509392505050565b6000819050919050565b6000612d5e612d59612d548461214a565b612d39565b61214a565b9050919050565b6000819050919050565b612d7883612d43565b612d8c612d8482612d65565b848454612ce7565b825550505050565b600090565b612da1612d94565b612dac818484612d6f565b505050565b5b81811015612dd057612dc5600082612d99565b600181019050612db2565b5050565b601f821115612e1557612de681612cb5565b612def84612cca565b81016020851015612dfe578190505b612e12612e0a85612cca565b830182612db1565b50505b505050565b600082821c905092915050565b6000612e3860001984600802612e1a565b1980831691505092915050565b6000612e518383612e27565b9150826002028217905092915050565b612e6a82612043565b67ffffffffffffffff811115612e8357612e82612297565b5b612e8d8254612a8a565b612e98828285612dd4565b600060209050601f831160018114612ecb5760008415612eb9578287015190505b612ec38582612e45565b865550612f2b565b601f198416612ed986612cb5565b60005b82811015612f0157848901518255600182019150602085019450602081019050612edc565b86831015612f1e5784890151612f1a601f891682612e27565b8355505b6001600288020188555050505b505050505050565b6000612f3e8261214a565b91507fffffffffffffffffffffffffffffffffffffffffffffffffffffffffffffffff8203612f7057612f6f612c52565b5b600182019050919050565b7f4e6f2062616c616e636520746f20636c61696d00000000000000000000000000600082015250565b6000612fb1601383612575565b9150612fbc82612f7b565b602082019050919050565b60006020820190508181036000830152612fe081612fa4565b9050919050565b7f4f776e61626c653a206e6577206f776e657220697320746865207a65726f206160008201527f6464726573730000000000000000000000000000000000000000000000000000602082015250565b6000613043602683612575565b915061304e82612fe7565b604082019050919050565b6000602082019050818103600083015261307281613036565b9050919050565b7f4f776e61626c653a2063616c6c6572206973206e6f7420746865206f776e6572600082015250565b60006130af602083612575565b91506130ba82613079565b602082019050919050565b600060208201905081810360008301526130de816130a2565b905091905056fea2646970667358221220c2aa7bb61dc2b642449436853116c4da32062dda4c0e756db41a7d1e3dd12d1164736f6c634300081b0033",
  "linkReferences": {},
  "deployedLinkReferences": {}
}