{
  "_format": "hh-sol-artifact-1",
  "contractName": "Registry",
  "sourceName": "contracts/Registry.sol",
  "abi": [
    {
      "anonymous": false,
      "inputs": [
        {
          "indexed": true,
          "internalType": "address",
          "name": "previousOwner",
          "type": "address"
        },
        {
          "indexed": true,
          "internalType": "address",
          "name": "newOwner",
          "type": "address"
        }
      ],
      "name": "OwnershipTransferred",
      "type": "event"
    },
    {
      "inputs": [
        {
          "components": [
            {
              "internalType": "string",
              "name": "id",
              "type": "string"
            },
            {
              "internalType": "enum Registry.Provider",
              "name": "provider",
              "type": "uint8"
            }
          ],
          "internalType": "struct Registry.Profile",
          "name": "profile",
          "type": "tuple"
        }
      ],
      "name": "claim",
      "outputs": [],
      "stateMutability": "nonpayable",
      "type": "function"
    },
    {
      "inputs": [
        {
          "internalType": "enum Registry.Provider",
          "name": "",
          "type": "uint8"
        },
        {
          "internalType": "string",
          "name": "",
          "type": "string"
        }
      ],
      "name": "claimed",
      "outputs": [
        {
          "internalType": "bool",
          "name": "",
          "type": "bool"
        }
      ],
      "stateMutability": "view",
      "type": "function"
    },
    {
      "inputs": [
        {
          "internalType": "enum Registry.Provider",
          "name": "",
          "type": "uint8"
        },
        {
          "internalType": "string",
          "name": "",
          "type": "string"
        }
      ],
      "name": "claimedAddress",
      "outputs": [
        {
          "internalType": "address",
          "name": "",
          "type": "address"
        }
      ],
      "stateMutability": "view",
      "type": "function"
    },
    {
      "inputs": [
        {
          "internalType": "address",
          "name": "inviteSender",
          "type": "address"
        }
      ],
      "name": "claimedInviteCountsOfSender",
      "outputs": [
        {
          "internalType": "uint256",
          "name": "",
          "type": "uint256"
        }
      ],
      "stateMutability": "view",
      "type": "function"
    },
    {
      "inputs": [
        {
          "internalType": "enum Registry.Provider",
          "name": "",
          "type": "uint8"
        },
        {
          "internalType": "string",
          "name": "id",
          "type": "string"
        }
      ],
      "name": "claimedInvitesByProfileCounts",
      "outputs": [
        {
          "internalType": "uint256",
          "name": "",
          "type": "uint256"
        }
      ],
      "stateMutability": "view",
      "type": "function"
    },
    {
      "inputs": [
        {
          "internalType": "address",
          "name": "claimerAddress",
          "type": "address"
        }
      ],
      "name": "claimedProfiles",
      "outputs": [
        {
          "internalType": "string",
          "name": "id",
          "type": "string"
        },
        {
          "internalType": "enum Registry.Provider",
          "name": "provider",
          "type": "uint8"
        }
      ],
      "stateMutability": "view",
      "type": "function"
    },
    {
      "inputs": [],
      "name": "getAddressesWithClaimedInvites",
      "outputs": [
        {
          "internalType": "address[]",
          "name": "",
          "type": "address[]"
        },
        {
          "internalType": "uint256[]",
          "name": "",
          "type": "uint256[]"
        }
      ],
      "stateMutability": "view",
      "type": "function"
    },
    {
      "inputs": [],
      "name": "getAddressesWithInviteCounts",
      "outputs": [
        {
          "internalType": "address[]",
          "name": "",
          "type": "address[]"
        },
        {
          "internalType": "uint256[]",
          "name": "",
          "type": "uint256[]"
        }
      ],
      "stateMutability": "view",
      "type": "function"
    },
    {
      "inputs": [],
      "name": "getInviteAndClaimedCounts",
      "outputs": [
        {
          "components": [
            {
              "internalType": "address",
              "name": "invitee",
              "type": "address"
            },
            {
              "internalType": "uint256",
              "name": "totalInvites",
              "type": "uint256"
            },
            {
              "internalType": "uint256",
              "name": "claimedInvites",
              "type": "uint256"
            }
          ],
          "internalType": "struct Registry.InviteeDetails[]",
          "name": "",
          "type": "tuple[]"
        }
      ],
      "stateMutability": "view",
      "type": "function"
    },
    {
      "inputs": [],
      "name": "getInvitedProfiles",
      "outputs": [
        {
          "components": [
            {
              "internalType": "string",
              "name": "id",
              "type": "string"
            },
            {
              "internalType": "enum Registry.Provider",
              "name": "provider",
              "type": "uint8"
            }
          ],
          "internalType": "struct Registry.Profile[]",
          "name": "",
          "type": "tuple[]"
        }
      ],
      "stateMutability": "view",
      "type": "function"
    },
    {
      "inputs": [],
      "name": "getInviters",
      "outputs": [
        {
          "components": [
            {
              "internalType": "string",
              "name": "id",
              "type": "string"
            },
            {
              "internalType": "enum Registry.Provider",
              "name": "provider",
              "type": "uint8"
            },
            {
              "internalType": "uint256",
              "name": "inviteCount",
              "type": "uint256"
            },
            {
              "internalType": "uint256",
              "name": "claimCount",
              "type": "uint256"
            }
          ],
          "internalType": "struct Registry.ProfileInviteDetails[]",
          "name": "",
          "type": "tuple[]"
        }
      ],
      "stateMutability": "view",
      "type": "function"
    },
    {
      "inputs": [
        {
          "components": [
            {
              "internalType": "string",
              "name": "id",
              "type": "string"
            },
            {
              "internalType": "enum Registry.Provider",
              "name": "provider",
              "type": "uint8"
            }
          ],
          "internalType": "struct Registry.Profile",
          "name": "profile",
          "type": "tuple"
        }
      ],
      "name": "getProfileBalanceAndInviteCount",
      "outputs": [
        {
          "internalType": "uint256",
          "name": "balance",
          "type": "uint256"
        },
        {
          "internalType": "uint256",
          "name": "inviteCount",
          "type": "uint256"
        },
        {
          "internalType": "bool",
          "name": "profileClaimed",
          "type": "bool"
        }
      ],
      "stateMutability": "view",
      "type": "function"
    },
    {
      "inputs": [
        {
          "internalType": "address",
          "name": "",
          "type": "address"
        }
      ],
      "name": "hasSentInvite",
      "outputs": [
        {
          "internalType": "bool",
          "name": "",
          "type": "bool"
        }
      ],
      "stateMutability": "view",
      "type": "function"
    },
    {
      "inputs": [
        {
          "components": [
            {
              "internalType": "string",
              "name": "id",
              "type": "string"
            },
            {
              "internalType": "enum Registry.Provider",
              "name": "provider",
              "type": "uint8"
            }
          ],
          "internalType": "struct Registry.Profile",
          "name": "profile",
          "type": "tuple"
        }
      ],
      "name": "invite",
      "outputs": [],
      "stateMutability": "payable",
      "type": "function"
    },
    {
      "inputs": [
        {
          "internalType": "address",
          "name": "inviteSender",
          "type": "address"
        }
      ],
      "name": "inviteCounts",
      "outputs": [
        {
          "internalType": "uint256",
          "name": "",
          "type": "uint256"
        }
      ],
      "stateMutability": "view",
      "type": "function"
    },
    {
      "inputs": [
        {
          "internalType": "uint256",
          "name": "",
          "type": "uint256"
        }
      ],
      "name": "inviteSenders",
      "outputs": [
        {
          "internalType": "address",
          "name": "",
          "type": "address"
        }
      ],
      "stateMutability": "view",
      "type": "function"
    },
    {
      "inputs": [
        {
          "internalType": "address",
          "name": "inviteSender",
          "type": "address"
        },
        {
          "internalType": "uint256",
          "name": "",
          "type": "uint256"
        }
      ],
      "name": "invitedProfiles",
      "outputs": [
        {
          "internalType": "string",
          "name": "id",
          "type": "string"
        },
        {
          "internalType": "enum Registry.Provider",
          "name": "provider",
          "type": "uint8"
        }
      ],
      "stateMutability": "view",
      "type": "function"
    },
    {
      "inputs": [
        {
          "internalType": "enum Registry.Provider",
          "name": "",
          "type": "uint8"
        },
        {
          "internalType": "string",
          "name": "id",
          "type": "string"
        },
        {
          "internalType": "uint256",
          "name": "",
          "type": "uint256"
        }
      ],
      "name": "inviters",
      "outputs": [
        {
          "internalType": "address",
          "name": "",
          "type": "address"
        }
      ],
      "stateMutability": "view",
      "type": "function"
    },
    {
      "inputs": [],
      "name": "owner",
      "outputs": [
        {
          "internalType": "address",
          "name": "",
          "type": "address"
        }
      ],
      "stateMutability": "view",
      "type": "function"
    },
    {
      "inputs": [
        {
          "internalType": "address",
          "name": "",
          "type": "address"
        }
      ],
      "name": "points",
      "outputs": [
        {
          "internalType": "uint256",
          "name": "",
          "type": "uint256"
        }
      ],
      "stateMutability": "view",
      "type": "function"
    },
    {
      "inputs": [
        {
          "internalType": "enum Registry.Provider",
          "name": "",
          "type": "uint8"
        },
        {
          "internalType": "string",
          "name": "",
          "type": "string"
        }
      ],
      "name": "registry",
      "outputs": [
        {
          "internalType": "uint256",
          "name": "",
          "type": "uint256"
        }
      ],
      "stateMutability": "view",
      "type": "function"
    },
    {
      "inputs": [],
      "name": "renounceOwnership",
      "outputs": [],
      "stateMutability": "nonpayable",
      "type": "function"
    },
    {
      "inputs": [],
      "name": "resetRegistry",
      "outputs": [],
      "stateMutability": "nonpayable",
      "type": "function"
    },
    {
      "inputs": [],
      "name": "totalProfilesCount",
      "outputs": [
        {
          "internalType": "uint256",
          "name": "",
          "type": "uint256"
        }
      ],
      "stateMutability": "view",
      "type": "function"
    },
    {
      "inputs": [
        {
          "internalType": "address",
          "name": "newOwner",
          "type": "address"
        }
      ],
      "name": "transferOwnership",
      "outputs": [],
      "stateMutability": "nonpayable",
      "type": "function"
    },
    {
      "inputs": [],
      "name": "updatePoints",
      "outputs": [],
      "stateMutability": "nonpayable",
      "type": "function"
    },
    {
      "inputs": [
        {
          "internalType": "address",
          "name": "",
          "type": "address"
        },
        {
          "internalType": "enum Registry.Provider",
          "name": "",
          "type": "uint8"
        }
      ],
      "name": "userProfiles",
      "outputs": [
        {
          "internalType": "string",
          "name": "id",
          "type": "string"
        }
      ],
      "stateMutability": "view",
      "type": "function"
    }
  ],
  "bytecode": "0x6080604052600060015534801561001557600080fd5b5061003261002761003760201b60201c565b61003f60201b60201c565b610103565b600033905090565b60008060009054906101000a900473ffffffffffffffffffffffffffffffffffffffff169050816000806101000a81548173ffffffffffffffffffffffffffffffffffffffff021916908373ffffffffffffffffffffffffffffffffffffffff1602179055508173ffffffffffffffffffffffffffffffffffffffff168173ffffffffffffffffffffffffffffffffffffffff167f8be0079c531659141344cd1fd0a4f28419497f9722a3daafe3b4186f6b6457e060405160405180910390a35050565b613f43806101126000396000f3fe60806040526004361061019c5760003560e01c80636fa00395116100ec578063c5dc9aa11161008a578063de2dd22111610064578063de2dd22114610623578063f2fde38b14610660578063f44910b114610689578063f74a71df146106c65761019c565b8063c5dc9aa11461057d578063c8c953d5146105ba578063d2d048f1146105e65761019c565b80637b412bdb116100c65780637b412bdb146104d257806383ba1ddc146104fe5780638da5cb5b14610515578063c5949755146105405761019c565b80636fa0039514610465578063715018a6146104905780637685bbff146104a75761019c565b8063358b8166116101595780635cc9318d116101335780635cc9318d146103705780636d5fbd5e146103ad5780636dffca65146103eb5780636ee14c6c146104285761019c565b8063358b8166146102cd5780633a2e9ad51461030a5780635a297837146103335761019c565b80630420f236146101a1578063124bf2a3146101cc57806313b21384146101e85780631a6a57f4146102265780631e0289f51461025157806326d6403b14610290575b600080fd5b3480156101ad57600080fd5b506101b66106dd565b6040516101c39190612d98565b60405180910390f35b6101e660048036038101906101e19190612faf565b610873565b005b3480156101f457600080fd5b5061020f600480360381019061020a9190613050565b610ea4565b60405161021d929190613186565b60405180910390f35b34801561023257600080fd5b5061023b610f7a565b6040516102489190613334565b60405180910390f35b34801561025d57600080fd5b5061027860048036038101906102739190612faf565b611302565b60405161028793929190613380565b60405180910390f35b34801561029c57600080fd5b506102b760048036038101906102b291906133b7565b611438565b6040516102c49190613422565b60405180910390f35b3480156102d957600080fd5b506102f460048036038101906102ef919061343d565b611490565b604051610301919061346a565b60405180910390f35b34801561031657600080fd5b50610331600480360381019061032c9190612faf565b6114a8565b005b34801561033f57600080fd5b5061035a60048036038101906103559190613485565b61195a565b6040516103679190613422565b60405180910390f35b34801561037c57600080fd5b50610397600480360381019061039291906133b7565b6119cb565b6040516103a4919061346a565b60405180910390f35b3480156103b957600080fd5b506103d460048036038101906103cf919061343d565b611a06565b6040516103e2929190613186565b60405180910390f35b3480156103f757600080fd5b50610412600480360381019061040d91906134f4565b611abf565b60405161041f9190613534565b60405180910390f35b34801561043457600080fd5b5061044f600480360381019061044a919061343d565b611b6c565b60405161045c9190613556565b60405180910390f35b34801561047157600080fd5b5061047a611b8c565b604051610487919061346a565b60405180910390f35b34801561049c57600080fd5b506104a5611b92565b005b3480156104b357600080fd5b506104bc611ba6565b6040516104c99190613670565b60405180910390f35b3480156104de57600080fd5b506104e7611d0f565b6040516104f59291906137f0565b60405180910390f35b34801561050a57600080fd5b50610513611ecd565b005b34801561052157600080fd5b5061052a6121cf565b6040516105379190613422565b60405180910390f35b34801561054c57600080fd5b5061056760048036038101906105629190613827565b6121f8565b6040516105749190613422565b60405180910390f35b34801561058957600080fd5b506105a4600480360381019061059f91906133b7565b612237565b6040516105b19190613556565b60405180910390f35b3480156105c657600080fd5b506105cf61227c565b6040516105dd9291906137f0565b60405180910390f35b3480156105f257600080fd5b5061060d6004803603810190610608919061343d565b61243a565b60405161061a919061346a565b60405180910390f35b34801561062f57600080fd5b5061064a6004803603810190610645919061343d565b612452565b604051610657919061346a565b60405180910390f35b34801561066c57600080fd5b506106876004803603810190610682919061343d565b61246a565b005b34801561069557600080fd5b506106b060048036038101906106ab91906133b7565b6124ed565b6040516106bd919061346a565b60405180910390f35b3480156106d257600080fd5b506106db612528565b005b60606000600c80549050905060008167ffffffffffffffff81111561070557610704612de4565b5b60405190808252806020026020018201604052801561073e57816020015b61072b612aff565b8152602001906001900390816107235790505b50905060005b8281101561086a576000600c828154811061076257610761613854565b5b9060005260206000200160009054906101000a900473ffffffffffffffffffffffffffffffffffffffff16905060405180606001604052808273ffffffffffffffffffffffffffffffffffffffff168152602001600760008473ffffffffffffffffffffffffffffffffffffffff1673ffffffffffffffffffffffffffffffffffffffff168152602001908152602001600020548152602001600860008473ffffffffffffffffffffffffffffffffffffffff1673ffffffffffffffffffffffffffffffffffffffff1681526020019081526020016000205481525083838151811061085157610850613854565b5b6020026020010181905250508080600101915050610744565b50809250505090565b600060038111156108875761088661310f565b5b8160200151600381111561089e5761089d61310f565b5b14806108d25750600160038111156108b9576108b861310f565b5b816020015160038111156108d0576108cf61310f565b5b145b806109055750600260038111156108ec576108eb61310f565b5b816020015160038111156109035761090261310f565b5b145b80610937575060038081111561091e5761091d61310f565b5b816020015160038111156109355761093461310f565b5b145b610976576040517f08c379a000000000000000000000000000000000000000000000000000000000815260040161096d906138cf565b60405180910390fd5b655af3107a400034146109be576040517f08c379a00000000000000000000000000000000000000000000000000000000081526004016109b59061393b565b60405180910390fd5b6000151560036000836020015160038111156109dd576109dc61310f565b5b60038111156109ef576109ee61310f565b5b81526020019081526020016000208260000151604051610a0f9190613997565b908152602001604051809103902060009054906101000a900460ff16151514610a6d576040517f08c379a0000000000000000000000000000000000000000000000000000000008152600401610a64906139fa565b60405180910390fd5b346002600083602001516003811115610a8957610a8861310f565b5b6003811115610a9b57610a9a61310f565b5b81526020019081526020016000208260000151604051610abb9190613997565b90815260200160405180910390206000828254610ad89190613a49565b9250508190555060006003600083602001516003811115610afc57610afb61310f565b5b6003811115610b0e57610b0d61310f565b5b81526020019081526020016000208260000151604051610b2e9190613997565b908152602001604051809103902060006101000a81548160ff021916908315150217905550600a600082602001516003811115610b6e57610b6d61310f565b5b6003811115610b8057610b7f61310f565b5b81526020019081526020016000208160000151604051610ba09190613997565b9081526020016040518091039020339080600181540180825580915050600190039060005260206000200160009091909190916101000a81548173ffffffffffffffffffffffffffffffffffffffff021916908373ffffffffffffffffffffffffffffffffffffffff160217905550600660003373ffffffffffffffffffffffffffffffffffffffff1673ffffffffffffffffffffffffffffffffffffffff1681526020019081526020016000208190806001815401808255809150506001900390600052602060002090600202016000909190919091506000820151816000019081610c8d9190613c89565b5060208201518160010160006101000a81548160ff02191690836003811115610cb957610cb861310f565b5b02179055505050600760003373ffffffffffffffffffffffffffffffffffffffff1673ffffffffffffffffffffffffffffffffffffffff1681526020019081526020016000206000815480929190610d1090613d5b565b9190505550600d60003373ffffffffffffffffffffffffffffffffffffffff1673ffffffffffffffffffffffffffffffffffffffff16815260200190815260200160002060009054906101000a900460ff16610e2257600c339080600181540180825580915050600190039060005260206000200160009091909190916101000a81548173ffffffffffffffffffffffffffffffffffffffff021916908373ffffffffffffffffffffffffffffffffffffffff1602179055506001600d60003373ffffffffffffffffffffffffffffffffffffffff1673ffffffffffffffffffffffffffffffffffffffff16815260200190815260200160002060006101000a81548160ff0219169083151502179055505b6001600a600083602001516003811115610e3f57610e3e61310f565b5b6003811115610e5157610e5061310f565b5b81526020019081526020016000208260000151604051610e719190613997565b90815260200160405180910390208054905003610ea15760016000815480929190610e9b90613d5b565b91905055505b50565b60066020528160005260406000208181548110610ec057600080fd5b906000526020600020906002020160009150915050806000018054610ee490613aac565b80601f0160208091040260200160405190810160405280929190818152602001828054610f1090613aac565b8015610f5d5780601f10610f3257610100808354040283529160200191610f5d565b820191906000526020600020905b815481529060010190602001808311610f4057829003601f168201915b5050505050908060010160009054906101000a900460ff16905082565b6060600060015467ffffffffffffffff811115610f9a57610f99612de4565b5b604051908082528060200260200182016040528015610fd357816020015b610fc0612b36565b815260200190600190039081610fb85790505b5090506000805b600c805490508110156112f9576000600c8281548110610ffd57610ffc613854565b5b9060005260206000200160009054906101000a900473ffffffffffffffffffffffffffffffffffffffff1690506000600660008373ffffffffffffffffffffffffffffffffffffffff1673ffffffffffffffffffffffffffffffffffffffff168152602001908152602001600020805480602002602001604051908101604052809291908181526020016000905b8282101561118a57838290600052602060002090600202016040518060400160405290816000820180546110be90613aac565b80601f01602080910402602001604051908101604052809291908181526020018280546110ea90613aac565b80156111375780601f1061110c57610100808354040283529160200191611137565b820191906000526020600020905b81548152906001019060200180831161111a57829003601f168201915b505050505081526020016001820160009054906101000a900460ff1660038111156111655761116461310f565b5b60038111156111775761117661310f565b5b815250508152602001906001019061108b565b50505050905060005b81518110156112e95760008282815181106111b1576111b0613854565b5b60200260200101519050604051806080016040528082600001518152602001826020015160038111156111e7576111e661310f565b5b8152602001600a6000846020015160038111156112075761120661310f565b5b60038111156112195761121861310f565b5b815260200190815260200160002083600001516040516112399190613997565b9081526020016040518091039020805490508152602001600960008460200151600381111561126b5761126a61310f565b5b600381111561127d5761127c61310f565b5b8152602001908152602001600020836000015160405161129d9190613997565b9081526020016040518091039020548152508787815181106112c2576112c1613854565b5b602002602001018190525085806112d890613d5b565b965050508080600101915050611193565b5050508080600101915050610fda565b50819250505090565b600080600060026000856020015160038111156113225761132161310f565b5b60038111156113345761133361310f565b5b815260200190815260200160002084600001516040516113549190613997565b908152602001604051809103902054925060036000856020015160038111156113805761137f61310f565b5b60038111156113925761139161310f565b5b815260200190815260200160002084600001516040516113b29190613997565b908152602001604051809103902060009054906101000a900460ff169050600a6000856020015160038111156113eb576113ea61310f565b5b60038111156113fd576113fc61310f565b5b8152602001908152602001600020846000015160405161141d9190613997565b90815260200160405180910390208054905091509193909250565b6004602052816000526040600020818051602081018201805184825260208301602085012081835280955050505050506000915091509054906101000a900473ffffffffffffffffffffffffffffffffffffffff1681565b600e6020528060005260406000206000915090505481565b6000151560036000836020015160038111156114c7576114c661310f565b5b60038111156114d9576114d861310f565b5b815260200190815260200160002082600001516040516114f99190613997565b908152602001604051809103902060009054906101000a900460ff16151514611557576040517f08c379a000000000000000000000000000000000000000000000000000000000815260040161154e906139fa565b60405180910390fd5b600060026000836020015160038111156115745761157361310f565b5b60038111156115865761158561310f565b5b815260200190815260200160002082600001516040516115a69190613997565b9081526020016040518091039020549050600081116115fa576040517f08c379a00000000000000000000000000000000000000000000000000000000081526004016115f190613def565b60405180910390fd5b3373ffffffffffffffffffffffffffffffffffffffff166108fc829081150290604051600060405180830381858888f19350505050158015611640573d6000803e3d6000fd5b506000600260008460200151600381111561165e5761165d61310f565b5b60038111156116705761166f61310f565b5b815260200190815260200160002083600001516040516116909190613997565b908152602001604051809103902081905550600160036000846020015160038111156116bf576116be61310f565b5b60038111156116d1576116d061310f565b5b815260200190815260200160002083600001516040516116f19190613997565b908152602001604051809103902060006101000a81548160ff0219169083151502179055506000600a6000846020015160038111156117335761173261310f565b5b60038111156117455761174461310f565b5b815260200190815260200160002083600001516040516117659190613997565b90815260200160405180910390208054905090506000600a6000856020015160038111156117965761179561310f565b5b60038111156117a8576117a761310f565b5b815260200190815260200160002084600001516040516117c89190613997565b908152602001604051809103902080548060200260200160405190810160405280929190818152602001828054801561185657602002820191906000526020600020905b8160009054906101000a900473ffffffffffffffffffffffffffffffffffffffff1673ffffffffffffffffffffffffffffffffffffffff168152602001906001019080831161180c575b5050505050905060005b828110156118e2576008600083838151811061187f5761187e613854565b5b602002602001015173ffffffffffffffffffffffffffffffffffffffff1673ffffffffffffffffffffffffffffffffffffffff168152602001908152602001600020600081546118ce90613d5b565b919050819055508080600101915050611860565b5060096000856020015160038111156118fe576118fd61310f565b5b60038111156119105761190f61310f565b5b815260200190815260200160002084600001516040516119309190613997565b9081526020016040518091039020600081548092919061194f90613d5b565b919050555050505050565b600a60205282600052604060002082805160208101820180518482526020830160208501208183528095505050505050818154811061199857600080fd5b90600052602060002001600092509250509054906101000a900473ffffffffffffffffffffffffffffffffffffffff1681565b600960205281600052604060002081805160208101820180518482526020830160208501208183528095505050505050600091509150505481565b6005602052806000526040600020600091509050806000018054611a2990613aac565b80601f0160208091040260200160405190810160405280929190818152602001828054611a5590613aac565b8015611aa25780601f10611a7757610100808354040283529160200191611aa2565b820191906000526020600020905b815481529060010190602001808311611a8557829003601f168201915b5050505050908060010160009054906101000a900460ff16905082565b600b602052816000526040600020602052806000526040600020600091509150508054611aeb90613aac565b80601f0160208091040260200160405190810160405280929190818152602001828054611b1790613aac565b8015611b645780601f10611b3957610100808354040283529160200191611b64565b820191906000526020600020905b815481529060010190602001808311611b4757829003601f168201915b505050505081565b600d6020528060005260406000206000915054906101000a900460ff1681565b60015481565b611b9a6129b5565b611ba46000612a33565b565b6060600660003373ffffffffffffffffffffffffffffffffffffffff1673ffffffffffffffffffffffffffffffffffffffff168152602001908152602001600020805480602002602001604051908101604052809291908181526020016000905b82821015611d065783829060005260206000209060020201604051806040016040529081600082018054611c3a90613aac565b80601f0160208091040260200160405190810160405280929190818152602001828054611c6690613aac565b8015611cb35780601f10611c8857610100808354040283529160200191611cb3565b820191906000526020600020905b815481529060010190602001808311611c9657829003601f168201915b505050505081526020016001820160009054906101000a900460ff166003811115611ce157611ce061310f565b5b6003811115611cf357611cf261310f565b5b8152505081526020019060010190611c07565b50505050905090565b6060806000600c80549050905060008167ffffffffffffffff811115611d3857611d37612de4565b5b604051908082528060200260200182016040528015611d665781602001602082028036833780820191505090505b50905060008267ffffffffffffffff811115611d8557611d84612de4565b5b604051908082528060200260200182016040528015611db35781602001602082028036833780820191505090505b50905060005b83811015611ebf576000600c8281548110611dd757611dd6613854565b5b9060005260206000200160009054906101000a900473ffffffffffffffffffffffffffffffffffffffff16905080848381518110611e1857611e17613854565b5b602002602001019073ffffffffffffffffffffffffffffffffffffffff16908173ffffffffffffffffffffffffffffffffffffffff1681525050600760008273ffffffffffffffffffffffffffffffffffffffff1673ffffffffffffffffffffffffffffffffffffffff16815260200190815260200160002054838381518110611ea557611ea4613854565b5b602002602001018181525050508080600101915050611db9565b508181945094505050509091565b6000600660003373ffffffffffffffffffffffffffffffffffffffff1673ffffffffffffffffffffffffffffffffffffffff1681526020019081526020016000208054905090506000600e60003373ffffffffffffffffffffffffffffffffffffffff1673ffffffffffffffffffffffffffffffffffffffff1681526020019081526020016000208190555060005b818110156121cb576000600660003373ffffffffffffffffffffffffffffffffffffffff1673ffffffffffffffffffffffffffffffffffffffff1681526020019081526020016000208281548110611fb757611fb6613854565b5b9060005260206000209060020201604051806040016040529081600082018054611fe090613aac565b80601f016020809104026020016040519081016040528092919081815260200182805461200c90613aac565b80156120595780601f1061202e57610100808354040283529160200191612059565b820191906000526020600020905b81548152906001019060200180831161203c57829003601f168201915b505050505081526020016001820160009054906101000a900460ff1660038111156120875761208661310f565b5b60038111156120995761209861310f565b5b81525050905060c8600e60003373ffffffffffffffffffffffffffffffffffffffff1673ffffffffffffffffffffffffffffffffffffffff16815260200190815260200160002060008282546120ef9190613a49565b9250508190555060036000826020015160038111156121115761211061310f565b5b60038111156121235761212261310f565b5b815260200190815260200160002081600001516040516121439190613997565b908152602001604051809103902060009054906101000a900460ff16156121bd576101f4600e60003373ffffffffffffffffffffffffffffffffffffffff1673ffffffffffffffffffffffffffffffffffffffff16815260200190815260200160002060008282546121b59190613a49565b925050819055505b508080600101915050611f5c565b5050565b60008060009054906101000a900473ffffffffffffffffffffffffffffffffffffffff16905090565b600c818154811061220857600080fd5b906000526020600020016000915054906101000a900473ffffffffffffffffffffffffffffffffffffffff1681565b6003602052816000526040600020818051602081018201805184825260208301602085012081835280955050505050506000915091509054906101000a900460ff1681565b6060806000600c80549050905060008167ffffffffffffffff8111156122a5576122a4612de4565b5b6040519080825280602002602001820160405280156122d35781602001602082028036833780820191505090505b50905060008267ffffffffffffffff8111156122f2576122f1612de4565b5b6040519080825280602002602001820160405280156123205781602001602082028036833780820191505090505b50905060005b8381101561242c576000600c828154811061234457612343613854565b5b9060005260206000200160009054906101000a900473ffffffffffffffffffffffffffffffffffffffff1690508084838151811061238557612384613854565b5b602002602001019073ffffffffffffffffffffffffffffffffffffffff16908173ffffffffffffffffffffffffffffffffffffffff1681525050600860008273ffffffffffffffffffffffffffffffffffffffff1673ffffffffffffffffffffffffffffffffffffffff1681526020019081526020016000205483838151811061241257612411613854565b5b602002602001018181525050508080600101915050612326565b508181945094505050509091565b60086020528060005260406000206000915090505481565b60076020528060005260406000206000915090505481565b6124726129b5565b600073ffffffffffffffffffffffffffffffffffffffff168173ffffffffffffffffffffffffffffffffffffffff16036124e1576040517f08c379a00000000000000000000000000000000000000000000000000000000081526004016124d890613e81565b60405180910390fd5b6124ea81612a33565b50565b600260205281600052604060002081805160208101820180518482526020830160208501208183528095505050505050600091509150505481565b6125306129b5565b60005b600c805490508110156126b1576000600c828154811061255657612555613854565b5b9060005260206000200160009054906101000a900473ffffffffffffffffffffffffffffffffffffffff169050600660008273ffffffffffffffffffffffffffffffffffffffff1673ffffffffffffffffffffffffffffffffffffffff16815260200190815260200160002060006125ce9190612b70565b600760008273ffffffffffffffffffffffffffffffffffffffff1673ffffffffffffffffffffffffffffffffffffffff16815260200190815260200160002060009055600860008273ffffffffffffffffffffffffffffffffffffffff1673ffffffffffffffffffffffffffffffffffffffff16815260200190815260200160002060009055600d60008273ffffffffffffffffffffffffffffffffffffffff1673ffffffffffffffffffffffffffffffffffffffff16815260200190815260200160002060006101000a81549060ff0219169055508080600101915050612533565b50600c60006126c09190612b94565b60005b60048110156129b25760008160038111156126e1576126e061310f565b5b905060005b600c805490508110156129a3576000600c828154811061270957612708613854565b5b9060005260206000200160009054906101000a900473ffffffffffffffffffffffffffffffffffffffff1690506000600660008373ffffffffffffffffffffffffffffffffffffffff1673ffffffffffffffffffffffffffffffffffffffff168152602001908152602001600020805480602002602001604051908101604052809291908181526020016000905b8282101561289657838290600052602060002090600202016040518060400160405290816000820180546127ca90613aac565b80601f01602080910402602001604051908101604052809291908181526020018280546127f690613aac565b80156128435780601f1061281857610100808354040283529160200191612843565b820191906000526020600020905b81548152906001019060200180831161282657829003601f168201915b505050505081526020016001820160009054906101000a900460ff1660038111156128715761287061310f565b5b60038111156128835761288261310f565b5b8152505081526020019060010190612797565b50505050905060005b81518110156129935760008282815181106128bd576128bc613854565b5b6020026020010151600001519050600260008760038111156128e2576128e161310f565b5b60038111156128f4576128f361310f565b5b8152602001908152602001600020816040516129109190613997565b908152602001604051809103902060009055600360008760038111156129395761293861310f565b5b600381111561294b5761294a61310f565b5b8152602001908152602001600020816040516129679190613997565b908152602001604051809103902060006101000a81549060ff021916905550808060010191505061289f565b50505080806001019150506126e6565b505080806001019150506126c3565b50565b6129bd612af7565b73ffffffffffffffffffffffffffffffffffffffff166129db6121cf565b73ffffffffffffffffffffffffffffffffffffffff1614612a31576040517f08c379a0000000000000000000000000000000000000000000000000000000008152600401612a2890613eed565b60405180910390fd5b565b60008060009054906101000a900473ffffffffffffffffffffffffffffffffffffffff169050816000806101000a81548173ffffffffffffffffffffffffffffffffffffffff021916908373ffffffffffffffffffffffffffffffffffffffff1602179055508173ffffffffffffffffffffffffffffffffffffffff168173ffffffffffffffffffffffffffffffffffffffff167f8be0079c531659141344cd1fd0a4f28419497f9722a3daafe3b4186f6b6457e060405160405180910390a35050565b600033905090565b6040518060600160405280600073ffffffffffffffffffffffffffffffffffffffff16815260200160008152602001600081525090565b60405180608001604052806060815260200160006003811115612b5c57612b5b61310f565b5b815260200160008152602001600081525090565b5080546000825560020290600052602060002090810190612b919190612bb5565b50565b5080546000825590600052602060002090810190612bb29190612bf0565b50565b5b80821115612bec5760008082016000612bcf9190612c0d565b6001820160006101000a81549060ff021916905550600201612bb6565b5090565b5b80821115612c09576000816000905550600101612bf1565b5090565b508054612c1990613aac565b6000825580601f10612c2b5750612c4a565b601f016020900490600052602060002090810190612c499190612bf0565b5b50565b600081519050919050565b600082825260208201905092915050565b6000819050602082019050919050565b600073ffffffffffffffffffffffffffffffffffffffff82169050919050565b6000612ca482612c79565b9050919050565b612cb481612c99565b82525050565b6000819050919050565b612ccd81612cba565b82525050565b606082016000820151612ce96000850182612cab565b506020820151612cfc6020850182612cc4565b506040820151612d0f6040850182612cc4565b50505050565b6000612d218383612cd3565b60608301905092915050565b6000602082019050919050565b6000612d4582612c4d565b612d4f8185612c58565b9350612d5a83612c69565b8060005b83811015612d8b578151612d728882612d15565b9750612d7d83612d2d565b925050600181019050612d5e565b5085935050505092915050565b60006020820190508181036000830152612db28184612d3a565b905092915050565b6000604051905090565b600080fd5b600080fd5b600080fd5b6000601f19601f8301169050919050565b7f4e487b7100000000000000000000000000000000000000000000000000000000600052604160045260246000fd5b612e1c82612dd3565b810181811067ffffffffffffffff82111715612e3b57612e3a612de4565b5b80604052505050565b6000612e4e612dba565b9050612e5a8282612e13565b919050565b600080fd5b600080fd5b600080fd5b600067ffffffffffffffff821115612e8957612e88612de4565b5b612e9282612dd3565b9050602081019050919050565b82818337600083830152505050565b6000612ec1612ebc84612e6e565b612e44565b905082815260208101848484011115612edd57612edc612e69565b5b612ee8848285612e9f565b509392505050565b600082601f830112612f0557612f04612e64565b5b8135612f15848260208601612eae565b91505092915050565b60048110612f2b57600080fd5b50565b600081359050612f3d81612f1e565b92915050565b600060408284031215612f5957612f58612dce565b5b612f636040612e44565b9050600082013567ffffffffffffffff811115612f8357612f82612e5f565b5b612f8f84828501612ef0565b6000830152506020612fa384828501612f2e565b60208301525092915050565b600060208284031215612fc557612fc4612dc4565b5b600082013567ffffffffffffffff811115612fe357612fe2612dc9565b5b612fef84828501612f43565b91505092915050565b61300181612c99565b811461300c57600080fd5b50565b60008135905061301e81612ff8565b92915050565b61302d81612cba565b811461303857600080fd5b50565b60008135905061304a81613024565b92915050565b6000806040838503121561306757613066612dc4565b5b60006130758582860161300f565b92505060206130868582860161303b565b9150509250929050565b600081519050919050565b600082825260208201905092915050565b60005b838110156130ca5780820151818401526020810190506130af565b60008484015250505050565b60006130e182613090565b6130eb818561309b565b93506130fb8185602086016130ac565b61310481612dd3565b840191505092915050565b7f4e487b7100000000000000000000000000000000000000000000000000000000600052602160045260246000fd5b6004811061314f5761314e61310f565b5b50565b60008190506131608261313e565b919050565b600061317082613152565b9050919050565b61318081613165565b82525050565b600060408201905081810360008301526131a081856130d6565b90506131af6020830184613177565b9392505050565b600081519050919050565b600082825260208201905092915050565b6000819050602082019050919050565b600082825260208201905092915050565b60006131fe82613090565b61320881856131e2565b93506132188185602086016130ac565b61322181612dd3565b840191505092915050565b61323581613165565b82525050565b6000608083016000830151848203600086015261325882826131f3565b915050602083015161326d602086018261322c565b5060408301516132806040860182612cc4565b5060608301516132936060860182612cc4565b508091505092915050565b60006132aa838361323b565b905092915050565b6000602082019050919050565b60006132ca826131b6565b6132d481856131c1565b9350836020820285016132e6856131d2565b8060005b858110156133225784840389528151613303858261329e565b945061330e836132b2565b925060208a019950506001810190506132ea565b50829750879550505050505092915050565b6000602082019050818103600083015261334e81846132bf565b905092915050565b61335f81612cba565b82525050565b60008115159050919050565b61337a81613365565b82525050565b60006060820190506133956000830186613356565b6133a26020830185613356565b6133af6040830184613371565b949350505050565b600080604083850312156133ce576133cd612dc4565b5b60006133dc85828601612f2e565b925050602083013567ffffffffffffffff8111156133fd576133fc612dc9565b5b61340985828601612ef0565b9150509250929050565b61341c81612c99565b82525050565b60006020820190506134376000830184613413565b92915050565b60006020828403121561345357613452612dc4565b5b60006134618482850161300f565b91505092915050565b600060208201905061347f6000830184613356565b92915050565b60008060006060848603121561349e5761349d612dc4565b5b60006134ac86828701612f2e565b935050602084013567ffffffffffffffff8111156134cd576134cc612dc9565b5b6134d986828701612ef0565b92505060406134ea8682870161303b565b9150509250925092565b6000806040838503121561350b5761350a612dc4565b5b60006135198582860161300f565b925050602061352a85828601612f2e565b9150509250929050565b6000602082019050818103600083015261354e81846130d6565b905092915050565b600060208201905061356b6000830184613371565b92915050565b600081519050919050565b600082825260208201905092915050565b6000819050602082019050919050565b600060408301600083015184820360008601526135ba82826131f3565b91505060208301516135cf602086018261322c565b508091505092915050565b60006135e6838361359d565b905092915050565b6000602082019050919050565b600061360682613571565b613610818561357c565b9350836020820285016136228561358d565b8060005b8581101561365e578484038952815161363f85826135da565b945061364a836135ee565b925060208a01995050600181019050613626565b50829750879550505050505092915050565b6000602082019050818103600083015261368a81846135fb565b905092915050565b600081519050919050565b600082825260208201905092915050565b6000819050602082019050919050565b60006136ca8383612cab565b60208301905092915050565b6000602082019050919050565b60006136ee82613692565b6136f8818561369d565b9350613703836136ae565b8060005b8381101561373457815161371b88826136be565b9750613726836136d6565b925050600181019050613707565b5085935050505092915050565b600081519050919050565b600082825260208201905092915050565b6000819050602082019050919050565b60006137798383612cc4565b60208301905092915050565b6000602082019050919050565b600061379d82613741565b6137a7818561374c565b93506137b28361375d565b8060005b838110156137e35781516137ca888261376d565b97506137d583613785565b9250506001810190506137b6565b5085935050505092915050565b6000604082019050818103600083015261380a81856136e3565b9050818103602083015261381e8184613792565b90509392505050565b60006020828403121561383d5761383c612dc4565b5b600061384b8482850161303b565b91505092915050565b7f4e487b7100000000000000000000000000000000000000000000000000000000600052603260045260246000fd5b7f496e76616c69642070726f766964657200000000000000000000000000000000600082015250565b60006138b960108361309b565b91506138c482613883565b602082019050919050565b600060208201905081810360008301526138e8816138ac565b9050919050565b7f496e76616c696420616d6f756e74000000000000000000000000000000000000600082015250565b6000613925600e8361309b565b9150613930826138ef565b602082019050919050565b6000602082019050818103600083015261395481613918565b9050919050565b600081905092915050565b600061397182613090565b61397b818561395b565b935061398b8185602086016130ac565b80840191505092915050565b60006139a38284613966565b915081905092915050565b7f50726f66696c6520616c726561647920636c61696d6564000000000000000000600082015250565b60006139e460178361309b565b91506139ef826139ae565b602082019050919050565b60006020820190508181036000830152613a13816139d7565b9050919050565b7f4e487b7100000000000000000000000000000000000000000000000000000000600052601160045260246000fd5b6000613a5482612cba565b9150613a5f83612cba565b9250828201905080821115613a7757613a76613a1a565b5b92915050565b7f4e487b7100000000000000000000000000000000000000000000000000000000600052602260045260246000fd5b60006002820490506001821680613ac457607f821691505b602082108103613ad757613ad6613a7d565b5b50919050565b60008190508160005260206000209050919050565b60006020601f8301049050919050565b600082821b905092915050565b600060088302613b3f7fffffffffffffffffffffffffffffffffffffffffffffffffffffffffffffffff82613b02565b613b498683613b02565b95508019841693508086168417925050509392505050565b6000819050919050565b6000613b86613b81613b7c84612cba565b613b61565b612cba565b9050919050565b6000819050919050565b613ba083613b6b565b613bb4613bac82613b8d565b848454613b0f565b825550505050565b600090565b613bc9613bbc565b613bd4818484613b97565b505050565b5b81811015613bf857613bed600082613bc1565b600181019050613bda565b5050565b601f821115613c3d57613c0e81613add565b613c1784613af2565b81016020851015613c26578190505b613c3a613c3285613af2565b830182613bd9565b50505b505050565b600082821c905092915050565b6000613c6060001984600802613c42565b1980831691505092915050565b6000613c798383613c4f565b9150826002028217905092915050565b613c9282613090565b67ffffffffffffffff811115613cab57613caa612de4565b5b613cb58254613aac565b613cc0828285613bfc565b600060209050601f831160018114613cf35760008415613ce1578287015190505b613ceb8582613c6d565b865550613d53565b601f198416613d0186613add565b60005b82811015613d2957848901518255600182019150602085019450602081019050613d04565b86831015613d465784890151613d42601f891682613c4f565b8355505b6001600288020188555050505b505050505050565b6000613d6682612cba565b91507fffffffffffffffffffffffffffffffffffffffffffffffffffffffffffffffff8203613d9857613d97613a1a565b5b600182019050919050565b7f4e6f2062616c616e636520746f20636c61696d00000000000000000000000000600082015250565b6000613dd960138361309b565b9150613de482613da3565b602082019050919050565b60006020820190508181036000830152613e0881613dcc565b9050919050565b7f4f776e61626c653a206e6577206f776e657220697320746865207a65726f206160008201527f6464726573730000000000000000000000000000000000000000000000000000602082015250565b6000613e6b60268361309b565b9150613e7682613e0f565b604082019050919050565b60006020820190508181036000830152613e9a81613e5e565b9050919050565b7f4f776e61626c653a2063616c6c6572206973206e6f7420746865206f776e6572600082015250565b6000613ed760208361309b565b9150613ee282613ea1565b602082019050919050565b60006020820190508181036000830152613f0681613eca565b905091905056fea264697066735822122092e1d1f04e845220c27c43002a2ba2523d5a7a7097d976b49fa0bbf7dba36d6064736f6c634300081b0033",
  "linkReferences": {},
  "deployedLinkReferences": {}
}