{
  "_format": "hh-sol-artifact-1",
  "contractName": "Registry",
  "sourceName": "contracts/Registry.sol",
  "abi": [
    {
      "anonymous": false,
      "inputs": [
        {
          "indexed": true,
          "internalType": "address",
          "name": "previousOwner",
          "type": "address"
        },
        {
          "indexed": true,
          "internalType": "address",
          "name": "newOwner",
          "type": "address"
        }
      ],
      "name": "OwnershipTransferred",
      "type": "event"
    },
    {
      "inputs": [
        {
          "components": [
            {
              "internalType": "string",
              "name": "id",
              "type": "string"
            },
            {
              "internalType": "enum Registry.Provider",
              "name": "provider",
              "type": "uint8"
            }
          ],
          "internalType": "struct Registry.Profile",
          "name": "profile",
          "type": "tuple"
        }
      ],
      "name": "claim",
      "outputs": [],
      "stateMutability": "nonpayable",
      "type": "function"
    },
    {
      "inputs": [
        {
          "internalType": "enum Registry.Provider",
          "name": "",
          "type": "uint8"
        },
        {
          "internalType": "string",
          "name": "",
          "type": "string"
        }
      ],
      "name": "claimed",
      "outputs": [
        {
          "internalType": "bool",
          "name": "",
          "type": "bool"
        }
      ],
      "stateMutability": "view",
      "type": "function"
    },
    {
      "inputs": [
        {
          "internalType": "enum Registry.Provider",
          "name": "",
          "type": "uint8"
        },
        {
          "internalType": "string",
          "name": "",
          "type": "string"
        }
      ],
      "name": "claimedAddress",
      "outputs": [
        {
          "internalType": "address",
          "name": "",
          "type": "address"
        }
      ],
      "stateMutability": "view",
      "type": "function"
    },
    {
      "inputs": [
        {
          "internalType": "address",
          "name": "inviteSender",
          "type": "address"
        }
      ],
      "name": "claimedInviteCounts",
      "outputs": [
        {
          "internalType": "uint256",
          "name": "",
          "type": "uint256"
        }
      ],
      "stateMutability": "view",
      "type": "function"
    },
    {
      "inputs": [
        {
          "internalType": "address",
          "name": "claimerAddress",
          "type": "address"
        }
      ],
      "name": "claimedProfiles",
      "outputs": [
        {
          "internalType": "string",
          "name": "id",
          "type": "string"
        },
        {
          "internalType": "enum Registry.Provider",
          "name": "provider",
          "type": "uint8"
        }
      ],
      "stateMutability": "view",
      "type": "function"
    },
    {
      "inputs": [],
      "name": "getAddressesWithClaimedInvites",
      "outputs": [
        {
          "internalType": "address[]",
          "name": "",
          "type": "address[]"
        },
        {
          "internalType": "uint256[]",
          "name": "",
          "type": "uint256[]"
        }
      ],
      "stateMutability": "view",
      "type": "function"
    },
    {
      "inputs": [],
      "name": "getAddressesWithInviteCounts",
      "outputs": [
        {
          "internalType": "address[]",
          "name": "",
          "type": "address[]"
        },
        {
          "internalType": "uint256[]",
          "name": "",
          "type": "uint256[]"
        }
      ],
      "stateMutability": "view",
      "type": "function"
    },
    {
      "inputs": [],
      "name": "getInviteAndClaimedCounts",
      "outputs": [
        {
          "components": [
            {
              "internalType": "address",
              "name": "invitee",
              "type": "address"
            },
            {
              "internalType": "uint256",
              "name": "totalInvites",
              "type": "uint256"
            },
            {
              "internalType": "uint256",
              "name": "claimedInvites",
              "type": "uint256"
            }
          ],
          "internalType": "struct Registry.InviteeDetails[]",
          "name": "",
          "type": "tuple[]"
        }
      ],
      "stateMutability": "view",
      "type": "function"
    },
    {
      "inputs": [],
      "name": "getInvitedProfiles",
      "outputs": [
        {
          "components": [
            {
              "internalType": "string",
              "name": "id",
              "type": "string"
            },
            {
              "internalType": "enum Registry.Provider",
              "name": "provider",
              "type": "uint8"
            }
          ],
          "internalType": "struct Registry.Profile[]",
          "name": "",
          "type": "tuple[]"
        }
      ],
      "stateMutability": "view",
      "type": "function"
    },
    {
      "inputs": [
        {
          "components": [
            {
              "internalType": "string",
              "name": "id",
              "type": "string"
            },
            {
              "internalType": "enum Registry.Provider",
              "name": "provider",
              "type": "uint8"
            }
          ],
          "internalType": "struct Registry.Profile",
          "name": "_profile",
          "type": "tuple"
        }
      ],
      "name": "getInviters",
      "outputs": [
        {
          "internalType": "address[]",
          "name": "",
          "type": "address[]"
        }
      ],
      "stateMutability": "view",
      "type": "function"
    },
    {
      "inputs": [
        {
          "components": [
            {
              "internalType": "string",
              "name": "id",
              "type": "string"
            },
            {
              "internalType": "enum Registry.Provider",
              "name": "provider",
              "type": "uint8"
            }
          ],
          "internalType": "struct Registry.Profile",
          "name": "profile",
          "type": "tuple"
        }
      ],
      "name": "getProfileBalanceAndInviteCount",
      "outputs": [
        {
          "internalType": "uint256",
          "name": "balance",
          "type": "uint256"
        },
        {
          "internalType": "uint256",
          "name": "inviteCount",
          "type": "uint256"
        },
        {
          "internalType": "bool",
          "name": "profileClaimed",
          "type": "bool"
        }
      ],
      "stateMutability": "view",
      "type": "function"
    },
    {
      "inputs": [
        {
          "internalType": "address",
          "name": "",
          "type": "address"
        }
      ],
      "name": "hasSentInvite",
      "outputs": [
        {
          "internalType": "bool",
          "name": "",
          "type": "bool"
        }
      ],
      "stateMutability": "view",
      "type": "function"
    },
    {
      "inputs": [
        {
          "components": [
            {
              "internalType": "string",
              "name": "id",
              "type": "string"
            },
            {
              "internalType": "enum Registry.Provider",
              "name": "provider",
              "type": "uint8"
            }
          ],
          "internalType": "struct Registry.Profile",
          "name": "profile",
          "type": "tuple"
        }
      ],
      "name": "invite",
      "outputs": [],
      "stateMutability": "payable",
      "type": "function"
    },
    {
      "inputs": [
        {
          "internalType": "address",
          "name": "inviteSender",
          "type": "address"
        }
      ],
      "name": "inviteCounts",
      "outputs": [
        {
          "internalType": "uint256",
          "name": "",
          "type": "uint256"
        }
      ],
      "stateMutability": "view",
      "type": "function"
    },
    {
      "inputs": [
        {
          "internalType": "uint256",
          "name": "",
          "type": "uint256"
        }
      ],
      "name": "inviteSenders",
      "outputs": [
        {
          "internalType": "address",
          "name": "",
          "type": "address"
        }
      ],
      "stateMutability": "view",
      "type": "function"
    },
    {
      "inputs": [
        {
          "internalType": "address",
          "name": "inviteSender",
          "type": "address"
        },
        {
          "internalType": "uint256",
          "name": "",
          "type": "uint256"
        }
      ],
      "name": "invitedProfiles",
      "outputs": [
        {
          "internalType": "string",
          "name": "id",
          "type": "string"
        },
        {
          "internalType": "enum Registry.Provider",
          "name": "provider",
          "type": "uint8"
        }
      ],
      "stateMutability": "view",
      "type": "function"
    },
    {
      "inputs": [
        {
          "internalType": "enum Registry.Provider",
          "name": "",
          "type": "uint8"
        },
        {
          "internalType": "string",
          "name": "id",
          "type": "string"
        },
        {
          "internalType": "uint256",
          "name": "",
          "type": "uint256"
        }
      ],
      "name": "inviters",
      "outputs": [
        {
          "internalType": "address",
          "name": "",
          "type": "address"
        }
      ],
      "stateMutability": "view",
      "type": "function"
    },
    {
      "inputs": [],
      "name": "owner",
      "outputs": [
        {
          "internalType": "address",
          "name": "",
          "type": "address"
        }
      ],
      "stateMutability": "view",
      "type": "function"
    },
    {
      "inputs": [
        {
          "internalType": "enum Registry.Provider",
          "name": "",
          "type": "uint8"
        },
        {
          "internalType": "string",
          "name": "",
          "type": "string"
        }
      ],
      "name": "registry",
      "outputs": [
        {
          "internalType": "uint256",
          "name": "",
          "type": "uint256"
        }
      ],
      "stateMutability": "view",
      "type": "function"
    },
    {
      "inputs": [],
      "name": "renounceOwnership",
      "outputs": [],
      "stateMutability": "nonpayable",
      "type": "function"
    },
    {
      "inputs": [],
      "name": "resetRegistry",
      "outputs": [],
      "stateMutability": "nonpayable",
      "type": "function"
    },
    {
      "inputs": [
        {
          "internalType": "address",
          "name": "newOwner",
          "type": "address"
        }
      ],
      "name": "transferOwnership",
      "outputs": [],
      "stateMutability": "nonpayable",
      "type": "function"
    },
    {
      "inputs": [],
      "name": "viewInvitedProfiles",
      "outputs": [
        {
          "components": [
            {
              "internalType": "string",
              "name": "id",
              "type": "string"
            },
            {
              "internalType": "enum Registry.Provider",
              "name": "provider",
              "type": "uint8"
            },
            {
              "internalType": "uint256",
              "name": "balance",
              "type": "uint256"
            },
            {
              "internalType": "uint256",
              "name": "claimed",
              "type": "uint256"
            }
          ],
          "internalType": "struct Registry.ProfileDetails[]",
          "name": "",
          "type": "tuple[]"
        }
      ],
      "stateMutability": "view",
      "type": "function"
    }
  ],
  "bytecode": "0x608060405234801561001057600080fd5b5061002d61002261003260201b60201c565b61003a60201b60201c565b6100fe565b600033905090565b60008060009054906101000a900473ffffffffffffffffffffffffffffffffffffffff169050816000806101000a81548173ffffffffffffffffffffffffffffffffffffffff021916908373ffffffffffffffffffffffffffffffffffffffff1602179055508173ffffffffffffffffffffffffffffffffffffffff168173ffffffffffffffffffffffffffffffffffffffff167f8be0079c531659141344cd1fd0a4f28419497f9722a3daafe3b4186f6b6457e060405160405180910390a35050565b61394a8061010d6000396000f3fe6080604052600436106101405760003560e01c8063715018a6116100b6578063c8c953d51161006f578063c8c953d5146104a2578063de2dd221146104ce578063e9df95301461050b578063f2fde38b14610548578063f44910b114610571578063f74a71df146105ae57610140565b8063715018a61461038f5780637685bbff146103a65780637b412bdb146103d15780638da5cb5b146103fd578063c594975514610428578063c5dc9aa11461046557610140565b80631e0289f5116101085780631e0289f51461023257806326d6403b146102715780633a2e9ad5146102ae5780635a297837146102d75780636d5fbd5e146103145780636ee14c6c1461035257610140565b80630420f2361461014557806309a1581d146101705780630b4ac8521461019b578063124bf2a3146101d857806313b21384146101f4575b600080fd5b34801561015157600080fd5b5061015a6105c5565b6040516101679190612695565b60405180910390f35b34801561017c57600080fd5b5061018561075b565b60405161019291906128e3565b60405180910390f35b3480156101a757600080fd5b506101c260048036038101906101bd919061293d565b610a86565b6040516101cf9190612a35565b60405180910390f35b6101f260048036038101906101ed9190612c27565b610b89565b005b34801561020057600080fd5b5061021b60048036038101906102169190612cc8565b61113b565b604051610229929190612d61565b60405180910390f35b34801561023e57600080fd5b5061025960048036038101906102549190612c27565b611211565b60405161026893929190612dbb565b60405180910390f35b34801561027d57600080fd5b5061029860048036038101906102939190612df2565b611328565b6040516102a59190612e5d565b60405180910390f35b3480156102ba57600080fd5b506102d560048036038101906102d09190612c27565b611380565b005b3480156102e357600080fd5b506102fe60048036038101906102f99190612e78565b611647565b60405161030b9190612e5d565b60405180910390f35b34801561032057600080fd5b5061033b60048036038101906103369190612ee7565b6116b8565b604051610349929190612d61565b60405180910390f35b34801561035e57600080fd5b5061037960048036038101906103749190612ee7565b611771565b6040516103869190612f14565b60405180910390f35b34801561039b57600080fd5b506103a4611791565b005b3480156103b257600080fd5b506103bb6117a5565b6040516103c8919061302e565b60405180910390f35b3480156103dd57600080fd5b506103e661190e565b6040516103f49291906130ff565b60405180910390f35b34801561040957600080fd5b50610412611acc565b60405161041f9190612e5d565b60405180910390f35b34801561043457600080fd5b5061044f600480360381019061044a9190613136565b611af5565b60405161045c9190612e5d565b60405180910390f35b34801561047157600080fd5b5061048c60048036038101906104879190612df2565b611b34565b6040516104999190612f14565b60405180910390f35b3480156104ae57600080fd5b506104b7611b79565b6040516104c59291906130ff565b60405180910390f35b3480156104da57600080fd5b506104f560048036038101906104f09190612ee7565b611d37565b6040516105029190613163565b60405180910390f35b34801561051757600080fd5b50610532600480360381019061052d9190612ee7565b611d4f565b60405161053f9190613163565b60405180910390f35b34801561055457600080fd5b5061056f600480360381019061056a9190612ee7565b611d67565b005b34801561057d57600080fd5b5061059860048036038101906105939190612df2565b611dea565b6040516105a59190613163565b60405180910390f35b3480156105ba57600080fd5b506105c3611e25565b005b60606000600980549050905060008167ffffffffffffffff8111156105ed576105ec612a5c565b5b60405190808252806020026020018201604052801561062657816020015b6106136123fc565b81526020019060019003908161060b5790505b50905060005b828110156107525760006009828154811061064a5761064961317e565b5b9060005260206000200160009054906101000a900473ffffffffffffffffffffffffffffffffffffffff16905060405180606001604052808273ffffffffffffffffffffffffffffffffffffffff168152602001600660008473ffffffffffffffffffffffffffffffffffffffff1673ffffffffffffffffffffffffffffffffffffffff168152602001908152602001600020548152602001600760008473ffffffffffffffffffffffffffffffffffffffff1673ffffffffffffffffffffffffffffffffffffffff168152602001908152602001600020548152508383815181106107395761073861317e565b5b602002602001018190525050808060010191505061062c565b50809250505090565b60606000600560003373ffffffffffffffffffffffffffffffffffffffff1673ffffffffffffffffffffffffffffffffffffffff16815260200190815260200160002080549050905060008167ffffffffffffffff8111156107c0576107bf612a5c565b5b6040519080825280602002602001820160405280156107f957816020015b6107e6612433565b8152602001906001900390816107de5790505b50905060005b82811015610a7d576000600560003373ffffffffffffffffffffffffffffffffffffffff1673ffffffffffffffffffffffffffffffffffffffff168152602001908152602001600020828154811061085a5761085961317e565b5b9060005260206000209060020201604051806040016040529081600082018054610883906131dc565b80601f01602080910402602001604051908101604052809291908181526020018280546108af906131dc565b80156108fc5780601f106108d1576101008083540402835291602001916108fc565b820191906000526020600020905b8154815290600101906020018083116108df57829003601f168201915b505050505081526020016001820160009054906101000a900460ff16600381111561092a57610929612773565b5b600381111561093c5761093b612773565b5b8152505090506040518060800160405280826000015181526020018260200151600381111561096e5761096d612773565b5b8152602001600160008460200151600381111561098e5761098d612773565b5b60038111156109a05761099f612773565b5b815260200190815260200160002083600001516040516109c09190613249565b908152602001604051809103902054815260200160026000846020015160038111156109ef576109ee612773565b5b6003811115610a0157610a00612773565b5b81526020019081526020016000208360000151604051610a219190613249565b908152602001604051809103902060009054906101000a900460ff16610a48576000610a4b565b60015b60ff16815250838381518110610a6457610a6361317e565b5b60200260200101819052505080806001019150506107ff565b50809250505090565b606060086000836020016020810190610a9f9190613260565b6003811115610ab157610ab0612773565b5b6003811115610ac357610ac2612773565b5b8152602001908152602001600020828060000190610ae1919061329c565b604051610aef929190613324565b9081526020016040518091039020805480602002602001604051908101604052809291908181526020018280548015610b7d57602002820191906000526020600020905b8160009054906101000a900473ffffffffffffffffffffffffffffffffffffffff1673ffffffffffffffffffffffffffffffffffffffff1681526020019060010190808311610b33575b50505050509050919050565b60006003811115610b9d57610b9c612773565b5b81602001516003811115610bb457610bb3612773565b5b1480610be8575060016003811115610bcf57610bce612773565b5b81602001516003811115610be657610be5612773565b5b145b80610c1b575060026003811115610c0257610c01612773565b5b81602001516003811115610c1957610c18612773565b5b145b80610c4d5750600380811115610c3457610c33612773565b5b81602001516003811115610c4b57610c4a612773565b5b145b610c8c576040517f08c379a0000000000000000000000000000000000000000000000000000000008152600401610c8390613389565b60405180910390fd5b655af3107a40003414610cd4576040517f08c379a0000000000000000000000000000000000000000000000000000000008152600401610ccb906133f5565b60405180910390fd5b600015156002600083602001516003811115610cf357610cf2612773565b5b6003811115610d0557610d04612773565b5b81526020019081526020016000208260000151604051610d259190613249565b908152602001604051809103902060009054906101000a900460ff16151514610d83576040517f08c379a0000000000000000000000000000000000000000000000000000000008152600401610d7a90613461565b60405180910390fd5b346001600083602001516003811115610d9f57610d9e612773565b5b6003811115610db157610db0612773565b5b81526020019081526020016000208260000151604051610dd19190613249565b90815260200160405180910390206000828254610dee91906134b0565b9250508190555060006002600083602001516003811115610e1257610e11612773565b5b6003811115610e2457610e23612773565b5b81526020019081526020016000208260000151604051610e449190613249565b908152602001604051809103902060006101000a81548160ff0219169083151502179055506008600082602001516003811115610e8457610e83612773565b5b6003811115610e9657610e95612773565b5b81526020019081526020016000208160000151604051610eb69190613249565b9081526020016040518091039020339080600181540180825580915050600190039060005260206000200160009091909190916101000a81548173ffffffffffffffffffffffffffffffffffffffff021916908373ffffffffffffffffffffffffffffffffffffffff160217905550600560003373ffffffffffffffffffffffffffffffffffffffff1673ffffffffffffffffffffffffffffffffffffffff1681526020019081526020016000208190806001815401808255809150506001900390600052602060002090600202016000909190919091506000820151816000019081610fa39190613690565b5060208201518160010160006101000a81548160ff02191690836003811115610fcf57610fce612773565b5b02179055505050600660003373ffffffffffffffffffffffffffffffffffffffff1673ffffffffffffffffffffffffffffffffffffffff168152602001908152602001600020600081548092919061102690613762565b9190505550600a60003373ffffffffffffffffffffffffffffffffffffffff1673ffffffffffffffffffffffffffffffffffffffff16815260200190815260200160002060009054906101000a900460ff16611138576009339080600181540180825580915050600190039060005260206000200160009091909190916101000a81548173ffffffffffffffffffffffffffffffffffffffff021916908373ffffffffffffffffffffffffffffffffffffffff1602179055506001600a60003373ffffffffffffffffffffffffffffffffffffffff1673ffffffffffffffffffffffffffffffffffffffff16815260200190815260200160002060006101000a81548160ff0219169083151502179055505b50565b6005602052816000526040600020818154811061115757600080fd5b90600052602060002090600202016000915091505080600001805461117b906131dc565b80601f01602080910402602001604051908101604052809291908181526020018280546111a7906131dc565b80156111f45780601f106111c9576101008083540402835291602001916111f4565b820191906000526020600020905b8154815290600101906020018083116111d757829003601f168201915b5050505050908060010160009054906101000a900460ff16905082565b6000806000600160008560200151600381111561123157611230612773565b5b600381111561124357611242612773565b5b815260200190815260200160002084600001516040516112639190613249565b9081526020016040518091039020549250600660003373ffffffffffffffffffffffffffffffffffffffff1673ffffffffffffffffffffffffffffffffffffffff16815260200190815260200160002054915060026000856020015160038111156112d1576112d0612773565b5b60038111156112e3576112e2612773565b5b815260200190815260200160002084600001516040516113039190613249565b908152602001604051809103902060009054906101000a900460ff1690509193909250565b6003602052816000526040600020818051602081018201805184825260208301602085012081835280955050505050506000915091509054906101000a900473ffffffffffffffffffffffffffffffffffffffff1681565b60001515600260008360200151600381111561139f5761139e612773565b5b60038111156113b1576113b0612773565b5b815260200190815260200160002082600001516040516113d19190613249565b908152602001604051809103902060009054906101000a900460ff1615151461142f576040517f08c379a000000000000000000000000000000000000000000000000000000000815260040161142690613461565b60405180910390fd5b6000600160008360200151600381111561144c5761144b612773565b5b600381111561145e5761145d612773565b5b8152602001908152602001600020826000015160405161147e9190613249565b9081526020016040518091039020549050600081116114d2576040517f08c379a00000000000000000000000000000000000000000000000000000000081526004016114c9906137f6565b60405180910390fd5b3373ffffffffffffffffffffffffffffffffffffffff166108fc829081150290604051600060405180830381858888f19350505050158015611518573d6000803e3d6000fd5b506000600160008460200151600381111561153657611535612773565b5b600381111561154857611547612773565b5b815260200190815260200160002083600001516040516115689190613249565b9081526020016040518091039020819055506001600260008460200151600381111561159757611596612773565b5b60038111156115a9576115a8612773565b5b815260200190815260200160002083600001516040516115c99190613249565b908152602001604051809103902060006101000a81548160ff021916908315150217905550600760003373ffffffffffffffffffffffffffffffffffffffff1673ffffffffffffffffffffffffffffffffffffffff168152602001908152602001600020600081548092919061163e90613762565b91905055505050565b600860205282600052604060002082805160208101820180518482526020830160208501208183528095505050505050818154811061168557600080fd5b90600052602060002001600092509250509054906101000a900473ffffffffffffffffffffffffffffffffffffffff1681565b60046020528060005260406000206000915090508060000180546116db906131dc565b80601f0160208091040260200160405190810160405280929190818152602001828054611707906131dc565b80156117545780601f1061172957610100808354040283529160200191611754565b820191906000526020600020905b81548152906001019060200180831161173757829003601f168201915b5050505050908060010160009054906101000a900460ff16905082565b600a6020528060005260406000206000915054906101000a900460ff1681565b6117996122b2565b6117a36000612330565b565b6060600560003373ffffffffffffffffffffffffffffffffffffffff1673ffffffffffffffffffffffffffffffffffffffff168152602001908152602001600020805480602002602001604051908101604052809291908181526020016000905b828210156119055783829060005260206000209060020201604051806040016040529081600082018054611839906131dc565b80601f0160208091040260200160405190810160405280929190818152602001828054611865906131dc565b80156118b25780601f10611887576101008083540402835291602001916118b2565b820191906000526020600020905b81548152906001019060200180831161189557829003601f168201915b505050505081526020016001820160009054906101000a900460ff1660038111156118e0576118df612773565b5b60038111156118f2576118f1612773565b5b8152505081526020019060010190611806565b50505050905090565b6060806000600980549050905060008167ffffffffffffffff81111561193757611936612a5c565b5b6040519080825280602002602001820160405280156119655781602001602082028036833780820191505090505b50905060008267ffffffffffffffff81111561198457611983612a5c565b5b6040519080825280602002602001820160405280156119b25781602001602082028036833780820191505090505b50905060005b83811015611abe576000600982815481106119d6576119d561317e565b5b9060005260206000200160009054906101000a900473ffffffffffffffffffffffffffffffffffffffff16905080848381518110611a1757611a1661317e565b5b602002602001019073ffffffffffffffffffffffffffffffffffffffff16908173ffffffffffffffffffffffffffffffffffffffff1681525050600660008273ffffffffffffffffffffffffffffffffffffffff1673ffffffffffffffffffffffffffffffffffffffff16815260200190815260200160002054838381518110611aa457611aa361317e565b5b6020026020010181815250505080806001019150506119b8565b508181945094505050509091565b60008060009054906101000a900473ffffffffffffffffffffffffffffffffffffffff16905090565b60098181548110611b0557600080fd5b906000526020600020016000915054906101000a900473ffffffffffffffffffffffffffffffffffffffff1681565b6002602052816000526040600020818051602081018201805184825260208301602085012081835280955050505050506000915091509054906101000a900460ff1681565b6060806000600980549050905060008167ffffffffffffffff811115611ba257611ba1612a5c565b5b604051908082528060200260200182016040528015611bd05781602001602082028036833780820191505090505b50905060008267ffffffffffffffff811115611bef57611bee612a5c565b5b604051908082528060200260200182016040528015611c1d5781602001602082028036833780820191505090505b50905060005b83811015611d2957600060098281548110611c4157611c4061317e565b5b9060005260206000200160009054906101000a900473ffffffffffffffffffffffffffffffffffffffff16905080848381518110611c8257611c8161317e565b5b602002602001019073ffffffffffffffffffffffffffffffffffffffff16908173ffffffffffffffffffffffffffffffffffffffff1681525050600760008273ffffffffffffffffffffffffffffffffffffffff1673ffffffffffffffffffffffffffffffffffffffff16815260200190815260200160002054838381518110611d0f57611d0e61317e565b5b602002602001018181525050508080600101915050611c23565b508181945094505050509091565b60066020528060005260406000206000915090505481565b60076020528060005260406000206000915090505481565b611d6f6122b2565b600073ffffffffffffffffffffffffffffffffffffffff168173ffffffffffffffffffffffffffffffffffffffff1603611dde576040517f08c379a0000000000000000000000000000000000000000000000000000000008152600401611dd590613888565b60405180910390fd5b611de781612330565b50565b600160205281600052604060002081805160208101820180518482526020830160208501208183528095505050505050600091509150505481565b611e2d6122b2565b60005b600980549050811015611fae57600060098281548110611e5357611e5261317e565b5b9060005260206000200160009054906101000a900473ffffffffffffffffffffffffffffffffffffffff169050600560008273ffffffffffffffffffffffffffffffffffffffff1673ffffffffffffffffffffffffffffffffffffffff1681526020019081526020016000206000611ecb919061246d565b600660008273ffffffffffffffffffffffffffffffffffffffff1673ffffffffffffffffffffffffffffffffffffffff16815260200190815260200160002060009055600760008273ffffffffffffffffffffffffffffffffffffffff1673ffffffffffffffffffffffffffffffffffffffff16815260200190815260200160002060009055600a60008273ffffffffffffffffffffffffffffffffffffffff1673ffffffffffffffffffffffffffffffffffffffff16815260200190815260200160002060006101000a81549060ff0219169055508080600101915050611e30565b5060096000611fbd9190612491565b60005b60048110156122af576000816003811115611fde57611fdd612773565b5b905060005b6009805490508110156122a0576000600982815481106120065761200561317e565b5b9060005260206000200160009054906101000a900473ffffffffffffffffffffffffffffffffffffffff1690506000600560008373ffffffffffffffffffffffffffffffffffffffff1673ffffffffffffffffffffffffffffffffffffffff168152602001908152602001600020805480602002602001604051908101604052809291908181526020016000905b8282101561219357838290600052602060002090600202016040518060400160405290816000820180546120c7906131dc565b80601f01602080910402602001604051908101604052809291908181526020018280546120f3906131dc565b80156121405780601f1061211557610100808354040283529160200191612140565b820191906000526020600020905b81548152906001019060200180831161212357829003601f168201915b505050505081526020016001820160009054906101000a900460ff16600381111561216e5761216d612773565b5b60038111156121805761217f612773565b5b8152505081526020019060010190612094565b50505050905060005b81518110156122905760008282815181106121ba576121b961317e565b5b6020026020010151600001519050600160008760038111156121df576121de612773565b5b60038111156121f1576121f0612773565b5b81526020019081526020016000208160405161220d9190613249565b9081526020016040518091039020600090556002600087600381111561223657612235612773565b5b600381111561224857612247612773565b5b8152602001908152602001600020816040516122649190613249565b908152602001604051809103902060006101000a81549060ff021916905550808060010191505061219c565b5050508080600101915050611fe3565b50508080600101915050611fc0565b50565b6122ba6123f4565b73ffffffffffffffffffffffffffffffffffffffff166122d8611acc565b73ffffffffffffffffffffffffffffffffffffffff161461232e576040517f08c379a0000000000000000000000000000000000000000000000000000000008152600401612325906138f4565b60405180910390fd5b565b60008060009054906101000a900473ffffffffffffffffffffffffffffffffffffffff169050816000806101000a81548173ffffffffffffffffffffffffffffffffffffffff021916908373ffffffffffffffffffffffffffffffffffffffff1602179055508173ffffffffffffffffffffffffffffffffffffffff168173ffffffffffffffffffffffffffffffffffffffff167f8be0079c531659141344cd1fd0a4f28419497f9722a3daafe3b4186f6b6457e060405160405180910390a35050565b600033905090565b6040518060600160405280600073ffffffffffffffffffffffffffffffffffffffff16815260200160008152602001600081525090565b6040518060800160405280606081526020016000600381111561245957612458612773565b5b815260200160008152602001600081525090565b508054600082556002029060005260206000209081019061248e91906124b2565b50565b50805460008255906000526020600020908101906124af91906124ed565b50565b5b808211156124e957600080820160006124cc919061250a565b6001820160006101000a81549060ff0219169055506002016124b3565b5090565b5b808211156125065760008160009055506001016124ee565b5090565b508054612516906131dc565b6000825580601f106125285750612547565b601f01602090049060005260206000209081019061254691906124ed565b5b50565b600081519050919050565b600082825260208201905092915050565b6000819050602082019050919050565b600073ffffffffffffffffffffffffffffffffffffffff82169050919050565b60006125a182612576565b9050919050565b6125b181612596565b82525050565b6000819050919050565b6125ca816125b7565b82525050565b6060820160008201516125e660008501826125a8565b5060208201516125f960208501826125c1565b50604082015161260c60408501826125c1565b50505050565b600061261e83836125d0565b60608301905092915050565b6000602082019050919050565b60006126428261254a565b61264c8185612555565b935061265783612566565b8060005b8381101561268857815161266f8882612612565b975061267a8361262a565b92505060018101905061265b565b5085935050505092915050565b600060208201905081810360008301526126af8184612637565b905092915050565b600081519050919050565b600082825260208201905092915050565b6000819050602082019050919050565b600081519050919050565b600082825260208201905092915050565b60005b8381101561271d578082015181840152602081019050612702565b60008484015250505050565b6000601f19601f8301169050919050565b6000612745826126e3565b61274f81856126ee565b935061275f8185602086016126ff565b61276881612729565b840191505092915050565b7f4e487b7100000000000000000000000000000000000000000000000000000000600052602160045260246000fd5b600481106127b3576127b2612773565b5b50565b60008190506127c4826127a2565b919050565b60006127d4826127b6565b9050919050565b6127e4816127c9565b82525050565b60006080830160008301518482036000860152612807828261273a565b915050602083015161281c60208601826127db565b50604083015161282f60408601826125c1565b50606083015161284260608601826125c1565b508091505092915050565b600061285983836127ea565b905092915050565b6000602082019050919050565b6000612879826126b7565b61288381856126c2565b935083602082028501612895856126d3565b8060005b858110156128d157848403895281516128b2858261284d565b94506128bd83612861565b925060208a01995050600181019050612899565b50829750879550505050505092915050565b600060208201905081810360008301526128fd818461286e565b905092915050565b6000604051905090565b600080fd5b600080fd5b600080fd5b60006040828403121561293457612933612919565b5b81905092915050565b6000602082840312156129535761295261290f565b5b600082013567ffffffffffffffff81111561297157612970612914565b5b61297d8482850161291e565b91505092915050565b600081519050919050565b600082825260208201905092915050565b6000819050602082019050919050565b60006129be83836125a8565b60208301905092915050565b6000602082019050919050565b60006129e282612986565b6129ec8185612991565b93506129f7836129a2565b8060005b83811015612a28578151612a0f88826129b2565b9750612a1a836129ca565b9250506001810190506129fb565b5085935050505092915050565b60006020820190508181036000830152612a4f81846129d7565b905092915050565b600080fd5b7f4e487b7100000000000000000000000000000000000000000000000000000000600052604160045260246000fd5b612a9482612729565b810181811067ffffffffffffffff82111715612ab357612ab2612a5c565b5b80604052505050565b6000612ac6612905565b9050612ad28282612a8b565b919050565b600080fd5b600080fd5b600080fd5b600067ffffffffffffffff821115612b0157612b00612a5c565b5b612b0a82612729565b9050602081019050919050565b82818337600083830152505050565b6000612b39612b3484612ae6565b612abc565b905082815260208101848484011115612b5557612b54612ae1565b5b612b60848285612b17565b509392505050565b600082601f830112612b7d57612b7c612adc565b5b8135612b8d848260208601612b26565b91505092915050565b60048110612ba357600080fd5b50565b600081359050612bb581612b96565b92915050565b600060408284031215612bd157612bd0612a57565b5b612bdb6040612abc565b9050600082013567ffffffffffffffff811115612bfb57612bfa612ad7565b5b612c0784828501612b68565b6000830152506020612c1b84828501612ba6565b60208301525092915050565b600060208284031215612c3d57612c3c61290f565b5b600082013567ffffffffffffffff811115612c5b57612c5a612914565b5b612c6784828501612bbb565b91505092915050565b612c7981612596565b8114612c8457600080fd5b50565b600081359050612c9681612c70565b92915050565b612ca5816125b7565b8114612cb057600080fd5b50565b600081359050612cc281612c9c565b92915050565b60008060408385031215612cdf57612cde61290f565b5b6000612ced85828601612c87565b9250506020612cfe85828601612cb3565b9150509250929050565b600082825260208201905092915050565b6000612d24826126e3565b612d2e8185612d08565b9350612d3e8185602086016126ff565b612d4781612729565b840191505092915050565b612d5b816127c9565b82525050565b60006040820190508181036000830152612d7b8185612d19565b9050612d8a6020830184612d52565b9392505050565b612d9a816125b7565b82525050565b60008115159050919050565b612db581612da0565b82525050565b6000606082019050612dd06000830186612d91565b612ddd6020830185612d91565b612dea6040830184612dac565b949350505050565b60008060408385031215612e0957612e0861290f565b5b6000612e1785828601612ba6565b925050602083013567ffffffffffffffff811115612e3857612e37612914565b5b612e4485828601612b68565b9150509250929050565b612e5781612596565b82525050565b6000602082019050612e726000830184612e4e565b92915050565b600080600060608486031215612e9157612e9061290f565b5b6000612e9f86828701612ba6565b935050602084013567ffffffffffffffff811115612ec057612ebf612914565b5b612ecc86828701612b68565b9250506040612edd86828701612cb3565b9150509250925092565b600060208284031215612efd57612efc61290f565b5b6000612f0b84828501612c87565b91505092915050565b6000602082019050612f296000830184612dac565b92915050565b600081519050919050565b600082825260208201905092915050565b6000819050602082019050919050565b60006040830160008301518482036000860152612f78828261273a565b9150506020830151612f8d60208601826127db565b508091505092915050565b6000612fa48383612f5b565b905092915050565b6000602082019050919050565b6000612fc482612f2f565b612fce8185612f3a565b935083602082028501612fe085612f4b565b8060005b8581101561301c5784840389528151612ffd8582612f98565b945061300883612fac565b925060208a01995050600181019050612fe4565b50829750879550505050505092915050565b600060208201905081810360008301526130488184612fb9565b905092915050565b600081519050919050565b600082825260208201905092915050565b6000819050602082019050919050565b600061308883836125c1565b60208301905092915050565b6000602082019050919050565b60006130ac82613050565b6130b6818561305b565b93506130c18361306c565b8060005b838110156130f25781516130d9888261307c565b97506130e483613094565b9250506001810190506130c5565b5085935050505092915050565b6000604082019050818103600083015261311981856129d7565b9050818103602083015261312d81846130a1565b90509392505050565b60006020828403121561314c5761314b61290f565b5b600061315a84828501612cb3565b91505092915050565b60006020820190506131786000830184612d91565b92915050565b7f4e487b7100000000000000000000000000000000000000000000000000000000600052603260045260246000fd5b7f4e487b7100000000000000000000000000000000000000000000000000000000600052602260045260246000fd5b600060028204905060018216806131f457607f821691505b602082108103613207576132066131ad565b5b50919050565b600081905092915050565b6000613223826126e3565b61322d818561320d565b935061323d8185602086016126ff565b80840191505092915050565b60006132558284613218565b915081905092915050565b6000602082840312156132765761327561290f565b5b600061328484828501612ba6565b91505092915050565b600080fd5b600080fd5b600080fd5b600080833560016020038436030381126132b9576132b861328d565b5b80840192508235915067ffffffffffffffff8211156132db576132da613292565b5b6020830192506001820236038313156132f7576132f6613297565b5b509250929050565b600061330b838561320d565b9350613318838584612b17565b82840190509392505050565b60006133318284866132ff565b91508190509392505050565b7f496e76616c69642070726f766964657200000000000000000000000000000000600082015250565b6000613373601083612d08565b915061337e8261333d565b602082019050919050565b600060208201905081810360008301526133a281613366565b9050919050565b7f496e76616c696420616d6f756e74000000000000000000000000000000000000600082015250565b60006133df600e83612d08565b91506133ea826133a9565b602082019050919050565b6000602082019050818103600083015261340e816133d2565b9050919050565b7f50726f66696c6520616c726561647920636c61696d6564000000000000000000600082015250565b600061344b601783612d08565b915061345682613415565b602082019050919050565b6000602082019050818103600083015261347a8161343e565b9050919050565b7f4e487b7100000000000000000000000000000000000000000000000000000000600052601160045260246000fd5b60006134bb826125b7565b91506134c6836125b7565b92508282019050808211156134de576134dd613481565b5b92915050565b60008190508160005260206000209050919050565b60006020601f8301049050919050565b600082821b905092915050565b6000600883026135467fffffffffffffffffffffffffffffffffffffffffffffffffffffffffffffffff82613509565b6135508683613509565b95508019841693508086168417925050509392505050565b6000819050919050565b600061358d613588613583846125b7565b613568565b6125b7565b9050919050565b6000819050919050565b6135a783613572565b6135bb6135b382613594565b848454613516565b825550505050565b600090565b6135d06135c3565b6135db81848461359e565b505050565b5b818110156135ff576135f46000826135c8565b6001810190506135e1565b5050565b601f82111561364457613615816134e4565b61361e846134f9565b8101602085101561362d578190505b613641613639856134f9565b8301826135e0565b50505b505050565b600082821c905092915050565b600061366760001984600802613649565b1980831691505092915050565b60006136808383613656565b9150826002028217905092915050565b613699826126e3565b67ffffffffffffffff8111156136b2576136b1612a5c565b5b6136bc82546131dc565b6136c7828285613603565b600060209050601f8311600181146136fa57600084156136e8578287015190505b6136f28582613674565b86555061375a565b601f198416613708866134e4565b60005b828110156137305784890151825560018201915060208501945060208101905061370b565b8683101561374d5784890151613749601f891682613656565b8355505b6001600288020188555050505b505050505050565b600061376d826125b7565b91507fffffffffffffffffffffffffffffffffffffffffffffffffffffffffffffffff820361379f5761379e613481565b5b600182019050919050565b7f4e6f2062616c616e636520746f20636c61696d00000000000000000000000000600082015250565b60006137e0601383612d08565b91506137eb826137aa565b602082019050919050565b6000602082019050818103600083015261380f816137d3565b9050919050565b7f4f776e61626c653a206e6577206f776e657220697320746865207a65726f206160008201527f6464726573730000000000000000000000000000000000000000000000000000602082015250565b6000613872602683612d08565b915061387d82613816565b604082019050919050565b600060208201905081810360008301526138a181613865565b9050919050565b7f4f776e61626c653a2063616c6c6572206973206e6f7420746865206f776e6572600082015250565b60006138de602083612d08565b91506138e9826138a8565b602082019050919050565b6000602082019050818103600083015261390d816138d1565b905091905056fea264697066735822122071266b46a9f48241a0ff268bc12e5100f638baf135876a622defca324a5e847c64736f6c634300081b0033",
  "linkReferences": {},
  "deployedLinkReferences": {}
}