{
  "_format": "hh-sol-artifact-1",
  "contractName": "Registry",
  "sourceName": "contracts/Registry.sol",
  "abi": [
    {
      "anonymous": false,
      "inputs": [
        {
          "indexed": true,
          "internalType": "address",
          "name": "previousOwner",
          "type": "address"
        },
        {
          "indexed": true,
          "internalType": "address",
          "name": "newOwner",
          "type": "address"
        }
      ],
      "name": "OwnershipTransferred",
      "type": "event"
    },
    {
      "inputs": [
        {
          "internalType": "uint256",
          "name": "",
          "type": "uint256"
        }
      ],
      "name": "allProfiles",
      "outputs": [
        {
          "internalType": "string",
          "name": "id",
          "type": "string"
        },
        {
          "internalType": "enum Registry.Provider",
          "name": "provider",
          "type": "uint8"
        }
      ],
      "stateMutability": "view",
      "type": "function"
    },
    {
      "inputs": [
        {
          "components": [
            {
              "internalType": "string",
              "name": "id",
              "type": "string"
            },
            {
              "internalType": "enum Registry.Provider",
              "name": "provider",
              "type": "uint8"
            }
          ],
          "internalType": "struct Registry.Profile",
          "name": "profile",
          "type": "tuple"
        }
      ],
      "name": "claim",
      "outputs": [],
      "stateMutability": "nonpayable",
      "type": "function"
    },
    {
      "inputs": [
        {
          "components": [
            {
              "components": [
                {
                  "internalType": "string",
                  "name": "provider",
                  "type": "string"
                },
                {
                  "internalType": "string",
                  "name": "parameters",
                  "type": "string"
                },
                {
                  "internalType": "string",
                  "name": "context",
                  "type": "string"
                }
              ],
              "internalType": "struct Claims.ClaimInfo",
              "name": "claimInfo",
              "type": "tuple"
            },
            {
              "components": [
                {
                  "components": [
                    {
                      "internalType": "bytes32",
                      "name": "identifier",
                      "type": "bytes32"
                    },
                    {
                      "internalType": "address",
                      "name": "owner",
                      "type": "address"
                    },
                    {
                      "internalType": "uint32",
                      "name": "timestampS",
                      "type": "uint32"
                    },
                    {
                      "internalType": "uint32",
                      "name": "epoch",
                      "type": "uint32"
                    }
                  ],
                  "internalType": "struct Claims.CompleteClaimData",
                  "name": "claim",
                  "type": "tuple"
                },
                {
                  "internalType": "bytes[]",
                  "name": "signatures",
                  "type": "bytes[]"
                }
              ],
              "internalType": "struct Claims.SignedClaim",
              "name": "signedClaim",
              "type": "tuple"
            }
          ],
          "internalType": "struct Reclaim.Proof",
          "name": "proof",
          "type": "tuple"
        },
        {
          "components": [
            {
              "internalType": "string",
              "name": "id",
              "type": "string"
            },
            {
              "internalType": "enum Registry.Provider",
              "name": "provider",
              "type": "uint8"
            }
          ],
          "internalType": "struct Registry.Profile",
          "name": "profile",
          "type": "tuple"
        }
      ],
      "name": "claimWithProof",
      "outputs": [],
      "stateMutability": "nonpayable",
      "type": "function"
    },
    {
      "inputs": [
        {
          "internalType": "enum Registry.Provider",
          "name": "",
          "type": "uint8"
        },
        {
          "internalType": "string",
          "name": "",
          "type": "string"
        }
      ],
      "name": "claimed",
      "outputs": [
        {
          "internalType": "bool",
          "name": "",
          "type": "bool"
        }
      ],
      "stateMutability": "view",
      "type": "function"
    },
    {
      "inputs": [
        {
          "internalType": "enum Registry.Provider",
          "name": "",
          "type": "uint8"
        },
        {
          "internalType": "string",
          "name": "",
          "type": "string"
        }
      ],
      "name": "claimedAddress",
      "outputs": [
        {
          "internalType": "address",
          "name": "",
          "type": "address"
        }
      ],
      "stateMutability": "view",
      "type": "function"
    },
    {
      "inputs": [
        {
          "internalType": "address",
          "name": "inviteSender",
          "type": "address"
        }
      ],
      "name": "claimedInviteCountsOfSender",
      "outputs": [
        {
          "internalType": "uint256",
          "name": "",
          "type": "uint256"
        }
      ],
      "stateMutability": "view",
      "type": "function"
    },
    {
      "inputs": [
        {
          "internalType": "enum Registry.Provider",
          "name": "",
          "type": "uint8"
        },
        {
          "internalType": "string",
          "name": "id",
          "type": "string"
        }
      ],
      "name": "claimedInvitesByProfileCounts",
      "outputs": [
        {
          "internalType": "uint256",
          "name": "",
          "type": "uint256"
        }
      ],
      "stateMutability": "view",
      "type": "function"
    },
    {
      "inputs": [
        {
          "internalType": "address",
          "name": "claimerAddress",
          "type": "address"
        }
      ],
      "name": "claimedProfiles",
      "outputs": [
        {
          "internalType": "string",
          "name": "id",
          "type": "string"
        },
        {
          "internalType": "enum Registry.Provider",
          "name": "provider",
          "type": "uint8"
        }
      ],
      "stateMutability": "view",
      "type": "function"
    },
    {
      "inputs": [],
      "name": "getAddressesWithClaimedInvites",
      "outputs": [
        {
          "internalType": "address[]",
          "name": "",
          "type": "address[]"
        },
        {
          "internalType": "uint256[]",
          "name": "",
          "type": "uint256[]"
        }
      ],
      "stateMutability": "view",
      "type": "function"
    },
    {
      "inputs": [],
      "name": "getAddressesWithInviteCounts",
      "outputs": [
        {
          "internalType": "address[]",
          "name": "",
          "type": "address[]"
        },
        {
          "internalType": "uint256[]",
          "name": "",
          "type": "uint256[]"
        }
      ],
      "stateMutability": "view",
      "type": "function"
    },
    {
      "inputs": [],
      "name": "getInviteAndClaimedCounts",
      "outputs": [
        {
          "components": [
            {
              "internalType": "address",
              "name": "invitee",
              "type": "address"
            },
            {
              "internalType": "uint256",
              "name": "totalInvites",
              "type": "uint256"
            },
            {
              "internalType": "uint256",
              "name": "claimedInvites",
              "type": "uint256"
            }
          ],
          "internalType": "struct Registry.InviteeDetails[]",
          "name": "",
          "type": "tuple[]"
        }
      ],
      "stateMutability": "view",
      "type": "function"
    },
    {
      "inputs": [],
      "name": "getInvitedProfiles",
      "outputs": [
        {
          "components": [
            {
              "internalType": "string",
              "name": "id",
              "type": "string"
            },
            {
              "internalType": "enum Registry.Provider",
              "name": "provider",
              "type": "uint8"
            }
          ],
          "internalType": "struct Registry.Profile[]",
          "name": "",
          "type": "tuple[]"
        }
      ],
      "stateMutability": "view",
      "type": "function"
    },
    {
      "inputs": [],
      "name": "getInviters",
      "outputs": [
        {
          "components": [
            {
              "internalType": "string",
              "name": "id",
              "type": "string"
            },
            {
              "internalType": "enum Registry.Provider",
              "name": "provider",
              "type": "uint8"
            },
            {
              "internalType": "uint256",
              "name": "inviteCount",
              "type": "uint256"
            },
            {
              "internalType": "uint256",
              "name": "claimCount",
              "type": "uint256"
            }
          ],
          "internalType": "struct Registry.ProfileInviteDetails[]",
          "name": "",
          "type": "tuple[]"
        }
      ],
      "stateMutability": "view",
      "type": "function"
    },
    {
      "inputs": [
        {
          "internalType": "address",
          "name": "user",
          "type": "address"
        }
      ],
      "name": "getPoints",
      "outputs": [
        {
          "internalType": "uint256",
          "name": "",
          "type": "uint256"
        }
      ],
      "stateMutability": "view",
      "type": "function"
    },
    {
      "inputs": [
        {
          "components": [
            {
              "internalType": "string",
              "name": "id",
              "type": "string"
            },
            {
              "internalType": "enum Registry.Provider",
              "name": "provider",
              "type": "uint8"
            }
          ],
          "internalType": "struct Registry.Profile",
          "name": "profile",
          "type": "tuple"
        }
      ],
      "name": "getProfileBalanceAndInviteCount",
      "outputs": [
        {
          "internalType": "uint256",
          "name": "balance",
          "type": "uint256"
        },
        {
          "internalType": "uint256",
          "name": "inviteCount",
          "type": "uint256"
        },
        {
          "internalType": "bool",
          "name": "profileClaimed",
          "type": "bool"
        }
      ],
      "stateMutability": "view",
      "type": "function"
    },
    {
      "inputs": [
        {
          "internalType": "address",
          "name": "",
          "type": "address"
        }
      ],
      "name": "hasSentInvite",
      "outputs": [
        {
          "internalType": "bool",
          "name": "",
          "type": "bool"
        }
      ],
      "stateMutability": "view",
      "type": "function"
    },
    {
      "inputs": [
        {
          "components": [
            {
              "internalType": "string",
              "name": "id",
              "type": "string"
            },
            {
              "internalType": "enum Registry.Provider",
              "name": "provider",
              "type": "uint8"
            }
          ],
          "internalType": "struct Registry.Profile",
          "name": "profile",
          "type": "tuple"
        }
      ],
      "name": "invite",
      "outputs": [],
      "stateMutability": "payable",
      "type": "function"
    },
    {
      "inputs": [
        {
          "internalType": "address",
          "name": "inviteSender",
          "type": "address"
        }
      ],
      "name": "inviteCounts",
      "outputs": [
        {
          "internalType": "uint256",
          "name": "",
          "type": "uint256"
        }
      ],
      "stateMutability": "view",
      "type": "function"
    },
    {
      "inputs": [
        {
          "internalType": "uint256",
          "name": "",
          "type": "uint256"
        }
      ],
      "name": "inviteSenders",
      "outputs": [
        {
          "internalType": "address",
          "name": "",
          "type": "address"
        }
      ],
      "stateMutability": "view",
      "type": "function"
    },
    {
      "inputs": [
        {
          "internalType": "address",
          "name": "inviteSender",
          "type": "address"
        },
        {
          "internalType": "uint256",
          "name": "",
          "type": "uint256"
        }
      ],
      "name": "invitedProfiles",
      "outputs": [
        {
          "internalType": "string",
          "name": "id",
          "type": "string"
        },
        {
          "internalType": "enum Registry.Provider",
          "name": "provider",
          "type": "uint8"
        }
      ],
      "stateMutability": "view",
      "type": "function"
    },
    {
      "inputs": [
        {
          "internalType": "enum Registry.Provider",
          "name": "",
          "type": "uint8"
        },
        {
          "internalType": "string",
          "name": "id",
          "type": "string"
        },
        {
          "internalType": "uint256",
          "name": "",
          "type": "uint256"
        }
      ],
      "name": "inviters",
      "outputs": [
        {
          "internalType": "address",
          "name": "",
          "type": "address"
        }
      ],
      "stateMutability": "view",
      "type": "function"
    },
    {
      "inputs": [],
      "name": "owner",
      "outputs": [
        {
          "internalType": "address",
          "name": "",
          "type": "address"
        }
      ],
      "stateMutability": "view",
      "type": "function"
    },
    {
      "inputs": [
        {
          "internalType": "address",
          "name": "",
          "type": "address"
        }
      ],
      "name": "points",
      "outputs": [
        {
          "internalType": "uint256",
          "name": "",
          "type": "uint256"
        }
      ],
      "stateMutability": "view",
      "type": "function"
    },
    {
      "inputs": [],
      "name": "reclaimContract",
      "outputs": [
        {
          "internalType": "contract Reclaim",
          "name": "",
          "type": "address"
        }
      ],
      "stateMutability": "view",
      "type": "function"
    },
    {
      "inputs": [
        {
          "internalType": "enum Registry.Provider",
          "name": "",
          "type": "uint8"
        },
        {
          "internalType": "string",
          "name": "",
          "type": "string"
        }
      ],
      "name": "registry",
      "outputs": [
        {
          "internalType": "uint256",
          "name": "",
          "type": "uint256"
        }
      ],
      "stateMutability": "view",
      "type": "function"
    },
    {
      "inputs": [],
      "name": "renounceOwnership",
      "outputs": [],
      "stateMutability": "nonpayable",
      "type": "function"
    },
    {
      "inputs": [],
      "name": "resetRegistry",
      "outputs": [],
      "stateMutability": "nonpayable",
      "type": "function"
    },
    {
      "inputs": [],
      "name": "totalProfilesCount",
      "outputs": [
        {
          "internalType": "uint256",
          "name": "",
          "type": "uint256"
        }
      ],
      "stateMutability": "view",
      "type": "function"
    },
    {
      "inputs": [
        {
          "internalType": "address",
          "name": "newOwner",
          "type": "address"
        }
      ],
      "name": "transferOwnership",
      "outputs": [],
      "stateMutability": "nonpayable",
      "type": "function"
    },
    {
      "inputs": [
        {
          "internalType": "address",
          "name": "",
          "type": "address"
        },
        {
          "internalType": "enum Registry.Provider",
          "name": "",
          "type": "uint8"
        }
      ],
      "name": "userProfiles",
      "outputs": [
        {
          "internalType": "string",
          "name": "id",
          "type": "string"
        }
      ],
      "stateMutability": "view",
      "type": "function"
    }
  ],
  "bytecode": "0x6080604052600180546001600160a01b03191673f90085f5fd1a3beb8678623409b3811ecec5f6a51790556000600255348015603a57600080fd5b506042336046565b6096565b600080546001600160a01b038381166001600160a01b0319831681178455604051919092169283917f8be0079c531659141344cd1fd0a4f28419497f9722a3daafe3b4186f6b6457e09190a35050565b613395806100a56000396000f3fe6080604052600436106101cd5760003560e01c80636fa00395116100f7578063c8c953d511610095578063ee204abb11610064578063ee204abb14610623578063f2fde38b14610659578063f44910b114610679578063f74a71df146106c257600080fd5b8063c8c953d514610594578063d2d048f1146105a9578063de2dd221146105d6578063df39ecfd1461060357600080fd5b80637b412bdb116100d15780637b412bdb146104e75780638da5cb5b1461050a578063c594975514610528578063c5dc9aa11461054857600080fd5b80636fa003951461049a578063715018a6146104b05780637685bbff146104c557600080fd5b8063358b81661161016f5780635cc9318d1161013e5780635cc9318d146103c45780636d5fbd5e1461040d5780636dffca651461042d5780636ee14c6c1461045a57600080fd5b8063358b8166146103295780633a2e9ad5146103645780634483b1f5146103845780635a297837146103a457600080fd5b80631a6a57f4116101ab5780631a6a57f4146102405780631e0289f51461026257806326d6403b1461029f5780632788e5a31461030957600080fd5b80630420f236146101d2578063124bf2a3146101fd57806313b2138414610212575b600080fd5b3480156101de57600080fd5b506101e76106d7565b6040516101f491906126dd565b60405180910390f35b61021061020b3660046128ec565b6107f3565b005b34801561021e57600080fd5b5061023261022d36600461293f565b610cdb565b6040516101f49291906129f1565b34801561024c57600080fd5b50610255610da7565b6040516101f49190612a13565b34801561026e57600080fd5b5061028261027d3660046128ec565b611042565b6040805193845260208401929092521515908201526060016101f4565b3480156102ab57600080fd5b506102f16102ba366004612aaa565b600560209081526000928352604090922081518083018401805192815290840192909301919091209152546001600160a01b031681565b6040516001600160a01b0390911681526020016101f4565b34801561031557600080fd5b50610210610324366004612c63565b611171565b34801561033557600080fd5b50610356610344366004612da9565b60106020526000908152604090205481565b6040519081526020016101f4565b34801561037057600080fd5b5061021061037f3660046128ec565b61170f565b34801561039057600080fd5b506001546102f1906001600160a01b031681565b3480156103b057600080fd5b506102f16103bf366004612dc4565b611bd5565b3480156103d057600080fd5b506103566103df366004612aaa565b600a602090815260009283526040909220815180830184018051928152908401929093019190912091525481565b34801561041957600080fd5b50610232610428366004612da9565b611c29565b34801561043957600080fd5b5061044d610448366004612e1b565b611c44565b6040516101f49190612e4e565b34801561046657600080fd5b5061048a610475366004612da9565b600f6020526000908152604090205460ff1681565b60405190151581526020016101f4565b3480156104a657600080fd5b5061035660025481565b3480156104bc57600080fd5b50610210611ce9565b3480156104d157600080fd5b506104da611cfd565b6040516101f49190612e61565b3480156104f357600080fd5b506104fc611e2c565b6040516101f4929190612edb565b34801561051657600080fd5b506000546001600160a01b03166102f1565b34801561053457600080fd5b506102f1610543366004612f66565b611f8a565b34801561055457600080fd5b5061048a610563366004612aaa565b6004602090815260009283526040909220815180830184018051928152908401929093019190912091525460ff1681565b3480156105a057600080fd5b506104fc611fb4565b3480156105b557600080fd5b506103566105c4366004612da9565b60096020526000908152604090205481565b3480156105e257600080fd5b506103566105f1366004612da9565b60086020526000908152604090205481565b34801561060f57600080fd5b5061023261061e366004612f66565b612107565b34801561062f57600080fd5b5061035661063e366004612da9565b6001600160a01b031660009081526010602052604090205490565b34801561066557600080fd5b50610210610674366004612da9565b61213a565b34801561068557600080fd5b50610356610694366004612aaa565b6003602090815260009283526040909220815180830184018051928152908401929093019190912091525481565b3480156106ce57600080fd5b506102106121b0565b600d546060906000816001600160401b038111156106f7576106f7612742565b60405190808252806020026020018201604052801561075557816020015b610742604051806060016040528060006001600160a01b0316815260200160008152602001600081525090565b8152602001906001900390816107155790505b50905060005b828110156107ec576000600d828154811061077857610778612f7f565b6000918252602080832090910154604080516060810182526001600160a01b03909216808352808552600884528185205483850152808552600990935292839020549281019290925284519092508490849081106107d8576107d8612f7f565b60209081029190910101525060010161075b565b5092915050565b60008160200151600381111561080b5761080b6129b9565b148061082c575060018160200151600381111561082a5761082a6129b9565b145b8061084c575060028160200151600381111561084a5761084a6129b9565b145b8061086c575060038160200151600381111561086a5761086a6129b9565b145b6108b05760405162461bcd60e51b815260206004820152601060248201526f24b73b30b634b210383937bb34b232b960811b60448201526064015b60405180910390fd5b34655af3107a4000146108f65760405162461bcd60e51b815260206004820152600e60248201526d125b9d985b1a5908185b5bdd5b9d60921b60448201526064016108a7565b6004600082602001516003811115610910576109106129b9565b6003811115610921576109216129b9565b815260200190815260200160002081600001516040516109419190612f95565b9081526040519081900360200190205460ff16156109715760405162461bcd60e51b81526004016108a790612fb1565b34600360008360200151600381111561098c5761098c6129b9565b600381111561099d5761099d6129b9565b815260200190815260200160002082600001516040516109bd9190612f95565b908152602001604051809103902060008282546109da9190612ffe565b92505081905550600060046000836020015160038111156109fd576109fd6129b9565b6003811115610a0e57610a0e6129b9565b81526020019081526020016000208260000151604051610a2e9190612f95565b908152602001604051809103902060006101000a81548160ff021916908315150217905550600b600082602001516003811115610a6d57610a6d6129b9565b6003811115610a7e57610a7e6129b9565b81526020019081526020016000208160000151604051610a9e9190612f95565b908152604080516020928190038301902080546001808201835560009283528483209091018054336001600160a01b031990911681179091558252600784529181208054928301815581529190912082518392600202909101908190610b049082613094565b50602082015160018083018054909160ff1990911690836003811115610b2c57610b2c6129b9565b0217905550503360009081526008602052604081208054925090610b4f83613152565b9091555050336000908152601060205260408120805460c89290610b74908490612ffe565b9091555050336000908152600f602052604090205460ff16610beb57600d805460018181019092557fd7b6990105719101dabeb77144f2a3385c8033acd3af97e9423a695e81ad1eb50180546001600160a01b031916339081179091556000908152600f60205260409020805460ff191690911790555b600b600082602001516003811115610c0557610c056129b9565b6003811115610c1657610c166129b9565b81526020019081526020016000208160000151604051610c369190612f95565b90815260405190819003602001902054600103610cd85760028054906000610c5d83613152565b9091555050600e8054600181018255600091909152815182916002027fbb7b4a454dc3493923482f07822329ed19e8244eff582cc204f8554c3620c3fd01908190610ca89082613094565b50602082015160018083018054909160ff1990911690836003811115610cd057610cd06129b9565b021790555050505b50565b60076020528160005260406000208181548110610cf757600080fd5b906000526020600020906002020160009150915050806000018054610d1b90613011565b80601f0160208091040260200160405190810160405280929190818152602001828054610d4790613011565b8015610d945780601f10610d6957610100808354040283529160200191610d94565b820191906000526020600020905b815481529060010190602001808311610d7757829003601f168201915b5050506001909301549192505060ff1682565b606060006002546001600160401b03811115610dc557610dc5612742565b604051908082528060200260200182016040528015610e2257816020015b610e0f604080516080810190915260608152602081016000815260200160008152602001600081525090565b815260200190600190039081610de35790505b50905060005b60025481101561103c576000600e8281548110610e4757610e47612f7f565b9060005260206000209060020201604051806040016040529081600082018054610e7090613011565b80601f0160208091040260200160405190810160405280929190818152602001828054610e9c90613011565b8015610ee95780601f10610ebe57610100808354040283529160200191610ee9565b820191906000526020600020905b815481529060010190602001808311610ecc57829003601f168201915b5050509183525050600182015460209091019060ff166003811115610f1057610f106129b9565b6003811115610f2157610f216129b9565b81525050905060405180608001604052808260000151815260200182602001516003811115610f5257610f526129b9565b8152602001600b600084602001516003811115610f7157610f716129b9565b6003811115610f8257610f826129b9565b81526020019081526020016000208360000151604051610fa29190612f95565b9081526020016040518091039020805490508152602001600a600084602001516003811115610fd357610fd36129b9565b6003811115610fe457610fe46129b9565b815260200190815260200160002083600001516040516110049190612f95565b90815260200160405180910390205481525083838151811061102857611028612f7f565b602090810291909101015250600101610e28565b50919050565b60008060006003600085602001516003811115611061576110616129b9565b6003811115611072576110726129b9565b815260200190815260200160002084600001516040516110929190612f95565b908152602001604051809103902054925060046000856020015160038111156110bd576110bd6129b9565b60038111156110ce576110ce6129b9565b815260200190815260200160002084600001516040516110ee9190612f95565b908152602001604051809103902060009054906101000a900460ff169050600b600085602001516003811115611126576111266129b9565b6003811115611137576111376129b9565b815260200190815260200160002084600001516040516111579190612f95565b908152604051908190036020019020549294929350919050565b600460008260200151600381111561118b5761118b6129b9565b600381111561119c5761119c6129b9565b815260200190815260200160002081600001516040516111bc9190612f95565b9081526040519081900360200190205460ff16156111ec5760405162461bcd60e51b81526004016108a790612fb1565b60015482516040908101519051631baab33f60e11b81526000926001600160a01b031691633755667e91611223919060040161316b565b600060405180830381865afa158015611240573d6000803e3d6000fd5b505050506040513d6000823e601f3d908101601f1916820160405261126891908101906131a8565b9050600061127a8284600001516124d1565b9050806112c95760405162461bcd60e51b815260206004820152601d60248201527f4461746120646f65736e2774206d6174636820776974682070726f6f6600000060448201526064016108a7565b6001546040516354b0734f60e11b81526000916001600160a01b03169063a960e69e906112fa90889060040161321e565b6020604051808303816000875af1158015611319573d6000803e3d6000fd5b505050506040513d601f19601f8201168201806040525081019061133d919061333d565b90508061137c5760405162461bcd60e51b815260206004820152600d60248201526c24b73b30b634b210283937b7b360991b60448201526064016108a7565b60006003600086602001516003811115611398576113986129b9565b60038111156113a9576113a96129b9565b815260200190815260200160002085600001516040516113c99190612f95565b9081526020016040518091039020549050600081116114205760405162461bcd60e51b81526020600482015260136024820152724e6f2062616c616e636520746f20636c61696d60681b60448201526064016108a7565b604051339082156108fc029083906000818181858888f1935050505015801561144d573d6000803e3d6000fd5b506000600360008760200151600381111561146a5761146a6129b9565b600381111561147b5761147b6129b9565b8152602001908152602001600020866000015160405161149b9190612f95565b908152602001604051809103902081905550600160046000876020015160038111156114c9576114c96129b9565b60038111156114da576114da6129b9565b815260200190815260200160002086600001516040516114fa9190612f95565b908152602001604051809103902060006101000a81548160ff0219169083151502179055506000600b60008760200151600381111561153b5761153b6129b9565b600381111561154c5761154c6129b9565b8152602001908152602001600020866000015160405161156c9190612f95565b90815260200160405180910390208054905090506000600b60008860200151600381111561159c5761159c6129b9565b60038111156115ad576115ad6129b9565b815260200190815260200160002087600001516040516115cd9190612f95565b908152604080519182900360209081018320805480830285018301909352828452919083018282801561162957602002820191906000526020600020905b81546001600160a01b0316815260019091019060200180831161160b575b5050505050905060005b82811015611697576009600083838151811061165157611651612f7f565b60200260200101516001600160a01b03166001600160a01b03168152602001908152602001600020600081548092919061168a90613152565b9091555050600101611633565b50600a6000886020015160038111156116b2576116b26129b9565b60038111156116c3576116c36129b9565b815260200190815260200160002087600001516040516116e39190612f95565b908152604051908190036020019020805490600061170083613152565b91905055505050505050505050565b6004600082602001516003811115611729576117296129b9565b600381111561173a5761173a6129b9565b8152602001908152602001600020816000015160405161175a9190612f95565b9081526040519081900360200190205460ff161561178a5760405162461bcd60e51b81526004016108a790612fb1565b600060036000836020015160038111156117a6576117a66129b9565b60038111156117b7576117b76129b9565b815260200190815260200160002082600001516040516117d79190612f95565b90815260200160405180910390205490506000811161182e5760405162461bcd60e51b81526020600482015260136024820152724e6f2062616c616e636520746f20636c61696d60681b60448201526064016108a7565b604051339082156108fc029083906000818181858888f1935050505015801561185b573d6000803e3d6000fd5b5060006003600084602001516003811115611878576118786129b9565b6003811115611889576118896129b9565b815260200190815260200160002083600001516040516118a99190612f95565b908152602001604051809103902081905550600160046000846020015160038111156118d7576118d76129b9565b60038111156118e8576118e86129b9565b815260200190815260200160002083600001516040516119089190612f95565b908152602001604051809103902060006101000a81548160ff0219169083151502179055506000600b600084602001516003811115611949576119496129b9565b600381111561195a5761195a6129b9565b8152602001908152602001600020836000015160405161197a9190612f95565b90815260405190819003602001902054905060005b81811015611a49576101f460106000600b6000886020015160038111156119b8576119b86129b9565b60038111156119c9576119c96129b9565b815260200190815260200160002087600001516040516119e99190612f95565b90815260200160405180910390208481548110611a0857611a08612f7f565b60009182526020808320909101546001600160a01b0316835282019290925260400181208054909190611a3c908490612ffe565b909155505060010161198f565b506000600b600085602001516003811115611a6657611a666129b9565b6003811115611a7757611a776129b9565b81526020019081526020016000208460000151604051611a979190612f95565b9081526040805191829003602090810183208054808302850183019093528284529190830182828015611af357602002820191906000526020600020905b81546001600160a01b03168152600190910190602001808311611ad5575b5050505050905060005b82811015611b615760096000838381518110611b1b57611b1b612f7f565b60200260200101516001600160a01b03166001600160a01b031681526020019081526020016000206000815480929190611b5490613152565b9091555050600101611afd565b50600a600085602001516003811115611b7c57611b7c6129b9565b6003811115611b8d57611b8d6129b9565b81526020019081526020016000208460000151604051611bad9190612f95565b9081526040519081900360200190208054906000611bca83613152565b919050555050505050565b600b6020908152600084815260409020835180850183018051928152908301928501929092209152805482908110611c0c57600080fd5b6000918252602090912001546001600160a01b0316925083915050565b600660205260009081526040902080548190610d1b90613011565b600c60209081526000928352604080842090915290825290208054611c6890613011565b80601f0160208091040260200160405190810160405280929190818152602001828054611c9490613011565b8015611ce15780601f10611cb657610100808354040283529160200191611ce1565b820191906000526020600020905b815481529060010190602001808311611cc457829003601f168201915b505050505081565b611cf1612578565b611cfb60006125d2565b565b336000908152600760209081526040808320805482518185028101850190935280835260609492939192909184015b82821015611e235783829060005260206000209060020201604051806040016040529081600082018054611d5f90613011565b80601f0160208091040260200160405190810160405280929190818152602001828054611d8b90613011565b8015611dd85780601f10611dad57610100808354040283529160200191611dd8565b820191906000526020600020905b815481529060010190602001808311611dbb57829003601f168201915b5050509183525050600182015460209091019060ff166003811115611dff57611dff6129b9565b6003811115611e1057611e106129b9565b8152505081526020019060010190611d2c565b50505050905090565b600d5460609081906000816001600160401b03811115611e4e57611e4e612742565b604051908082528060200260200182016040528015611e77578160200160208202803683370190505b5090506000826001600160401b03811115611e9457611e94612742565b604051908082528060200260200182016040528015611ebd578160200160208202803683370190505b50905060005b83811015611f7f576000600d8281548110611ee057611ee0612f7f565b9060005260206000200160009054906101000a90046001600160a01b0316905080848381518110611f1357611f13612f7f565b60200260200101906001600160a01b031690816001600160a01b03168152505060086000826001600160a01b03166001600160a01b0316815260200190815260200160002054838381518110611f6b57611f6b612f7f565b602090810291909101015250600101611ec3565b509094909350915050565b600d8181548110611f9a57600080fd5b6000918252602090912001546001600160a01b0316905081565b600d5460609081906000816001600160401b03811115611fd657611fd6612742565b604051908082528060200260200182016040528015611fff578160200160208202803683370190505b5090506000826001600160401b0381111561201c5761201c612742565b604051908082528060200260200182016040528015612045578160200160208202803683370190505b50905060005b83811015611f7f576000600d828154811061206857612068612f7f565b9060005260206000200160009054906101000a90046001600160a01b031690508084838151811061209b5761209b612f7f565b60200260200101906001600160a01b031690816001600160a01b03168152505060096000826001600160a01b03166001600160a01b03168152602001908152602001600020548383815181106120f3576120f3612f7f565b60209081029190910101525060010161204b565b600e818154811061211757600080fd5b9060005260206000209060020201600091509050806000018054610d1b90613011565b612142612578565b6001600160a01b0381166121a75760405162461bcd60e51b815260206004820152602660248201527f4f776e61626c653a206e6577206f776e657220697320746865207a65726f206160448201526564647265737360d01b60648201526084016108a7565b610cd8816125d2565b6121b8612578565b60005b600d54811015612247576000600d82815481106121da576121da612f7f565b60009182526020808320909101546001600160a01b031680835260079091526040822090925061220991612622565b6001600160a01b0316600090815260086020908152604080832083905560098252808320839055600f9091529020805460ff191690556001016121bb565b50612254600d6000612643565b60005b6004811015610cd8576000816003811115612274576122746129b9565b905060005b600d548110156124c7576000600d828154811061229857612298612f7f565b60009182526020808320909101546001600160a01b031680835260078252604080842080548251818602810186019093528083529295509092909190849084015b828210156123d0578382906000526020600020906002020160405180604001604052908160008201805461230c90613011565b80601f016020809104026020016040519081016040528092919081815260200182805461233890613011565b80156123855780601f1061235a57610100808354040283529160200191612385565b820191906000526020600020905b81548152906001019060200180831161236857829003601f168201915b5050509183525050600182015460209091019060ff1660038111156123ac576123ac6129b9565b60038111156123bd576123bd6129b9565b81525050815260200190600101906122d9565b50505050905060005b81518110156124bc5760008282815181106123f6576123f6612f7f565b60200260200101516000015190506003600087600381111561241a5761241a6129b9565b600381111561242b5761242b6129b9565b8152602001908152602001600020816040516124479190612f95565b9081526020016040518091039020600090556004600087600381111561246f5761246f6129b9565b6003811115612480576124806129b9565b81526020019081526020016000208160405161249c9190612f95565b908152604051908190036020019020805460ff19169055506001016123d9565b505050600101612279565b5050600101612257565b8051825160009184918491146124ec57600092505050612572565b6000805b82518110156125695782818151811061250b5761250b612f7f565b01602001516001600160f81b031916846125258385612ffe565b8151811061253557612535612f7f565b01602001516001600160f81b03191614612556576000945050505050612572565b61255f82613152565b91506001016124f0565b50600193505050505b92915050565b6000546001600160a01b03163314611cfb5760405162461bcd60e51b815260206004820181905260248201527f4f776e61626c653a2063616c6c6572206973206e6f7420746865206f776e657260448201526064016108a7565b600080546001600160a01b038381166001600160a01b0319831681178455604051919092169283917f8be0079c531659141344cd1fd0a4f28419497f9722a3daafe3b4186f6b6457e09190a35050565b5080546000825560020290600052602060002090810190610cd89190612661565b5080546000825590600052602060002090810190610cd8919061268e565b8082111561268a57600061267582826126a3565b5060018101805460ff19169055600201612661565b5090565b5b8082111561268a576000815560010161268f565b5080546126af90613011565b6000825580601f106126bf575050565b601f016020900490600052602060002090810190610cd8919061268e565b602080825282518282018190526000918401906040840190835b8181101561273757835180516001600160a01b031684526020808201518186015260409182015191850191909152909301926060909201916001016126f7565b509095945050505050565b634e487b7160e01b600052604160045260246000fd5b604080519081016001600160401b038111828210171561277a5761277a612742565b60405290565b604051608081016001600160401b038111828210171561277a5761277a612742565b604051606081016001600160401b038111828210171561277a5761277a612742565b604051601f8201601f191681016001600160401b03811182821017156127ec576127ec612742565b604052919050565b60006001600160401b0382111561280d5761280d612742565b50601f01601f191660200190565b600061282e612829846127f4565b6127c4565b905082815283838301111561284257600080fd5b828260208301376000602084830101529392505050565b600082601f83011261286a57600080fd5b6128798383356020850161281b565b9392505050565b80356004811061288f57600080fd5b919050565b6000604082840312156128a657600080fd5b6128ae612758565b905081356001600160401b038111156128c657600080fd5b6128d284828501612859565b8252506128e160208301612880565b602082015292915050565b6000602082840312156128fe57600080fd5b81356001600160401b0381111561291457600080fd5b61292084828501612894565b949350505050565b80356001600160a01b038116811461288f57600080fd5b6000806040838503121561295257600080fd5b61295b83612928565b946020939093013593505050565b60005b8381101561298457818101518382015260200161296c565b50506000910152565b600081518084526129a5816020860160208601612969565b601f01601f19169290920160200192915050565b634e487b7160e01b600052602160045260246000fd5b600481106129ed57634e487b7160e01b600052602160045260246000fd5b9052565b604081526000612a04604083018561298d565b905061287960208301846129cf565b6000602082016020835280845180835260408501915060408160051b86010192506020860160005b82811015612a9e57603f198786030184528151805160808752612a61608088018261298d565b90506020820151612a7560208901826129cf565b506040828101519088015260609182015191909601526020938401939190910190600101612a3b565b50929695505050505050565b60008060408385031215612abd57600080fd5b612ac683612880565b915060208301356001600160401b03811115612ae157600080fd5b612aed85828601612859565b9150509250929050565b803563ffffffff8116811461288f57600080fd5b600082601f830112612b1c57600080fd5b81356001600160401b03811115612b3557612b35612742565b8060051b612b45602082016127c4565b91825260208185018101929081019086841115612b6157600080fd5b6020860192505b83831015612bbb5782356001600160401b03811115612b8657600080fd5b8601603f81018813612b9757600080fd5b612ba98860208301356040840161281b565b83525060209283019290910190612b68565b9695505050505050565b600081830360a0811215612bd857600080fd5b612be0612758565b91506080811215612bf057600080fd5b50612bf9612780565b82358152612c0960208401612928565b6020820152612c1a60408401612af7565b6040820152612c2b60608401612af7565b6060820152815260808201356001600160401b03811115612c4b57600080fd5b612c5784828501612b0b565b60208301525092915050565b60008060408385031215612c7657600080fd5b82356001600160401b03811115612c8c57600080fd5b830160408186031215612c9e57600080fd5b612ca6612758565b81356001600160401b03811115612cbc57600080fd5b820160608188031215612cce57600080fd5b612cd66127a2565b81356001600160401b03811115612cec57600080fd5b612cf889828501612859565b82525060208201356001600160401b03811115612d1457600080fd5b612d2089828501612859565b60208301525060408201356001600160401b03811115612d3f57600080fd5b612d4b89828501612859565b60408301525082525060208201356001600160401b03811115612d6d57600080fd5b612d7987828501612bc5565b602083015250809350505060208301356001600160401b03811115612d9d57600080fd5b612aed85828601612894565b600060208284031215612dbb57600080fd5b61287982612928565b600080600060608486031215612dd957600080fd5b612de284612880565b925060208401356001600160401b03811115612dfd57600080fd5b612e0986828701612859565b93969395505050506040919091013590565b60008060408385031215612e2e57600080fd5b612e3783612928565b9150612e4560208401612880565b90509250929050565b602081526000612879602083018461298d565b6000602082016020835280845180835260408501915060408160051b86010192506020860160005b82811015612a9e57603f198786030184528151805160408752612eaf604088018261298d565b905060208201519150612ec560208801836129cf565b9550506020938401939190910190600101612e89565b6040808252835190820181905260009060208501906060840190835b81811015612f1e5783516001600160a01b0316835260209384019390920191600101612ef7565b50508381036020808601919091528551808352918101925085019060005b81811015612f5a578251845260209384019390920191600101612f3c565b50919695505050505050565b600060208284031215612f7857600080fd5b5035919050565b634e487b7160e01b600052603260045260246000fd5b60008251612fa7818460208701612969565b9190910192915050565b60208082526017908201527f50726f66696c6520616c726561647920636c61696d6564000000000000000000604082015260600190565b634e487b7160e01b600052601160045260246000fd5b8082018082111561257257612572612fe8565b600181811c9082168061302557607f821691505b60208210810361103c57634e487b7160e01b600052602260045260246000fd5b601f82111561308f57806000526020600020601f840160051c8101602085101561306c5750805b601f840160051c820191505b8181101561308c5760008155600101613078565b50505b505050565b81516001600160401b038111156130ad576130ad612742565b6130c1816130bb8454613011565b84613045565b6020601f8211600181146130f557600083156130dd5750848201515b600019600385901b1c1916600184901b17845561308c565b600084815260208120601f198516915b828110156131255787850151825560209485019460019092019101613105565b50848210156131435786840151600019600387901b60f8161c191681555b50505050600190811b01905550565b60006001820161316457613164612fe8565b5060010190565b60408152600061317e604083018461298d565b82810360208401526008815267757365726e616d6560c01b60208201526040810191505092915050565b6000602082840312156131ba57600080fd5b81516001600160401b038111156131d057600080fd5b8201601f810184136131e157600080fd5b80516131ef612829826127f4565b81815285602083850101111561320457600080fd5b613215826020830160208601612969565b95945050505050565b602081526000825160406020840152805160608085015261324260c085018261298d565b90506020820151605f1985830301608086015261325f828261298d565b91505060408201519150605f198482030160a085015261327f818361298d565b9150506020840151601f1984830301604085015260a0820181518051845260018060a01b03602082015116602085015263ffffffff604082015116604085015263ffffffff6060820151166060850152506020820151915060a0608084015280825180835260c08501915060c08160051b860101925060208401935060005b818110156133305760bf1986850301835261331a84865161298d565b60209586019590945092909201916001016132fe565b5091979650505050505050565b60006020828403121561334f57600080fd5b8151801515811461287957600080fdfea2646970667358221220979be2b7d9be56a1da5b98b5b6a4da6f014e99db5f4382ca6b091fe01e484d4864736f6c634300081b0033",
  "linkReferences": {},
  "deployedLinkReferences": {}
}