{
  "_format": "hh-sol-artifact-1",
  "contractName": "Registry",
  "sourceName": "contracts/Registry.sol",
  "abi": [
    {
      "anonymous": false,
      "inputs": [
        {
          "indexed": true,
          "internalType": "address",
          "name": "previousOwner",
          "type": "address"
        },
        {
          "indexed": true,
          "internalType": "address",
          "name": "newOwner",
          "type": "address"
        }
      ],
      "name": "OwnershipTransferred",
      "type": "event"
    },
    {
      "inputs": [
        {
          "components": [
            {
              "internalType": "string",
              "name": "id",
              "type": "string"
            },
            {
              "internalType": "enum Registry.Provider",
              "name": "provider",
              "type": "uint8"
            }
          ],
          "internalType": "struct Registry.Profile",
          "name": "profile",
          "type": "tuple"
        }
      ],
      "name": "claim",
      "outputs": [],
      "stateMutability": "nonpayable",
      "type": "function"
    },
    {
      "inputs": [
        {
          "internalType": "enum Registry.Provider",
          "name": "",
          "type": "uint8"
        },
        {
          "internalType": "string",
          "name": "",
          "type": "string"
        }
      ],
      "name": "claimed",
      "outputs": [
        {
          "internalType": "bool",
          "name": "",
          "type": "bool"
        }
      ],
      "stateMutability": "view",
      "type": "function"
    },
    {
      "inputs": [
        {
          "internalType": "enum Registry.Provider",
          "name": "",
          "type": "uint8"
        },
        {
          "internalType": "string",
          "name": "",
          "type": "string"
        }
      ],
      "name": "claimedAddress",
      "outputs": [
        {
          "internalType": "address",
          "name": "",
          "type": "address"
        }
      ],
      "stateMutability": "view",
      "type": "function"
    },
    {
      "inputs": [
        {
          "internalType": "address",
          "name": "inviteSender",
          "type": "address"
        }
      ],
      "name": "claimedInviteCountsOfSender",
      "outputs": [
        {
          "internalType": "uint256",
          "name": "",
          "type": "uint256"
        }
      ],
      "stateMutability": "view",
      "type": "function"
    },
    {
      "inputs": [
        {
          "internalType": "enum Registry.Provider",
          "name": "",
          "type": "uint8"
        },
        {
          "internalType": "string",
          "name": "id",
          "type": "string"
        }
      ],
      "name": "claimedInvitesByProfileCounts",
      "outputs": [
        {
          "internalType": "uint256",
          "name": "",
          "type": "uint256"
        }
      ],
      "stateMutability": "view",
      "type": "function"
    },
    {
      "inputs": [
        {
          "internalType": "address",
          "name": "claimerAddress",
          "type": "address"
        }
      ],
      "name": "claimedProfiles",
      "outputs": [
        {
          "internalType": "string",
          "name": "id",
          "type": "string"
        },
        {
          "internalType": "enum Registry.Provider",
          "name": "provider",
          "type": "uint8"
        }
      ],
      "stateMutability": "view",
      "type": "function"
    },
    {
      "inputs": [],
      "name": "getAddressesWithClaimedInvites",
      "outputs": [
        {
          "internalType": "address[]",
          "name": "",
          "type": "address[]"
        },
        {
          "internalType": "uint256[]",
          "name": "",
          "type": "uint256[]"
        }
      ],
      "stateMutability": "view",
      "type": "function"
    },
    {
      "inputs": [],
      "name": "getAddressesWithInviteCounts",
      "outputs": [
        {
          "internalType": "address[]",
          "name": "",
          "type": "address[]"
        },
        {
          "internalType": "uint256[]",
          "name": "",
          "type": "uint256[]"
        }
      ],
      "stateMutability": "view",
      "type": "function"
    },
    {
      "inputs": [],
      "name": "getInviteAndClaimedCounts",
      "outputs": [
        {
          "components": [
            {
              "internalType": "address",
              "name": "invitee",
              "type": "address"
            },
            {
              "internalType": "uint256",
              "name": "totalInvites",
              "type": "uint256"
            },
            {
              "internalType": "uint256",
              "name": "claimedInvites",
              "type": "uint256"
            }
          ],
          "internalType": "struct Registry.InviteeDetails[]",
          "name": "",
          "type": "tuple[]"
        }
      ],
      "stateMutability": "view",
      "type": "function"
    },
    {
      "inputs": [],
      "name": "getInvitedProfiles",
      "outputs": [
        {
          "components": [
            {
              "internalType": "string",
              "name": "id",
              "type": "string"
            },
            {
              "internalType": "enum Registry.Provider",
              "name": "provider",
              "type": "uint8"
            }
          ],
          "internalType": "struct Registry.Profile[]",
          "name": "",
          "type": "tuple[]"
        }
      ],
      "stateMutability": "view",
      "type": "function"
    },
    {
      "inputs": [],
      "name": "getInviters",
      "outputs": [
        {
          "components": [
            {
              "internalType": "string",
              "name": "id",
              "type": "string"
            },
            {
              "internalType": "enum Registry.Provider",
              "name": "provider",
              "type": "uint8"
            },
            {
              "internalType": "uint256",
              "name": "inviteCount",
              "type": "uint256"
            },
            {
              "internalType": "uint256",
              "name": "claimCount",
              "type": "uint256"
            }
          ],
          "internalType": "struct Registry.ProfileInviteDetails[]",
          "name": "",
          "type": "tuple[]"
        }
      ],
      "stateMutability": "view",
      "type": "function"
    },
    {
      "inputs": [
        {
          "components": [
            {
              "internalType": "string",
              "name": "id",
              "type": "string"
            },
            {
              "internalType": "enum Registry.Provider",
              "name": "provider",
              "type": "uint8"
            }
          ],
          "internalType": "struct Registry.Profile",
          "name": "profile",
          "type": "tuple"
        }
      ],
      "name": "getProfileBalanceAndInviteCount",
      "outputs": [
        {
          "internalType": "uint256",
          "name": "balance",
          "type": "uint256"
        },
        {
          "internalType": "uint256",
          "name": "inviteCount",
          "type": "uint256"
        },
        {
          "internalType": "bool",
          "name": "profileClaimed",
          "type": "bool"
        }
      ],
      "stateMutability": "view",
      "type": "function"
    },
    {
      "inputs": [
        {
          "internalType": "address",
          "name": "",
          "type": "address"
        }
      ],
      "name": "hasSentInvite",
      "outputs": [
        {
          "internalType": "bool",
          "name": "",
          "type": "bool"
        }
      ],
      "stateMutability": "view",
      "type": "function"
    },
    {
      "inputs": [
        {
          "components": [
            {
              "internalType": "string",
              "name": "id",
              "type": "string"
            },
            {
              "internalType": "enum Registry.Provider",
              "name": "provider",
              "type": "uint8"
            }
          ],
          "internalType": "struct Registry.Profile",
          "name": "profile",
          "type": "tuple"
        }
      ],
      "name": "invite",
      "outputs": [],
      "stateMutability": "payable",
      "type": "function"
    },
    {
      "inputs": [
        {
          "internalType": "address",
          "name": "inviteSender",
          "type": "address"
        }
      ],
      "name": "inviteCounts",
      "outputs": [
        {
          "internalType": "uint256",
          "name": "",
          "type": "uint256"
        }
      ],
      "stateMutability": "view",
      "type": "function"
    },
    {
      "inputs": [
        {
          "internalType": "uint256",
          "name": "",
          "type": "uint256"
        }
      ],
      "name": "inviteSenders",
      "outputs": [
        {
          "internalType": "address",
          "name": "",
          "type": "address"
        }
      ],
      "stateMutability": "view",
      "type": "function"
    },
    {
      "inputs": [
        {
          "internalType": "address",
          "name": "inviteSender",
          "type": "address"
        },
        {
          "internalType": "uint256",
          "name": "",
          "type": "uint256"
        }
      ],
      "name": "invitedProfiles",
      "outputs": [
        {
          "internalType": "string",
          "name": "id",
          "type": "string"
        },
        {
          "internalType": "enum Registry.Provider",
          "name": "provider",
          "type": "uint8"
        }
      ],
      "stateMutability": "view",
      "type": "function"
    },
    {
      "inputs": [
        {
          "internalType": "enum Registry.Provider",
          "name": "",
          "type": "uint8"
        },
        {
          "internalType": "string",
          "name": "id",
          "type": "string"
        },
        {
          "internalType": "uint256",
          "name": "",
          "type": "uint256"
        }
      ],
      "name": "inviters",
      "outputs": [
        {
          "internalType": "address",
          "name": "",
          "type": "address"
        }
      ],
      "stateMutability": "view",
      "type": "function"
    },
    {
      "inputs": [],
      "name": "owner",
      "outputs": [
        {
          "internalType": "address",
          "name": "",
          "type": "address"
        }
      ],
      "stateMutability": "view",
      "type": "function"
    },
    {
      "inputs": [
        {
          "internalType": "enum Registry.Provider",
          "name": "",
          "type": "uint8"
        },
        {
          "internalType": "string",
          "name": "",
          "type": "string"
        }
      ],
      "name": "registry",
      "outputs": [
        {
          "internalType": "uint256",
          "name": "",
          "type": "uint256"
        }
      ],
      "stateMutability": "view",
      "type": "function"
    },
    {
      "inputs": [],
      "name": "renounceOwnership",
      "outputs": [],
      "stateMutability": "nonpayable",
      "type": "function"
    },
    {
      "inputs": [],
      "name": "resetRegistry",
      "outputs": [],
      "stateMutability": "nonpayable",
      "type": "function"
    },
    {
      "inputs": [],
      "name": "totalProfilesCount",
      "outputs": [
        {
          "internalType": "uint256",
          "name": "",
          "type": "uint256"
        }
      ],
      "stateMutability": "view",
      "type": "function"
    },
    {
      "inputs": [
        {
          "internalType": "address",
          "name": "newOwner",
          "type": "address"
        }
      ],
      "name": "transferOwnership",
      "outputs": [],
      "stateMutability": "nonpayable",
      "type": "function"
    },
    {
      "inputs": [
        {
          "internalType": "address",
          "name": "",
          "type": "address"
        },
        {
          "internalType": "enum Registry.Provider",
          "name": "",
          "type": "uint8"
        }
      ],
      "name": "userProfiles",
      "outputs": [
        {
          "internalType": "string",
          "name": "id",
          "type": "string"
        }
      ],
      "stateMutability": "view",
      "type": "function"
    }
  ],
  "bytecode": "0x6080604052600060015534801561001557600080fd5b5061003261002761003760201b60201c565b61003f60201b60201c565b610103565b600033905090565b60008060009054906101000a900473ffffffffffffffffffffffffffffffffffffffff169050816000806101000a81548173ffffffffffffffffffffffffffffffffffffffff021916908373ffffffffffffffffffffffffffffffffffffffff1602179055508173ffffffffffffffffffffffffffffffffffffffff168173ffffffffffffffffffffffffffffffffffffffff167f8be0079c531659141344cd1fd0a4f28419497f9722a3daafe3b4186f6b6457e060405160405180910390a35050565b613b9f806101126000396000f3fe6080604052600436106101665760003560e01c80636fa00395116100d1578063c5dc9aa11161008a578063de2dd22111610064578063de2dd22114610599578063f2fde38b146105d6578063f44910b1146105ff578063f74a71df1461063c57610166565b8063c5dc9aa1146104f3578063c8c953d514610530578063d2d048f11461055c57610166565b80636fa00395146103f2578063715018a61461041d5780637685bbff146104345780637b412bdb1461045f5780638da5cb5b1461048b578063c5949755146104b657610166565b80633a2e9ad5116101235780633a2e9ad5146102975780635a297837146102c05780635cc9318d146102fd5780636d5fbd5e1461033a5780636dffca65146103785780636ee14c6c146103b557610166565b80630420f2361461016b578063124bf2a31461019657806313b21384146101b25780631a6a57f4146101f05780631e0289f51461021b57806326d6403b1461025a575b600080fd5b34801561017757600080fd5b50610180610653565b60405161018d91906129f4565b60405180910390f35b6101b060048036038101906101ab9190612c0b565b6107e9565b005b3480156101be57600080fd5b506101d960048036038101906101d49190612cac565b610e1a565b6040516101e7929190612de2565b60405180910390f35b3480156101fc57600080fd5b50610205610ef0565b6040516102129190612f90565b60405180910390f35b34801561022757600080fd5b50610242600480360381019061023d9190612c0b565b611278565b60405161025193929190612fdc565b60405180910390f35b34801561026657600080fd5b50610281600480360381019061027c9190613013565b6113ae565b60405161028e919061307e565b60405180910390f35b3480156102a357600080fd5b506102be60048036038101906102b99190612c0b565b611406565b005b3480156102cc57600080fd5b506102e760048036038101906102e29190613099565b6118b8565b6040516102f4919061307e565b60405180910390f35b34801561030957600080fd5b50610324600480360381019061031f9190613013565b611929565b6040516103319190613108565b60405180910390f35b34801561034657600080fd5b50610361600480360381019061035c9190613123565b611964565b60405161036f929190612de2565b60405180910390f35b34801561038457600080fd5b5061039f600480360381019061039a9190613150565b611a1d565b6040516103ac9190613190565b60405180910390f35b3480156103c157600080fd5b506103dc60048036038101906103d79190613123565b611aca565b6040516103e991906131b2565b60405180910390f35b3480156103fe57600080fd5b50610407611aea565b6040516104149190613108565b60405180910390f35b34801561042957600080fd5b50610432611af0565b005b34801561044057600080fd5b50610449611b04565b60405161045691906132cc565b60405180910390f35b34801561046b57600080fd5b50610474611c6d565b60405161048292919061344c565b60405180910390f35b34801561049757600080fd5b506104a0611e2b565b6040516104ad919061307e565b60405180910390f35b3480156104c257600080fd5b506104dd60048036038101906104d89190613483565b611e54565b6040516104ea919061307e565b60405180910390f35b3480156104ff57600080fd5b5061051a60048036038101906105159190613013565b611e93565b60405161052791906131b2565b60405180910390f35b34801561053c57600080fd5b50610545611ed8565b60405161055392919061344c565b60405180910390f35b34801561056857600080fd5b50610583600480360381019061057e9190613123565b612096565b6040516105909190613108565b60405180910390f35b3480156105a557600080fd5b506105c060048036038101906105bb9190613123565b6120ae565b6040516105cd9190613108565b60405180910390f35b3480156105e257600080fd5b506105fd60048036038101906105f89190613123565b6120c6565b005b34801561060b57600080fd5b5061062660048036038101906106219190613013565b612149565b6040516106339190613108565b60405180910390f35b34801561064857600080fd5b50610651612184565b005b60606000600c80549050905060008167ffffffffffffffff81111561067b5761067a612a40565b5b6040519080825280602002602001820160405280156106b457816020015b6106a161275b565b8152602001906001900390816106995790505b50905060005b828110156107e0576000600c82815481106106d8576106d76134b0565b5b9060005260206000200160009054906101000a900473ffffffffffffffffffffffffffffffffffffffff16905060405180606001604052808273ffffffffffffffffffffffffffffffffffffffff168152602001600760008473ffffffffffffffffffffffffffffffffffffffff1673ffffffffffffffffffffffffffffffffffffffff168152602001908152602001600020548152602001600860008473ffffffffffffffffffffffffffffffffffffffff1673ffffffffffffffffffffffffffffffffffffffff168152602001908152602001600020548152508383815181106107c7576107c66134b0565b5b60200260200101819052505080806001019150506106ba565b50809250505090565b600060038111156107fd576107fc612d6b565b5b8160200151600381111561081457610813612d6b565b5b148061084857506001600381111561082f5761082e612d6b565b5b8160200151600381111561084657610845612d6b565b5b145b8061087b57506002600381111561086257610861612d6b565b5b8160200151600381111561087957610878612d6b565b5b145b806108ad575060038081111561089457610893612d6b565b5b816020015160038111156108ab576108aa612d6b565b5b145b6108ec576040517f08c379a00000000000000000000000000000000000000000000000000000000081526004016108e39061352b565b60405180910390fd5b655af3107a40003414610934576040517f08c379a000000000000000000000000000000000000000000000000000000000815260040161092b90613597565b60405180910390fd5b60001515600360008360200151600381111561095357610952612d6b565b5b600381111561096557610964612d6b565b5b8152602001908152602001600020826000015160405161098591906135f3565b908152602001604051809103902060009054906101000a900460ff161515146109e3576040517f08c379a00000000000000000000000000000000000000000000000000000000081526004016109da90613656565b60405180910390fd5b3460026000836020015160038111156109ff576109fe612d6b565b5b6003811115610a1157610a10612d6b565b5b81526020019081526020016000208260000151604051610a3191906135f3565b90815260200160405180910390206000828254610a4e91906136a5565b9250508190555060006003600083602001516003811115610a7257610a71612d6b565b5b6003811115610a8457610a83612d6b565b5b81526020019081526020016000208260000151604051610aa491906135f3565b908152602001604051809103902060006101000a81548160ff021916908315150217905550600a600082602001516003811115610ae457610ae3612d6b565b5b6003811115610af657610af5612d6b565b5b81526020019081526020016000208160000151604051610b1691906135f3565b9081526020016040518091039020339080600181540180825580915050600190039060005260206000200160009091909190916101000a81548173ffffffffffffffffffffffffffffffffffffffff021916908373ffffffffffffffffffffffffffffffffffffffff160217905550600660003373ffffffffffffffffffffffffffffffffffffffff1673ffffffffffffffffffffffffffffffffffffffff1681526020019081526020016000208190806001815401808255809150506001900390600052602060002090600202016000909190919091506000820151816000019081610c0391906138e5565b5060208201518160010160006101000a81548160ff02191690836003811115610c2f57610c2e612d6b565b5b02179055505050600760003373ffffffffffffffffffffffffffffffffffffffff1673ffffffffffffffffffffffffffffffffffffffff1681526020019081526020016000206000815480929190610c86906139b7565b9190505550600d60003373ffffffffffffffffffffffffffffffffffffffff1673ffffffffffffffffffffffffffffffffffffffff16815260200190815260200160002060009054906101000a900460ff16610d9857600c339080600181540180825580915050600190039060005260206000200160009091909190916101000a81548173ffffffffffffffffffffffffffffffffffffffff021916908373ffffffffffffffffffffffffffffffffffffffff1602179055506001600d60003373ffffffffffffffffffffffffffffffffffffffff1673ffffffffffffffffffffffffffffffffffffffff16815260200190815260200160002060006101000a81548160ff0219169083151502179055505b6001600a600083602001516003811115610db557610db4612d6b565b5b6003811115610dc757610dc6612d6b565b5b81526020019081526020016000208260000151604051610de791906135f3565b90815260200160405180910390208054905003610e175760016000815480929190610e11906139b7565b91905055505b50565b60066020528160005260406000208181548110610e3657600080fd5b906000526020600020906002020160009150915050806000018054610e5a90613708565b80601f0160208091040260200160405190810160405280929190818152602001828054610e8690613708565b8015610ed35780601f10610ea857610100808354040283529160200191610ed3565b820191906000526020600020905b815481529060010190602001808311610eb657829003601f168201915b5050505050908060010160009054906101000a900460ff16905082565b6060600060015467ffffffffffffffff811115610f1057610f0f612a40565b5b604051908082528060200260200182016040528015610f4957816020015b610f36612792565b815260200190600190039081610f2e5790505b5090506000805b600c8054905081101561126f576000600c8281548110610f7357610f726134b0565b5b9060005260206000200160009054906101000a900473ffffffffffffffffffffffffffffffffffffffff1690506000600660008373ffffffffffffffffffffffffffffffffffffffff1673ffffffffffffffffffffffffffffffffffffffff168152602001908152602001600020805480602002602001604051908101604052809291908181526020016000905b82821015611100578382906000526020600020906002020160405180604001604052908160008201805461103490613708565b80601f016020809104026020016040519081016040528092919081815260200182805461106090613708565b80156110ad5780601f10611082576101008083540402835291602001916110ad565b820191906000526020600020905b81548152906001019060200180831161109057829003601f168201915b505050505081526020016001820160009054906101000a900460ff1660038111156110db576110da612d6b565b5b60038111156110ed576110ec612d6b565b5b8152505081526020019060010190611001565b50505050905060005b815181101561125f576000828281518110611127576111266134b0565b5b602002602001015190506040518060800160405280826000015181526020018260200151600381111561115d5761115c612d6b565b5b8152602001600a60008460200151600381111561117d5761117c612d6b565b5b600381111561118f5761118e612d6b565b5b815260200190815260200160002083600001516040516111af91906135f3565b908152602001604051809103902080549050815260200160096000846020015160038111156111e1576111e0612d6b565b5b60038111156111f3576111f2612d6b565b5b8152602001908152602001600020836000015160405161121391906135f3565b908152602001604051809103902054815250878781518110611238576112376134b0565b5b6020026020010181905250858061124e906139b7565b965050508080600101915050611109565b5050508080600101915050610f50565b50819250505090565b6000806000600260008560200151600381111561129857611297612d6b565b5b60038111156112aa576112a9612d6b565b5b815260200190815260200160002084600001516040516112ca91906135f3565b908152602001604051809103902054925060036000856020015160038111156112f6576112f5612d6b565b5b600381111561130857611307612d6b565b5b8152602001908152602001600020846000015160405161132891906135f3565b908152602001604051809103902060009054906101000a900460ff169050600a60008560200151600381111561136157611360612d6b565b5b600381111561137357611372612d6b565b5b8152602001908152602001600020846000015160405161139391906135f3565b90815260200160405180910390208054905091509193909250565b6004602052816000526040600020818051602081018201805184825260208301602085012081835280955050505050506000915091509054906101000a900473ffffffffffffffffffffffffffffffffffffffff1681565b60001515600360008360200151600381111561142557611424612d6b565b5b600381111561143757611436612d6b565b5b8152602001908152602001600020826000015160405161145791906135f3565b908152602001604051809103902060009054906101000a900460ff161515146114b5576040517f08c379a00000000000000000000000000000000000000000000000000000000081526004016114ac90613656565b60405180910390fd5b600060026000836020015160038111156114d2576114d1612d6b565b5b60038111156114e4576114e3612d6b565b5b8152602001908152602001600020826000015160405161150491906135f3565b908152602001604051809103902054905060008111611558576040517f08c379a000000000000000000000000000000000000000000000000000000000815260040161154f90613a4b565b60405180910390fd5b3373ffffffffffffffffffffffffffffffffffffffff166108fc829081150290604051600060405180830381858888f1935050505015801561159e573d6000803e3d6000fd5b50600060026000846020015160038111156115bc576115bb612d6b565b5b60038111156115ce576115cd612d6b565b5b815260200190815260200160002083600001516040516115ee91906135f3565b9081526020016040518091039020819055506001600360008460200151600381111561161d5761161c612d6b565b5b600381111561162f5761162e612d6b565b5b8152602001908152602001600020836000015160405161164f91906135f3565b908152602001604051809103902060006101000a81548160ff0219169083151502179055506000600a60008460200151600381111561169157611690612d6b565b5b60038111156116a3576116a2612d6b565b5b815260200190815260200160002083600001516040516116c391906135f3565b90815260200160405180910390208054905090506000600a6000856020015160038111156116f4576116f3612d6b565b5b600381111561170657611705612d6b565b5b8152602001908152602001600020846000015160405161172691906135f3565b90815260200160405180910390208054806020026020016040519081016040528092919081815260200182805480156117b457602002820191906000526020600020905b8160009054906101000a900473ffffffffffffffffffffffffffffffffffffffff1673ffffffffffffffffffffffffffffffffffffffff168152602001906001019080831161176a575b5050505050905060005b8281101561184057600860008383815181106117dd576117dc6134b0565b5b602002602001015173ffffffffffffffffffffffffffffffffffffffff1673ffffffffffffffffffffffffffffffffffffffff1681526020019081526020016000206000815461182c906139b7565b9190508190555080806001019150506117be565b50600960008560200151600381111561185c5761185b612d6b565b5b600381111561186e5761186d612d6b565b5b8152602001908152602001600020846000015160405161188e91906135f3565b908152602001604051809103902060008154809291906118ad906139b7565b919050555050505050565b600a6020528260005260406000208280516020810182018051848252602083016020850120818352809550505050505081815481106118f657600080fd5b90600052602060002001600092509250509054906101000a900473ffffffffffffffffffffffffffffffffffffffff1681565b600960205281600052604060002081805160208101820180518482526020830160208501208183528095505050505050600091509150505481565b600560205280600052604060002060009150905080600001805461198790613708565b80601f01602080910402602001604051908101604052809291908181526020018280546119b390613708565b8015611a005780601f106119d557610100808354040283529160200191611a00565b820191906000526020600020905b8154815290600101906020018083116119e357829003601f168201915b5050505050908060010160009054906101000a900460ff16905082565b600b602052816000526040600020602052806000526040600020600091509150508054611a4990613708565b80601f0160208091040260200160405190810160405280929190818152602001828054611a7590613708565b8015611ac25780601f10611a9757610100808354040283529160200191611ac2565b820191906000526020600020905b815481529060010190602001808311611aa557829003601f168201915b505050505081565b600d6020528060005260406000206000915054906101000a900460ff1681565b60015481565b611af8612611565b611b02600061268f565b565b6060600660003373ffffffffffffffffffffffffffffffffffffffff1673ffffffffffffffffffffffffffffffffffffffff168152602001908152602001600020805480602002602001604051908101604052809291908181526020016000905b82821015611c645783829060005260206000209060020201604051806040016040529081600082018054611b9890613708565b80601f0160208091040260200160405190810160405280929190818152602001828054611bc490613708565b8015611c115780601f10611be657610100808354040283529160200191611c11565b820191906000526020600020905b815481529060010190602001808311611bf457829003601f168201915b505050505081526020016001820160009054906101000a900460ff166003811115611c3f57611c3e612d6b565b5b6003811115611c5157611c50612d6b565b5b8152505081526020019060010190611b65565b50505050905090565b6060806000600c80549050905060008167ffffffffffffffff811115611c9657611c95612a40565b5b604051908082528060200260200182016040528015611cc45781602001602082028036833780820191505090505b50905060008267ffffffffffffffff811115611ce357611ce2612a40565b5b604051908082528060200260200182016040528015611d115781602001602082028036833780820191505090505b50905060005b83811015611e1d576000600c8281548110611d3557611d346134b0565b5b9060005260206000200160009054906101000a900473ffffffffffffffffffffffffffffffffffffffff16905080848381518110611d7657611d756134b0565b5b602002602001019073ffffffffffffffffffffffffffffffffffffffff16908173ffffffffffffffffffffffffffffffffffffffff1681525050600760008273ffffffffffffffffffffffffffffffffffffffff1673ffffffffffffffffffffffffffffffffffffffff16815260200190815260200160002054838381518110611e0357611e026134b0565b5b602002602001018181525050508080600101915050611d17565b508181945094505050509091565b60008060009054906101000a900473ffffffffffffffffffffffffffffffffffffffff16905090565b600c8181548110611e6457600080fd5b906000526020600020016000915054906101000a900473ffffffffffffffffffffffffffffffffffffffff1681565b6003602052816000526040600020818051602081018201805184825260208301602085012081835280955050505050506000915091509054906101000a900460ff1681565b6060806000600c80549050905060008167ffffffffffffffff811115611f0157611f00612a40565b5b604051908082528060200260200182016040528015611f2f5781602001602082028036833780820191505090505b50905060008267ffffffffffffffff811115611f4e57611f4d612a40565b5b604051908082528060200260200182016040528015611f7c5781602001602082028036833780820191505090505b50905060005b83811015612088576000600c8281548110611fa057611f9f6134b0565b5b9060005260206000200160009054906101000a900473ffffffffffffffffffffffffffffffffffffffff16905080848381518110611fe157611fe06134b0565b5b602002602001019073ffffffffffffffffffffffffffffffffffffffff16908173ffffffffffffffffffffffffffffffffffffffff1681525050600860008273ffffffffffffffffffffffffffffffffffffffff1673ffffffffffffffffffffffffffffffffffffffff1681526020019081526020016000205483838151811061206e5761206d6134b0565b5b602002602001018181525050508080600101915050611f82565b508181945094505050509091565b60086020528060005260406000206000915090505481565b60076020528060005260406000206000915090505481565b6120ce612611565b600073ffffffffffffffffffffffffffffffffffffffff168173ffffffffffffffffffffffffffffffffffffffff160361213d576040517f08c379a000000000000000000000000000000000000000000000000000000000815260040161213490613add565b60405180910390fd5b6121468161268f565b50565b600260205281600052604060002081805160208101820180518482526020830160208501208183528095505050505050600091509150505481565b61218c612611565b60005b600c8054905081101561230d576000600c82815481106121b2576121b16134b0565b5b9060005260206000200160009054906101000a900473ffffffffffffffffffffffffffffffffffffffff169050600660008273ffffffffffffffffffffffffffffffffffffffff1673ffffffffffffffffffffffffffffffffffffffff168152602001908152602001600020600061222a91906127cc565b600760008273ffffffffffffffffffffffffffffffffffffffff1673ffffffffffffffffffffffffffffffffffffffff16815260200190815260200160002060009055600860008273ffffffffffffffffffffffffffffffffffffffff1673ffffffffffffffffffffffffffffffffffffffff16815260200190815260200160002060009055600d60008273ffffffffffffffffffffffffffffffffffffffff1673ffffffffffffffffffffffffffffffffffffffff16815260200190815260200160002060006101000a81549060ff021916905550808060010191505061218f565b50600c600061231c91906127f0565b60005b600481101561260e57600081600381111561233d5761233c612d6b565b5b905060005b600c805490508110156125ff576000600c8281548110612365576123646134b0565b5b9060005260206000200160009054906101000a900473ffffffffffffffffffffffffffffffffffffffff1690506000600660008373ffffffffffffffffffffffffffffffffffffffff1673ffffffffffffffffffffffffffffffffffffffff168152602001908152602001600020805480602002602001604051908101604052809291908181526020016000905b828210156124f2578382906000526020600020906002020160405180604001604052908160008201805461242690613708565b80601f016020809104026020016040519081016040528092919081815260200182805461245290613708565b801561249f5780601f106124745761010080835404028352916020019161249f565b820191906000526020600020905b81548152906001019060200180831161248257829003601f168201915b505050505081526020016001820160009054906101000a900460ff1660038111156124cd576124cc612d6b565b5b60038111156124df576124de612d6b565b5b81525050815260200190600101906123f3565b50505050905060005b81518110156125ef576000828281518110612519576125186134b0565b5b60200260200101516000015190506002600087600381111561253e5761253d612d6b565b5b60038111156125505761254f612d6b565b5b81526020019081526020016000208160405161256c91906135f3565b9081526020016040518091039020600090556003600087600381111561259557612594612d6b565b5b60038111156125a7576125a6612d6b565b5b8152602001908152602001600020816040516125c391906135f3565b908152602001604051809103902060006101000a81549060ff02191690555080806001019150506124fb565b5050508080600101915050612342565b5050808060010191505061231f565b50565b612619612753565b73ffffffffffffffffffffffffffffffffffffffff16612637611e2b565b73ffffffffffffffffffffffffffffffffffffffff161461268d576040517f08c379a000000000000000000000000000000000000000000000000000000000815260040161268490613b49565b60405180910390fd5b565b60008060009054906101000a900473ffffffffffffffffffffffffffffffffffffffff169050816000806101000a81548173ffffffffffffffffffffffffffffffffffffffff021916908373ffffffffffffffffffffffffffffffffffffffff1602179055508173ffffffffffffffffffffffffffffffffffffffff168173ffffffffffffffffffffffffffffffffffffffff167f8be0079c531659141344cd1fd0a4f28419497f9722a3daafe3b4186f6b6457e060405160405180910390a35050565b600033905090565b6040518060600160405280600073ffffffffffffffffffffffffffffffffffffffff16815260200160008152602001600081525090565b604051806080016040528060608152602001600060038111156127b8576127b7612d6b565b5b815260200160008152602001600081525090565b50805460008255600202906000526020600020908101906127ed9190612811565b50565b508054600082559060005260206000209081019061280e919061284c565b50565b5b80821115612848576000808201600061282b9190612869565b6001820160006101000a81549060ff021916905550600201612812565b5090565b5b8082111561286557600081600090555060010161284d565b5090565b50805461287590613708565b6000825580601f1061288757506128a6565b601f0160209004906000526020600020908101906128a5919061284c565b5b50565b600081519050919050565b600082825260208201905092915050565b6000819050602082019050919050565b600073ffffffffffffffffffffffffffffffffffffffff82169050919050565b6000612900826128d5565b9050919050565b612910816128f5565b82525050565b6000819050919050565b61292981612916565b82525050565b6060820160008201516129456000850182612907565b5060208201516129586020850182612920565b50604082015161296b6040850182612920565b50505050565b600061297d838361292f565b60608301905092915050565b6000602082019050919050565b60006129a1826128a9565b6129ab81856128b4565b93506129b6836128c5565b8060005b838110156129e75781516129ce8882612971565b97506129d983612989565b9250506001810190506129ba565b5085935050505092915050565b60006020820190508181036000830152612a0e8184612996565b905092915050565b6000604051905090565b600080fd5b600080fd5b600080fd5b6000601f19601f8301169050919050565b7f4e487b7100000000000000000000000000000000000000000000000000000000600052604160045260246000fd5b612a7882612a2f565b810181811067ffffffffffffffff82111715612a9757612a96612a40565b5b80604052505050565b6000612aaa612a16565b9050612ab68282612a6f565b919050565b600080fd5b600080fd5b600080fd5b600067ffffffffffffffff821115612ae557612ae4612a40565b5b612aee82612a2f565b9050602081019050919050565b82818337600083830152505050565b6000612b1d612b1884612aca565b612aa0565b905082815260208101848484011115612b3957612b38612ac5565b5b612b44848285612afb565b509392505050565b600082601f830112612b6157612b60612ac0565b5b8135612b71848260208601612b0a565b91505092915050565b60048110612b8757600080fd5b50565b600081359050612b9981612b7a565b92915050565b600060408284031215612bb557612bb4612a2a565b5b612bbf6040612aa0565b9050600082013567ffffffffffffffff811115612bdf57612bde612abb565b5b612beb84828501612b4c565b6000830152506020612bff84828501612b8a565b60208301525092915050565b600060208284031215612c2157612c20612a20565b5b600082013567ffffffffffffffff811115612c3f57612c3e612a25565b5b612c4b84828501612b9f565b91505092915050565b612c5d816128f5565b8114612c6857600080fd5b50565b600081359050612c7a81612c54565b92915050565b612c8981612916565b8114612c9457600080fd5b50565b600081359050612ca681612c80565b92915050565b60008060408385031215612cc357612cc2612a20565b5b6000612cd185828601612c6b565b9250506020612ce285828601612c97565b9150509250929050565b600081519050919050565b600082825260208201905092915050565b60005b83811015612d26578082015181840152602081019050612d0b565b60008484015250505050565b6000612d3d82612cec565b612d478185612cf7565b9350612d57818560208601612d08565b612d6081612a2f565b840191505092915050565b7f4e487b7100000000000000000000000000000000000000000000000000000000600052602160045260246000fd5b60048110612dab57612daa612d6b565b5b50565b6000819050612dbc82612d9a565b919050565b6000612dcc82612dae565b9050919050565b612ddc81612dc1565b82525050565b60006040820190508181036000830152612dfc8185612d32565b9050612e0b6020830184612dd3565b9392505050565b600081519050919050565b600082825260208201905092915050565b6000819050602082019050919050565b600082825260208201905092915050565b6000612e5a82612cec565b612e648185612e3e565b9350612e74818560208601612d08565b612e7d81612a2f565b840191505092915050565b612e9181612dc1565b82525050565b60006080830160008301518482036000860152612eb48282612e4f565b9150506020830151612ec96020860182612e88565b506040830151612edc6040860182612920565b506060830151612eef6060860182612920565b508091505092915050565b6000612f068383612e97565b905092915050565b6000602082019050919050565b6000612f2682612e12565b612f308185612e1d565b935083602082028501612f4285612e2e565b8060005b85811015612f7e5784840389528151612f5f8582612efa565b9450612f6a83612f0e565b925060208a01995050600181019050612f46565b50829750879550505050505092915050565b60006020820190508181036000830152612faa8184612f1b565b905092915050565b612fbb81612916565b82525050565b60008115159050919050565b612fd681612fc1565b82525050565b6000606082019050612ff16000830186612fb2565b612ffe6020830185612fb2565b61300b6040830184612fcd565b949350505050565b6000806040838503121561302a57613029612a20565b5b600061303885828601612b8a565b925050602083013567ffffffffffffffff81111561305957613058612a25565b5b61306585828601612b4c565b9150509250929050565b613078816128f5565b82525050565b6000602082019050613093600083018461306f565b92915050565b6000806000606084860312156130b2576130b1612a20565b5b60006130c086828701612b8a565b935050602084013567ffffffffffffffff8111156130e1576130e0612a25565b5b6130ed86828701612b4c565b92505060406130fe86828701612c97565b9150509250925092565b600060208201905061311d6000830184612fb2565b92915050565b60006020828403121561313957613138612a20565b5b600061314784828501612c6b565b91505092915050565b6000806040838503121561316757613166612a20565b5b600061317585828601612c6b565b925050602061318685828601612b8a565b9150509250929050565b600060208201905081810360008301526131aa8184612d32565b905092915050565b60006020820190506131c76000830184612fcd565b92915050565b600081519050919050565b600082825260208201905092915050565b6000819050602082019050919050565b600060408301600083015184820360008601526132168282612e4f565b915050602083015161322b6020860182612e88565b508091505092915050565b600061324283836131f9565b905092915050565b6000602082019050919050565b6000613262826131cd565b61326c81856131d8565b93508360208202850161327e856131e9565b8060005b858110156132ba578484038952815161329b8582613236565b94506132a68361324a565b925060208a01995050600181019050613282565b50829750879550505050505092915050565b600060208201905081810360008301526132e68184613257565b905092915050565b600081519050919050565b600082825260208201905092915050565b6000819050602082019050919050565b60006133268383612907565b60208301905092915050565b6000602082019050919050565b600061334a826132ee565b61335481856132f9565b935061335f8361330a565b8060005b83811015613390578151613377888261331a565b975061338283613332565b925050600181019050613363565b5085935050505092915050565b600081519050919050565b600082825260208201905092915050565b6000819050602082019050919050565b60006133d58383612920565b60208301905092915050565b6000602082019050919050565b60006133f98261339d565b61340381856133a8565b935061340e836133b9565b8060005b8381101561343f57815161342688826133c9565b9750613431836133e1565b925050600181019050613412565b5085935050505092915050565b60006040820190508181036000830152613466818561333f565b9050818103602083015261347a81846133ee565b90509392505050565b60006020828403121561349957613498612a20565b5b60006134a784828501612c97565b91505092915050565b7f4e487b7100000000000000000000000000000000000000000000000000000000600052603260045260246000fd5b7f496e76616c69642070726f766964657200000000000000000000000000000000600082015250565b6000613515601083612cf7565b9150613520826134df565b602082019050919050565b6000602082019050818103600083015261354481613508565b9050919050565b7f496e76616c696420616d6f756e74000000000000000000000000000000000000600082015250565b6000613581600e83612cf7565b915061358c8261354b565b602082019050919050565b600060208201905081810360008301526135b081613574565b9050919050565b600081905092915050565b60006135cd82612cec565b6135d781856135b7565b93506135e7818560208601612d08565b80840191505092915050565b60006135ff82846135c2565b915081905092915050565b7f50726f66696c6520616c726561647920636c61696d6564000000000000000000600082015250565b6000613640601783612cf7565b915061364b8261360a565b602082019050919050565b6000602082019050818103600083015261366f81613633565b9050919050565b7f4e487b7100000000000000000000000000000000000000000000000000000000600052601160045260246000fd5b60006136b082612916565b91506136bb83612916565b92508282019050808211156136d3576136d2613676565b5b92915050565b7f4e487b7100000000000000000000000000000000000000000000000000000000600052602260045260246000fd5b6000600282049050600182168061372057607f821691505b602082108103613733576137326136d9565b5b50919050565b60008190508160005260206000209050919050565b60006020601f8301049050919050565b600082821b905092915050565b60006008830261379b7fffffffffffffffffffffffffffffffffffffffffffffffffffffffffffffffff8261375e565b6137a5868361375e565b95508019841693508086168417925050509392505050565b6000819050919050565b60006137e26137dd6137d884612916565b6137bd565b612916565b9050919050565b6000819050919050565b6137fc836137c7565b613810613808826137e9565b84845461376b565b825550505050565b600090565b613825613818565b6138308184846137f3565b505050565b5b818110156138545761384960008261381d565b600181019050613836565b5050565b601f8211156138995761386a81613739565b6138738461374e565b81016020851015613882578190505b61389661388e8561374e565b830182613835565b50505b505050565b600082821c905092915050565b60006138bc6000198460080261389e565b1980831691505092915050565b60006138d583836138ab565b9150826002028217905092915050565b6138ee82612cec565b67ffffffffffffffff81111561390757613906612a40565b5b6139118254613708565b61391c828285613858565b600060209050601f83116001811461394f576000841561393d578287015190505b61394785826138c9565b8655506139af565b601f19841661395d86613739565b60005b8281101561398557848901518255600182019150602085019450602081019050613960565b868310156139a2578489015161399e601f8916826138ab565b8355505b6001600288020188555050505b505050505050565b60006139c282612916565b91507fffffffffffffffffffffffffffffffffffffffffffffffffffffffffffffffff82036139f4576139f3613676565b5b600182019050919050565b7f4e6f2062616c616e636520746f20636c61696d00000000000000000000000000600082015250565b6000613a35601383612cf7565b9150613a40826139ff565b602082019050919050565b60006020820190508181036000830152613a6481613a28565b9050919050565b7f4f776e61626c653a206e6577206f776e657220697320746865207a65726f206160008201527f6464726573730000000000000000000000000000000000000000000000000000602082015250565b6000613ac7602683612cf7565b9150613ad282613a6b565b604082019050919050565b60006020820190508181036000830152613af681613aba565b9050919050565b7f4f776e61626c653a2063616c6c6572206973206e6f7420746865206f776e6572600082015250565b6000613b33602083612cf7565b9150613b3e82613afd565b602082019050919050565b60006020820190508181036000830152613b6281613b26565b905091905056fea2646970667358221220e9869db159fe5a90770782d050929c6346b0c8696a0176a1d6ecdbcdd57d542b64736f6c634300081b0033",
  "linkReferences": {},
  "deployedLinkReferences": {}
}