{
  "_format": "hh-sol-artifact-1",
  "contractName": "Registry",
  "sourceName": "contracts/Registry.sol",
  "abi": [
    {
      "anonymous": false,
      "inputs": [
        {
          "indexed": true,
          "internalType": "address",
          "name": "previousOwner",
          "type": "address"
        },
        {
          "indexed": true,
          "internalType": "address",
          "name": "newOwner",
          "type": "address"
        }
      ],
      "name": "OwnershipTransferred",
      "type": "event"
    },
    {
      "inputs": [
        {
          "components": [
            {
              "internalType": "string",
              "name": "id",
              "type": "string"
            },
            {
              "internalType": "enum Registry.Provider",
              "name": "provider",
              "type": "uint8"
            }
          ],
          "internalType": "struct Registry.Profile",
          "name": "profile",
          "type": "tuple"
        }
      ],
      "name": "claim",
      "outputs": [],
      "stateMutability": "nonpayable",
      "type": "function"
    },
    {
      "inputs": [
        {
          "internalType": "enum Registry.Provider",
          "name": "",
          "type": "uint8"
        },
        {
          "internalType": "string",
          "name": "",
          "type": "string"
        }
      ],
      "name": "claimed",
      "outputs": [
        {
          "internalType": "bool",
          "name": "",
          "type": "bool"
        }
      ],
      "stateMutability": "view",
      "type": "function"
    },
    {
      "inputs": [
        {
          "internalType": "enum Registry.Provider",
          "name": "",
          "type": "uint8"
        },
        {
          "internalType": "string",
          "name": "",
          "type": "string"
        }
      ],
      "name": "claimedAddress",
      "outputs": [
        {
          "internalType": "address",
          "name": "",
          "type": "address"
        }
      ],
      "stateMutability": "view",
      "type": "function"
    },
    {
      "inputs": [
        {
          "internalType": "address",
          "name": "inviteSender",
          "type": "address"
        }
      ],
      "name": "claimedInviteCounts",
      "outputs": [
        {
          "internalType": "uint256",
          "name": "",
          "type": "uint256"
        }
      ],
      "stateMutability": "view",
      "type": "function"
    },
    {
      "inputs": [
        {
          "internalType": "address",
          "name": "claimerAddress",
          "type": "address"
        }
      ],
      "name": "claimedProfiles",
      "outputs": [
        {
          "internalType": "string",
          "name": "id",
          "type": "string"
        },
        {
          "internalType": "enum Registry.Provider",
          "name": "provider",
          "type": "uint8"
        }
      ],
      "stateMutability": "view",
      "type": "function"
    },
    {
      "inputs": [],
      "name": "getAddressesWithClaimedInvites",
      "outputs": [
        {
          "internalType": "address[]",
          "name": "",
          "type": "address[]"
        },
        {
          "internalType": "uint256[]",
          "name": "",
          "type": "uint256[]"
        }
      ],
      "stateMutability": "view",
      "type": "function"
    },
    {
      "inputs": [],
      "name": "getAddressesWithInviteCounts",
      "outputs": [
        {
          "internalType": "address[]",
          "name": "",
          "type": "address[]"
        },
        {
          "internalType": "uint256[]",
          "name": "",
          "type": "uint256[]"
        }
      ],
      "stateMutability": "view",
      "type": "function"
    },
    {
      "inputs": [],
      "name": "getInviteAndClaimedCounts",
      "outputs": [
        {
          "components": [
            {
              "internalType": "address",
              "name": "invitee",
              "type": "address"
            },
            {
              "internalType": "uint256",
              "name": "totalInvites",
              "type": "uint256"
            },
            {
              "internalType": "uint256",
              "name": "claimedInvites",
              "type": "uint256"
            }
          ],
          "internalType": "struct Registry.InviteeDetails[]",
          "name": "inviteeDetails",
          "type": "tuple[]"
        }
      ],
      "stateMutability": "view",
      "type": "function"
    },
    {
      "inputs": [],
      "name": "getInvitedProfiles",
      "outputs": [
        {
          "components": [
            {
              "internalType": "string",
              "name": "id",
              "type": "string"
            },
            {
              "internalType": "enum Registry.Provider",
              "name": "provider",
              "type": "uint8"
            }
          ],
          "internalType": "struct Registry.Profile[]",
          "name": "",
          "type": "tuple[]"
        }
      ],
      "stateMutability": "view",
      "type": "function"
    },
    {
      "inputs": [
        {
          "components": [
            {
              "internalType": "string",
              "name": "id",
              "type": "string"
            },
            {
              "internalType": "enum Registry.Provider",
              "name": "provider",
              "type": "uint8"
            }
          ],
          "internalType": "struct Registry.Profile",
          "name": "profile",
          "type": "tuple"
        }
      ],
      "name": "getProfileBalanceAndInviteCount",
      "outputs": [
        {
          "internalType": "uint256",
          "name": "balance",
          "type": "uint256"
        },
        {
          "internalType": "uint256",
          "name": "inviteCount",
          "type": "uint256"
        }
      ],
      "stateMutability": "view",
      "type": "function"
    },
    {
      "inputs": [
        {
          "internalType": "address",
          "name": "",
          "type": "address"
        }
      ],
      "name": "hasSentInvite",
      "outputs": [
        {
          "internalType": "bool",
          "name": "",
          "type": "bool"
        }
      ],
      "stateMutability": "view",
      "type": "function"
    },
    {
      "inputs": [
        {
          "components": [
            {
              "internalType": "string",
              "name": "id",
              "type": "string"
            },
            {
              "internalType": "enum Registry.Provider",
              "name": "provider",
              "type": "uint8"
            }
          ],
          "internalType": "struct Registry.Profile",
          "name": "profile",
          "type": "tuple"
        }
      ],
      "name": "invite",
      "outputs": [],
      "stateMutability": "payable",
      "type": "function"
    },
    {
      "inputs": [
        {
          "internalType": "address",
          "name": "inviteSender",
          "type": "address"
        }
      ],
      "name": "inviteCounts",
      "outputs": [
        {
          "internalType": "uint256",
          "name": "",
          "type": "uint256"
        }
      ],
      "stateMutability": "view",
      "type": "function"
    },
    {
      "inputs": [
        {
          "internalType": "uint256",
          "name": "",
          "type": "uint256"
        }
      ],
      "name": "inviteSenders",
      "outputs": [
        {
          "internalType": "address",
          "name": "",
          "type": "address"
        }
      ],
      "stateMutability": "view",
      "type": "function"
    },
    {
      "inputs": [
        {
          "internalType": "address",
          "name": "inviteSender",
          "type": "address"
        },
        {
          "internalType": "uint256",
          "name": "",
          "type": "uint256"
        }
      ],
      "name": "invitedProfiles",
      "outputs": [
        {
          "internalType": "string",
          "name": "id",
          "type": "string"
        },
        {
          "internalType": "enum Registry.Provider",
          "name": "provider",
          "type": "uint8"
        }
      ],
      "stateMutability": "view",
      "type": "function"
    },
    {
      "inputs": [],
      "name": "owner",
      "outputs": [
        {
          "internalType": "address",
          "name": "",
          "type": "address"
        }
      ],
      "stateMutability": "view",
      "type": "function"
    },
    {
      "inputs": [
        {
          "internalType": "enum Registry.Provider",
          "name": "",
          "type": "uint8"
        },
        {
          "internalType": "string",
          "name": "",
          "type": "string"
        }
      ],
      "name": "registry",
      "outputs": [
        {
          "internalType": "uint256",
          "name": "",
          "type": "uint256"
        }
      ],
      "stateMutability": "view",
      "type": "function"
    },
    {
      "inputs": [],
      "name": "renounceOwnership",
      "outputs": [],
      "stateMutability": "nonpayable",
      "type": "function"
    },
    {
      "inputs": [],
      "name": "resetRegistry",
      "outputs": [],
      "stateMutability": "nonpayable",
      "type": "function"
    },
    {
      "inputs": [
        {
          "internalType": "address",
          "name": "newOwner",
          "type": "address"
        }
      ],
      "name": "transferOwnership",
      "outputs": [],
      "stateMutability": "nonpayable",
      "type": "function"
    },
    {
      "inputs": [],
      "name": "viewInvitedProfiles",
      "outputs": [
        {
          "components": [
            {
              "internalType": "string",
              "name": "id",
              "type": "string"
            },
            {
              "internalType": "enum Registry.Provider",
              "name": "provider",
              "type": "uint8"
            },
            {
              "internalType": "uint256",
              "name": "balance",
              "type": "uint256"
            },
            {
              "internalType": "uint256",
              "name": "claimed",
              "type": "uint256"
            }
          ],
          "internalType": "struct Registry.ProfileDetails[]",
          "name": "",
          "type": "tuple[]"
        }
      ],
      "stateMutability": "view",
      "type": "function"
    }
  ],
  "bytecode": "0x608060405234801561001057600080fd5b5061002d61002261003260201b60201c565b61003a60201b60201c565b6100fe565b600033905090565b60008060009054906101000a900473ffffffffffffffffffffffffffffffffffffffff169050816000806101000a81548173ffffffffffffffffffffffffffffffffffffffff021916908373ffffffffffffffffffffffffffffffffffffffff1602179055508173ffffffffffffffffffffffffffffffffffffffff168173ffffffffffffffffffffffffffffffffffffffff167f8be0079c531659141344cd1fd0a4f28419497f9722a3daafe3b4186f6b6457e060405160405180910390a35050565b6134318061010d6000396000f3fe60806040526004361061012a5760003560e01c80637685bbff116100ab578063c8c953d51161006f578063c8c953d514610411578063de2dd2211461043d578063e9df95301461047a578063f2fde38b146104b7578063f44910b1146104e0578063f74a71df1461051d5761012a565b80637685bbff146103155780637b412bdb146103405780638da5cb5b1461036c578063c594975514610397578063c5dc9aa1146103d45761012a565b806326d6403b116100f257806326d6403b1461021d5780633a2e9ad51461025a5780636d5fbd5e146102835780636ee14c6c146102c1578063715018a6146102fe5761012a565b80630420f2361461012f57806309a1581d1461015a578063124bf2a31461018557806313b21384146101a15780631e0289f5146101df575b600080fd5b34801561013b57600080fd5b50610144610534565b6040516101519190612365565b60405180910390f35b34801561016657600080fd5b5061016f6106ca565b60405161017c91906125b3565b60405180910390f35b61019f600480360381019061019a91906127b9565b6109f5565b005b3480156101ad57600080fd5b506101c860048036038101906101c3919061285a565b610eeb565b6040516101d69291906128f3565b60405180910390f35b3480156101eb57600080fd5b50610206600480360381019061020191906127b9565b610fc1565b604051610214929190612932565b60405180910390f35b34801561022957600080fd5b50610244600480360381019061023f919061295b565b611069565b60405161025191906129c6565b60405180910390f35b34801561026657600080fd5b50610281600480360381019061027c91906127b9565b6110c1565b005b34801561028f57600080fd5b506102aa60048036038101906102a591906129e1565b611388565b6040516102b89291906128f3565b60405180910390f35b3480156102cd57600080fd5b506102e860048036038101906102e391906129e1565b611441565b6040516102f59190612a29565b60405180910390f35b34801561030a57600080fd5b50610313611461565b005b34801561032157600080fd5b5061032a611475565b6040516103379190612b43565b60405180910390f35b34801561034c57600080fd5b506103556115de565b604051610363929190612cc3565b60405180910390f35b34801561037857600080fd5b5061038161179c565b60405161038e91906129c6565b60405180910390f35b3480156103a357600080fd5b506103be60048036038101906103b99190612cfa565b6117c5565b6040516103cb91906129c6565b60405180910390f35b3480156103e057600080fd5b506103fb60048036038101906103f6919061295b565b611804565b6040516104089190612a29565b60405180910390f35b34801561041d57600080fd5b50610426611849565b604051610434929190612cc3565b60405180910390f35b34801561044957600080fd5b50610464600480360381019061045f91906129e1565b611a07565b6040516104719190612d27565b60405180910390f35b34801561048657600080fd5b506104a1600480360381019061049c91906129e1565b611a1f565b6040516104ae9190612d27565b60405180910390f35b3480156104c357600080fd5b506104de60048036038101906104d991906129e1565b611a37565b005b3480156104ec57600080fd5b506105076004803603810190610502919061295b565b611aba565b6040516105149190612d27565b60405180910390f35b34801561052957600080fd5b50610532611af5565b005b60606000600880549050905060008167ffffffffffffffff81111561055c5761055b6125ee565b5b60405190808252806020026020018201604052801561059557816020015b6105826120cc565b81526020019060019003908161057a5790505b50905060005b828110156106c1576000600882815481106105b9576105b8612d42565b5b9060005260206000200160009054906101000a900473ffffffffffffffffffffffffffffffffffffffff16905060405180606001604052808273ffffffffffffffffffffffffffffffffffffffff168152602001600660008473ffffffffffffffffffffffffffffffffffffffff1673ffffffffffffffffffffffffffffffffffffffff168152602001908152602001600020548152602001600760008473ffffffffffffffffffffffffffffffffffffffff1673ffffffffffffffffffffffffffffffffffffffff168152602001908152602001600020548152508383815181106106a8576106a7612d42565b5b602002602001018190525050808060010191505061059b565b50809250505090565b60606000600560003373ffffffffffffffffffffffffffffffffffffffff1673ffffffffffffffffffffffffffffffffffffffff16815260200190815260200160002080549050905060008167ffffffffffffffff81111561072f5761072e6125ee565b5b60405190808252806020026020018201604052801561076857816020015b610755612103565b81526020019060019003908161074d5790505b50905060005b828110156109ec576000600560003373ffffffffffffffffffffffffffffffffffffffff1673ffffffffffffffffffffffffffffffffffffffff16815260200190815260200160002082815481106107c9576107c8612d42565b5b90600052602060002090600202016040518060400160405290816000820180546107f290612da0565b80601f016020809104026020016040519081016040528092919081815260200182805461081e90612da0565b801561086b5780601f106108405761010080835404028352916020019161086b565b820191906000526020600020905b81548152906001019060200180831161084e57829003601f168201915b505050505081526020016001820160009054906101000a900460ff16600381111561089957610898612443565b5b60038111156108ab576108aa612443565b5b815250509050604051806080016040528082600001518152602001826020015160038111156108dd576108dc612443565b5b815260200160016000846020015160038111156108fd576108fc612443565b5b600381111561090f5761090e612443565b5b8152602001908152602001600020836000015160405161092f9190612e0d565b9081526020016040518091039020548152602001600260008460200151600381111561095e5761095d612443565b5b60038111156109705761096f612443565b5b815260200190815260200160002083600001516040516109909190612e0d565b908152602001604051809103902060009054906101000a900460ff166109b75760006109ba565b60015b60ff168152508383815181106109d3576109d2612d42565b5b602002602001018190525050808060010191505061076e565b50809250505090565b60006003811115610a0957610a08612443565b5b81602001516003811115610a2057610a1f612443565b5b1480610a54575060016003811115610a3b57610a3a612443565b5b81602001516003811115610a5257610a51612443565b5b145b80610a87575060026003811115610a6e57610a6d612443565b5b81602001516003811115610a8557610a84612443565b5b145b80610ab95750600380811115610aa057610a9f612443565b5b81602001516003811115610ab757610ab6612443565b5b145b610af8576040517f08c379a0000000000000000000000000000000000000000000000000000000008152600401610aef90612e70565b60405180910390fd5b655af3107a40003414610b40576040517f08c379a0000000000000000000000000000000000000000000000000000000008152600401610b3790612edc565b60405180910390fd5b600015156002600083602001516003811115610b5f57610b5e612443565b5b6003811115610b7157610b70612443565b5b81526020019081526020016000208260000151604051610b919190612e0d565b908152602001604051809103902060009054906101000a900460ff16151514610bef576040517f08c379a0000000000000000000000000000000000000000000000000000000008152600401610be690612f48565b60405180910390fd5b346001600083602001516003811115610c0b57610c0a612443565b5b6003811115610c1d57610c1c612443565b5b81526020019081526020016000208260000151604051610c3d9190612e0d565b90815260200160405180910390206000828254610c5a9190612f97565b9250508190555060006002600083602001516003811115610c7e57610c7d612443565b5b6003811115610c9057610c8f612443565b5b81526020019081526020016000208260000151604051610cb09190612e0d565b908152602001604051809103902060006101000a81548160ff021916908315150217905550600560003373ffffffffffffffffffffffffffffffffffffffff1673ffffffffffffffffffffffffffffffffffffffff1681526020019081526020016000208190806001815401808255809150506001900390600052602060002090600202016000909190919091506000820151816000019081610d539190613177565b5060208201518160010160006101000a81548160ff02191690836003811115610d7f57610d7e612443565b5b02179055505050600660003373ffffffffffffffffffffffffffffffffffffffff1673ffffffffffffffffffffffffffffffffffffffff1681526020019081526020016000206000815480929190610dd690613249565b9190505550600960003373ffffffffffffffffffffffffffffffffffffffff1673ffffffffffffffffffffffffffffffffffffffff16815260200190815260200160002060009054906101000a900460ff16610ee8576008339080600181540180825580915050600190039060005260206000200160009091909190916101000a81548173ffffffffffffffffffffffffffffffffffffffff021916908373ffffffffffffffffffffffffffffffffffffffff1602179055506001600960003373ffffffffffffffffffffffffffffffffffffffff1673ffffffffffffffffffffffffffffffffffffffff16815260200190815260200160002060006101000a81548160ff0219169083151502179055505b50565b60056020528160005260406000208181548110610f0757600080fd5b906000526020600020906002020160009150915050806000018054610f2b90612da0565b80601f0160208091040260200160405190810160405280929190818152602001828054610f5790612da0565b8015610fa45780601f10610f7957610100808354040283529160200191610fa4565b820191906000526020600020905b815481529060010190602001808311610f8757829003601f168201915b5050505050908060010160009054906101000a900460ff16905082565b6000806001600084602001516003811115610fdf57610fde612443565b5b6003811115610ff157610ff0612443565b5b815260200190815260200160002083600001516040516110119190612e0d565b9081526020016040518091039020549150600660003373ffffffffffffffffffffffffffffffffffffffff1673ffffffffffffffffffffffffffffffffffffffff168152602001908152602001600020549050915091565b6003602052816000526040600020818051602081018201805184825260208301602085012081835280955050505050506000915091509054906101000a900473ffffffffffffffffffffffffffffffffffffffff1681565b6000151560026000836020015160038111156110e0576110df612443565b5b60038111156110f2576110f1612443565b5b815260200190815260200160002082600001516040516111129190612e0d565b908152602001604051809103902060009054906101000a900460ff16151514611170576040517f08c379a000000000000000000000000000000000000000000000000000000000815260040161116790612f48565b60405180910390fd5b6000600160008360200151600381111561118d5761118c612443565b5b600381111561119f5761119e612443565b5b815260200190815260200160002082600001516040516111bf9190612e0d565b908152602001604051809103902054905060008111611213576040517f08c379a000000000000000000000000000000000000000000000000000000000815260040161120a906132dd565b60405180910390fd5b3373ffffffffffffffffffffffffffffffffffffffff166108fc829081150290604051600060405180830381858888f19350505050158015611259573d6000803e3d6000fd5b506000600160008460200151600381111561127757611276612443565b5b600381111561128957611288612443565b5b815260200190815260200160002083600001516040516112a99190612e0d565b908152602001604051809103902081905550600160026000846020015160038111156112d8576112d7612443565b5b60038111156112ea576112e9612443565b5b8152602001908152602001600020836000015160405161130a9190612e0d565b908152602001604051809103902060006101000a81548160ff021916908315150217905550600760003373ffffffffffffffffffffffffffffffffffffffff1673ffffffffffffffffffffffffffffffffffffffff168152602001908152602001600020600081548092919061137f90613249565b91905055505050565b60046020528060005260406000206000915090508060000180546113ab90612da0565b80601f01602080910402602001604051908101604052809291908181526020018280546113d790612da0565b80156114245780601f106113f957610100808354040283529160200191611424565b820191906000526020600020905b81548152906001019060200180831161140757829003601f168201915b5050505050908060010160009054906101000a900460ff16905082565b60096020528060005260406000206000915054906101000a900460ff1681565b611469611f82565b6114736000612000565b565b6060600560003373ffffffffffffffffffffffffffffffffffffffff1673ffffffffffffffffffffffffffffffffffffffff168152602001908152602001600020805480602002602001604051908101604052809291908181526020016000905b828210156115d5578382906000526020600020906002020160405180604001604052908160008201805461150990612da0565b80601f016020809104026020016040519081016040528092919081815260200182805461153590612da0565b80156115825780601f1061155757610100808354040283529160200191611582565b820191906000526020600020905b81548152906001019060200180831161156557829003601f168201915b505050505081526020016001820160009054906101000a900460ff1660038111156115b0576115af612443565b5b60038111156115c2576115c1612443565b5b81525050815260200190600101906114d6565b50505050905090565b6060806000600880549050905060008167ffffffffffffffff811115611607576116066125ee565b5b6040519080825280602002602001820160405280156116355781602001602082028036833780820191505090505b50905060008267ffffffffffffffff811115611654576116536125ee565b5b6040519080825280602002602001820160405280156116825781602001602082028036833780820191505090505b50905060005b8381101561178e576000600882815481106116a6576116a5612d42565b5b9060005260206000200160009054906101000a900473ffffffffffffffffffffffffffffffffffffffff169050808483815181106116e7576116e6612d42565b5b602002602001019073ffffffffffffffffffffffffffffffffffffffff16908173ffffffffffffffffffffffffffffffffffffffff1681525050600660008273ffffffffffffffffffffffffffffffffffffffff1673ffffffffffffffffffffffffffffffffffffffff1681526020019081526020016000205483838151811061177457611773612d42565b5b602002602001018181525050508080600101915050611688565b508181945094505050509091565b60008060009054906101000a900473ffffffffffffffffffffffffffffffffffffffff16905090565b600881815481106117d557600080fd5b906000526020600020016000915054906101000a900473ffffffffffffffffffffffffffffffffffffffff1681565b6002602052816000526040600020818051602081018201805184825260208301602085012081835280955050505050506000915091509054906101000a900460ff1681565b6060806000600880549050905060008167ffffffffffffffff811115611872576118716125ee565b5b6040519080825280602002602001820160405280156118a05781602001602082028036833780820191505090505b50905060008267ffffffffffffffff8111156118bf576118be6125ee565b5b6040519080825280602002602001820160405280156118ed5781602001602082028036833780820191505090505b50905060005b838110156119f95760006008828154811061191157611910612d42565b5b9060005260206000200160009054906101000a900473ffffffffffffffffffffffffffffffffffffffff1690508084838151811061195257611951612d42565b5b602002602001019073ffffffffffffffffffffffffffffffffffffffff16908173ffffffffffffffffffffffffffffffffffffffff1681525050600760008273ffffffffffffffffffffffffffffffffffffffff1673ffffffffffffffffffffffffffffffffffffffff168152602001908152602001600020548383815181106119df576119de612d42565b5b6020026020010181815250505080806001019150506118f3565b508181945094505050509091565b60066020528060005260406000206000915090505481565b60076020528060005260406000206000915090505481565b611a3f611f82565b600073ffffffffffffffffffffffffffffffffffffffff168173ffffffffffffffffffffffffffffffffffffffff1603611aae576040517f08c379a0000000000000000000000000000000000000000000000000000000008152600401611aa59061336f565b60405180910390fd5b611ab781612000565b50565b600160205281600052604060002081805160208101820180518482526020830160208501208183528095505050505050600091509150505481565b611afd611f82565b60005b600880549050811015611c7e57600060088281548110611b2357611b22612d42565b5b9060005260206000200160009054906101000a900473ffffffffffffffffffffffffffffffffffffffff169050600560008273ffffffffffffffffffffffffffffffffffffffff1673ffffffffffffffffffffffffffffffffffffffff1681526020019081526020016000206000611b9b919061213d565b600660008273ffffffffffffffffffffffffffffffffffffffff1673ffffffffffffffffffffffffffffffffffffffff16815260200190815260200160002060009055600760008273ffffffffffffffffffffffffffffffffffffffff1673ffffffffffffffffffffffffffffffffffffffff16815260200190815260200160002060009055600960008273ffffffffffffffffffffffffffffffffffffffff1673ffffffffffffffffffffffffffffffffffffffff16815260200190815260200160002060006101000a81549060ff0219169055508080600101915050611b00565b5060086000611c8d9190612161565b60005b6004811015611f7f576000816003811115611cae57611cad612443565b5b905060005b600880549050811015611f7057600060088281548110611cd657611cd5612d42565b5b9060005260206000200160009054906101000a900473ffffffffffffffffffffffffffffffffffffffff1690506000600560008373ffffffffffffffffffffffffffffffffffffffff1673ffffffffffffffffffffffffffffffffffffffff168152602001908152602001600020805480602002602001604051908101604052809291908181526020016000905b82821015611e635783829060005260206000209060020201604051806040016040529081600082018054611d9790612da0565b80601f0160208091040260200160405190810160405280929190818152602001828054611dc390612da0565b8015611e105780601f10611de557610100808354040283529160200191611e10565b820191906000526020600020905b815481529060010190602001808311611df357829003601f168201915b505050505081526020016001820160009054906101000a900460ff166003811115611e3e57611e3d612443565b5b6003811115611e5057611e4f612443565b5b8152505081526020019060010190611d64565b50505050905060005b8151811015611f60576000828281518110611e8a57611e89612d42565b5b602002602001015160000151905060016000876003811115611eaf57611eae612443565b5b6003811115611ec157611ec0612443565b5b815260200190815260200160002081604051611edd9190612e0d565b90815260200160405180910390206000905560026000876003811115611f0657611f05612443565b5b6003811115611f1857611f17612443565b5b815260200190815260200160002081604051611f349190612e0d565b908152602001604051809103902060006101000a81549060ff0219169055508080600101915050611e6c565b5050508080600101915050611cb3565b50508080600101915050611c90565b50565b611f8a6120c4565b73ffffffffffffffffffffffffffffffffffffffff16611fa861179c565b73ffffffffffffffffffffffffffffffffffffffff1614611ffe576040517f08c379a0000000000000000000000000000000000000000000000000000000008152600401611ff5906133db565b60405180910390fd5b565b60008060009054906101000a900473ffffffffffffffffffffffffffffffffffffffff169050816000806101000a81548173ffffffffffffffffffffffffffffffffffffffff021916908373ffffffffffffffffffffffffffffffffffffffff1602179055508173ffffffffffffffffffffffffffffffffffffffff168173ffffffffffffffffffffffffffffffffffffffff167f8be0079c531659141344cd1fd0a4f28419497f9722a3daafe3b4186f6b6457e060405160405180910390a35050565b600033905090565b6040518060600160405280600073ffffffffffffffffffffffffffffffffffffffff16815260200160008152602001600081525090565b6040518060800160405280606081526020016000600381111561212957612128612443565b5b815260200160008152602001600081525090565b508054600082556002029060005260206000209081019061215e9190612182565b50565b508054600082559060005260206000209081019061217f91906121bd565b50565b5b808211156121b9576000808201600061219c91906121da565b6001820160006101000a81549060ff021916905550600201612183565b5090565b5b808211156121d65760008160009055506001016121be565b5090565b5080546121e690612da0565b6000825580601f106121f85750612217565b601f01602090049060005260206000209081019061221691906121bd565b5b50565b600081519050919050565b600082825260208201905092915050565b6000819050602082019050919050565b600073ffffffffffffffffffffffffffffffffffffffff82169050919050565b600061227182612246565b9050919050565b61228181612266565b82525050565b6000819050919050565b61229a81612287565b82525050565b6060820160008201516122b66000850182612278565b5060208201516122c96020850182612291565b5060408201516122dc6040850182612291565b50505050565b60006122ee83836122a0565b60608301905092915050565b6000602082019050919050565b60006123128261221a565b61231c8185612225565b935061232783612236565b8060005b8381101561235857815161233f88826122e2565b975061234a836122fa565b92505060018101905061232b565b5085935050505092915050565b6000602082019050818103600083015261237f8184612307565b905092915050565b600081519050919050565b600082825260208201905092915050565b6000819050602082019050919050565b600081519050919050565b600082825260208201905092915050565b60005b838110156123ed5780820151818401526020810190506123d2565b60008484015250505050565b6000601f19601f8301169050919050565b6000612415826123b3565b61241f81856123be565b935061242f8185602086016123cf565b612438816123f9565b840191505092915050565b7f4e487b7100000000000000000000000000000000000000000000000000000000600052602160045260246000fd5b6004811061248357612482612443565b5b50565b600081905061249482612472565b919050565b60006124a482612486565b9050919050565b6124b481612499565b82525050565b600060808301600083015184820360008601526124d7828261240a565b91505060208301516124ec60208601826124ab565b5060408301516124ff6040860182612291565b5060608301516125126060860182612291565b508091505092915050565b600061252983836124ba565b905092915050565b6000602082019050919050565b600061254982612387565b6125538185612392565b935083602082028501612565856123a3565b8060005b858110156125a15784840389528151612582858261251d565b945061258d83612531565b925060208a01995050600181019050612569565b50829750879550505050505092915050565b600060208201905081810360008301526125cd818461253e565b905092915050565b6000604051905090565b600080fd5b600080fd5b600080fd5b7f4e487b7100000000000000000000000000000000000000000000000000000000600052604160045260246000fd5b612626826123f9565b810181811067ffffffffffffffff82111715612645576126446125ee565b5b80604052505050565b60006126586125d5565b9050612664828261261d565b919050565b600080fd5b600080fd5b600080fd5b600067ffffffffffffffff821115612693576126926125ee565b5b61269c826123f9565b9050602081019050919050565b82818337600083830152505050565b60006126cb6126c684612678565b61264e565b9050828152602081018484840111156126e7576126e6612673565b5b6126f28482856126a9565b509392505050565b600082601f83011261270f5761270e61266e565b5b813561271f8482602086016126b8565b91505092915050565b6004811061273557600080fd5b50565b60008135905061274781612728565b92915050565b600060408284031215612763576127626125e9565b5b61276d604061264e565b9050600082013567ffffffffffffffff81111561278d5761278c612669565b5b612799848285016126fa565b60008301525060206127ad84828501612738565b60208301525092915050565b6000602082840312156127cf576127ce6125df565b5b600082013567ffffffffffffffff8111156127ed576127ec6125e4565b5b6127f98482850161274d565b91505092915050565b61280b81612266565b811461281657600080fd5b50565b60008135905061282881612802565b92915050565b61283781612287565b811461284257600080fd5b50565b6000813590506128548161282e565b92915050565b60008060408385031215612871576128706125df565b5b600061287f85828601612819565b925050602061289085828601612845565b9150509250929050565b600082825260208201905092915050565b60006128b6826123b3565b6128c0818561289a565b93506128d08185602086016123cf565b6128d9816123f9565b840191505092915050565b6128ed81612499565b82525050565b6000604082019050818103600083015261290d81856128ab565b905061291c60208301846128e4565b9392505050565b61292c81612287565b82525050565b60006040820190506129476000830185612923565b6129546020830184612923565b9392505050565b60008060408385031215612972576129716125df565b5b600061298085828601612738565b925050602083013567ffffffffffffffff8111156129a1576129a06125e4565b5b6129ad858286016126fa565b9150509250929050565b6129c081612266565b82525050565b60006020820190506129db60008301846129b7565b92915050565b6000602082840312156129f7576129f66125df565b5b6000612a0584828501612819565b91505092915050565b60008115159050919050565b612a2381612a0e565b82525050565b6000602082019050612a3e6000830184612a1a565b92915050565b600081519050919050565b600082825260208201905092915050565b6000819050602082019050919050565b60006040830160008301518482036000860152612a8d828261240a565b9150506020830151612aa260208601826124ab565b508091505092915050565b6000612ab98383612a70565b905092915050565b6000602082019050919050565b6000612ad982612a44565b612ae38185612a4f565b935083602082028501612af585612a60565b8060005b85811015612b315784840389528151612b128582612aad565b9450612b1d83612ac1565b925060208a01995050600181019050612af9565b50829750879550505050505092915050565b60006020820190508181036000830152612b5d8184612ace565b905092915050565b600081519050919050565b600082825260208201905092915050565b6000819050602082019050919050565b6000612b9d8383612278565b60208301905092915050565b6000602082019050919050565b6000612bc182612b65565b612bcb8185612b70565b9350612bd683612b81565b8060005b83811015612c07578151612bee8882612b91565b9750612bf983612ba9565b925050600181019050612bda565b5085935050505092915050565b600081519050919050565b600082825260208201905092915050565b6000819050602082019050919050565b6000612c4c8383612291565b60208301905092915050565b6000602082019050919050565b6000612c7082612c14565b612c7a8185612c1f565b9350612c8583612c30565b8060005b83811015612cb6578151612c9d8882612c40565b9750612ca883612c58565b925050600181019050612c89565b5085935050505092915050565b60006040820190508181036000830152612cdd8185612bb6565b90508181036020830152612cf18184612c65565b90509392505050565b600060208284031215612d1057612d0f6125df565b5b6000612d1e84828501612845565b91505092915050565b6000602082019050612d3c6000830184612923565b92915050565b7f4e487b7100000000000000000000000000000000000000000000000000000000600052603260045260246000fd5b7f4e487b7100000000000000000000000000000000000000000000000000000000600052602260045260246000fd5b60006002820490506001821680612db857607f821691505b602082108103612dcb57612dca612d71565b5b50919050565b600081905092915050565b6000612de7826123b3565b612df18185612dd1565b9350612e018185602086016123cf565b80840191505092915050565b6000612e198284612ddc565b915081905092915050565b7f496e76616c69642070726f766964657200000000000000000000000000000000600082015250565b6000612e5a60108361289a565b9150612e6582612e24565b602082019050919050565b60006020820190508181036000830152612e8981612e4d565b9050919050565b7f496e76616c696420616d6f756e74000000000000000000000000000000000000600082015250565b6000612ec6600e8361289a565b9150612ed182612e90565b602082019050919050565b60006020820190508181036000830152612ef581612eb9565b9050919050565b7f50726f66696c6520616c726561647920636c61696d6564000000000000000000600082015250565b6000612f3260178361289a565b9150612f3d82612efc565b602082019050919050565b60006020820190508181036000830152612f6181612f25565b9050919050565b7f4e487b7100000000000000000000000000000000000000000000000000000000600052601160045260246000fd5b6000612fa282612287565b9150612fad83612287565b9250828201905080821115612fc557612fc4612f68565b5b92915050565b60008190508160005260206000209050919050565b60006020601f8301049050919050565b600082821b905092915050565b60006008830261302d7fffffffffffffffffffffffffffffffffffffffffffffffffffffffffffffffff82612ff0565b6130378683612ff0565b95508019841693508086168417925050509392505050565b6000819050919050565b600061307461306f61306a84612287565b61304f565b612287565b9050919050565b6000819050919050565b61308e83613059565b6130a261309a8261307b565b848454612ffd565b825550505050565b600090565b6130b76130aa565b6130c2818484613085565b505050565b5b818110156130e6576130db6000826130af565b6001810190506130c8565b5050565b601f82111561312b576130fc81612fcb565b61310584612fe0565b81016020851015613114578190505b61312861312085612fe0565b8301826130c7565b50505b505050565b600082821c905092915050565b600061314e60001984600802613130565b1980831691505092915050565b6000613167838361313d565b9150826002028217905092915050565b613180826123b3565b67ffffffffffffffff811115613199576131986125ee565b5b6131a38254612da0565b6131ae8282856130ea565b600060209050601f8311600181146131e157600084156131cf578287015190505b6131d9858261315b565b865550613241565b601f1984166131ef86612fcb565b60005b82811015613217578489015182556001820191506020850194506020810190506131f2565b868310156132345784890151613230601f89168261313d565b8355505b6001600288020188555050505b505050505050565b600061325482612287565b91507fffffffffffffffffffffffffffffffffffffffffffffffffffffffffffffffff820361328657613285612f68565b5b600182019050919050565b7f4e6f2062616c616e636520746f20636c61696d00000000000000000000000000600082015250565b60006132c760138361289a565b91506132d282613291565b602082019050919050565b600060208201905081810360008301526132f6816132ba565b9050919050565b7f4f776e61626c653a206e6577206f776e657220697320746865207a65726f206160008201527f6464726573730000000000000000000000000000000000000000000000000000602082015250565b600061335960268361289a565b9150613364826132fd565b604082019050919050565b600060208201905081810360008301526133888161334c565b9050919050565b7f4f776e61626c653a2063616c6c6572206973206e6f7420746865206f776e6572600082015250565b60006133c560208361289a565b91506133d08261338f565b602082019050919050565b600060208201905081810360008301526133f4816133b8565b905091905056fea26469706673582212202de649bfc5b6244cd8da52a635dfdfa1d5039c7f40a9e4291236bb9b123da7ad64736f6c634300081b0033",
  "linkReferences": {},
  "deployedLinkReferences": {}
}