{
  "_format": "hh-sol-artifact-1",
  "contractName": "Token",
  "sourceName": "contracts/Token.sol",
  "abi": [
    {
      "inputs": [
        {
          "internalType": "address",
          "name": "_factoryAddress",
          "type": "address"
        },
        {
          "internalType": "uint256",
          "name": "_tokenId",
          "type": "uint256"
        },
        {
          "internalType": "string",
          "name": "_name",
          "type": "string"
        },
        {
          "internalType": "string",
          "name": "_ticker",
          "type": "string"
        },
        {
          "internalType": "enum Factory.Provider",
          "name": "_provider",
          "type": "uint8"
        },
        {
          "internalType": "string",
          "name": "_profile",
          "type": "string"
        }
      ],
      "stateMutability": "nonpayable",
      "type": "constructor"
    },
    {
      "anonymous": false,
      "inputs": [
        {
          "indexed": true,
          "internalType": "address",
          "name": "owner",
          "type": "address"
        },
        {
          "indexed": true,
          "internalType": "address",
          "name": "spender",
          "type": "address"
        },
        {
          "indexed": false,
          "internalType": "uint256",
          "name": "value",
          "type": "uint256"
        }
      ],
      "name": "Approval",
      "type": "event"
    },
    {
      "anonymous": false,
      "inputs": [
        {
          "indexed": true,
          "internalType": "address",
          "name": "previousOwner",
          "type": "address"
        },
        {
          "indexed": true,
          "internalType": "address",
          "name": "newOwner",
          "type": "address"
        }
      ],
      "name": "OwnershipTransferred",
      "type": "event"
    },
    {
      "anonymous": false,
      "inputs": [
        {
          "indexed": true,
          "internalType": "address",
          "name": "from",
          "type": "address"
        },
        {
          "indexed": true,
          "internalType": "address",
          "name": "to",
          "type": "address"
        },
        {
          "indexed": false,
          "internalType": "uint256",
          "name": "value",
          "type": "uint256"
        }
      ],
      "name": "Transfer",
      "type": "event"
    },
    {
      "inputs": [
        {
          "internalType": "address",
          "name": "owner",
          "type": "address"
        },
        {
          "internalType": "address",
          "name": "spender",
          "type": "address"
        }
      ],
      "name": "allowance",
      "outputs": [
        {
          "internalType": "uint256",
          "name": "",
          "type": "uint256"
        }
      ],
      "stateMutability": "view",
      "type": "function"
    },
    {
      "inputs": [
        {
          "internalType": "address",
          "name": "spender",
          "type": "address"
        },
        {
          "internalType": "uint256",
          "name": "amount",
          "type": "uint256"
        }
      ],
      "name": "approve",
      "outputs": [
        {
          "internalType": "bool",
          "name": "",
          "type": "bool"
        }
      ],
      "stateMutability": "nonpayable",
      "type": "function"
    },
    {
      "inputs": [
        {
          "internalType": "address",
          "name": "account",
          "type": "address"
        }
      ],
      "name": "balanceOf",
      "outputs": [
        {
          "internalType": "uint256",
          "name": "",
          "type": "uint256"
        }
      ],
      "stateMutability": "view",
      "type": "function"
    },
    {
      "inputs": [
        {
          "internalType": "uint256",
          "name": "",
          "type": "uint256"
        }
      ],
      "name": "bondSteps",
      "outputs": [
        {
          "internalType": "uint256",
          "name": "rangeTo",
          "type": "uint256"
        },
        {
          "internalType": "uint256",
          "name": "price",
          "type": "uint256"
        }
      ],
      "stateMutability": "view",
      "type": "function"
    },
    {
      "inputs": [],
      "name": "buyFee",
      "outputs": [
        {
          "internalType": "uint256",
          "name": "",
          "type": "uint256"
        }
      ],
      "stateMutability": "view",
      "type": "function"
    },
    {
      "inputs": [
        {
          "internalType": "uint256",
          "name": "_amount",
          "type": "uint256"
        }
      ],
      "name": "buyTokens",
      "outputs": [],
      "stateMutability": "payable",
      "type": "function"
    },
    {
      "inputs": [
        {
          "internalType": "uint256",
          "name": "_amount",
          "type": "uint256"
        }
      ],
      "name": "calculateCost",
      "outputs": [
        {
          "components": [
            {
              "internalType": "uint256",
              "name": "cost",
              "type": "uint256"
            },
            {
              "internalType": "uint256",
              "name": "fee",
              "type": "uint256"
            },
            {
              "internalType": "uint256",
              "name": "totalCost",
              "type": "uint256"
            }
          ],
          "internalType": "struct Token.Cost",
          "name": "",
          "type": "tuple"
        }
      ],
      "stateMutability": "view",
      "type": "function"
    },
    {
      "inputs": [
        {
          "internalType": "uint256",
          "name": "_amount",
          "type": "uint256"
        }
      ],
      "name": "calculateRevenue",
      "outputs": [
        {
          "components": [
            {
              "internalType": "uint256",
              "name": "cost",
              "type": "uint256"
            },
            {
              "internalType": "uint256",
              "name": "fee",
              "type": "uint256"
            },
            {
              "internalType": "uint256",
              "name": "totalCost",
              "type": "uint256"
            }
          ],
          "internalType": "struct Token.Cost",
          "name": "",
          "type": "tuple"
        }
      ],
      "stateMutability": "view",
      "type": "function"
    },
    {
      "inputs": [],
      "name": "claimTokenAccount",
      "outputs": [],
      "stateMutability": "nonpayable",
      "type": "function"
    },
    {
      "inputs": [],
      "name": "claimed",
      "outputs": [
        {
          "internalType": "bool",
          "name": "",
          "type": "bool"
        }
      ],
      "stateMutability": "view",
      "type": "function"
    },
    {
      "inputs": [],
      "name": "decimals",
      "outputs": [
        {
          "internalType": "uint8",
          "name": "",
          "type": "uint8"
        }
      ],
      "stateMutability": "view",
      "type": "function"
    },
    {
      "inputs": [
        {
          "internalType": "address",
          "name": "spender",
          "type": "address"
        },
        {
          "internalType": "uint256",
          "name": "subtractedValue",
          "type": "uint256"
        }
      ],
      "name": "decreaseAllowance",
      "outputs": [
        {
          "internalType": "bool",
          "name": "",
          "type": "bool"
        }
      ],
      "stateMutability": "nonpayable",
      "type": "function"
    },
    {
      "inputs": [],
      "name": "feeBalance",
      "outputs": [
        {
          "internalType": "uint256",
          "name": "",
          "type": "uint256"
        }
      ],
      "stateMutability": "view",
      "type": "function"
    },
    {
      "inputs": [
        {
          "internalType": "address",
          "name": "spender",
          "type": "address"
        },
        {
          "internalType": "uint256",
          "name": "addedValue",
          "type": "uint256"
        }
      ],
      "name": "increaseAllowance",
      "outputs": [
        {
          "internalType": "bool",
          "name": "",
          "type": "bool"
        }
      ],
      "stateMutability": "nonpayable",
      "type": "function"
    },
    {
      "inputs": [],
      "name": "maxSupply",
      "outputs": [
        {
          "internalType": "uint256",
          "name": "",
          "type": "uint256"
        }
      ],
      "stateMutability": "view",
      "type": "function"
    },
    {
      "inputs": [],
      "name": "name",
      "outputs": [
        {
          "internalType": "string",
          "name": "",
          "type": "string"
        }
      ],
      "stateMutability": "view",
      "type": "function"
    },
    {
      "inputs": [],
      "name": "owner",
      "outputs": [
        {
          "internalType": "address",
          "name": "",
          "type": "address"
        }
      ],
      "stateMutability": "view",
      "type": "function"
    },
    {
      "inputs": [],
      "name": "profile",
      "outputs": [
        {
          "internalType": "string",
          "name": "",
          "type": "string"
        }
      ],
      "stateMutability": "view",
      "type": "function"
    },
    {
      "inputs": [],
      "name": "provider",
      "outputs": [
        {
          "internalType": "enum Factory.Provider",
          "name": "",
          "type": "uint8"
        }
      ],
      "stateMutability": "view",
      "type": "function"
    },
    {
      "inputs": [],
      "name": "renounceOwnership",
      "outputs": [],
      "stateMutability": "nonpayable",
      "type": "function"
    },
    {
      "inputs": [],
      "name": "sellFee",
      "outputs": [
        {
          "internalType": "uint256",
          "name": "",
          "type": "uint256"
        }
      ],
      "stateMutability": "view",
      "type": "function"
    },
    {
      "inputs": [
        {
          "internalType": "uint256",
          "name": "_amount",
          "type": "uint256"
        }
      ],
      "name": "sellTokens",
      "outputs": [],
      "stateMutability": "nonpayable",
      "type": "function"
    },
    {
      "inputs": [],
      "name": "symbol",
      "outputs": [
        {
          "internalType": "string",
          "name": "",
          "type": "string"
        }
      ],
      "stateMutability": "view",
      "type": "function"
    },
    {
      "inputs": [],
      "name": "tokenId",
      "outputs": [
        {
          "internalType": "uint256",
          "name": "",
          "type": "uint256"
        }
      ],
      "stateMutability": "view",
      "type": "function"
    },
    {
      "inputs": [],
      "name": "tokenOwner",
      "outputs": [
        {
          "internalType": "address",
          "name": "",
          "type": "address"
        }
      ],
      "stateMutability": "view",
      "type": "function"
    },
    {
      "inputs": [],
      "name": "totalSupply",
      "outputs": [
        {
          "internalType": "uint256",
          "name": "",
          "type": "uint256"
        }
      ],
      "stateMutability": "view",
      "type": "function"
    },
    {
      "inputs": [],
      "name": "totalSupplyTokens",
      "outputs": [
        {
          "internalType": "uint256",
          "name": "",
          "type": "uint256"
        }
      ],
      "stateMutability": "view",
      "type": "function"
    },
    {
      "inputs": [
        {
          "internalType": "address",
          "name": "to",
          "type": "address"
        },
        {
          "internalType": "uint256",
          "name": "amount",
          "type": "uint256"
        }
      ],
      "name": "transfer",
      "outputs": [
        {
          "internalType": "bool",
          "name": "",
          "type": "bool"
        }
      ],
      "stateMutability": "nonpayable",
      "type": "function"
    },
    {
      "inputs": [
        {
          "internalType": "address",
          "name": "from",
          "type": "address"
        },
        {
          "internalType": "address",
          "name": "to",
          "type": "address"
        },
        {
          "internalType": "uint256",
          "name": "amount",
          "type": "uint256"
        }
      ],
      "name": "transferFrom",
      "outputs": [
        {
          "internalType": "bool",
          "name": "",
          "type": "bool"
        }
      ],
      "stateMutability": "nonpayable",
      "type": "function"
    },
    {
      "inputs": [
        {
          "internalType": "address",
          "name": "newOwner",
          "type": "address"
        }
      ],
      "name": "transferOwnership",
      "outputs": [],
      "stateMutability": "nonpayable",
      "type": "function"
    },
    {
      "inputs": [],
      "name": "withdraw",
      "outputs": [],
      "stateMutability": "nonpayable",
      "type": "function"
    }
  ],
  "bytecode": "0x6080604052620f42406008556103e86009556103e8600a556000600b5534801561002857600080fd5b50604051611ee0380380611ee08339810160408190526100479161038d565b8383600361005583826104e3565b50600461006282826104e3565b50505061007b61007661026a60201b60201c565b61026e565b600f859055600e80546001600160a01b0319166001600160a01b038816179055600c805483919060ff191660018360038111156100ba576100ba6105a1565b0217905550600d6100cb82826104e3565b505060408051808201825261012c81526509184e72a000602080830191825260068054600181810183556000838152955160029283027ff652222313e28459528d920b65115c16c04f3efc82aaedc97be59f3f377c0d3f8181019290925595517ff652222313e28459528d920b65115c16c04f3efc82aaedc97be59f3f377c0d4096870155875180890189526102588152655af3107a400081870190815285548085018755868a529151918502808401929092555190870155875180890189526103e8815266038d7ea4c6800081870190815285548085018755868a529151918502808401929092555190870155875180890189526127108152662386f26fc1000081870190815285548085018755868a52915191850280840192909255519087015587518089018952620186a0815267016345785d8a000081870190815285548085018755868a5291519185028084019290925551908701558751808901909852620f42408852670de0b6b3a76400009488019485528354918201845592909552945193909402938401929092559051910155506105b79350505050565b3390565b600580546001600160a01b038381166001600160a01b0319831681179093556040519116919082907f8be0079c531659141344cd1fd0a4f28419497f9722a3daafe3b4186f6b6457e090600090a35050565b634e487b7160e01b600052604160045260246000fd5b600082601f8301126102e757600080fd5b81516001600160401b03811115610300576103006102c0565b604051601f8201601f19908116603f011681016001600160401b038111828210171561032e5761032e6102c0565b60405281815283820160200185101561034657600080fd5b60005b8281101561036557602081860181015183830182015201610349565b506000918101602001919091529392505050565b80516004811061038857600080fd5b919050565b60008060008060008060c087890312156103a657600080fd5b86516001600160a01b03811681146103bd57600080fd5b6020880151604089015191975095506001600160401b038111156103e057600080fd5b6103ec89828a016102d6565b606089015190955090506001600160401b0381111561040a57600080fd5b61041689828a016102d6565b93505061042560808801610379565b60a08801519092506001600160401b0381111561044157600080fd5b61044d89828a016102d6565b9150509295509295509295565b600181811c9082168061046e57607f821691505b60208210810361048e57634e487b7160e01b600052602260045260246000fd5b50919050565b601f8211156104de57806000526020600020601f840160051c810160208510156104bb5750805b601f840160051c820191505b818110156104db57600081556001016104c7565b50505b505050565b81516001600160401b038111156104fc576104fc6102c0565b6105108161050a845461045a565b84610494565b6020601f821160018114610544576000831561052c5750848201515b600019600385901b1c1916600184901b1784556104db565b600084815260208120601f198516915b828110156105745787850151825560209485019460019092019101610554565b50848210156105925786840151600019600387901b60f8161c191681555b50505050600190811b01905550565b634e487b7160e01b600052602160045260246000fd5b61191a806105c66000396000f3fe6080604052600436106101d85760003560e01c806360b71d4e11610102578063a457c2d711610095578063dd62ed3e11610064578063dd62ed3e1461053f578063e834a8341461055f578063f2fde38b14610580578063f72aa729146105a057600080fd5b8063a457c2d7146104d4578063a9059cbb146104f4578063ab60636c14610514578063d5abeb011461052957600080fd5b80638a497c4c116100d15780638a497c4c146104385780638da5cb5b1461046d57806395d89b411461049f578063a3e67610146104b457600080fd5b806360b71d4e146103b75780636c11bcd3146103cd57806370a08231146103ed578063715018a61461042357600080fd5b80632e187a681161017a5780633ccfd60b116101495780633ccfd60b14610335578063470624021461034a5780634af18f4f146103605780634c4adc5c146103a257600080fd5b80632e187a68146102ce578063313ce567146102e45780633610724e14610300578063395093511461031557600080fd5b806317d70f7c116101b657806317d70f7c1461025f57806318160ddd1461028357806323b872dd146102985780632b14ca56146102b857600080fd5b806306fdde03146101dd578063085d488314610208578063095ea7b31461022f575b600080fd5b3480156101e957600080fd5b506101f26105c0565b6040516101ff91906116a1565b60405180910390f35b34801561021457600080fd5b50600c546102229060ff1681565b6040516101ff91906116ef565b34801561023b57600080fd5b5061024f61024a366004611733565b610652565b60405190151581526020016101ff565b34801561026b57600080fd5b50610275600f5481565b6040519081526020016101ff565b34801561028f57600080fd5b50600254610275565b3480156102a457600080fd5b5061024f6102b336600461175d565b61066c565b3480156102c457600080fd5b50610275600a5481565b3480156102da57600080fd5b5061027560075481565b3480156102f057600080fd5b50604051601281526020016101ff565b61031361030e36600461179a565b610690565b005b34801561032157600080fd5b5061024f610330366004611733565b6108bd565b34801561034157600080fd5b506103136108df565b34801561035657600080fd5b5061027560095481565b34801561036c57600080fd5b5061038061037b36600461179a565b61098b565b60408051825181526020808401519082015291810151908201526060016101ff565b3480156103ae57600080fd5b50610313610b3f565b3480156103c357600080fd5b50610275600b5481565b3480156103d957600080fd5b506103136103e836600461179a565b610bd1565b3480156103f957600080fd5b506102756104083660046117b3565b6001600160a01b031660009081526020819052604090205490565b34801561042f57600080fd5b50610313610ce4565b34801561044457600080fd5b5061045861045336600461179a565b610cf8565b604080519283526020830191909152016101ff565b34801561047957600080fd5b506005546001600160a01b03165b6040516001600160a01b0390911681526020016101ff565b3480156104ab57600080fd5b506101f2610d26565b3480156104c057600080fd5b50601054610487906001600160a01b031681565b3480156104e057600080fd5b5061024f6104ef366004611733565b610d35565b34801561050057600080fd5b5061024f61050f366004611733565b610db0565b34801561052057600080fd5b506101f2610dbe565b34801561053557600080fd5b5061027560085481565b34801561054b57600080fd5b5061027561055a3660046117d5565b610e4c565b34801561056b57600080fd5b5060105461024f90600160a01b900460ff1681565b34801561058c57600080fd5b5061031361059b3660046117b3565b610e77565b3480156105ac57600080fd5b506103806105bb36600461179a565b610ef0565b6060600380546105cf90611808565b80601f01602080910402602001604051908101604052809291908181526020018280546105fb90611808565b80156106485780601f1061061d57610100808354040283529160200191610648565b820191906000526020600020905b81548152906001019060200180831161062b57829003601f168201915b5050505050905090565b6000336106608185856110c9565b60019150505b92915050565b60003361067a8582856111ee565b610685858585611268565b506001949350505050565b600081116106e55760405162461bcd60e51b815260206004820181905260248201527f416d6f756e74206d7573742062652067726561746572207468616e207a65726f60448201526064015b60405180910390fd5b600854816007546106f69190611858565b111561073d5760405162461bcd60e51b815260206004820152601660248201527545786365656473206d6178696d756d20737570706c7960501b60448201526064016106dc565b60006107488261098b565b9050806040015134101561079e5760405162461bcd60e51b815260206004820152601760248201527f496e73756666696369656e742066756e64732073656e7400000000000000000060448201526064016106dc565b8060200151600b60008282546107b49190611858565b9250508190555081600760008282546107cd9190611858565b909155506107dd9050338361140c565b600e54600f546020830151604051630efed50760e41b8152600481019290925260248201526001600160a01b039091169063efed5070906044015b600060405180830381600087803b15801561083257600080fd5b505af1158015610846573d6000803e3d6000fd5b5050600e54600f5460075460405163f2b2a74360e01b81526001600160a01b03909316945063f2b2a743935061088792600401918252602082015260400190565b600060405180830381600087803b1580156108a157600080fd5b505af11580156108b5573d6000803e3d6000fd5b505050505050565b6000336106608185856108d08383610e4c565b6108da9190611858565b6110c9565b6010546001600160a01b031633146109475760405162461bcd60e51b815260206004820152602560248201527f4f6e6c7920746f6b656e2070726f66696c65206f776e65722063616e20776974604482015264686472617760d81b60648201526084016106dc565b601054600b546040516001600160a01b039092169181156108fc0291906000818181858888f19350505050158015610983573d6000803e3d6000fd5b506000600b55565b6109af60405180606001604052806000815260200160008152602001600081525090565b600754600090815b600654811015610aee57600681815481106109d4576109d461186b565b906000526020600020906002020160000154821015610ac05760008260068381548110610a0357610a0361186b565b906000526020600020906002020160000154610a1f9190611881565b9050808611610a6a5760068281548110610a3b57610a3b61186b565b90600052602060002090600202016001015486610a589190611894565b610a629085611858565b935050610aee565b60068281548110610a7d57610a7d61186b565b90600052602060002090600202016001015481610a9a9190611894565b610aa49085611858565b9350610ab08187611881565b9550610abc8184611858565b9250505b60068181548110610ad357610ad361186b565b600091825260209091206002909102015491506001016109b7565b50600061271060095484610b029190611894565b610b0c91906118ab565b90506000610b1a8285611858565b6040805160608101825295865260208601939093529184019190915250909392505050565b601080546001600160a01b03191633908117909155600e54600f5460405163d7615fef60e01b8152600481019190915260248101929092526001600160a01b03169063d7615fef90604401600060405180830381600087803b158015610ba457600080fd5b505af1158015610bb8573d6000803e3d6000fd5b50506010805460ff60a01b1916600160a01b1790555050565b600081118015610bf05750336000908152602081905260409020548111155b610c2d5760405162461bcd60e51b815260206004820152600e60248201526d125b9d985b1a5908185b5bdd5b9d60921b60448201526064016106dc565b6000610c3882610ef0565b90508160076000828254610c4c9190611881565b90915550610c5c905033836114cb565b8051604051339180156108fc02916000818181858888f19350505050158015610c89573d6000803e3d6000fd5b508060200151600b6000828254610ca09190611858565b9091555050600e54600f546020830151604051630efed50760e41b8152600481019290925260248201526001600160a01b039091169063efed507090604401610818565b610cec6115f5565b610cf6600061164f565b565b60068181548110610d0857600080fd5b60009182526020909120600290910201805460019091015490915082565b6060600480546105cf90611808565b60003381610d438286610e4c565b905083811015610da35760405162461bcd60e51b815260206004820152602560248201527f45524332303a2064656372656173656420616c6c6f77616e63652062656c6f77604482015264207a65726f60d81b60648201526084016106dc565b61068582868684036110c9565b600033610660818585611268565b600d8054610dcb90611808565b80601f0160208091040260200160405190810160405280929190818152602001828054610df790611808565b8015610e445780601f10610e1957610100808354040283529160200191610e44565b820191906000526020600020905b815481529060010190602001808311610e2757829003601f168201915b505050505081565b6001600160a01b03918216600090815260016020908152604080832093909416825291909152205490565b610e7f6115f5565b6001600160a01b038116610ee45760405162461bcd60e51b815260206004820152602660248201527f4f776e61626c653a206e6577206f776e657220697320746865207a65726f206160448201526564647265737360d01b60648201526084016106dc565b610eed8161164f565b50565b610f1460405180606001604052806000815260200160008152602001600081525090565b60008083600754610f259190611881565b6006549091505b801561109d576006610f3f600183611881565b81548110610f4f57610f4f61186b565b906000526020600020906002020160000154821015611059576000826006610f78600185611881565b81548110610f8857610f8861186b565b906000526020600020906002020160000154610fa49190611881565b9050808611610ff9576006610fba600184611881565b81548110610fca57610fca61186b565b90600052602060002090600202016001015486610fe79190611894565b610ff19085611858565b93505061109d565b6006611006600184611881565b815481106110165761101661186b565b906000526020600020906002020160010154816110339190611894565b61103d9085611858565b93506110498187611881565b95506110558184611858565b9250505b6006611066600183611881565b815481106110765761107661186b565b90600052602060002090600202016000015491508080611095906118cd565b915050610f2c565b506000612710600a54846110b19190611894565b6110bb91906118ab565b90506000610b1a8285611881565b6001600160a01b03831661112b5760405162461bcd60e51b8152602060048201526024808201527f45524332303a20617070726f76652066726f6d20746865207a65726f206164646044820152637265737360e01b60648201526084016106dc565b6001600160a01b03821661118c5760405162461bcd60e51b815260206004820152602260248201527f45524332303a20617070726f766520746f20746865207a65726f206164647265604482015261737360f01b60648201526084016106dc565b6001600160a01b0383811660008181526001602090815260408083209487168084529482529182902085905590518481527f8c5be1e5ebec7d5bd14f71427d1e84f3dd0314c0f7b2291e5b200ac8c7c3b92591015b60405180910390a3505050565b60006111fa8484610e4c565b9050600019811461126257818110156112555760405162461bcd60e51b815260206004820152601d60248201527f45524332303a20696e73756666696369656e7420616c6c6f77616e636500000060448201526064016106dc565b61126284848484036110c9565b50505050565b6001600160a01b0383166112cc5760405162461bcd60e51b815260206004820152602560248201527f45524332303a207472616e736665722066726f6d20746865207a65726f206164604482015264647265737360d81b60648201526084016106dc565b6001600160a01b03821661132e5760405162461bcd60e51b815260206004820152602360248201527f45524332303a207472616e7366657220746f20746865207a65726f206164647260448201526265737360e81b60648201526084016106dc565b6001600160a01b038316600090815260208190526040902054818110156113a65760405162461bcd60e51b815260206004820152602660248201527f45524332303a207472616e7366657220616d6f756e7420657863656564732062604482015265616c616e636560d01b60648201526084016106dc565b6001600160a01b03848116600081815260208181526040808320878703905593871680835291849020805487019055925185815290927fddf252ad1be2c89b69c2b068fc378daa952ba7f163c4a11628f55a4df523b3ef910160405180910390a3611262565b6001600160a01b0382166114625760405162461bcd60e51b815260206004820152601f60248201527f45524332303a206d696e7420746f20746865207a65726f20616464726573730060448201526064016106dc565b80600260008282546114749190611858565b90915550506001600160a01b038216600081815260208181526040808320805486019055518481527fddf252ad1be2c89b69c2b068fc378daa952ba7f163c4a11628f55a4df523b3ef910160405180910390a35050565b6001600160a01b03821661152b5760405162461bcd60e51b815260206004820152602160248201527f45524332303a206275726e2066726f6d20746865207a65726f206164647265736044820152607360f81b60648201526084016106dc565b6001600160a01b0382166000908152602081905260409020548181101561159f5760405162461bcd60e51b815260206004820152602260248201527f45524332303a206275726e20616d6f756e7420657863656564732062616c616e604482015261636560f01b60648201526084016106dc565b6001600160a01b0383166000818152602081815260408083208686039055600280548790039055518581529192917fddf252ad1be2c89b69c2b068fc378daa952ba7f163c4a11628f55a4df523b3ef91016111e1565b6005546001600160a01b03163314610cf65760405162461bcd60e51b815260206004820181905260248201527f4f776e61626c653a2063616c6c6572206973206e6f7420746865206f776e657260448201526064016106dc565b600580546001600160a01b038381166001600160a01b0319831681179093556040519116919082907f8be0079c531659141344cd1fd0a4f28419497f9722a3daafe3b4186f6b6457e090600090a35050565b602081526000825180602084015260005b818110156116cf57602081860181015160408684010152016116b2565b506000604082850101526040601f19601f83011684010191505092915050565b602081016004831061171157634e487b7160e01b600052602160045260246000fd5b91905290565b80356001600160a01b038116811461172e57600080fd5b919050565b6000806040838503121561174657600080fd5b61174f83611717565b946020939093013593505050565b60008060006060848603121561177257600080fd5b61177b84611717565b925061178960208501611717565b929592945050506040919091013590565b6000602082840312156117ac57600080fd5b5035919050565b6000602082840312156117c557600080fd5b6117ce82611717565b9392505050565b600080604083850312156117e857600080fd5b6117f183611717565b91506117ff60208401611717565b90509250929050565b600181811c9082168061181c57607f821691505b60208210810361183c57634e487b7160e01b600052602260045260246000fd5b50919050565b634e487b7160e01b600052601160045260246000fd5b8082018082111561066657610666611842565b634e487b7160e01b600052603260045260246000fd5b8181038181111561066657610666611842565b808202811582820484141761066657610666611842565b6000826118c857634e487b7160e01b600052601260045260246000fd5b500490565b6000816118dc576118dc611842565b50600019019056fea26469706673582212207e72f2f6303fb13bcedf69d11cd8857704e8973fc077a8120f1413dbe9878dac64736f6c634300081b0033",
  "linkReferences": {},
  "deployedLinkReferences": {}
}