{
    "_format": "hh-sol-artifact-1",
    "contractName": "Reclaim",
    "sourceName": "contracts/Reclaim.sol",
    "abi": [
        {
            "inputs": [],
            "name": "Reclaim__GroupAlreadyExists",
            "type": "error"
        },
        {
            "inputs": [],
            "name": "Reclaim__UserAlreadyMerkelized",
            "type": "error"
        },
        {
            "anonymous": false,
            "inputs": [
                {
                    "indexed": false,
                    "internalType": "address",
                    "name": "previousAdmin",
                    "type": "address"
                },
                {
                    "indexed": false,
                    "internalType": "address",
                    "name": "newAdmin",
                    "type": "address"
                }
            ],
            "name": "AdminChanged",
            "type": "event"
        },
        {
            "anonymous": false,
            "inputs": [
                {
                    "indexed": true,
                    "internalType": "address",
                    "name": "beacon",
                    "type": "address"
                }
            ],
            "name": "BeaconUpgraded",
            "type": "event"
        },
        {
            "anonymous": false,
            "inputs": [
                {
                    "indexed": true,
                    "internalType": "bytes32",
                    "name": "dappId",
                    "type": "bytes32"
                }
            ],
            "name": "DappCreated",
            "type": "event"
        },
        {
            "anonymous": false,
            "inputs": [
                {
                    "components": [
                        {
                            "internalType": "uint32",
                            "name": "id",
                            "type": "uint32"
                        },
                        {
                            "internalType": "uint32",
                            "name": "timestampStart",
                            "type": "uint32"
                        },
                        {
                            "internalType": "uint32",
                            "name": "timestampEnd",
                            "type": "uint32"
                        },
                        {
                            "components": [
                                {
                                    "internalType": "address",
                                    "name": "addr",
                                    "type": "address"
                                },
                                {
                                    "internalType": "string",
                                    "name": "host",
                                    "type": "string"
                                }
                            ],
                            "internalType": "struct Reclaim.Witness[]",
                            "name": "witnesses",
                            "type": "tuple[]"
                        },
                        {
                            "internalType": "uint8",
                            "name": "minimumWitnessesForClaimCreation",
                            "type": "uint8"
                        }
                    ],
                    "indexed": false,
                    "internalType": "struct Reclaim.Epoch",
                    "name": "epoch",
                    "type": "tuple"
                }
            ],
            "name": "EpochAdded",
            "type": "event"
        },
        {
            "anonymous": false,
            "inputs": [
                {
                    "indexed": true,
                    "internalType": "uint256",
                    "name": "groupId",
                    "type": "uint256"
                },
                {
                    "indexed": true,
                    "internalType": "string",
                    "name": "provider",
                    "type": "string"
                }
            ],
            "name": "GroupCreated",
            "type": "event"
        },
        {
            "anonymous": false,
            "inputs": [
                {
                    "indexed": false,
                    "internalType": "uint8",
                    "name": "version",
                    "type": "uint8"
                }
            ],
            "name": "Initialized",
            "type": "event"
        },
        {
            "anonymous": false,
            "inputs": [
                {
                    "indexed": true,
                    "internalType": "address",
                    "name": "previousOwner",
                    "type": "address"
                },
                {
                    "indexed": true,
                    "internalType": "address",
                    "name": "newOwner",
                    "type": "address"
                }
            ],
            "name": "OwnershipTransferred",
            "type": "event"
        },
        {
            "anonymous": false,
            "inputs": [
                {
                    "indexed": true,
                    "internalType": "address",
                    "name": "implementation",
                    "type": "address"
                }
            ],
            "name": "Upgraded",
            "type": "event"
        },
        {
            "inputs": [
                {
                    "components": [
                        {
                            "internalType": "address",
                            "name": "addr",
                            "type": "address"
                        },
                        {
                            "internalType": "string",
                            "name": "host",
                            "type": "string"
                        }
                    ],
                    "internalType": "struct Reclaim.Witness[]",
                    "name": "witnesses",
                    "type": "tuple[]"
                },
                {
                    "internalType": "uint8",
                    "name": "requisiteWitnessesForClaimCreate",
                    "type": "uint8"
                }
            ],
            "name": "addNewEpoch",
            "outputs": [],
            "stateMutability": "nonpayable",
            "type": "function"
        },
        {
            "inputs": [
                {
                    "internalType": "uint256",
                    "name": "id",
                    "type": "uint256"
                }
            ],
            "name": "createDapp",
            "outputs": [],
            "stateMutability": "nonpayable",
            "type": "function"
        },
        {
            "inputs": [
                {
                    "internalType": "string",
                    "name": "provider",
                    "type": "string"
                },
                {
                    "internalType": "uint256",
                    "name": "merkleTreeDepth",
                    "type": "uint256"
                }
            ],
            "name": "createGroup",
            "outputs": [],
            "stateMutability": "nonpayable",
            "type": "function"
        },
        {
            "inputs": [],
            "name": "currentEpoch",
            "outputs": [
                {
                    "internalType": "uint32",
                    "name": "",
                    "type": "uint32"
                }
            ],
            "stateMutability": "view",
            "type": "function"
        },
        {
            "inputs": [],
            "name": "epochDurationS",
            "outputs": [
                {
                    "internalType": "uint32",
                    "name": "",
                    "type": "uint32"
                }
            ],
            "stateMutability": "view",
            "type": "function"
        },
        {
            "inputs": [
                {
                    "internalType": "uint256",
                    "name": "",
                    "type": "uint256"
                }
            ],
            "name": "epochs",
            "outputs": [
                {
                    "internalType": "uint32",
                    "name": "id",
                    "type": "uint32"
                },
                {
                    "internalType": "uint32",
                    "name": "timestampStart",
                    "type": "uint32"
                },
                {
                    "internalType": "uint32",
                    "name": "timestampEnd",
                    "type": "uint32"
                },
                {
                    "internalType": "uint8",
                    "name": "minimumWitnessesForClaimCreation",
                    "type": "uint8"
                }
            ],
            "stateMutability": "view",
            "type": "function"
        },
        {
            "inputs": [
                {
                    "internalType": "string",
                    "name": "data",
                    "type": "string"
                },
                {
                    "internalType": "string",
                    "name": "target",
                    "type": "string"
                }
            ],
            "name": "extractFieldFromContext",
            "outputs": [
                {
                    "internalType": "string",
                    "name": "",
                    "type": "string"
                }
            ],
            "stateMutability": "pure",
            "type": "function"
        },
        {
            "inputs": [
                {
                    "internalType": "uint32",
                    "name": "epoch",
                    "type": "uint32"
                }
            ],
            "name": "fetchEpoch",
            "outputs": [
                {
                    "components": [
                        {
                            "internalType": "uint32",
                            "name": "id",
                            "type": "uint32"
                        },
                        {
                            "internalType": "uint32",
                            "name": "timestampStart",
                            "type": "uint32"
                        },
                        {
                            "internalType": "uint32",
                            "name": "timestampEnd",
                            "type": "uint32"
                        },
                        {
                            "components": [
                                {
                                    "internalType": "address",
                                    "name": "addr",
                                    "type": "address"
                                },
                                {
                                    "internalType": "string",
                                    "name": "host",
                                    "type": "string"
                                }
                            ],
                            "internalType": "struct Reclaim.Witness[]",
                            "name": "witnesses",
                            "type": "tuple[]"
                        },
                        {
                            "internalType": "uint8",
                            "name": "minimumWitnessesForClaimCreation",
                            "type": "uint8"
                        }
                    ],
                    "internalType": "struct Reclaim.Epoch",
                    "name": "",
                    "type": "tuple"
                }
            ],
            "stateMutability": "view",
            "type": "function"
        },
        {
            "inputs": [
                {
                    "internalType": "uint32",
                    "name": "epoch",
                    "type": "uint32"
                },
                {
                    "internalType": "bytes32",
                    "name": "identifier",
                    "type": "bytes32"
                },
                {
                    "internalType": "uint32",
                    "name": "timestampS",
                    "type": "uint32"
                }
            ],
            "name": "fetchWitnessesForClaim",
            "outputs": [
                {
                    "components": [
                        {
                            "internalType": "address",
                            "name": "addr",
                            "type": "address"
                        },
                        {
                            "internalType": "string",
                            "name": "host",
                            "type": "string"
                        }
                    ],
                    "internalType": "struct Reclaim.Witness[]",
                    "name": "",
                    "type": "tuple[]"
                }
            ],
            "stateMutability": "view",
            "type": "function"
        },
        {
            "inputs": [
                {
                    "internalType": "string",
                    "name": "provider",
                    "type": "string"
                },
                {
                    "internalType": "string",
                    "name": "params",
                    "type": "string"
                }
            ],
            "name": "getMerkelizedUserParams",
            "outputs": [
                {
                    "internalType": "bool",
                    "name": "",
                    "type": "bool"
                }
            ],
            "stateMutability": "view",
            "type": "function"
        },
        {
            "inputs": [
                {
                    "components": [
                        {
                            "components": [
                                {
                                    "internalType": "string",
                                    "name": "provider",
                                    "type": "string"
                                },
                                {
                                    "internalType": "string",
                                    "name": "parameters",
                                    "type": "string"
                                },
                                {
                                    "internalType": "string",
                                    "name": "context",
                                    "type": "string"
                                }
                            ],
                            "internalType": "struct Claims.ClaimInfo",
                            "name": "claimInfo",
                            "type": "tuple"
                        },
                        {
                            "components": [
                                {
                                    "components": [
                                        {
                                            "internalType": "bytes32",
                                            "name": "identifier",
                                            "type": "bytes32"
                                        },
                                        {
                                            "internalType": "address",
                                            "name": "owner",
                                            "type": "address"
                                        },
                                        {
                                            "internalType": "uint32",
                                            "name": "timestampS",
                                            "type": "uint32"
                                        },
                                        {
                                            "internalType": "uint32",
                                            "name": "epoch",
                                            "type": "uint32"
                                        }
                                    ],
                                    "internalType": "struct Claims.CompleteClaimData",
                                    "name": "claim",
                                    "type": "tuple"
                                },
                                {
                                    "internalType": "bytes[]",
                                    "name": "signatures",
                                    "type": "bytes[]"
                                }
                            ],
                            "internalType": "struct Claims.SignedClaim",
                            "name": "signedClaim",
                            "type": "tuple"
                        }
                    ],
                    "internalType": "struct Reclaim.Proof",
                    "name": "proof",
                    "type": "tuple"
                }
            ],
            "name": "getProviderFromProof",
            "outputs": [
                {
                    "internalType": "string",
                    "name": "",
                    "type": "string"
                }
            ],
            "stateMutability": "pure",
            "type": "function"
        },
        {
            "inputs": [
                {
                    "internalType": "address",
                    "name": "_semaphoreAddress",
                    "type": "address"
                }
            ],
            "name": "initialize",
            "outputs": [],
            "stateMutability": "nonpayable",
            "type": "function"
        },
        {
            "inputs": [
                {
                    "components": [
                        {
                            "components": [
                                {
                                    "internalType": "string",
                                    "name": "provider",
                                    "type": "string"
                                },
                                {
                                    "internalType": "string",
                                    "name": "parameters",
                                    "type": "string"
                                },
                                {
                                    "internalType": "string",
                                    "name": "context",
                                    "type": "string"
                                }
                            ],
                            "internalType": "struct Claims.ClaimInfo",
                            "name": "claimInfo",
                            "type": "tuple"
                        },
                        {
                            "components": [
                                {
                                    "components": [
                                        {
                                            "internalType": "bytes32",
                                            "name": "identifier",
                                            "type": "bytes32"
                                        },
                                        {
                                            "internalType": "address",
                                            "name": "owner",
                                            "type": "address"
                                        },
                                        {
                                            "internalType": "uint32",
                                            "name": "timestampS",
                                            "type": "uint32"
                                        },
                                        {
                                            "internalType": "uint32",
                                            "name": "epoch",
                                            "type": "uint32"
                                        }
                                    ],
                                    "internalType": "struct Claims.CompleteClaimData",
                                    "name": "claim",
                                    "type": "tuple"
                                },
                                {
                                    "internalType": "bytes[]",
                                    "name": "signatures",
                                    "type": "bytes[]"
                                }
                            ],
                            "internalType": "struct Claims.SignedClaim",
                            "name": "signedClaim",
                            "type": "tuple"
                        }
                    ],
                    "internalType": "struct Reclaim.Proof",
                    "name": "proof",
                    "type": "tuple"
                },
                {
                    "internalType": "uint256",
                    "name": "_identityCommitment",
                    "type": "uint256"
                }
            ],
            "name": "merkelizeUser",
            "outputs": [],
            "stateMutability": "nonpayable",
            "type": "function"
        },
        {
            "inputs": [],
            "name": "owner",
            "outputs": [
                {
                    "internalType": "address",
                    "name": "",
                    "type": "address"
                }
            ],
            "stateMutability": "view",
            "type": "function"
        },
        {
            "inputs": [],
            "name": "proxiableUUID",
            "outputs": [
                {
                    "internalType": "bytes32",
                    "name": "",
                    "type": "bytes32"
                }
            ],
            "stateMutability": "view",
            "type": "function"
        },
        {
            "inputs": [],
            "name": "renounceOwnership",
            "outputs": [],
            "stateMutability": "nonpayable",
            "type": "function"
        },
        {
            "inputs": [],
            "name": "semaphoreAddress",
            "outputs": [
                {
                    "internalType": "address",
                    "name": "",
                    "type": "address"
                }
            ],
            "stateMutability": "view",
            "type": "function"
        },
        {
            "inputs": [
                {
                    "internalType": "address",
                    "name": "newOwner",
                    "type": "address"
                }
            ],
            "name": "transferOwnership",
            "outputs": [],
            "stateMutability": "nonpayable",
            "type": "function"
        },
        {
            "inputs": [
                {
                    "internalType": "address",
                    "name": "newImplementation",
                    "type": "address"
                }
            ],
            "name": "upgradeTo",
            "outputs": [],
            "stateMutability": "nonpayable",
            "type": "function"
        },
        {
            "inputs": [
                {
                    "internalType": "address",
                    "name": "newImplementation",
                    "type": "address"
                },
                {
                    "internalType": "bytes",
                    "name": "data",
                    "type": "bytes"
                }
            ],
            "name": "upgradeToAndCall",
            "outputs": [],
            "stateMutability": "payable",
            "type": "function"
        },
        {
            "inputs": [
                {
                    "internalType": "string",
                    "name": "provider",
                    "type": "string"
                },
                {
                    "internalType": "uint256",
                    "name": "_merkleTreeRoot",
                    "type": "uint256"
                },
                {
                    "internalType": "uint256",
                    "name": "_signal",
                    "type": "uint256"
                },
                {
                    "internalType": "uint256",
                    "name": "_nullifierHash",
                    "type": "uint256"
                },
                {
                    "internalType": "uint256",
                    "name": "_externalNullifier",
                    "type": "uint256"
                },
                {
                    "internalType": "bytes32",
                    "name": "dappId",
                    "type": "bytes32"
                },
                {
                    "internalType": "uint256[8]",
                    "name": "_proof",
                    "type": "uint256[8]"
                }
            ],
            "name": "verifyMerkelIdentity",
            "outputs": [
                {
                    "internalType": "bool",
                    "name": "",
                    "type": "bool"
                }
            ],
            "stateMutability": "nonpayable",
            "type": "function"
        },
        {
            "inputs": [
                {
                    "components": [
                        {
                            "components": [
                                {
                                    "internalType": "string",
                                    "name": "provider",
                                    "type": "string"
                                },
                                {
                                    "internalType": "string",
                                    "name": "parameters",
                                    "type": "string"
                                },
                                {
                                    "internalType": "string",
                                    "name": "context",
                                    "type": "string"
                                }
                            ],
                            "internalType": "struct Claims.ClaimInfo",
                            "name": "claimInfo",
                            "type": "tuple"
                        },
                        {
                            "components": [
                                {
                                    "components": [
                                        {
                                            "internalType": "bytes32",
                                            "name": "identifier",
                                            "type": "bytes32"
                                        },
                                        {
                                            "internalType": "address",
                                            "name": "owner",
                                            "type": "address"
                                        },
                                        {
                                            "internalType": "uint32",
                                            "name": "timestampS",
                                            "type": "uint32"
                                        },
                                        {
                                            "internalType": "uint32",
                                            "name": "epoch",
                                            "type": "uint32"
                                        }
                                    ],
                                    "internalType": "struct Claims.CompleteClaimData",
                                    "name": "claim",
                                    "type": "tuple"
                                },
                                {
                                    "internalType": "bytes[]",
                                    "name": "signatures",
                                    "type": "bytes[]"
                                }
                            ],
                            "internalType": "struct Claims.SignedClaim",
                            "name": "signedClaim",
                            "type": "tuple"
                        }
                    ],
                    "internalType": "struct Reclaim.Proof",
                    "name": "proof",
                    "type": "tuple"
                }
            ],
            "name": "verifyProof",
            "outputs": [
                {
                    "internalType": "bool",
                    "name": "",
                    "type": "bool"
                }
            ],
            "stateMutability": "nonpayable",
            "type": "function"
        }
    ],
    "bytecode": "0x60a06040523073ffffffffffffffffffffffffffffffffffffffff1660809073ffffffffffffffffffffffffffffffffffffffff1681525034801561004357600080fd5b5060805161625f61007b600039600081816107900152818161081e015281816114a10152818161152f01526115df015261625f6000f3fe6080604052600436106101355760003560e01c8063739c6891116100ab578063a960e69e1161006f578063a960e69e1461042b578063c4d66de814610468578063c6b61e4c14610491578063e367fc6a146104d1578063f2fde38b146104fa578063f7da2ac91461052357610135565b8063739c689114610332578063766718081461036f57806379ffdb1d1461039a5780638925affe146103c35780638da5cb5b1461040057610135565b80634729504c116100fd5780634729504c146102455780634f1ef2861461026e57806352d1902d1461028a5780635438243c146102b55780635ee4a99e146102de578063715018a61461031b57610135565b806310abbe561461013a578063289989fd146101775780633659cfe6146101a25780633755667e146101cb5780633d3c3e0714610208575b600080fd5b34801561014657600080fd5b50610161600480360381019061015c9190613618565b61054e565b60405161016e919061383b565b60405180910390f35b34801561018357600080fd5b5061018c610778565b604051610199919061386c565b60405180910390f35b3480156101ae57600080fd5b506101c960048036038101906101c491906138b3565b61078e565b005b3480156101d757600080fd5b506101f260048036038101906101ed9190613a15565b610916565b6040516101ff9190613ad7565b60405180910390f35b34801561021457600080fd5b5061022f600480360381019061022a9190613af9565b610d96565b60405161023c9190613c4d565b60405180910390f35b34801561025157600080fd5b5061026c60048036038101906102679190613cfb565b6111e4565b005b61028860048036038101906102839190613dfc565b61149f565b005b34801561029657600080fd5b5061029f6115db565b6040516102ac9190613e67565b60405180910390f35b3480156102c157600080fd5b506102dc60048036038101906102d79190613eb8565b611694565b005b3480156102ea57600080fd5b50610305600480360381019061030091906141f4565b61175f565b6040516103129190613ad7565b60405180910390f35b34801561032757600080fd5b50610330611771565b005b34801561033e57600080fd5b5061035960048036038101906103549190613a15565b611785565b6040516103669190614258565b60405180910390f35b34801561037b57600080fd5b506103846117be565b604051610391919061386c565b60405180910390f35b3480156103a657600080fd5b506103c160048036038101906103bc9190614273565b6117d4565b005b3480156103cf57600080fd5b506103ea60048036038101906103e591906142f1565b6119f6565b6040516103f79190614258565b60405180910390f35b34801561040c57600080fd5b50610415611b09565b60405161042291906143bf565b60405180910390f35b34801561043757600080fd5b50610452600480360381019061044d91906141f4565b611b33565b60405161045f9190614258565b60405180910390f35b34801561047457600080fd5b5061048f600480360381019061048a91906138b3565b611e2c565b005b34801561049d57600080fd5b506104b860048036038101906104b39190613eb8565b611ff2565b6040516104c894939291906143e9565b60405180910390f35b3480156104dd57600080fd5b506104f860048036038101906104f3919061442e565b61206f565b005b34801561050657600080fd5b50610521600480360381019061051c91906138b3565b6121df565b005b34801561052f57600080fd5b50610538612262565b60405161054591906143bf565b60405180910390f35b6060600061055b85610d96565b905060006105878560405160200161057391906144ab565b604051602081830303815290604052612288565b6105968763ffffffff166124a7565b6105a6846080015160ff166124a7565b6105b58763ffffffff166124a7565b6040516020016105c8949392919061454e565b6040516020818303038152906040529050600081805190602001206040516020016105f391906144ab565b60405160208183030381529060405290506000836060015190506000846080015160ff1667ffffffffffffffff8111156106305761062f6138ea565b5b60405190808252806020026020018201604052801561066957816020015b61065661351e565b81526020019060019003908161064e5790505b5090506000825190506000805b876080015160ff168163ffffffff161015610766576000610697878461262f565b9050600084826106a791906145dc565b90508681815181106106bc576106bb61460d565b5b6020026020010151868463ffffffff16815181106106dd576106dc61460d565b5b6020026020010181905250866001866106f6919061466b565b815181106107075761070661460d565b5b60200260200101518782815181106107225761072161460d565b5b6020026020010181905250875160048561073c919061469f565b61074691906145dc565b9350600185610755919061466b565b945050508080600101915050610676565b50829750505050505050509392505050565b60ca60149054906101000a900463ffffffff1681565b7f000000000000000000000000000000000000000000000000000000000000000073ffffffffffffffffffffffffffffffffffffffff163073ffffffffffffffffffffffffffffffffffffffff160361081c576040517f08c379a000000000000000000000000000000000000000000000000000000000815260040161081390614745565b60405180910390fd5b7f000000000000000000000000000000000000000000000000000000000000000073ffffffffffffffffffffffffffffffffffffffff1661085b61269c565b73ffffffffffffffffffffffffffffffffffffffff16146108b1576040517f08c379a00000000000000000000000000000000000000000000000000000000081526004016108a8906147d7565b60405180910390fd5b6108ba816126f3565b61091381600067ffffffffffffffff8111156108d9576108d86138ea565b5b6040519080825280601f01601f19166020018201604052801561090b5781602001600182028036833780820191505090505b5060006126fe565b50565b606060008390506000839050805182511015610967576040517f08c379a000000000000000000000000000000000000000000000000000000000815260040161095e90614843565b60405180910390fd5b60008060005b8351855161097b919061466b565b8111610a785760006001905060005b8551811080156109975750815b15610a44578581815181106109af576109ae61460d565b5b602001015160f81c60f81b7effffffffffffffffffffffffffffffffffffffffffffffffffffffffffffff19168782856109e9919061469f565b815181106109fa576109f961460d565b5b602001015160f81c60f81b7effffffffffffffffffffffffffffffffffffffffffffffffffffffffffffff191614610a3157600091505b8080610a3c90614863565b91505061098a565b508015610a6457845182610a58919061469f565b93506001925050610a78565b508080610a7090614863565b91505061096d565b5080610a995760405180602001604052806000815250945050505050610d90565b60008290505b845181108015610b8557507f2200000000000000000000000000000000000000000000000000000000000000858281518110610ade57610add61460d565b5b602001015160f81c60f81b7effffffffffffffffffffffffffffffffffffffffffffffffffffffffffffff1916148015610b8357507f5c0000000000000000000000000000000000000000000000000000000000000085600183610b42919061466b565b81518110610b5357610b5261460d565b5b602001015160f81c60f81b7effffffffffffffffffffffffffffffffffffffffffffffffffffffffffffff191614155b155b15610b9d578080610b9590614863565b915050610a9f565b8281111580610c8257507f2200000000000000000000000000000000000000000000000000000000000000858281518110610bdb57610bda61460d565b5b602001015160f81c60f81b7effffffffffffffffffffffffffffffffffffffffffffffffffffffffffffff1916148015610c8057507f5c0000000000000000000000000000000000000000000000000000000000000085600183610c3f919061466b565b81518110610c5057610c4f61460d565b5b602001015160f81c60f81b7effffffffffffffffffffffffffffffffffffffffffffffffffffffffffffff191614155b155b15610ca3576040518060200160405280600081525095505050505050610d90565b60008382610cb1919061466b565b67ffffffffffffffff811115610cca57610cc96138ea565b5b6040519080825280601f01601f191660200182016040528015610cfc5781602001600182028036833780820191505090505b50905060008490505b82811015610d8557868181518110610d2057610d1f61460d565b5b602001015160f81c60f81b828683610d38919061466b565b81518110610d4957610d4861460d565b5b60200101907effffffffffffffffffffffffffffffffffffffffffffffffffffffffffffff1916908160001a9053508080600101915050610d05565b508096505050505050505b92915050565b610d9e61354e565b60008263ffffffff1603610fc75760c9600160c980549050610dc0919061466b565b81548110610dd157610dd061460d565b5b90600052602060002090600302016040518060a00160405290816000820160009054906101000a900463ffffffff1663ffffffff1663ffffffff1681526020016000820160049054906101000a900463ffffffff1663ffffffff1663ffffffff1681526020016000820160089054906101000a900463ffffffff1663ffffffff1663ffffffff16815260200160018201805480602002602001604051908101604052809291908181526020016000905b82821015610f9b57838290600052602060002090600202016040518060400160405290816000820160009054906101000a900473ffffffffffffffffffffffffffffffffffffffff1673ffffffffffffffffffffffffffffffffffffffff1673ffffffffffffffffffffffffffffffffffffffff168152602001600182018054610f0a906148da565b80601f0160208091040260200160405190810160405280929190818152602001828054610f36906148da565b8015610f835780601f10610f5857610100808354040283529160200191610f83565b820191906000526020600020905b815481529060010190602001808311610f6657829003601f168201915b50505050508152505081526020019060010190610e81565b5050505081526020016002820160009054906101000a900460ff1660ff1660ff168152505090506111df565b60c9600183610fd6919061490b565b63ffffffff1681548110610fed57610fec61460d565b5b90600052602060002090600302016040518060a00160405290816000820160009054906101000a900463ffffffff1663ffffffff1663ffffffff1681526020016000820160049054906101000a900463ffffffff1663ffffffff1663ffffffff1681526020016000820160089054906101000a900463ffffffff1663ffffffff1663ffffffff16815260200160018201805480602002602001604051908101604052809291908181526020016000905b828210156111b757838290600052602060002090600202016040518060400160405290816000820160009054906101000a900473ffffffffffffffffffffffffffffffffffffffff1673ffffffffffffffffffffffffffffffffffffffff1673ffffffffffffffffffffffffffffffffffffffff168152602001600182018054611126906148da565b80601f0160208091040260200160405190810160405280929190818152602001828054611152906148da565b801561119f5780601f106111745761010080835404028352916020019161119f565b820191906000526020600020905b81548152906001019060200180831161118257829003601f168201915b5050505050815250508152602001906001019061109d565b5050505081526020016002820160009054906101000a900460ff1660ff1660ff168152505090505b919050565b6111ec61286c565b600060ca60149054906101000a900463ffffffff1663ffffffff1603611231576201518060ca60146101000a81548163ffffffff021916908363ffffffff1602179055505b600060c9805490501115611295574260c9600160c980549050611254919061466b565b815481106112655761126461460d565b5b906000526020600020906003020160000160086101000a81548163ffffffff021916908363ffffffff1602179055505b600160ca60188282829054906101000a900463ffffffff166112b79190614943565b92506101000a81548163ffffffff021916908363ffffffff160217905550600060c9600181600181540180825580915050039060005260206000209060030201905060ca60189054906101000a900463ffffffff168160000160006101000a81548163ffffffff021916908363ffffffff160217905550428160000160046101000a81548163ffffffff021916908363ffffffff16021790555060ca60149054906101000a900463ffffffff1663ffffffff1642611375919061469f565b8160000160086101000a81548163ffffffff021916908363ffffffff160217905550818160020160006101000a81548160ff021916908360ff16021790555060005b8484905081101561142f57816001018585838181106113d9576113d861460d565b5b90506020028101906113eb919061498a565b908060018154018082558091505060019003906000526020600020906002020160009091909190915081816114209190614dbe565b505080806001019150506113b7565b507fb2a1462b8d912a9fe495da7a1188c48bb87bac4644a0931aa4ce2dd7017ce36560c9600160c980549050611465919061466b565b815481106114765761147561460d565b5b906000526020600020906003020160405161149191906150c9565b60405180910390a150505050565b7f000000000000000000000000000000000000000000000000000000000000000073ffffffffffffffffffffffffffffffffffffffff163073ffffffffffffffffffffffffffffffffffffffff160361152d576040517f08c379a000000000000000000000000000000000000000000000000000000000815260040161152490614745565b60405180910390fd5b7f000000000000000000000000000000000000000000000000000000000000000073ffffffffffffffffffffffffffffffffffffffff1661156c61269c565b73ffffffffffffffffffffffffffffffffffffffff16146115c2576040517f08c379a00000000000000000000000000000000000000000000000000000000081526004016115b9906147d7565b60405180910390fd5b6115cb826126f3565b6115d7828260016126fe565b5050565b60007f000000000000000000000000000000000000000000000000000000000000000073ffffffffffffffffffffffffffffffffffffffff163073ffffffffffffffffffffffffffffffffffffffff161461166b576040517f08c379a00000000000000000000000000000000000000000000000000000000081526004016116629061515d565b60405180910390fd5b7f360894a13ba1a3210667c828492db98dca3e2076cc3735a920a3ca505d382bbc60001b905090565b600033826040516020016116a99291906151e6565b6040516020818303038152906040528051906020012090508160cf60008381526020019081526020016000205403611716576040517f08c379a000000000000000000000000000000000000000000000000000000000815260040161170d9061525e565b60405180910390fd5b8160cf600083815260200190815260200160002081905550807fe1ba945d9cf27531473738a81cb433321b8fccb7aa326b0dd4f820c23a6d277f60405160405180910390a25050565b60608160000151600001519050919050565b61177961286c565b61178360006128ea565b565b60008061179284846129b0565b905060ce600082815260200190815260200160002060009054906101000a900460ff1691505092915050565b60ca60189054906101000a900463ffffffff1681565b60cd60009054906101000a900460ff1615611824576040517f08c379a000000000000000000000000000000000000000000000000000000000815260040161181b906152ca565b60405180910390fd5b600160cd60006101000a81548160ff0219169083151502179055506000611852836000015160000151612a25565b905060006118708460000151600001518560000151602001516129b0565b90506001151560ce600083815260200190815260200160002060009054906101000a900460ff161515036118d0576040517ffd2131a100000000000000000000000000000000000000000000000000000000815260040160405180910390fd5b6118d984611b33565b506001151560cb600084815260200190815260200160002060009054906101000a900460ff1615151461191a57611919846000015160000151601461206f565b5b60ca60009054906101000a900473ffffffffffffffffffffffffffffffffffffffff1673ffffffffffffffffffffffffffffffffffffffff16631783efc383856040518363ffffffff1660e01b81526004016119779291906152f9565b600060405180830381600087803b15801561199157600080fd5b505af11580156119a5573d6000803e3d6000fd5b50505050600160ce600083815260200190815260200160002060006101000a81548160ff0219169083151502179055505050600060cd60006101000a81548160ff0219169083151502179055505050565b60008360cf60008581526020019081526020016000205414611a4d576040517f08c379a0000000000000000000000000000000000000000000000000000000008152600401611a449061536e565b60405180910390fd5b6000611a5889612a25565b905060ca60009054906101000a900473ffffffffffffffffffffffffffffffffffffffff1673ffffffffffffffffffffffffffffffffffffffff16633bc778e3828a8a8a8a896040518763ffffffff1660e01b8152600401611abf969594939291906153a8565b600060405180830381600087803b158015611ad957600080fd5b505af1925050508015611aea575060015b611af8576000915050611afe565b60019150505b979650505050505050565b6000609760009054906101000a900473ffffffffffffffffffffffffffffffffffffffff16905090565b6000808260200151602001515111611b80576040517f08c379a0000000000000000000000000000000000000000000000000000000008152600401611b7790615456565b60405180910390fd5b60006040518060400160405280846020015160000151815260200184602001516020015181525090506000611bb88460000151612a7c565b9050808460200151600001516000015114611bd257600080fd5b6000611c0385602001516000015160600151866020015160000151600001518760200151600001516040015161054e565b90506000611c1084612ac1565b90508151815114611c56576040517f08c379a0000000000000000000000000000000000000000000000000000000008152600401611c4d906154e8565b60405180910390fd5b60005b8151811015611d345760005b8251811015611d265780820315611d1957828181518110611c8957611c8861460d565b5b602002602001015173ffffffffffffffffffffffffffffffffffffffff16838381518110611cba57611cb961460d565b5b602002602001015173ffffffffffffffffffffffffffffffffffffffff1603611d18576040517f08c379a0000000000000000000000000000000000000000000000000000000008152600401611d0f90615554565b60405180910390fd5b5b8080600101915050611c65565b508080600101915050611c59565b5060005b846020015151811015611e22576000805b8451811015611dd357848181518110611d6557611d6461460d565b5b60200260200101516000015173ffffffffffffffffffffffffffffffffffffffff16848481518110611d9a57611d9961460d565b5b602002602001015173ffffffffffffffffffffffffffffffffffffffff1603611dc65760019150611dd3565b8080600101915050611d49565b5080611e14576040517f08c379a0000000000000000000000000000000000000000000000000000000008152600401611e0b906155c0565b60405180910390fd5b508080600101915050611d38565b5050505050919050565b60008060019054906101000a900460ff16159050808015611e5d5750600160008054906101000a900460ff1660ff16105b80611e8a5750611e6c30612bc3565b158015611e895750600160008054906101000a900460ff1660ff16145b5b611ec9576040517f08c379a0000000000000000000000000000000000000000000000000000000008152600401611ec090615652565b60405180910390fd5b60016000806101000a81548160ff021916908360ff1602179055508015611f06576001600060016101000a81548160ff0219169083151502179055505b611f0e612be6565b6201518060ca60146101000a81548163ffffffff021916908363ffffffff160217905550600060ca60186101000a81548163ffffffff021916908363ffffffff1602179055508160ca60006101000a81548173ffffffffffffffffffffffffffffffffffffffff021916908373ffffffffffffffffffffffffffffffffffffffff1602179055508015611fee5760008060016101000a81548160ff0219169083151502179055507f7f26b83ff96e1f2b6a682f133852f6798a09c465da95921460cefb38474024986001604051611fe591906156ad565b60405180910390a15b5050565b60c9818154811061200257600080fd5b90600052602060002090600302016000915090508060000160009054906101000a900463ffffffff16908060000160049054906101000a900463ffffffff16908060000160089054906101000a900463ffffffff16908060020160009054906101000a900460ff16905084565b600061207a83612a25565b90506001151560cb600083815260200190815260200160002060009054906101000a900460ff161515036120da576040517f8cdd92e900000000000000000000000000000000000000000000000000000000815260040160405180910390fd5b60ca60009054906101000a900473ffffffffffffffffffffffffffffffffffffffff1673ffffffffffffffffffffffffffffffffffffffff16639c1121418284306040518463ffffffff1660e01b8152600401612139939291906156c8565b600060405180830381600087803b15801561215357600080fd5b505af1158015612167573d6000803e3d6000fd5b50505050600160cb600083815260200190815260200160002060006101000a81548160ff021916908315150217905550826040516121a591906156ff565b6040518091039020817fa27df82d27a5b2a66bcd0c6210f8024283ed1197a6d8e30372f8df2e487c376e60405160405180910390a3505050565b6121e761286c565b600073ffffffffffffffffffffffffffffffffffffffff168173ffffffffffffffffffffffffffffffffffffffff1603612256576040517f08c379a000000000000000000000000000000000000000000000000000000000815260040161224d90615788565b60405180910390fd5b61225f816128ea565b50565b60ca60009054906101000a900473ffffffffffffffffffffffffffffffffffffffff1681565b606060006002835161229a91906157a8565b67ffffffffffffffff8111156122b3576122b26138ea565b5b6040519080825280601f01601f1916602001820160405280156122e55781602001600182028036833780820191505090505b50905060006040518060400160405280601081526020017f3031323334353637383961626364656600000000000000000000000000000000815250905060005b845181101561247d578182518683815181106123445761234361460d565b5b602001015160f81c60f81b60f81c60ff1661235f91906157ea565b815181106123705761236f61460d565b5b602001015160f81c60f81b8360028361238991906157a8565b8151811061239a5761239961460d565b5b60200101907effffffffffffffffffffffffffffffffffffffffffffffffffffffffffffff1916908160001a9053508182518683815181106123df576123de61460d565b5b602001015160f81c60f81b60f81c60ff166123fa91906145dc565b8151811061240b5761240a61460d565b5b602001015160f81c60f81b83600160028461242691906157a8565b612430919061469f565b815181106124415761244061460d565b5b60200101907effffffffffffffffffffffffffffffffffffffffffffffffffffffffffffff1916908160001a9053508080600101915050612325565b508160405160200161248f91906158ae565b60405160208183030381529060405292505050919050565b6060600082036124ee576040518060400160405280600181526020017f3000000000000000000000000000000000000000000000000000000000000000815250905061262a565b600082905060005b6000821461252057808061250990614863565b915050600a8261251991906157ea565b91506124f6565b60008167ffffffffffffffff81111561253c5761253b6138ea565b5b6040519080825280601f01601f19166020018201604052801561256e5781602001600182028036833780820191505090505b50905060008290505b600086146126225760018161258c919061466b565b90506000600a808861259e91906157ea565b6125a891906157a8565b876125b3919061466b565b60306125bf91906158d0565b905060008160f81b9050808484815181106125dd576125dc61460d565b5b60200101907effffffffffffffffffffffffffffffffffffffffffffffffffffffffffffff1916908160001a905350600a8861261991906157ea565b97505050612577565b819450505050505b919050565b60008251600483612640919061469f565b1115612681576040517f08c379a000000000000000000000000000000000000000000000000000000000815260040161267890615977565b60405180910390fd5b60008260048501015190508063ffffffff1691505092915050565b60006126ca7f360894a13ba1a3210667c828492db98dca3e2076cc3735a920a3ca505d382bbc60001b612c3f565b60000160009054906101000a900473ffffffffffffffffffffffffffffffffffffffff16905090565b6126fb61286c565b50565b61272a7f4910fdfa16fed3260ed0e7147f7cc6da11a60208b5b9406d12a635614ffd914360001b612c49565b60000160009054906101000a900460ff161561274e5761274983612c53565b612867565b8273ffffffffffffffffffffffffffffffffffffffff166352d1902d6040518163ffffffff1660e01b8152600401602060405180830381865afa9250505080156127b657506040513d601f19601f820116820180604052508101906127b391906159ac565b60015b6127f5576040517f08c379a00000000000000000000000000000000000000000000000000000000081526004016127ec90615a4b565b60405180910390fd5b7f360894a13ba1a3210667c828492db98dca3e2076cc3735a920a3ca505d382bbc60001b811461285a576040517f08c379a000000000000000000000000000000000000000000000000000000000815260040161285190615add565b60405180910390fd5b50612866838383612d0c565b5b505050565b612874612d38565b73ffffffffffffffffffffffffffffffffffffffff16612892611b09565b73ffffffffffffffffffffffffffffffffffffffff16146128e8576040517f08c379a00000000000000000000000000000000000000000000000000000000081526004016128df90615b49565b60405180910390fd5b565b6000609760009054906101000a900473ffffffffffffffffffffffffffffffffffffffff16905081609760006101000a81548173ffffffffffffffffffffffffffffffffffffffff021916908373ffffffffffffffffffffffffffffffffffffffff1602179055508173ffffffffffffffffffffffffffffffffffffffff168173ffffffffffffffffffffffffffffffffffffffff167f8be0079c531659141344cd1fd0a4f28419497f9722a3daafe3b4186f6b6457e060405160405180910390a35050565b6000806040518060400160405280600181526020017f3a0000000000000000000000000000000000000000000000000000000000000081525090506000848285604051602001612a0293929190615b69565b604051602081830303815290604052805190602001209050809250505092915050565b60008082905060008180519060200120604051602001612a4591906144ab565b60405160208183030381529060405290506000612a6f8260048451612a6a919061466b565b61262f565b9050809350505050919050565b600080826000015183602001518460400151604051602001612aa093929190615b9a565b60405160208183030381529060405290508080519060200120915050919050565b60606000612ad28360000151612d40565b9050600083602001515167ffffffffffffffff811115612af557612af46138ea565b5b604051908082528060200260200182016040528015612b235781602001602082028036833780820191505090505b50905060005b846020015151811015612bb857612b5e8386602001518381518110612b5157612b5061460d565b5b6020026020010151612dca565b828281518110612b7157612b7061460d565b5b602002602001019073ffffffffffffffffffffffffffffffffffffffff16908173ffffffffffffffffffffffffffffffffffffffff16815250508080600101915050612b29565b508092505050919050565b6000808273ffffffffffffffffffffffffffffffffffffffff163b119050919050565b600060019054906101000a900460ff16612c35576040517f08c379a0000000000000000000000000000000000000000000000000000000008152600401612c2c90615c53565b60405180910390fd5b612c3d612e14565b565b6000819050919050565b6000819050919050565b612c5c81612bc3565b612c9b576040517f08c379a0000000000000000000000000000000000000000000000000000000008152600401612c9290615ce5565b60405180910390fd5b80612cc87f360894a13ba1a3210667c828492db98dca3e2076cc3735a920a3ca505d382bbc60001b612c3f565b60000160006101000a81548173ffffffffffffffffffffffffffffffffffffffff021916908373ffffffffffffffffffffffffffffffffffffffff16021790555050565b612d1583612e75565b600082511180612d225750805b15612d3357612d318383612ec4565b505b505050565b600033905090565b6060612d6e8260000151604051602001612d5a91906144ab565b604051602081830303815290604052612288565b612d7b8360200151612ef1565b612d8e846040015163ffffffff166124a7565b612da1856060015163ffffffff166124a7565b604051602001612db4949392919061454e565b6040516020818303038152906040529050919050565b600080612dd784516124a7565b84604051602001612de9929190615d51565b604051602081830303815290604052805190602001209050612e0b81846130cd565b91505092915050565b600060019054906101000a900460ff16612e63576040517f08c379a0000000000000000000000000000000000000000000000000000000008152600401612e5a90615c53565b60405180910390fd5b612e73612e6e612d38565b6128ea565b565b612e7e81612c53565b8073ffffffffffffffffffffffffffffffffffffffff167fbc7cd75a20ee27fd9adebab32041f755214dbc6bffa90cc0225b39da2e5c2d3b60405160405180910390a250565b6060612ee98383604051806060016040528060278152602001616203602791396130f4565b905092915050565b60606000602867ffffffffffffffff811115612f1057612f0f6138ea565b5b6040519080825280601f01601f191660200182016040528015612f425781602001600182028036833780820191505090505b50905060005b60148110156130a4576000816013612f60919061466b565b6008612f6c91906157a8565b6002612f789190615eb3565b8573ffffffffffffffffffffffffffffffffffffffff16612f9991906157ea565b60f81b9050600060108260f81c612fb09190615efe565b60f81b905060008160f81c6010612fc79190615f2f565b8360f81c612fd59190615f6c565b60f81b9050612fe38261317a565b85856002612ff191906157a8565b815181106130025761300161460d565b5b60200101907effffffffffffffffffffffffffffffffffffffffffffffffffffffffffffff1916908160001a90535061303a8161317a565b85600186600261304a91906157a8565b613054919061469f565b815181106130655761306461460d565b5b60200101907effffffffffffffffffffffffffffffffffffffffffffffffffffffffffffff1916908160001a9053505050508080600101915050612f48565b50806040516020016130b691906158ae565b604051602081830303815290604052915050919050565b60008060006130dc85856131c0565b915091506130e981613211565b819250505092915050565b60606000808573ffffffffffffffffffffffffffffffffffffffff168560405161311e9190615fa1565b600060405180830381855af49150503d8060008114613159576040519150601f19603f3d011682016040523d82523d6000602084013e61315e565b606091505b509150915061316f86838387613377565b925050509392505050565b6000600a8260f81c60ff1610156131a55760308260f81c61319b91906158d0565b60f81b90506131bb565b60578260f81c6131b591906158d0565b60f81b90505b919050565b60008060418351036132015760008060006020860151925060408601519150606086015160001a90506131f5878285856133ec565b9450945050505061320a565b60006002915091505b9250929050565b6000600481111561322557613224615fb8565b5b81600481111561323857613237615fb8565b5b0315613374576001600481111561325257613251615fb8565b5b81600481111561326557613264615fb8565b5b036132a5576040517f08c379a000000000000000000000000000000000000000000000000000000000815260040161329c90616033565b60405180910390fd5b600260048111156132b9576132b8615fb8565b5b8160048111156132cc576132cb615fb8565b5b0361330c576040517f08c379a00000000000000000000000000000000000000000000000000000000081526004016133039061609f565b60405180910390fd5b600360048111156133205761331f615fb8565b5b81600481111561333357613332615fb8565b5b03613373576040517f08c379a000000000000000000000000000000000000000000000000000000000815260040161336a90616131565b60405180910390fd5b5b50565b606083156133d95760008351036133d15761339185612bc3565b6133d0576040517f08c379a00000000000000000000000000000000000000000000000000000000081526004016133c79061619d565b60405180910390fd5b5b8290506133e4565b6133e383836134ce565b5b949350505050565b6000807f7fffffffffffffffffffffffffffffff5d576e7357a4501ddfe92f46681b20a08360001c11156134275760006003915091506134c5565b60006001878787876040516000815260200160405260405161344c94939291906161bd565b6020604051602081039080840390855afa15801561346e573d6000803e3d6000fd5b505050602060405103519050600073ffffffffffffffffffffffffffffffffffffffff168173ffffffffffffffffffffffffffffffffffffffff16036134bc576000600192509250506134c5565b80600092509250505b94509492505050565b6000825111156134e15781518083602001fd5b806040517f08c379a00000000000000000000000000000000000000000000000000000000081526004016135159190613ad7565b60405180910390fd5b6040518060400160405280600073ffffffffffffffffffffffffffffffffffffffff168152602001606081525090565b6040518060a00160405280600063ffffffff168152602001600063ffffffff168152602001600063ffffffff16815260200160608152602001600060ff1681525090565b6000604051905090565b600080fd5b600080fd5b600063ffffffff82169050919050565b6135bf816135a6565b81146135ca57600080fd5b50565b6000813590506135dc816135b6565b92915050565b6000819050919050565b6135f5816135e2565b811461360057600080fd5b50565b600081359050613612816135ec565b92915050565b6000806000606084860312156136315761363061359c565b5b600061363f868287016135cd565b935050602061365086828701613603565b9250506040613661868287016135cd565b9150509250925092565b600081519050919050565b600082825260208201905092915050565b6000819050602082019050919050565b600073ffffffffffffffffffffffffffffffffffffffff82169050919050565b60006136c282613697565b9050919050565b6136d2816136b7565b82525050565b600081519050919050565b600082825260208201905092915050565b60005b838110156137125780820151818401526020810190506136f7565b60008484015250505050565b6000601f19601f8301169050919050565b600061373a826136d8565b61374481856136e3565b93506137548185602086016136f4565b61375d8161371e565b840191505092915050565b600060408301600083015161378060008601826136c9565b5060208301518482036020860152613798828261372f565b9150508091505092915050565b60006137b18383613768565b905092915050565b6000602082019050919050565b60006137d18261366b565b6137db8185613676565b9350836020820285016137ed85613687565b8060005b85811015613829578484038952815161380a85826137a5565b9450613815836137b9565b925060208a019950506001810190506137f1565b50829750879550505050505092915050565b6000602082019050818103600083015261385581846137c6565b905092915050565b613866816135a6565b82525050565b6000602082019050613881600083018461385d565b92915050565b613890816136b7565b811461389b57600080fd5b50565b6000813590506138ad81613887565b92915050565b6000602082840312156138c9576138c861359c565b5b60006138d78482850161389e565b91505092915050565b600080fd5b600080fd5b7f4e487b7100000000000000000000000000000000000000000000000000000000600052604160045260246000fd5b6139228261371e565b810181811067ffffffffffffffff82111715613941576139406138ea565b5b80604052505050565b6000613954613592565b90506139608282613919565b919050565b600067ffffffffffffffff8211156139805761397f6138ea565b5b6139898261371e565b9050602081019050919050565b82818337600083830152505050565b60006139b86139b384613965565b61394a565b9050828152602081018484840111156139d4576139d36138e5565b5b6139df848285613996565b509392505050565b600082601f8301126139fc576139fb6138e0565b5b8135613a0c8482602086016139a5565b91505092915050565b60008060408385031215613a2c57613a2b61359c565b5b600083013567ffffffffffffffff811115613a4a57613a496135a1565b5b613a56858286016139e7565b925050602083013567ffffffffffffffff811115613a7757613a766135a1565b5b613a83858286016139e7565b9150509250929050565b600082825260208201905092915050565b6000613aa9826136d8565b613ab38185613a8d565b9350613ac38185602086016136f4565b613acc8161371e565b840191505092915050565b60006020820190508181036000830152613af18184613a9e565b905092915050565b600060208284031215613b0f57613b0e61359c565b5b6000613b1d848285016135cd565b91505092915050565b613b2f816135a6565b82525050565b600082825260208201905092915050565b6000613b518261366b565b613b5b8185613b35565b935083602082028501613b6d85613687565b8060005b85811015613ba95784840389528151613b8a85826137a5565b9450613b95836137b9565b925060208a01995050600181019050613b71565b50829750879550505050505092915050565b600060ff82169050919050565b613bd181613bbb565b82525050565b600060a083016000830151613bef6000860182613b26565b506020830151613c026020860182613b26565b506040830151613c156040860182613b26565b5060608301518482036060860152613c2d8282613b46565b9150506080830151613c426080860182613bc8565b508091505092915050565b60006020820190508181036000830152613c678184613bd7565b905092915050565b600080fd5b600080fd5b60008083601f840112613c8f57613c8e6138e0565b5b8235905067ffffffffffffffff811115613cac57613cab613c6f565b5b602083019150836020820283011115613cc857613cc7613c74565b5b9250929050565b613cd881613bbb565b8114613ce357600080fd5b50565b600081359050613cf581613ccf565b92915050565b600080600060408486031215613d1457613d1361359c565b5b600084013567ffffffffffffffff811115613d3257613d316135a1565b5b613d3e86828701613c79565b93509350506020613d5186828701613ce6565b9150509250925092565b600067ffffffffffffffff821115613d7657613d756138ea565b5b613d7f8261371e565b9050602081019050919050565b6000613d9f613d9a84613d5b565b61394a565b905082815260208101848484011115613dbb57613dba6138e5565b5b613dc6848285613996565b509392505050565b600082601f830112613de357613de26138e0565b5b8135613df3848260208601613d8c565b91505092915050565b60008060408385031215613e1357613e1261359c565b5b6000613e218582860161389e565b925050602083013567ffffffffffffffff811115613e4257613e416135a1565b5b613e4e85828601613dce565b9150509250929050565b613e61816135e2565b82525050565b6000602082019050613e7c6000830184613e58565b92915050565b6000819050919050565b613e9581613e82565b8114613ea057600080fd5b50565b600081359050613eb281613e8c565b92915050565b600060208284031215613ece57613ecd61359c565b5b6000613edc84828501613ea3565b91505092915050565b600080fd5b600080fd5b600060608284031215613f0557613f04613ee5565b5b613f0f606061394a565b9050600082013567ffffffffffffffff811115613f2f57613f2e613eea565b5b613f3b848285016139e7565b600083015250602082013567ffffffffffffffff811115613f5f57613f5e613eea565b5b613f6b848285016139e7565b602083015250604082013567ffffffffffffffff811115613f8f57613f8e613eea565b5b613f9b848285016139e7565b60408301525092915050565b600060808284031215613fbd57613fbc613ee5565b5b613fc7608061394a565b90506000613fd784828501613603565b6000830152506020613feb8482850161389e565b6020830152506040613fff848285016135cd565b6040830152506060614013848285016135cd565b60608301525092915050565b600067ffffffffffffffff82111561403a576140396138ea565b5b602082029050602081019050919050565b600061405e6140598461401f565b61394a565b9050808382526020820190506020840283018581111561408157614080613c74565b5b835b818110156140c857803567ffffffffffffffff8111156140a6576140a56138e0565b5b8086016140b38982613dce565b85526020850194505050602081019050614083565b5050509392505050565b600082601f8301126140e7576140e66138e0565b5b81356140f784826020860161404b565b91505092915050565b600060a0828403121561411657614115613ee5565b5b614120604061394a565b9050600061413084828501613fa7565b600083015250608082013567ffffffffffffffff81111561415457614153613eea565b5b614160848285016140d2565b60208301525092915050565b60006040828403121561418257614181613ee5565b5b61418c604061394a565b9050600082013567ffffffffffffffff8111156141ac576141ab613eea565b5b6141b884828501613eef565b600083015250602082013567ffffffffffffffff8111156141dc576141db613eea565b5b6141e884828501614100565b60208301525092915050565b60006020828403121561420a5761420961359c565b5b600082013567ffffffffffffffff811115614228576142276135a1565b5b6142348482850161416c565b91505092915050565b60008115159050919050565b6142528161423d565b82525050565b600060208201905061426d6000830184614249565b92915050565b6000806040838503121561428a5761428961359c565b5b600083013567ffffffffffffffff8111156142a8576142a76135a1565b5b6142b48582860161416c565b92505060206142c585828601613ea3565b9150509250929050565b6000819050826020600802820111156142eb576142ea613c74565b5b92915050565b60008060008060008060006101c0888a0312156143115761431061359c565b5b600088013567ffffffffffffffff81111561432f5761432e6135a1565b5b61433b8a828b016139e7565b975050602061434c8a828b01613ea3565b965050604061435d8a828b01613ea3565b955050606061436e8a828b01613ea3565b945050608061437f8a828b01613ea3565b93505060a06143908a828b01613603565b92505060c06143a18a828b016142cf565b91505092959891949750929550565b6143b9816136b7565b82525050565b60006020820190506143d460008301846143b0565b92915050565b6143e381613bbb565b82525050565b60006080820190506143fe600083018761385d565b61440b602083018661385d565b614418604083018561385d565b61442560608301846143da565b95945050505050565b600080604083850312156144455761444461359c565b5b600083013567ffffffffffffffff811115614463576144626135a1565b5b61446f858286016139e7565b925050602061448085828601613ea3565b9150509250929050565b6000819050919050565b6144a56144a0826135e2565b61448a565b82525050565b60006144b78284614494565b60208201915081905092915050565b600081905092915050565b60006144dc826136d8565b6144e681856144c6565b93506144f68185602086016136f4565b80840191505092915050565b7f0a00000000000000000000000000000000000000000000000000000000000000600082015250565b60006145386001836144c6565b915061454382614502565b600182019050919050565b600061455a82876144d1565b91506145658261452b565b915061457182866144d1565b915061457c8261452b565b915061458882856144d1565b91506145938261452b565b915061459f82846144d1565b915081905095945050505050565b7f4e487b7100000000000000000000000000000000000000000000000000000000600052601260045260246000fd5b60006145e782613e82565b91506145f283613e82565b925082614602576146016145ad565b5b828206905092915050565b7f4e487b7100000000000000000000000000000000000000000000000000000000600052603260045260246000fd5b7f4e487b7100000000000000000000000000000000000000000000000000000000600052601160045260246000fd5b600061467682613e82565b915061468183613e82565b92508282039050818111156146995761469861463c565b5b92915050565b60006146aa82613e82565b91506146b583613e82565b92508282019050808211156146cd576146cc61463c565b5b92915050565b7f46756e6374696f6e206d7573742062652063616c6c6564207468726f7567682060008201527f64656c656761746563616c6c0000000000000000000000000000000000000000602082015250565b600061472f602c83613a8d565b915061473a826146d3565b604082019050919050565b6000602082019050818103600083015261475e81614722565b9050919050565b7f46756e6374696f6e206d7573742062652063616c6c6564207468726f7567682060008201527f6163746976652070726f78790000000000000000000000000000000000000000602082015250565b60006147c1602c83613a8d565b91506147cc82614765565b604082019050919050565b600060208201905081810360008301526147f0816147b4565b9050919050565b7f746172676574206973206c6f6e676572207468616e2064617461000000000000600082015250565b600061482d601a83613a8d565b9150614838826147f7565b602082019050919050565b6000602082019050818103600083015261485c81614820565b9050919050565b600061486e82613e82565b91507fffffffffffffffffffffffffffffffffffffffffffffffffffffffffffffffff82036148a05761489f61463c565b5b600182019050919050565b7f4e487b7100000000000000000000000000000000000000000000000000000000600052602260045260246000fd5b600060028204905060018216806148f257607f821691505b602082108103614905576149046148ab565b5b50919050565b6000614916826135a6565b9150614921836135a6565b9250828203905063ffffffff81111561493d5761493c61463c565b5b92915050565b600061494e826135a6565b9150614959836135a6565b9250828201905063ffffffff8111156149755761497461463c565b5b92915050565b600080fd5b600080fd5b600080fd5b6000823560016040038336030381126149a6576149a561497b565b5b80830191505092915050565b600081356149bf81613887565b80915050919050565b60008160001b9050919050565b600073ffffffffffffffffffffffffffffffffffffffff6149f5846149c8565b9350801983169250808416831791505092915050565b6000819050919050565b6000614a30614a2b614a2684613697565b614a0b565b613697565b9050919050565b6000614a4282614a15565b9050919050565b6000614a5482614a37565b9050919050565b6000819050919050565b614a6e82614a49565b614a81614a7a82614a5b565b83546149d5565b8255505050565b60008083356001602003843603038112614aa557614aa461497b565b5b80840192508235915067ffffffffffffffff821115614ac757614ac6614980565b5b602083019250600182023603831315614ae357614ae2614985565b5b509250929050565b600082905092915050565b60008190508160005260206000209050919050565b60006020601f8301049050919050565b600082821b905092915050565b600060088302614b587fffffffffffffffffffffffffffffffffffffffffffffffffffffffffffffffff82614b1b565b614b628683614b1b565b95508019841693508086168417925050509392505050565b6000614b95614b90614b8b84613e82565b614a0b565b613e82565b9050919050565b6000819050919050565b614baf83614b7a565b614bc3614bbb82614b9c565b848454614b28565b825550505050565b600090565b614bd8614bcb565b614be3818484614ba6565b505050565b5b81811015614c0757614bfc600082614bd0565b600181019050614be9565b5050565b601f821115614c4c57614c1d81614af6565b614c2684614b0b565b81016020851015614c35578190505b614c49614c4185614b0b565b830182614be8565b50505b505050565b600082821c905092915050565b6000614c6f60001984600802614c51565b1980831691505092915050565b6000614c888383614c5e565b9150826002028217905092915050565b614ca28383614aeb565b67ffffffffffffffff811115614cbb57614cba6138ea565b5b614cc582546148da565b614cd0828285614c0b565b6000601f831160018114614cff5760008415614ced578287013590505b614cf78582614c7c565b865550614d5f565b601f198416614d0d86614af6565b60005b82811015614d3557848901358255600182019150602085019450602081019050614d10565b86831015614d525784890135614d4e601f891682614c5e565b8355505b6001600288020188555050505b50505050505050565b614d73838383614c98565b505050565b600081016000830180614d8a816149b2565b9050614d968184614a65565b5050506001810160208301614dab8185614a88565b614db6818386614d68565b505050505050565b614dc88282614d78565b5050565b60008160001c9050919050565b600063ffffffff82169050919050565b6000614dfc614df783614dcc565b614dd9565b9050919050565b60008160201c9050919050565b6000614e23614e1e83614e03565b614dd9565b9050919050565b60008160401c9050919050565b6000614e4a614e4583614e2a565b614dd9565b9050919050565b600081549050919050565b60008190508160005260206000209050919050565b600073ffffffffffffffffffffffffffffffffffffffff82169050919050565b6000614ea4614e9f83614dcc565b614e71565b9050919050565b60008154614eb8816148da565b614ec281866136e3565b94506001821660008114614edd5760018114614ef357614f26565b60ff198316865281151560200286019350614f26565b614efc85614af6565b60005b83811015614f1e57815481890152600182019150602081019050614eff565b808801955050505b50505092915050565b6000604083016000808401549050614f4681614e91565b614f5360008701826136c9565b50600184018583036020870152614f6a8382614eab565b925050819250505092915050565b6000614f848383614f2f565b905092915050565b6000600282019050919050565b6000614fa482614e51565b614fae8185613b35565b935083602082028501614fc085614e5c565b8060005b85811015614ffb57848403895281614fdc8582614f78565b9450614fe783614f8c565b925060208a01995050600181019050614fc4565b50829750879550505050505092915050565b600060ff82169050919050565b600061502d61502883614dcc565b61500d565b9050919050565b600060a08301600080840154905061504b81614de9565b6150586000870182613b26565b5061506281614e10565b61506f6020870182613b26565b5061507981614e37565b6150866040870182613b26565b5060018401858303606087015261509d8382614f99565b925050600284015490506150b08161501a565b6150bd6080870182613bc8565b50819250505092915050565b600060208201905081810360008301526150e38184615034565b905092915050565b7f555550535570677261646561626c653a206d757374206e6f742062652063616c60008201527f6c6564207468726f7567682064656c656761746563616c6c0000000000000000602082015250565b6000615147603883613a8d565b9150615152826150eb565b604082019050919050565b600060208201905081810360008301526151768161513a565b9050919050565b60008160601b9050919050565b60006151958261517d565b9050919050565b60006151a78261518a565b9050919050565b6151bf6151ba826136b7565b61519c565b82525050565b6000819050919050565b6151e06151db82613e82565b6151c5565b82525050565b60006151f282856151ae565b60148201915061520282846151cf565b6020820191508190509392505050565b7f4461707020416c72656164792045786973747300000000000000000000000000600082015250565b6000615248601383613a8d565b915061525382615212565b602082019050919050565b600060208201905081810360008301526152778161523b565b9050919050565b7f4e6f2072652d656e7472616e6379000000000000000000000000000000000000600082015250565b60006152b4600e83613a8d565b91506152bf8261527e565b602082019050919050565b600060208201905081810360008301526152e3816152a7565b9050919050565b6152f381613e82565b82525050565b600060408201905061530e60008301856152ea565b61531b60208301846152ea565b9392505050565b7f44617070204e6f74204372656174656400000000000000000000000000000000600082015250565b6000615358601083613a8d565b915061536382615322565b602082019050919050565b600060208201905081810360008301526153878161534b565b9050919050565b82818337505050565b6153a4610100838361538e565b5050565b60006101a0820190506153be60008301896152ea565b6153cb60208301886152ea565b6153d860408301876152ea565b6153e560608301866152ea565b6153f260808301856152ea565b6153ff60a0830184615397565b979650505050505050565b7f4e6f207369676e61747572657300000000000000000000000000000000000000600082015250565b6000615440600d83613a8d565b915061544b8261540a565b602082019050919050565b6000602082019050818103600083015261546f81615433565b9050919050565b7f4e756d626572206f66207369676e617475726573206e6f7420657175616c207460008201527f6f206e756d626572206f66207769746e65737365730000000000000000000000602082015250565b60006154d2603583613a8d565b91506154dd82615476565b604082019050919050565b60006020820190508181036000830152615501816154c5565b9050919050565b7f4475706c696361746564205369676e61747572657320466f756e640000000000600082015250565b600061553e601b83613a8d565b915061554982615508565b602082019050919050565b6000602082019050818103600083015261556d81615531565b9050919050565b7f5369676e6174757265206e6f7420617070726f70726961746500000000000000600082015250565b60006155aa601983613a8d565b91506155b582615574565b602082019050919050565b600060208201905081810360008301526155d98161559d565b9050919050565b7f496e697469616c697a61626c653a20636f6e747261637420697320616c72656160008201527f647920696e697469616c697a6564000000000000000000000000000000000000602082015250565b600061563c602e83613a8d565b9150615647826155e0565b604082019050919050565b6000602082019050818103600083015261566b8161562f565b9050919050565b6000819050919050565b600061569761569261568d84615672565b614a0b565b613bbb565b9050919050565b6156a78161567c565b82525050565b60006020820190506156c2600083018461569e565b92915050565b60006060820190506156dd60008301866152ea565b6156ea60208301856152ea565b6156f760408301846143b0565b949350505050565b600061570b82846144d1565b915081905092915050565b7f4f776e61626c653a206e6577206f776e657220697320746865207a65726f206160008201527f6464726573730000000000000000000000000000000000000000000000000000602082015250565b6000615772602683613a8d565b915061577d82615716565b604082019050919050565b600060208201905081810360008301526157a181615765565b9050919050565b60006157b382613e82565b91506157be83613e82565b92508282026157cc81613e82565b915082820484148315176157e3576157e261463c565b5b5092915050565b60006157f582613e82565b915061580083613e82565b9250826158105761580f6145ad565b5b828204905092915050565b7f3078000000000000000000000000000000000000000000000000000000000000600082015250565b60006158516002836144c6565b915061585c8261581b565b600282019050919050565b600081519050919050565b600081905092915050565b600061588882615867565b6158928185615872565b93506158a28185602086016136f4565b80840191505092915050565b60006158b982615844565b91506158c5828461587d565b915081905092915050565b60006158db82613bbb565b91506158e683613bbb565b9250828201905060ff8111156158ff576158fe61463c565b5b92915050565b7f4f6666736574202b2034206d7573742062652077697468696e2064617461206260008201527f6f756e6473000000000000000000000000000000000000000000000000000000602082015250565b6000615961602583613a8d565b915061596c82615905565b604082019050919050565b6000602082019050818103600083015261599081615954565b9050919050565b6000815190506159a6816135ec565b92915050565b6000602082840312156159c2576159c161359c565b5b60006159d084828501615997565b91505092915050565b7f45524331393637557067726164653a206e657720696d706c656d656e7461746960008201527f6f6e206973206e6f742055555053000000000000000000000000000000000000602082015250565b6000615a35602e83613a8d565b9150615a40826159d9565b604082019050919050565b60006020820190508181036000830152615a6481615a28565b9050919050565b7f45524331393637557067726164653a20756e737570706f727465642070726f7860008201527f6961626c65555549440000000000000000000000000000000000000000000000602082015250565b6000615ac7602983613a8d565b9150615ad282615a6b565b604082019050919050565b60006020820190508181036000830152615af681615aba565b9050919050565b7f4f776e61626c653a2063616c6c6572206973206e6f7420746865206f776e6572600082015250565b6000615b33602083613a8d565b9150615b3e82615afd565b602082019050919050565b60006020820190508181036000830152615b6281615b26565b9050919050565b6000615b7582866144d1565b9150615b8182856144d1565b9150615b8d82846144d1565b9150819050949350505050565b6000615ba682866144d1565b9150615bb18261452b565b9150615bbd82856144d1565b9150615bc88261452b565b9150615bd482846144d1565b9150819050949350505050565b7f496e697469616c697a61626c653a20636f6e7472616374206973206e6f74206960008201527f6e697469616c697a696e67000000000000000000000000000000000000000000602082015250565b6000615c3d602b83613a8d565b9150615c4882615be1565b604082019050919050565b60006020820190508181036000830152615c6c81615c30565b9050919050565b7f455243313936373a206e657720696d706c656d656e746174696f6e206973206e60008201527f6f74206120636f6e747261637400000000000000000000000000000000000000602082015250565b6000615ccf602d83613a8d565b9150615cda82615c73565b604082019050919050565b60006020820190508181036000830152615cfe81615cc2565b9050919050565b7f19457468657265756d205369676e6564204d6573736167653a0a000000000000600082015250565b6000615d3b601a836144c6565b9150615d4682615d05565b601a82019050919050565b6000615d5c82615d2e565b9150615d6882856144d1565b9150615d74828461587d565b91508190509392505050565b60008160011c9050919050565b6000808291508390505b6001851115615dd757808604811115615db357615db261463c565b5b6001851615615dc25780820291505b8081029050615dd085615d80565b9450615d97565b94509492505050565b600082615df05760019050615eac565b81615dfe5760009050615eac565b8160018114615e145760028114615e1e57615e4d565b6001915050615eac565b60ff841115615e3057615e2f61463c565b5b8360020a915084821115615e4757615e4661463c565b5b50615eac565b5060208310610133831016604e8410600b8410161715615e825782820a905083811115615e7d57615e7c61463c565b5b615eac565b615e8f8484846001615d8d565b92509050818404811115615ea657615ea561463c565b5b81810290505b9392505050565b6000615ebe82613e82565b9150615ec983613e82565b9250615ef67fffffffffffffffffffffffffffffffffffffffffffffffffffffffffffffffff8484615de0565b905092915050565b6000615f0982613bbb565b9150615f1483613bbb565b925082615f2457615f236145ad565b5b828204905092915050565b6000615f3a82613bbb565b9150615f4583613bbb565b9250828202615f5381613bbb565b9150808214615f6557615f6461463c565b5b5092915050565b6000615f7782613bbb565b9150615f8283613bbb565b9250828203905060ff811115615f9b57615f9a61463c565b5b92915050565b6000615fad828461587d565b915081905092915050565b7f4e487b7100000000000000000000000000000000000000000000000000000000600052602160045260246000fd5b7f45434453413a20696e76616c6964207369676e61747572650000000000000000600082015250565b600061601d601883613a8d565b915061602882615fe7565b602082019050919050565b6000602082019050818103600083015261604c81616010565b9050919050565b7f45434453413a20696e76616c6964207369676e6174757265206c656e67746800600082015250565b6000616089601f83613a8d565b915061609482616053565b602082019050919050565b600060208201905081810360008301526160b88161607c565b9050919050565b7f45434453413a20696e76616c6964207369676e6174757265202773272076616c60008201527f7565000000000000000000000000000000000000000000000000000000000000602082015250565b600061611b602283613a8d565b9150616126826160bf565b604082019050919050565b6000602082019050818103600083015261614a8161610e565b9050919050565b7f416464726573733a2063616c6c20746f206e6f6e2d636f6e7472616374000000600082015250565b6000616187601d83613a8d565b915061619282616151565b602082019050919050565b600060208201905081810360008301526161b68161617a565b9050919050565b60006080820190506161d26000830187613e58565b6161df60208301866143da565b6161ec6040830185613e58565b6161f96060830184613e58565b9594505050505056fe416464726573733a206c6f772d6c6576656c2064656c65676174652063616c6c206661696c6564a26469706673582212202d933d48cd4097efda9e22a5ea4554c98891c65950d8f2e5c9c2c16b2b45a7ce64736f6c634300081b0033",
    "linkReferences": {},
    "deployedLinkReferences": {}
}